:020000021000EC
:1000000028B81160E54D0160F14D0160E14D0160DE
:10001000E14D0160E14D0160E14D01600000000033
:10002000000000000000000000000000613B0160D3
:10003000E14D016000000000013B0160E14D016005
:10004000E14D0160E14D0160E14D0160E14D016074
:10005000E14D0160E14D0160E14D0160E14D016064
:10006000E14D0160E14D0160E14D0160E14D016054
:10007000E14D0160E14D0160E14D0160E14D016044
:10008000E14D0160E14D0160E14D0160E14D016034
:10009000E14D0160E14D0160E14D0160E14D016024
:1000A000E14D0160E14D0160E14D0160E14D016014
:1000B000E14D0160E14D0160E14D0160E14D016004
:1000C000E14D0160E14D0160E14D0160E14D0160F4
:1000D000E14D0160E14D0160E14D0160E14D0160E4
:1000E000E14D0160E14D0160E14D0160E14D0160D4
:1000F000E14D0160E14D0160E14D0160E14D0160C4
:10010000754B0160E14D0160E14D0160E14D016021
:10011000E14D0160E14D0160E14D0160E14D0160A3
:10012000E14D0160E14D0160E14D0160E14D016093
:10013000E14D0160E14D0160E14D0160E14D016083
:10014000E14D0160E14D0160E14D0160E14D016073
:10015000E14D016049450160E14D0160E14D016003
:10016000E14D0160E14D0160E14D0160E14D016053
:10017000E14D0160E14D0160E14D0160E14D016043
:10018000E14D0160E14D0160E14D0160E14D016033
:10019000E14D0160E14D0160E14D0160E14D016023
:10065000E14D0160E14D0160DD420160094301604F
:100660004D420160C54101607D420160E14D016084
:10067000E14D0160E14D0160E14D0160E14D01603E
:10068000E14D0160E14D0160E14D0160E14D01602E
:10069000E14D0160E14D0160E14D0160E14D01601E
:1006A000E14D0160E14D0160E14D0160E14D01600E
:1006B000E14D0160E14D0160E14D0160E14D0160FE
:1006C000E14D0160E14D0160E14D0160E14D0160EE
:1006D000E14D0160E14D0160E14D0160E14D0160DE
:1006E000E14D0160E14D0160E14D0160E14D0160CE
:1006F000E14D0160E14D0160E14D0160E14D0160BE
:10070000E14D0160E14D0160E14D0160E14D0160AD
:10071000E14D0160E14D0160E14D0160E14D01609D
:10072000E14D0160E14D0160E14D0160E14D01608D
:10073000E14D0160E14D0160E14D0160E14D01607D
:10074000E14D0160E14D0160E14D0160E14D01606D
:10075000E14D0160E14D0160E14D0160E14D01605D
:10076000E14D0160E14D0160E14D0160E14D01604D
:10077000E14D0160E14D0160E14D0160E14D01603D
:10078000E14D0160E14D0160E14D0160E14D01602D
:10079000E14D0160E14D0160E14D0160E14D01601D
:1007A000E14D0160E14D0160E14D0160E14D01600D
:1007B000E14D0160E14D0160E14D0160E14D0160FD
:020000020000FC
:020000041001E9
:10FF800000FAEF7229F5EF7235F5EF7225F5EF7291
:10FF900025F5EF7225F5EF7225F5EF7231F5EF7269
:10FFA00000000000000000000000000025F5EF72D6
:10FFB00025F5EF720000000025F5EF7225F5EF72D0
:02000004600199
:10000000F0B585B0066801F081FA00283DD131468F
:10001000304603AA00F024FF054670BB1F4F0EE0D8
:100020003246039901F058F8384601F05DFA03981A
:10003000214600F07FFF42F2107006F025F9002300
:10004000012219460398009500F080FE044600281E
:10005000E6D1134801F048FA124B1A78052A04D960
:100060005B6813B1062010499847039800F086FF9B
:10007000002005F0EDFE05B0F0BD0C4801F034FAAB
:10008000002005F0E5FE05B0F0BD094801F02CFAAE
:10009000002005F0DDFE05B0F0BD00BF2C90016032
:1000A000DC8F0160000C116008900160B08F01606E
:1000B000848F01602DE9F04700274FF00308174CAB
:1000C000174E184D23880BB300204FF0010C6368C6
:1000D00033F810300130190A36F81190DBB24A5D5E
:1000E0004FEA430E0CFA03FA22EA0A0208FA0EFE5D
:1000F00007FA03F313434EEA090EDBB21FFA8EF23E
:1001000026F811204B5523888342E0D83220C7F1CE
:100110000107FFB206F0B8F8D4E700BF309E0160D7
:100120002001034110000341022800D0704702491A
:10013000024804F039BC00BF9C9001607006116059
:100140002DE9F04F00248DB01646DDE916359DF8F7
:1001500068209DF860C0A24214BF30272027BCF160
:10016000010F019780468B46CDE90644CDE908444E
:10017000CDE90A44199F9DF86C9000F0CF80BCF146
:10018000040F00F0B68053EA050141D13023012F5E
:100190008DF8183040F3CB80012531680394029428
:1001A0006FF0004A5C4693460EE0B8F1000F05D0B0
:1001B0008C4203D9019B08F801303168013131606C
:1001C000013FAF420FDD31685145F9D2B9F1010F5E
:1001D000EBD84846019901F035F93268013F013208
:1001E000AF423260EFDC5A46A346DDE90243002B02
:1001F00000F0FF802AB96FF0004133688B421A4645
:1002000068D3002C00F0BB80336806AA029292E00B
:100210000394ACF1020A0DF1180E0020CDE9048B15
:1002200076495FFA8AFACDF808E02BE05C1944F1D0
:100230000004A1FB048B2BF0030808EB9B08A4EB44
:1002400008041B1B65F100084FF0CC3505FB03F5D6
:1002500001FB0855A3FB01831D44052308F0010B96
:10026000ABFB033B1B194FEA580830335CB248EA3A
:10027000C5736D0853EA05080EF8014B00F101043F
:1002800019D02046BAF1010F03F00F04CED8BCF10B
:10029000020F0CBFDFF86881DFF868811B0918F9CD
:1002A000044043EA05732D0953EA05080EF8014B93
:1002B00000F10104E5D1DDE9048B039B002B68D03C
:1002C000851C02BBBD425DDB6FF0004133688B4291
:1002D0001A469AD2B9F1010F77D9B8F1000F05D0BB
:1002E0009B4503D92D2208F8032032680132326081
:1002F00087E753EA050149D13023022501248DF80F
:100300001830002ADED06FF000403368834219466F
:1003100043D3BD42BFF679AF039240E7A542BFF693
:1003200032AF5B4265EB4505CDF80CC071E70124A7
:1003300006AA33680292029D013C6FF000472544F3
:100340000DE0B8F1000F04D09B4584BF08F80310FE
:10035000336801333360013D8CB13368013CBB42EB
:10036000F9D2B9F1010F95F90010EAD8484601F029
:1003700069F83368013D01333360002CEDD10DB0D5
:10038000BDE8F08F01233168039308E70121039151
:100390003FE7BC4215DB3368CDE7B9F1010F1AD94D
:1003A000B8F1000F05D09B4503D92D2308F8013083
:1003B00031680131BD423160AEDB06AA0B460292C4
:1003C000B9E7254631680446E9E62D21484601F0A3
:1003D00039F832688AE72D214846029201F032F856
:1003E0003368BD4203F101031946029A336093DB7F
:1003F0000BE706AA2C46336802929CE7CDCCCCCC06
:100400008C9001607C9001602DE9F04F002693B044
:100410009DF87040934607941196002A00F08C8056
:10042000B1428E46C0F2848084469A4640F088806D
:1004300092F90010084600297BD001260024E046EE
:100440000C96CDF820E0252940F0BF80621C1BF9F6
:1004500002900BEB0203B9F12D0F00F0CD80A9F152
:100460002001C9B20B2900F22F8140F60907CF40C5
:1004700017F0010740F0C080B9F12A0F144640F090
:10048000338100252F4601341BF904900AF1040A38
:10049000B9F12E0F00F0D7806FF000410991B9F14A
:1004A000680F00F0F580B9F16C0F00F0FF80A9F142
:1004B0004C01C9B22E2988BF00204CD9A9F14601B0
:1004C000322900F21C81DFE811F0340134011A01F5
:1004D0001A011A011A011A011A011A011A011A0144
:1004E0001A011A011A011A011A011A011A01C50189
:1004F0001A011A011A011A011A011A011A011A0124
:100500001A011A014A021A011A01340134011A01AE
:1005100050001A011A011A011A011A011A011F02C8
:100520001A011A01EE011A01C5011A011A01C501C9
:10053000304613B0BDE8F08F104613B0BDE8F08F21
:1005400001F1FF3E92F9001000297FF477AF0028F7
:10055000EFD0084634E3BD48405C00F00F010C4486
:100560001BF90490B9F1640FA8D1822840F01D83D3
:100570000AF1070A2AF0070ADAF804305AF8082BB9
:10058000CDE90023079B404605930123CDE903579E
:1005900002931C44089911AAFFF7D2FD0BEB040348
:1005A00093F9001000297FF44EAFC4460C9EDDF88D
:1005B00020E01198B8F1000FBBD0002EB9D17045E2
:1005C00040F2FD8208F80E60B3E76FF00043119D22
:1005D0009D420DD2079B012B40F28880B8F1000F9D
:1005E00004D0089B9D4238BF08F8051001351195CD
:1005F00001340BEB0403D3E702341BF90490B9F187
:100600002A0F3FF43EAFB9F1300F61D00027A9F1B6
:100610003001C8B2092800F2668300255C442646F2
:1006200014F9019F49B205EB850501EB4505A9F1D8
:100630003001C8B20928F2D9CBF10104B9F12E0F6B
:1006400034447FF429AF661C1BF906900BEB0600BF
:10065000B9F12A0F00F09F81A9F13001CCB2092C29
:1006600000F212830026844610F9019F49B206EB7E
:10067000860601EB4606A9F13001CCB2092CF2D96D
:10068000CBF10104B9F1680F099664447FF40BAF14
:10069000611C1BF90190B9F1680F00F08381B9F179
:1006A000640F0C4600F07B82112007E7611C1BF9E8
:1006B0000190B9F16C0F00F0EF81B9F1640F0C46B5
:1006C00000F0C6822120F9E6B9F1300F14469DD121
:1006D0005C44214614F9019FB9F1300FF9D0CBF1F8
:1006E000010401270C4492E73D46D1E61846013447
:1006F000013500F0A7FE11950BEB040350E76FF0F6
:100700000041119D8D420ED20799012940F2C0820D
:10071000B8F1000F05D008998D423CBF252108F89B
:10072000051001351195B9F1250F3FF461AF14465D
:1007300036E70AF1070A2AF0070AFAE80223104608
:100740001946CDE90A2308F079FA6FF00043099AB7
:1007500081469A420E460D9100F036821346002AD9
:1007600000F036820133ED1A25EAE575334659EA81
:10077000030308D1DDE90A010022002308F036FA5C
:10078000002840F06B82079BCDE9035705930123B6
:1007900011AF3A4640460899CDF800900196029371
:1007A000FFF7CEFC099B002B3FF422AF6FF0004314
:1007B000119D9D420ED2079B012B40F29782B8F10A
:1007C000000F05D0089B9D423CBF2E2308F8053042
:1007D00001351195DDE90A560022002328463146ED
:1007E00008F004FA002840F02082DDE90A0108F050
:1007F0003DFA8946054608F063F902460B46DDE9F5
:100800000A0107F0DBFF02460B46CDE90A2300226E
:100810000F4B4E4608F008FA002840F0FC810135E5
:1008200049F100031E46099B3A460393079B404645
:1008300005930123049300230899029300950196E0
:100840000134FFF77DFC0BEB0403A9E64C9001603B
:100850000000E0BF822800F0958151285AF8043B3F
:1008600000F01082722800F0F181112800F0078258
:100870000022CDE90032079BB9F1750FCDE903578E
:10088000059304F1010400F0E681B9F1580F0CBFA3
:100890000323022302934046089911AAFFF750FC54
:1008A0000BEB04037CE6534653F8049B99F90010C4
:1008B00000296BD0099A002A68D0099E0A944F46F5
:1008C00044466FF0004ADDF81C80099310E01CB12B
:1008D000089B9D4238BF61550135119517F9011FDD
:1008E000F51B002900F0578119EB050F00F053812B
:1008F000119D5545F2D2B8F1010FE8D840460135B7
:1009000000F0A0FD1195E9E76FF00047119D5AF83E
:10091000046BBD4217D2079B012B40F2C481B8F192
:10092000000F00F08B81089B9D4280F0D681302320
:1009300008F805300135089B9D423CBF782308F834
:10094000053001351195079B03220593002300967E
:10095000F617CDE903330196013402929BE76FF05D
:100960000042119D0AF1040395420FD2079A9AF9A9
:100970000010012A40F2A781B8F1000F04D0089AB4
:10098000954238BF08F805100135119501349A4693
:100990000BEB040304E65AF8041B02341BF9049021
:1009A00009917CE502341BF90490B9F1640F6DD014
:1009B000A9F1460132293FF6A2AE01A050F821F07C
:1009C0003307016033070160FF060160FF06016025
:1009D000FF060160FF060160FF060160FF0601607F
:1009E000FF060160FF060160FF060160FF0601606F
:1009F000FF060160FF060160FF060160FF0601605F
:100A0000FF060160FF060160490C0160FF060160FE
:100A1000FF060160FF060160FF060160FF0601603E
:100A2000FF060160FF060160FF060160FF0601602E
:100A3000FF0601605F090160FF060160FF060160BB
:100A40003307016033070160FF0601608D0A016012
:100A5000FF060160FF060160FF060160FF060160FE
:100A6000FF060160FF06016009090160FF060160E1
:100A7000FF060160A7080160FF060160490C0160E4
:100A8000FF060160FF060160490C01605AF8043B53
:100A90005AB243F3C01373E502341BF90490B9F161
:100AA000640F3FF465ADA9F1460132293FF627AE48
:100AB00001A050F821F000BF330701603307016047
:100AC000FF060160FF060160FF060160FF0601608E
:100AD000FF060160FF060160FF060160FF0601607E
:100AE000FF060160FF060160FF060160FF0601606E
:100AF000FF060160FF060160FF060160FF0601605E
:100B0000850B0160FF060160FF060160FF060160C2
:100B1000FF060160FF060160FF060160FF0601603D
:100B2000FF060160FF060160FF0601605F090160CA
:100B3000FF060160FF0601603307016033070160B3
:100B4000FF06016071050160FF060160FF0601609C
:100B5000FF060160FF060160FF060160FF060160FD
:100B600009090160FF060160FF060160A708016036
:100B7000FF060160850B0160FF060160FF06016052
:100B8000850B01600AF1070A2AF0070ADAF8042047
:100B90005AF8083B6DE6A046099B0A9CF6E65AF80F
:100BA000043B1AB243F3C033EAE411285AF8043B79
:100BB000F7D072283FF46CAF1A46DB17E0E48444A8
:100BC00000238CF80030B4E4062207230992CAE51A
:100BD0000D9907F07DFF02460B46DDE90A0107F09B
:100BE000EDFD02460B46CDE90A230022434B08F0F7
:100BF0001BF840B1DDE90A010022414B07F0F6FF86
:100C000000287FF4B3AD19F1010399460D9B43F120
:100C100000031E46AAE50022DDE90A01384B07F071
:100C2000E5FF00287FF4FFADF9E506F100430E95DE
:100C30000F93DDE90E23CDE90A23D6E50135BD4248
:100C400011957FF47EAE7EE65AF8043BDBB20FE6E8
:100C50005AF8043BB0E7002302931CE6079BCDE95A
:100C60000357002600250593042311AF3A4640465A
:100C7000CDE9005608990293FFF762FA92E5002247
:100C80009BB2F6E5DA17F4E500213446099106E453
:100C9000252107980135CDE9092300F0D3FBDDE9D3
:100CA000092311953FE51846302100F0CBFB6B1C62
:100CB000BB4211933FF447AE78210798023500F00C
:100CC000C1FB11953FE61046013401359A4600F00C
:100CD000B9FB11950BEB040362E40135BD4211959C
:100CE0007FF429AE2FE60025FFF7D2BB2E21184650
:100CF000013500F0A7FB11956CE500BF0000E0BFD7
:100D00000000E03F2DE9F04104460E4FDFF8388047
:100D1000466B00F1180533684FF0FF3107EB830392
:100D2000586A04F0C9FDA369AB42F4D04FF0FF311B
:100D3000204601F0CFFD01460028ECD0404600F0EF
:100D4000D3FBE8E7B0011160B49001602DE9F043F6
:100D5000054683B07820884616461F46D5F834905D
:100D600004F0B6F8002856D078220021044605F099
:100D7000B3FE304800F0B8FB32463B4641462846B9
:100D800001F0D2FC064600284CD0D9F80830D3F840
:100D90009C305B68002B42D01968284601F090FB1C
:100DA0000746002842D0244800F09EFB234A3146E3
:100DB00000923B4620460A9A01F000FA014600BB29
:100DC0006E6B0120376804F0FFFA0422316800924C
:100DD0001B4A2B4602EB810201921A4A1A4902EB86
:100DE000870250624FF48062184805F001F801282C
:100DF00003D1204603B0BDE8F083154800F074FB32
:100E0000F7E7144800F070FB2846314601F046FD34
:100E1000204604F0FDF8002003B0BDE8F0834FF059
:100E2000FF31BAE70C4800F05FFBEDE70B4800F03C
:100E30005BFBE9E7E490016048910160C80511603F
:100E4000D4051160B00111607C910160050D016055
:100E50008C910160649101600091016024910160B6
:100E60002DE9F04182B0002A51D040EA0103012B64
:100E700005460E4647D80C20174604F029F80446CC
:100E800000283AD0D8224FF00008234B056002FB1F
:100E90000633C0F804808360382004F019F8054652
:100EA00040B34146382205F017FE224628461B492A
:100EB00001F0C8FAC0B1304601A900F065F9A36895
:100EC0000146DB682846019AEB6001F083FA06468A
:100ED00038B9134800F008FB3D60304602B0BDE869
:100EE000F081104800F000FB284601F0C7FA2846C0
:100EF00004F08EF8204604F08BF80B4800F0F4FA6A
:100F00006FF01506E9E7094800F0EEFAF8E708483F
:100F100000F0EAFAF4E700BF00001160BC021160C3
:100F20004C92016028920160749201600492016009
:100F3000C091016070B5466B0E4B3268054653F8A0
:100F400022000C4604F084FF002132680A4B08326C
:100F500003EB82035868596004F050FD204601F00D
:100F600025FA2846616E01F099FC2046BDE87040E4
:100F700004F04EB8D4051160B001116000283AD0D9
:100F800038B5456B044675B3AB68D3E922014160BF
:100F90000860186D03F18802C3F88820C3F88C201C
:100FA00010B102F0ADFAAB68D3E9340141600860DA
:100FB000D3F8980003F1D002C3F8D020C3F8D420AE
:100FC00010B102F09DFAAB68986803F14002D3E9D2
:100FD000105169600D601A645A6408B102F090FA09
:100FE000606B04F015F8204601F048FA2046BDE891
:100FF000384004F00DB8704710B5064C204600F09C
:10100000E1FE40220021204605F066FD0122024B50
:101010005A6010BD24061160DC05116010B5064C45
:10102000204600F0CFFE40220021204605F054FD6E
:101030000122024B1A6010BDE4051160DC0511604D
:1010400030B514460E4D0A680B46AA4283B00DD047
:10105000826A551C0ED000940124416A019400F06C
:10106000A3FD002806DB002003B030BD0122054BA4
:101070001A60F8E7044800F037FA4FF0FF30F3E762
:101080005AA556EFDC0511601893016030B514467F
:101090000E4D0A680B46AA4283B00DD0826A551CD9
:1010A0000ED000940124416A019400F07DFD0028D7
:1010B00006DB002003B030BD0122054B5A60F8E783
:1010C000044800F011FA4FF0FF30F3E75AA556EF4D
:1010D000DC0511601893016030B5014614464FF0ED
:1010E000FF3585B0DAB9174A174B1848CDE90132F8
:1010F00000952346164A00F0DFFDE0B9154800F0E0
:10110000F3F9154D002005F0BFF855F82430002BF9
:10111000F8D00023184645F8243005B030BD0F4AFA
:101120000F4B1048CDE90132009500230E4A00F024
:10113000C3FD0028E2D00D4800F0D6F94FF0FF3093
:10114000EBE700BF1D10016041100160E405116074
:101150003493016078930160DC051160F90F016040
:101160008D10016024061160689301604493016052
:1011700008B5E0220249034805F038FC08BD00BF6D
:10118000DC0111600000F0627023034AC0EBC00074
:1011900002EB00100B6070470000F062024608B5D9
:1011A000044B526B996818684B6811689847002087
:1011B00008BD00BF389501608368012B0ED8084A2E
:1011C00002EB8303586A40B100B583B001A904F073
:1011D0005BFA012003B05DF804FB70470020704704
:1011E000B0011160D0B170B5104C6369012B02DD04
:1011F000013B636170BDA568002DFBD0A86C02F0B7
:1012000099F80023A86C1A46194601F08DFF06468E
:1012100028B9284602F074F9666170BD704701462E
:10122000BDE87040024800F05FB900BFB001116036
:10123000909301602DE9F0470C4682B0064609689C
:10124000606801AA02F024F90546002837D1216818
:10125000294800F049F901988368A060002B39D033
:10126000036900F10C08C4F80C80002B3BD0276800
:10127000D3F80090D0F814A0002F32D020223946A5
:1012800004F11C0006F010F9C4F83C80C4F818A062
:10129000C4F81090C4F814904EB1726904F1400380
:1012A000626406F1100222647361626C1360394655
:1012B000124800F019F9284602B0BDE8F08702464E
:1012C00021680F4800F010F9A06820B9284602B044
:1012D000BDE8F087E56002F013F9284602B0BDE8EA
:1012E000F0872777D0E727684FF0FF39D0F814A0B0
:1012F000002FC3D1F5E700BFE493016008940160BB
:10130000B89301602DE9F041334B04469E6882B0EA
:101310000F46D3E9008133684046154698470023BD
:1013200040461A46B6682D49B047002C43D0002DE0
:1013300041D0002F3FD02A4E65637369676203BBBB
:10134000D6E9001001AA02F0A3F800283FD10198C5
:101350008368B060002B38D000F10C032148F360A3
:1013600000F0C2F87369B2685BB9976C1E492346F6
:10137000384601F0BBFD0146F8B9384601F0C8FF18
:101380007369A968013320467361FFF753FF78B989
:10139000A96820464831FFF74DFF48B9A9682046A3
:1013A0009031FFF747FF18B9204602B0BDE8F08141
:1013B000B06802F0A5F80020F7E70C4800F094F8B8
:1013C0000B4800F091F8B068F3E7F360F1E70146ED
:1013D000084800F089F8EEE738950160B91101601E
:1013E000B001116058940160DD440160789401609F
:1013F0009C940160309401600379DA0701D500BF45
:101400000379990701D500BF03795A0701D500BFB9
:101410000379190701D500BF0379DA0601D500BFAA
:101420000379990601D500BF03795A0601D500BF9B
:1014300003791B0602D50122014B1A60704700BFD9
:10144000E00211602DE9F043DFF88C90234ED9F8CB
:1014500000400D46B768D6F8008085B064B9716861
:101460003B6840469847234622464046BC691C4993
:10147000A0470123C9F800300A2D13D0194C0DF1F3
:101480000F018DF80F500025BB68404601222560F2
:10149000984723681BB930BF2368002BFBD005B0E9
:1014A000BDE8F0830D2300220E4C8DF80F300DF1B6
:1014B0000F01BB68226040460122019198472368D2
:1014C0000199002BDDD130BF2368002BFBD0B7681A
:1014D000D6F80080D5E700BF64061160589501601A
:1014E000F9130160E00211600FB4002000B585B06F
:1014F00006AB53F8042B6FF0004100900393FEF706
:1015000083FF05B05DF804EB04B0704730B583B0DD
:101510006C460B4B93E8030084E80300FFF728FEBA
:10152000204602F023F848B9064C04F5E47520463D
:1015300001F0FCFF4C3408B9AC42F8D103B030BD27
:10154000E8940160E402116010B5044600F080F8F0
:101550002046BDE81040FEF753BD00BF30B5012561
:101560000C480D4C036883B0591901944FF4806204
:1015700001600A4B0A490B48009504F039FCA84267
:1015800001D103B030BD0021206803B0BDE8304078
:1015900000F05CB8FC0B116068061160FC940160FF
:1015A000F09401604915016010B5044600F050F850
:1015B0002046BDE81040FEF77DBD00BF30B50125D7
:1015C0000C480D4C036883B05919019480220160C6
:1015D0000A4B0B490B48009504F00AFCA84201D1C4
:1015E00003B030BD0021206803B0BDE8304000F0FA
:1015F0002DB800BFFC0B11606C06116010950160E6
:1016000000950160A9150160704700BF70B5094DD4
:10161000094C2846236809499847002328461A465A
:10162000D4F828C00649E04728466368BDE8704002
:10163000184700BF78061160FC9D01601495016099
:10164000BD370160704700BFFFF7DEBF00BE7047C7
:1016500038B5164C4FF0FF31206804F02DF9012801
:1016600003D000212068FFF7F1FF114B1A7802B177
:1016700038BD01220F4D1A70FFF7E6FF2B68013BC2
:101680002B60002BF4D00023206819461A4603F083
:10169000C9FE0128F2D000212068FFF7D7FF2B6890
:1016A000013B2B60002BEED138BD00BFF40B116065
:1016B000F80B1160FC0B116008B500230D490E4AB0
:1016C0000E480B60137002F0CFF901214FF48070C7
:1016D0000B4A03F033FE0B4B186038B1FFF76EFF77
:1016E000FFF73CFF04F03AFC002008BD0146FFF77D
:1016F000ADFFF3E7FC0B1160F80B1160A4950160DE
:10170000AC0B1160F40B1160802330B4034D044C1A
:1017100005600C60136030BC704700BF4C0B11605B
:101720004C091160802330B4034D044C05600C60FB
:10173000136030BC704700BFEC081160EC0611600C
:101740002DE9F04F816A87B09142059250D3002A6B
:101750004AD0A3F10408109B05460024A3F1040914
:1017600002E0059BA3423FD0EB6A04EB4407AA6961
:10177000049303EBC70303F1040AF2B9D3F808C0DA
:10178000B3F80CE0586959680CF1FF3303EB0E1302
:101790000EF1030BCCF1000C066803EB4B0303EADC
:1017A0000C03D0F808C003EBCE03891B614528BFAA
:1017B0004FF0FF31063301F0B3FF049BA1B253F8A1
:1017C00037202B6A02921F6A59F8046F58F8042FC9
:1017D00053462846CDE9006700F00EF80134002892
:1017E000BFD007B0BDE8F08F002007B0BDE8F08F94
:1017F0000048F6E740F4FFFF30B4049C039DC4E9C1
:1018000000022181029A19892261D3E90002C4E908
:1018100005518B1C00EB011502F1010C05EB430394
:10182000634452421340012961812185E0612562B0
:1018300063620AD902460123D38101338B4202F14C
:101840001002F9D14B1E00EB03104FF40042E36885
:10185000C2819B0708D5638E05EB41055B1A013BEE
:101860000020AB8030BC70472B88002043F0010380
:101870002B8030BC704700BF2DE9F04F048E85B03F
:1018800002EB03080E9F00EBC4031FFA88F59F6369
:101890009D87B8F1000F0646C06962DD08F1FF3789
:1018A0000023A646CDE90254019701F104091CE08A
:1018B0002D695BF827702C403C44002540F80C4013
:1018C00059F83340CEE90154019CA342ACBF002437
:1018D00001249A4203F10103D8BF44F00204984561
:1018E000AEF80C40BEF80EE01FD0F56A51F8334058
:1018F0002F68D5F808A0E41B544528BF4FF0FF34EB
:10190000EF68D5F804B01F2F4FEA0E1C88BF0027E0
:1019100000EB0E1E98BF24FA07F7BBF1000F01D0B1
:10192000A245C5D24FF0FF34C7E7DDE90254338D3D
:10193000326A5B1B338573895188013B0B4002EB94
:101940004302A6F830E09480BFF35B8F0020316A39
:10195000738D4A88013301324A80738505B0BDE832
:10196000F08FA646E3E700BF00284AD0436A2DE97E
:10197000F041458E5C88AC4240D06C1C4486448962
:10198000BFF35B8F013C254003EBC5035C68A6B247
:1019900009B19B680B60A3B200EBC304A18FB0F840
:1019A00028C0C7698C4407EB0313A0F828C0B3F81C
:1019B0000CC001F1FF3E1CF0040FA4F83CE013D171
:1019C0001CF0010F10D0023989B2DB8901F1FF3E12
:1019D00007EB0313B3F80CC088461CF0010F1FFA85
:1019E0008EF1F2D1A4F83C800021078EDF810686BB
:1019F000A06BA16302B11580BDE8F0810020BDE8B5
:101A0000F08170472DE9F043BFF35B8F056A838E49
:101A10006C889C4246D04489013C1C4005EB44053F
:101A20000133AC888386C369C06A03EB0418066976
:101A30000C8021014468751C5F5808BF2368C56885
:101A40000CBFFB1A07EA060306F1010E08E054F882
:101A50002CC061448F4214D0816873448B421ED2E3
:101A60001F2D8CBF4FF0000C23FA05FC06EA030182
:101A70001CB1D0F808904B45E9D94FF0FF318F42A7
:101A8000EAD101684C1C08D08068984205D3C81878
:101A9000D8F808301360BDE8F0830020F8E74FF075
:101AA000FF33EEE70020BDE8F08300BF43898B429F
:101AB00015D38446406A00B5B0F802E0013B03EA62
:101AC0000E0300EBC303C3E90112BFF35B8FDCF825
:101AD000242000205388013353805DF804FB014823
:101AE000704700BF41F4FFFF10B5BFF35B8FC368C1
:101AF00004469A070AD4436A1B88DB0703D4636948
:101B00000BB1204698470023638510BD8169D0E959
:101B100008325B8802EBC1025268013B9B1A428D7E
:101B20009BB29A42EFD96369002BEAD1EBE700BF81
:101B3000036A828E598891420CD0B0F80AC0C169FC
:101B40000CF1FF30024003EB42039B8801EB0313CF
:101B50009868704700207047BFF35B8F036903B13B
:101B600018477047F8B1436A00B55A1C11D0032BCF
:101B70000FDC4FF0010C026A4FEA531E483252F854
:101B80002E1003F01F030CFA03F321EA030142F8BD
:101B90002E1000F13403D0E90D124A601160436346
:101BA00083635DF804FB704770B4DDE9035660B1F0
:101BB000006A50B14BB1B2F1FF3F06D0046E24B1C0
:101BC000A446CDE9035670BC6047014870BC70471D
:101BD0002DF8FFFF30B504468DB0656A0B912022C9
:101BE000214602A80A9505F05FFC206A68B1046EE0
:101BF0005CB101222946282502ABCDE900523522ED
:101C0000A04700EAE0700DB030BD0148FBE700BF1F
:101C10002DF8FFFF2DE9F843046884422AD081465D
:101C20000F4616469846721CA4F1340526D16B6AFD
:101C3000013302D1AB6A434516D0C7B128462022F2
:101C4000394605F0F5FB90B9B8F1FF3F02D0AB6A19
:101C5000434509D0731C17D024684C45A4F13405C2
:101C600008D06B6A9E42E9D12846BDE8F883246813
:101C70004C45D8D100252846BDE8F8836B6AB342AD
:101C8000DBD12846BDE8F883AB6A0133ECD0246889
:101C90004C45EFD0A4F13405C9E700BF0346D3F8A3
:101CA00004C001F13402C1F838C00B624B635A60C2
:101CB0008B6B00201A6070472DE9F04200287CD021
:101CC0000E46994611460746012306F158054FF086
:101CD000010CD5E8CF4FC5E8C0CF0028F9D1E4B258
:101CE000002CF4D1B9F1FF3F50D0B9F1030F06F148
:101CF000480260DC4FEA591052F8204009F01F0CEE
:101D000024FA0CFE1EF0010F08D00024002206F178
:101D10005803C3E88F2F2046BDE8F08203FA0CF386
:101D2000234342F820302022384605F0BDFB069AB6
:101D300007F13403BA62079AC7F82490FA62089A46
:101D40003E623A637268C7E90D627360BA6B1360F2
:101D5000069B0133D9D1002206F15803C3E88F2F27
:101D600011463846FFF736FF4FF001020446D5E82A
:101D7000CF3FC5E8C12F0029F9D1DBB2002BF6D146
:101D8000002CC3D03846FFF7EDFEBFE7B06CC3436D
:101D900013F001030DD10133042B20FA03F2C2D05A
:101DA000D207F8D40122994602FA03F30343B3643D
:101DB000B9E7A146FAE7024CA8E7014CABE700BF40
:101DC0002DF8FFFF00B338B5D0E90853352B044692
:101DD00016D14FF0010105F15802D2E8CF3FC2E819
:101DE000CC1FBCF1000FF8D1DBB2002BF5D120469F
:101DF000FFF7B8FE002205F15803C3E88F2F38BD66
:101E00000121FFF7E7FEE4E7704700BF704700BF1E
:101E100038B5446E0D46A4699CB1012C02D0002453
:101E2000204638BD1346806E0A461946FFF7EAFD84
:101E30000446002CF3D02046296801F023F8204600
:101E400038BD806EFFF790FD0446F2E74FF00102C7
:101E50002DE9F041036886B05F6A07F15804D4E8C1
:101E6000CF3FC4E8C12F0029F9D1DBB2002BF6D156
:101E700038460DF10A0203A9FFF7CAFF0646002201
:101E800007F15803C3E88F2F002846D04FF0010513
:101E9000D4E8CF1FC4E8C35F002BF9D1C9B2002931
:101EA000F6D14FF0FF3338467268FFF7B3FE0023D8
:101EB000C4E88F3F002830D0836AC16B013304BF70
:101EC00033688362B289436A0091D0F82C8006F1AE
:101ED0001001C04720BBD4E8CF3FC4E8C25F002A4E
:101EE000F9D1DBB2002BF6D17B6EDDF80CC09A691C
:101EF000BDF80A10AAB1012A03D16246B86EFFF7F5
:101F0000D5FD38460DF10A0203A9FFF781FF064609
:101F10000023C4E88F3F0028BAD106B0BDE8F081A5
:101F2000FEE7B86E0123009604A9CDE9046CFFF723
:101F3000A3FCE6E72DE9F041076A282A064688B0A7
:101F4000386F31D10D4601688368691A994228BFFC
:101F50004FF0FF316A46202301F02AFB4FF0010EBB
:101F6000D5F8208007F1580CDCE8CF2FCCE8C4EF7F
:101F7000002CF9D1D2B2002AF6D143464FF0FF32FD
:101F800069463846FFF746FE6B6ADB0710D590B10D
:101F90004FF0FF338362002207F15803C3E88F2F0D
:101FA000036B0BB130469847002008B0BDE8F081C4
:101FB00050B1C0F82880002207F15803C3E88F2FE2
:101FC000002008B0BDE8F081002207F15803C3E803
:101FD0008F2FFB6D002BE7D0424669463846984765
:101FE000E2E700BF426803468A4208D3D3F808C03C
:101FF0000068ACEB020C521A60445A607047002033
:10200000704700BF2DE9F04F0646406E9246026AC7
:102010008DB012689B46DDE916790391904743071E
:1020200040F1C68040F2DC52B9F1000F18BF914672
:102030004FF0010506F15804D4E8CF2FC4E8C15F82
:102040000029F9D1D2B2002AF6D1726E92696AB132
:10205000012A35D00023C4E88F3FB9F1000F4ED0DC
:102060000A2004F011F909F1FF39E5E7B7F5F87F27
:10207000F0DCF06E0DF1120205A9FFF775FC804649
:10208000002854D0002206F15803C3E88F2F039B89
:10209000356F089300232968AA68A8EB01019142D3
:1020A00028BF4FF0FF310A932846102308AACDF825
:1020B00024A0ADF82C7001F0D9FA102824D0FEE746
:1020C000F06EFFF735FDA0F1100222EAE272BA428B
:1020D000C0DB726E9269002ACBD0012ABAD1F06EB1
:1020E00005AA0DF11201FFF78DFC80460023C4E81C
:1020F0008F3FB8F1000FCAD1B9F1000FB0D12D4F09
:1021000038460DB0BDE8F08FD5F800C0AB6808F1D7
:102110001001A1EB0C01994228BF4FF0FF315A4644
:1021200028463B4601F0A2FA874211D0FEE7F26E44
:10213000128D002A8ED04FF40071706FFFF752FF9E
:102140004FF40072059200228046ADF81220CDE7D0
:102150004FF00102D4E8CF3FC4E8C12F0029F9D1E4
:10216000DBB2002BF6D1736E05989A69BDF8121098
:102170008AB1012A08D0F06EFFF7B6FC002206F102
:102180005803C3E88F2FBBE70246F06EFFF78EFCC3
:102190000028F0D0FEE7CDF8008007900123F06E14
:1021A00006A9CDF81880FFF767FB0028F2D1E2E717
:1021B000014FA5E72EF8FFFF2CF8FFFF2DE9F041B6
:1021C0000D4688B017460021642204461E46DDF8FD
:1021D000388004F081FC002204F15803C3E8AF2FDB
:1021E000694BE765AF6965666C622366002F57D15E
:1021F000B8F1000F00F09E80D8F80830002B4BD0CB
:10220000EB6A624AC4F8748002921A689B69C4E956
:102210001A235F4B03935F4B04935F4B059304AB0F
:102220002667022200930021284602ABFFF788FAB6
:10223000002832D1EB6A1A689B69D662DE62002FF1
:102240005ED14FF40072A36E07925B89DBB963E045
:102250003168D6F808C0691A4FF40073002261454E
:1022600028BF4FF0FF313046069501F059FAA06EB5
:102270000123002206A90095FFF7FEFA68B9A36EB4
:102280005B89BB4248D94FF400714046FFF7AAFE74
:10229000013705460028DBD1404808B0BDE8F08191
:1022A000012FBCD13A4AEB6A0292384A284603927F
:1022B000394A0492374A05929A691B68A266C4E9B2
:1022C0001B3607E0606E0021036A5B68984701F0E7
:1022D00001FB606E036A1B68984710F04001F1D162
:1022E0004007F4D504AB00930222606E02ABFFF707
:1022F00027FA0028D1D1EB6A1A689B69D662DE62A0
:10230000606E6460036A9B6824609847C30727D4A3
:10231000002008B0BDE8F081606E6460036A9B68CD
:1023200024609847C20707D4606E0421036A5B6883
:102330009847EDE71A48B0E704F108032022184651
:10234000184905F0B1F8002503463522164819460C
:102350006063C4E90B222046A563FFF79FFCE3E717
:1023600004F10805202228460E4905F09DF8352382
:1023700000220D4829466063C4E90B332046A2635E
:10238000FFF78CFCC4E700BF05200160B495016035
:10239000BC9501604D1E01600D1E01602EF8FFFF0F
:1023A0002DF8FFFFC4950160351F016010B504468C
:1023B0000068844205D03438FFF704FD2068A0424D
:1023C000F9D10023A366E36610BD00BF436A1B6A10
:1023D000184700BF8446F8B50C465CF8101F6145ED
:1023E0002AD00546A1F1300034B3174603460A4609
:1023F000DE6A3368D6F808E0E31A734516D2DEB118
:10240000C36A1A689868A21A824209D23A462146DB
:10241000284600F0AFFC10B9C5E90147EE60F8BDF1
:1024200009688C450BD0A1F13000E9E712686245DC
:1024300002D0A2F13003DBE76FF01500F8BD0023F6
:10244000E4E700BF70B504460D46164670B1382269
:10245000002104F041FB224600211032C4E8AF1FE6
:1024600004F1180322616261A361E36132462946E7
:1024700020462B68BDE87040184700BFE8B138B56A
:102480004FF001020446D4E8CF3FC4E8C12F002931
:10249000F9D1DBB2002BF6D1256B2DB16FF00F0017
:1024A0000023C4E88F3F38BD636A20465B689847C5
:1024B00028460023C4E88F3F38BD6FF015007047F1
:1024C00050F8103F83421AD04A1C18D053F82C2CD5
:1024D000A3F1300C91420FD300B5DCF808E0724450
:1024E00091420ED91B6883420FD053F82C2CA3F1D4
:1024F000300C9142F6D3F0E71B688342E6D100200E
:102500007047DCF82C005DF804FB0020FBE700BFFF
:10251000002800F0B6802DE9F0430E461746984695
:1025200085B0002900F0A2800D680295002A56D0DF
:102530003B6886465EF8104F0393A64525D008EB0E
:1025400005096A1CA4F1300C33D15D1C1DD0DCF8E8
:10255000005008EB03019D4210D8DCF808202A4403
:102560008A4280F088802468A6450ED054F8305CFA
:10257000A4F1300C9D4208EB0301EED92468A64576
:1025800003D05D1CA4F1300CE1D1436A9C684CB3CC
:102590000D9B0C9A01930092434603AA02A9A047FF
:1025A0000EB1029B33600FB1039B3B6005B0BDE8E9
:1025B000F083DCF80420AA420DD8DCF8081011449E
:1025C000494511D224687445DFD054F82C2CA4F16D
:1025D000300CAA42F1D92468A645B2D1D5E74FF014
:1025E000FF33A6E70020DBE7DCF800302B449B1A22
:1025F00003930D9B1BB1DCF82C300D9A1360DCF8B3
:102600002C20D2F810805468B8F1FF3F08BF23682F
:10261000D2F80CC00CBFEB1A05EA080308F1010957
:1026200008E054F82E100844854214D091684B44B9
:102630008B4218D2BCF11F0F8CBF4FF0000E23FA53
:102640000CFE08EA030014B191688B42E9D94FF0FF
:10265000FF308542EAD11068411CC3D092689A428B
:10266000C0D318449CE74FF0FF33F4E752B14FF06A
:10267000FF3502955CE7DCF8042013445D1B0295EE
:10268000B7E77047104691E74B1C00B52ED0531C9E
:1026900008BF20228A4200F1200E42D908464B0989
:1026A0000EEB830301F01F0C1B6823FA0CF3DB070E
:1026B00006D40EE05EF8213023FA0CF3DB070BD5CD
:1026C000013090424FEA501100F01F0CF2D39042BB
:1026D00016D0410900F01F0C01225EF8213002FAE9
:1026E0000CF213434EF821305DF804FB511C0BD063
:1026F00000F1200E22B14FF0000C73466046D3E784
:102700004FF0FF305DF804FB036A00F1200ED84360
:1027100010F0010008BF2022D2D0002001468446DC
:10272000DAE70846D3E700BF2DE9F04F89B000286B
:1027300000F09A809846044617464FF00103D4E80B
:10274000CF2FC4E8C03F0028F9D1D2B2002AF6D179
:1027500065680A4628460321D4F80CA000F062FB05
:10276000002871D0264605EB000B56F8185FDBF801
:102770000810B54203D10CE02D68B54209D055F8D8
:10278000303C8B42F8D1A5F1300A504609B0BDE883
:10279000F08F3C4A534638460192CDF808805A469D
:1027A000009400F0B5F9E36900F13007C0E90C636B
:1027B000E761436B82461F609BF81990A0F11806F1
:1027C000B9F1000F49D00025CDE904760CE0079956
:1027D0004246009150462946CDE9016700F040FA93
:1027E00018BB0135A94538D005EB85030BEB8303F6
:1027F000DA69D3F8288006925E6A1F6A07AB0193F4
:10280000002300937B1EF21C03EB061303EB420331
:102810007A42134003EBC60306330021204606AA82
:10282000FFF776FE03460028D1D1DDE90476BAF140
:10283000000F20D0D6E9122306F1180053601A6069
:10284000B764F76400F0ECF90023C4E88F3F4FF061
:10285000000A504609B0BDE8F08F0023C4E88F3F5E
:10286000504609B0BDE8F08F40F27131064B074A7F
:10287000074804F06FF840F2B131064B064A0448AD
:1028800004F068F8CD230160409901606C99016003
:1028900098960160489901605099016010B561B146
:1028A0000846D1E90C4100F1300261600C6002631E
:1028B0004263BDE8104000F0B3B940F2B131024BC1
:1028C000024A034804F046F84899016050990160B3
:1028D0009896016070B5054655F8184FAC420CD07B
:1028E0000E4602E02468AC4207D03146A4F1300025
:1028F00000F0CEF90028F5D070BD002070BD00BFFB
:1029000000207047704700BF02680389916A9942AE
:102910000BD3D16A03EB4303A2F1180001EBC3010F
:102920000969036952F8180C1847332110B5024B96
:10293000024A034804F00EF8889901602C9A01605D
:10294000A499016008B54FF48971024B024A03480B
:1029500004F000F8CC9F01601C9A0160E0990160CE
:1029600008B5F021024B034A034803F0F3FF00BF10
:10297000CC9F01600C9A0160E0990160704700BF34
:1029800038B550E904342268A0680C33991A8142A2
:10299000A5690BD2013219D02DB10423052220469E
:1029A000A84738BD531ED3E8AF0F38BD511C01D026
:1029B000431C07D065B10423052220464FF0FF31A8
:1029C000A847EEE7002DEDD00146E6E7002DE4D163
:1029D000FFF7C6FF38B550E904342268A068183301
:1029E000991A8142A5690DD2013217D035B1012360
:1029F00005222046A847C0B238BD531ED3E88F0F2A
:102A0000C0B238BD511C01D0431C03D045B14FF0BA
:102A1000FF31ECE7002DF0D00146E8E7002DE6D1CC
:102A2000FFF79EFFF0B5044650F80C0C54F8103C2C
:102A30000568D0F808C018330A46591B6145C669B5
:102A400083B0A4F1180714D201351FD076B1052345
:102A50000125CDE900350023B0473B69216854F8D2
:102A6000180C03B0BDE8F04018476B1EC3E88F2F69
:102A7000F3E76B1C02D0BCF1FF3F03D046B14FF02F
:102A8000FF31E4E7002EF0D06146E0E7002EDED112
:102A9000FFF758FF836903B170474021FFF7C2BFBA
:102AA000F0B5044650F80C0C54F8103C0568D0F80A
:102AB00008C00C330A46591B6145C66983B0A4F1AE
:102AC000180714D201351FD076B105230425CDE9AE
:102AD00000350023B0473B69216854F8180C03B057
:102AE000BDE8F04018476B1EC3E8AF2FF3E76B1C3F
:102AF00002D0BCF1FF3F03D046B14FF0FF31E4E715
:102B0000002EF0D06146E0E7002EDED1FFF71AFF7D
:102B10002DE9F04F824685B0502091469846577E69
:102B2000029102F0D5F90190002855D0044607EB38
:102B30004700C00002F0CCF98346002849D00025A8
:102B400050220021204603F0C7FFCBF80050CBF8FD
:102B50000450CBF80850CBF80C50CBF81050CBF801
:102B60001450002F41D053465E46BA46CDF80C8033
:102B70001F4611E05A6A013507324FEAC208404643
:102B800002F0A6F90446B0B10021424603F0A4FFCA
:102B9000AA4546F8184B23D005EB850309EB8303C0
:102BA000002FE7D04FF03808404602F091F9013588
:102BB00004460028E8D1574605465BF82400013555
:102BC000063408B102F024FAAF42F6D1584602F0BA
:102BD0001FFA019802F01CFA002005B0BDE8F08F42
:102BE0003B4657469A46DDF80C80019A0F9B0299A6
:102BF00013610E9B916113601099084B02F118004C
:102C0000C2F844B0C2F80890C2F80C80C2F830A0F4
:102C100051631764936305B0BDE8F08F4C9A01606F
:102C2000D8B1826A70B50546A0F11806B2B1002489
:102C3000C16A04EB440351F83300013418B102F0C7
:102C4000E7F9D5E90A21A242F3D8084602F0E0F9F3
:102C50003046BDE8704002F0DBB97047C16AF4E766
:102C6000D0F828C08C450FD9C06A01EB410100EBB8
:102C7000C1014B60019BDDF800C08B81029B0020ED
:102C8000C1E9042C8B6070476FF00100704700BFF2
:102C9000F0B1F8B5036806468B420D4616D0876A38
:102CA000A7B1002401E0A74210D0F36A04EB44026C
:102CB00003EBC20109690134A94201D0691CF2D1B8
:102CC00053F83200FEF748FFA742EED10020F8BDCE
:102CD0006FF01500704700BF4B68013306D08B685A
:102CE000002B0CBF6FF00A00002070476FF00A0045
:102CF000704700BF6FF00A00704700BFC9B14B6951
:102D0000A3B930B585B00D698A6801934C68CB686A
:102D10000392009502AA03A90294FFF7F9FB002889
:102D20000CBF6FF00100002005B030BD6FF0060051
:102D300070476FF009007047F8B50D468968064680
:102D40004A1CFFF7A1FC6F7E421C18BFA8607FB130
:102D5000002404EB840305EB8303996A30464A1C84
:102D6000FFF792FC0134431C18BFA860A742F0D1C2
:102D70000020F8BD0F2A4FD92DE9F0411E460B68FF
:102D80000C46012B42D1D1F804C00CF10403B2EB84
:102D9000830F37D38B68002B3BD1CD68002D38D102
:102DA000BCF1000F1BD080461D4F2B1D54F8230093
:102DB000211826B13368B268CB1A934222D2235825
:102DC000052B0FD8404657F82330984710F10B0FCA
:102DD00000D028B9D4F804C00135AC45E5D80020AE
:102DE000BDE8F081803BB3F5C07FF5D8B8F1000FA6
:102DF000F2D0D8F82430DB68002BEDD040464A688A
:102E00009847E3E76FF00400BDE8F0816FF005003C
:102E1000E6E76FF00600E3E76FF00400704700BFDD
:102E2000B004116038B5D0B144688446ACB14FF0FD
:102E3000000E734602E00133A3420ED0181D5CF869
:102E400020005CF800508D42F5D172450EF101056D
:102E500004D00133A342AE46F0D1002038BDD221C8
:102E6000024B034A034803F075FD00BF709A0160EE
:102E7000B49A0160789A016000F038BE00F02ABE72
:102E8000704700BF704700BF704700BF08B5836838
:102E900023B143690C300BB100F00AF8002008BDE3
:102EA00008B5024800F0B4FA002008BDD40411604F
:102EB000F8B58768CFB1C368044637FA03F218BF84
:102EC00001274FF00005066818BF9F406368304631
:102ED00053F825103A466369FFF7D6FFD4E902326A
:102EE0000135D340AB423E44F0D2F8BD2DE9F04F5E
:102EF000061E85B0C0F2D4801F46002B00F0C180B2
:102F00008946002900F0BD8090464FF001037B4DBB
:102F1000D5E8CF4FC5E8C23F002AF9D1E4B2002C72
:102F2000F6D1DFF8DCA155F8084C544504D192E005
:102F3000206850452CD0044654F80C3CA4F10C0BEE
:102F4000B342F5D1DBF80400A4F10802904203D1AA
:102F50008CE0006890421BD050F8081CB942F8D1B0
:102F6000B8F1000F03D050F8043C4345F1D1654B54
:102F70001A78022A06D95C6824B133460320624AD3
:102F80006249A0470023C5E88F3F6FF015003FE07E
:102F9000142001F09DFF0346002800F0A1800C2CB6
:102FA000C0E90178C0F8009003D0DBF80020B242FD
:102FB00031D01420039301F08BFF039B04460028BB
:102FC0007DD0024603F10C0142F8046B42601A61A5
:102FD000DA6081601B690C341960FFF74FFFDAF883
:102FE0000430C4F800A06360CAF804401C60FFF716
:102FF00043FF444B1A78062A06D95C6824B133464D
:103000000720414A4249A0470023C5E88F3F1846A0
:1030100005B0BDE8F08F0393FFF730FFDBF8082021
:10302000039B0BF104011A6103F10C02D960CBF888
:1030300008201B691A60FFF71FFF324B1A78062A17
:10304000E2D95C68002CDFD0334607202E4A314994
:103050000097A047D8E7142001F03AFF0346002864
:103060003ED0C3E90097C3F80880A2E7142001F01E
:103070002FFF0346002833D0C3E90178C3F800903E
:1030800093E7204B1A78022A7FF67FAF5C68002C0A
:103090003FF47BAF334603201B4A1F49A04774E728
:1030A000184B1A78022A7FF670AF5C68002C3FF448
:1030B0006CAF33460320144A1849A04765E7114B0B
:1030C0001A78022A06D95C6824B1334603200E4AD6
:1030D0001349A0470023C5E88F3F6FF00B0097E727
:1030E000084B1A78022AF5D95C68002CF2D03346D6
:1030F0000320054A0B490097A047EBE7D004116075
:10310000C8041160000C1160A09C01600C9B016060
:10311000BC9B0160749B0160EC9A0160C09A0160E5
:10312000989B0160449B01602DE9F04F9B46031E74
:1031300087B0C0F2C880884691464FF00101694EC1
:10314000D6E8CF2FC6E8C01F0028F9D1D2B2002A96
:10315000F6D1654956F8084C8C4203D12BE024681F
:103160008C4228D054F80C2CA4F10C079A42F6D1CA
:103170005E4A1278062A2AD95C494D683DB35C4AFA
:1031800007205C49A8477D68584BA4F1080AAA4566
:103190001A7821D1062A06D9544B5B681BB1072047
:1031A000534A554998470023C6E88F3F6FF0010006
:1031B00007B0BDE8F08F4D4B1A78062AF3D95B684B
:1031C000002BF0D007204A4A4C499847EBE77D682E
:1031D000A4F1080A5545E6D000230594CDE903374C
:1031E000444606E055F80C3CA34206D02D685545F0
:1031F00038D0A5F10C07002CF4D1BBF1000F02D0A0
:103200007B685B45F2D1B9F1000F02D0BB684B453A
:10321000ECD1062A0ED9354BD3F80480B8F1000F53
:1032200008D0BA683B6801927A6807200092344956
:103230002F4AC047039BD5F8048001330393FFF75F
:103240001DFED5E9002353601A602D606D60454670
:10325000FFF712FE384601F0DBFE2D68234B554583
:103260001A78C6D1DDE90474039B002B92D07B68E9
:103270009D420FD0062A06D91C4B5B681BB1072064
:103280001B4A204998470023C6E88F3F184607B0DD
:10329000BDE8F08F062A06D9144B5B681BB10720E6
:1032A000134A19499847FFF7E9FDD4E90023536011
:1032B0001A6024606460FFF7DFFD384601F0A8FE65
:1032C0000A4B1A78D6E7094A1178022902D86FF01A
:1032D00015006DE75468002CF9D00320044A0B490F
:1032E000A047F4E7D0041160C8041160000C11601D
:1032F000889C0160D89B0160149C01606C9C0160FB
:10330000EC9B01605C9C01602C9C0160C09A016098
:10331000012240F3CC0323F0604323F0030300F0C9
:103320001F0003F16043824003F56143C3F880212D
:103330001A607047012200B20649430900F01F00DD
:103340008240203341F82320BFF34F8FBFF36F8FAC
:10335000704700BF00E100E0F8B50D4D55F8184F7B
:10336000AC420CD00E461746314654F83C0C03F0E4
:1033700081FFA4F13C0328B12468AC42F4D16FF082
:103380001200F8BD18463B60BDE8F840FFF77EBD6F
:10339000000C1160F8B5DDE906649C42174606D0C2
:1033A00006EB460219462046920003F01FFB002E52
:1033B00017DD002506E0A16854F80C0BFFF762FD4D
:1033C000AE420ED0022F05F10105F4D1A1682068AC
:1033D000FFF756FDA16854F80C0BFFF753FDAE4202
:1033E000F0D13046F8BD00BFF8B5069D002D0EDDCA
:1033F0001E46002405EB450503F1080757F8241085
:1034000056F824000334FFF73DFDA542F6D1F8BD80
:10341000002835D02DE9F041076804466FB397F9CD
:10342000003053B3184D2E4656F8088FB0450DD0D6
:10343000394658F8240C03F01DFF18B96FF010003E
:10344000BDE8F081D8F80080B045F1D104F11C034B
:10345000E3612362EB6804F12402A3626662EA601E
:103460001A602B78062B05D96B681BB13A460720EA
:10347000064998470020BDE8F0816FF01500DFE7AE
:103480006FF01500704700BF000C1160B49C016024
:1034900068B32DE9F04190F90030044623B30E469D
:1034A00011B391F90030FBB11746EAB1DFF84C8057
:1034B00058F8085F454513D0214655F8240C03F011
:1034C000D9FEA5F1240340B99C689CB13A46314627
:1034D00018462346BDE8F04118472D684545EBD115
:1034E0006FF00100BDE8F0816FF01500FAE76FF0B2
:1034F000150070476FF01200F4E700BF000C116078
:1035000030B10146406818B1C36803B1184770472D
:10351000542110B5024B034A034803F01BFA00BFC5
:10352000C89C0160049D0160E09C01600368ABB130
:1035300093F9003093B18368012B0FD8094B10B475
:10354000094CDA6900F13C01446003F11804C0E958
:103550000F42D961002010BC116070476FF0150058
:10356000704700BF000C1160D404116038B50F4CD7
:103570000546A4F1180320220021184603F0ACFAF6
:1035800003462868A4F1100158602879A4F10802C4
:1035900004F8180CC3E902112846C3E904229C610F
:1035A000DC61BDE83840FFF77BBC00BF180C116040
:1035B00070B5056884686E1C82B00ED0A14211D827
:1035C00005EB010C5D18A54288BF631A046A6CB153
:1035D00000930523A04702B070BD8C4202D34FF088
:1035E000000CEFE76FF0210002B070BDBFF35B8FFE
:1035F00083B14CEA020111F0030F194602D10CE02D
:1036000080070AD01CF8010B013902F8010B42EACD
:103610000C00F5D1184602B070BD0329D8BF104682
:1036200018DDA1F1040E4FEA9E0E0EF10100860096
:10363000ACF1040402EB800054F8045F42F8045B30
:103640008242F9D1CEEB8E7E01EB8E0EBEF10401EB
:10365000B444DFD00CF1FF3C01441CF8012F00F80A
:10366000012B8842F9D11846D5E700BF70B505682F
:1036700084686E1C82B00ED0A14228D805EB010CE4
:103680005D18A54288BF631A446A4CB100930523B4
:10369000A04702B070BD8C4219D34FF0000CEFE789
:1036A00083B14CEA020111F0030F194602D112E076
:1036B000800710D012F8010B01390CF8010B4CEA0D
:1036C0000200F5D1BFF35B8F184602B070BD6FF0FA
:1036D000210002B070BD0329D8BF604614DD0D1F64
:1036E000AD08681C8600A2F1040E0CEB80005EF8A9
:1036F000044F4CF8044B8445F9D1C5EB857501EBBB
:103700008505291F3244DDD0013A014412F8014FEA
:1037100000F8014B8842F9D1BFF35B8F1846D4E71C
:1037200030B504689646621C1D4683B0836810D08D
:10373000994227D804EB010C6A18846A9A4288BF20
:103740005D1A5CB1724605230095A047284603B078
:1037500030BD8B4216D34FF0000CEDE70EEB0E237D
:1037600003EB03435DB11CF0030F2A4603D11DE0B8
:103770001CF0030F0AD0013A0CF801EBF8D1BFF3AB
:103780005B8FE3E76FF0210003B030BD032A06DD55
:10379000043A032A4CF8043BFAD8002AEFD07146C9
:1037A000604603F099F9BFF35B8FCFE7032DEFDCA1
:1037B000F5E700BF0EB403B0704700BF10B500F0CE
:1037C00089F9044602F024FC28B14FF0E0234FF0C1
:1037D0008052C3F8042D2046BDE8104000F086B9A1
:1037E00008B54FF41E71024B024A034803F0B2F8C9
:1037F000189D0160889D0160349D0160002200B524
:10380000074B83B001921B68013307D100F062F9C6
:10381000019B002BFCD003B05DF804FBFFF7E0FF39
:103820000005116030B5A1B06C46264A264DD2F88D
:103830001C3B43F00103C2F81C3B0FCD0FC40FCD5E
:103840000FC40FCD0FC495E80F0084E80F0040228D
:10385000FF210DEB020003F03FF96FF480331B4CA6
:1038600011930DF1400CBCE80F000FC4BCE80F0031
:103870000FC4BCE80F000FC49CE80F0084E80F00E1
:10388000BFF34F8F124A136943F0040313611369A6
:103890005B07FCD530BFBFF36F8FEC460A4CBCE82A
:1038A0000F000FC4BCE80F000FC4BCE80F000FC42A
:1038B0009CE80F0084E80F0062B6BFF36F8F72B60A
:1038C00021B030BD0002024100E100E080E100E0F3
:1038D00000ED00E04FF0E0234FF08052C3F8042DDC
:1038E000BFF34F8FBFF36F8F704700BF08B500F075
:1038F000F1F8044A136801331360BFF34F8FBFF32D
:103900006F8F08BD0005116008B50A4B1A684AB1EF
:103910001A68013A1A60186800B108BDBDE808408D
:1039200000F0E4B84FF44671034B044A044803F036
:1039300011F800BF000511605C9D0160B09D016041
:10394000349D016008B5836913F8023C022B03D152
:10395000BDE8084000F08CB840F2AB31024B034A9E
:10396000034802F0F7FF00BF709D01609C9D01605D
:10397000349D01602DE9F04F4FF0113E4FF08074FF
:1039800040E909E34FF0073340F8044C164C40F887
:10399000343C40E903424FF005334FF006324FF01C
:1039A000123B40E90F324FF0033A4FF002394FF02B
:1039B00001384FF010374FF009364FF008354FF00F
:1039C00004346FF0430340E905AB40E9078940E95F
:1039D0000B6740F8305C40F8404C40F8443C40F8FD
:1039E000481DBDE8F08F00BFFD3701604FF0E023B8
:1039F00030B50024D3F81C2D83B022F07F42C3F8E9
:103A00001C2DD3F8202D114D42F47F02C3F8202D38
:103A1000D3F8202D42F07F42C3F8202DFDF7F6FDAC
:103A200020462C6000F062F800F042F802F050FCF2
:103A300001942B68013307D100F04CF8019B002B57
:103A4000FCD0002003B030BDFFF7CAFE00051160B6
:103A500008B572B602F0CEFAFFF7E4FE62B6BDE832
:103A6000084002F083BB00BF704700BF00000000A9
:103A70000B4A1168086806C881F30B88022181F39C
:103A80001488203080F30988BFF36F8F4FF0000057
:103A900080F31188104700BFAFF30080AFF30080C0
:103AA0001CB51160000000000000000000000000D4
:103AB00007480068006880F3088862B661B6BFF303
:103AC0004F8FBFF36F8F02DF00BF00BFAFF30080E7
:103AD00008ED00E0EFF311804FF0010181F3118850
:103AE000BFF34F8FBFF36F8F704700BF80F3118814
:103AF000BFF34F8FBFF36F8F704700BF0000000010
:103B0000EFF30980EFF30B82734620E9FC0F104AB4
:103B1000116808604FF0010080F31188BFF34F8FE8
:103B2000BFF36F8F02F0D4FB4FF0000080F31188D9
:103B3000074A11680868B0E8FC0F82F30B8880F32D
:103B400009881847AFF30080AFF30080AFF300801F
:103B50001CB5116000000000000000000000000023
:103B60001EF0040F0CBFEFF30880EFF30980044947
:103B7000084700BFAFF30080AFF30080AFF30080D1
:103B80004539016010B4002401238269D0F81CC0BB
:103B90000460ACF80440546AB2F9062034494FEA94
:103BA000521C02F01F0203FA02F20CF1200C41F841
:103BB0002C20BFF34F8FBFF36F8F8269B2F91220B1
:103BC0004FEA521C02F01F0203FA02F20CF1200C21
:103BD00041F82C20BFF34F8FBFF36F8FB4F9022051
:103BE0004FEA521C02F01F0203FA02F20CF1200C01
:103BF00041F82C20BFF34F8FBFF36F8F8269B2F96A
:103C00000A204FEA521C02F01F0203FA02F20CF1E2
:103C1000200C41F82C20BFF34F8FBFF36F8F8269C8
:103C2000B2F90E204FEA521C02F01F0203FA02F210
:103C30000CF1200C41F82C20BFF34F8FBFF36F8F96
:103C400081690C4A09788B401804C2F88405D2F8BF
:103C500004071840FBD14FF4803301318B406FEAE9
:103C600013436FEA0343044A10BC9366936E704794
:103C700000E100E000000141000B0141034600208B
:103C8000C3E90412704700BF844600B5DCF81C305D
:103C90000020B3F804E06FF3C71EA3F804E0B3F804
:103CA00004E06FF3820EA3F804E0CCE902129A88D4
:103CB00042F080029A805DF804FB00BF8446002039
:103CC000CCE90A32CCF82410704700BF4FF0FF3324
:103CD00000200B604B6070470346024A00201A60C8
:103CE000704700BF01000101F0B5846A85B0054648
:103CF0000F4694466E46B4B194E80F0086E80F0074
:103D0000AB6920461B7884F804C02360EB6AC4E9E1
:103D100002736B6A9847AC6A1CB196E80F0084E89E
:103D20000F0005B0F0BD3446EAE700BFC369DA8989
:103D3000D10629D010B504460BE05B071FD4636998
:103D40008BB904222046FFF7CFFFE369DA89D20658
:103D500019D01A89997A93B21207C9B2EDD55807CA
:103D60000FD41022EEE723691970D4E9043101332E
:103D70000139C4E904310029E7D10122E2E7082230
:103D8000E0E71822DEE710BD704700BF8B078446CE
:103D90002AD50020DCF81C20938823F084031B0420
:103DA0001B0C9380CCF80C00938943F0040393819F
:103DB00093895807FCD5002093896FF38203938180
:103DC000CA0710D50023DCF81C20CCF814309389E6
:103DD00043F00203938193899B07FCD500209389CC
:103DE0006FF34103938170470620E9E710B5002483
:103DF000C3699A8892B222F0F4021FFA82FCA3F8F7
:103E000004C08460187D00F04E041C7591F801C058
:103E100083F802C091F800C0B3F800E0CCF3C10C05
:103E20006CF3010EA3F800E091F800C01CF0020F43
:103E300006D091F902C091F802E0BCF1000F0DDB51
:103E4000097842F07002C1F3800001F0010141EAFB
:103E5000C0112143197500209A8010BD44F0100054
:103E6000187544F0200483F802E0E9E72DE9F047F3
:103E70000446002501220878B1F9126000F580108F
:103E800000F597708002E061C869C94B6062086AFA
:103E9000A161C4E90A50700906F01F05203002FA3A
:103EA00005F5D1F824C00F7C43F82050BFF34F8FA5
:103EB000BFF36F8F981980F80073B1F90650BD48B1
:103EC00005F01F0740F826406E09203602FA07F772
:103ED00091F804E043F82670BFF34F8FBFF36F8F64
:103EE0005E1986F800E340F82540BCF902509CF8C2
:103EF00000C06E0905F01F07203602FA07F743F8E5
:103F00002670BFF34F8FBFF36F8F5E1986F800C323
:103F100040F82540B1F90A5091F808C06E0905F043
:103F20001F07203602FA07F743F82670BFF34F8FBA
:103F3000BFF36F8F5E1986F800C340F82540B1F9D2
:103F40000E5091F80CC06E0905F01F07203602FADA
:103F500007F743F82670BFF34F8FBFF36F8F2B44E3
:103F600083F800C340F825400878831802FA03F369
:103F7000824091481B048366836E42EA0245A0F5A5
:103F80003060C0F88455D0F804371A42FBD0C0F82E
:103F900084588A48D0F8043A1340FBD1E2699380F0
:103FA000908980B240F0060090811089486A1381A0
:103FB000558A53820579002D00F0EE80012D0BBF4C
:103FC0004FF0710C4FF0720C0123022393804B7859
:103FD0008E78A3F10103B3FA83F35B09C9789B01DF
:103FE0002EB1032E14BF43F0200343F03003012908
:103FF00008BF43F008039BB21380AB1E012B00F2F5
:10400000AA80A5F10205B5FA85F5FF236D0915759E
:1040100093709389A5699BB243F0060323F4FE6372
:104020006E6A99B29181317B0F1F0E2F7FD80902E2
:1040300001F5FA4189B2767BD182062E9CBF01360A
:1040400043EA062323F006039BB293814179137D53
:1040500000297CD043F00403137501214FF00009BF
:104060004FF0030EB5F906A0B5F912804FEA5A13C6
:104070009B000AF01F0A03F1604303F5614301FA54
:104080000AFAB5F90A60B0F90270B5F90E50C4E940
:104090000399C4F80890A4F820E0C4F81490C3F879
:1040A00080A1C3F800A04FEA58139B0008F01F0836
:1040B00003F1604301FA08F803F56143C3F8808116
:1040C000C3F800807B099B0007F01F0703F16043E2
:1040D00001FA07F703F56143C3F880711F607309A4
:1040E0009B0006F01F0603F1604301FA06F603F594
:1040F0006143C3F880611E606B099B0005F01F05DA
:1041000003F1604303F56143A940C3F880111960CE
:10411000A2F804C0037D8BB1938943F00803938117
:10412000274BA2F810E000202360BDE8F0874F1E67
:10413000022F98BF43EA811300217CE74FF0C30EA2
:10414000A4F820E0918963F3C3019181E8E761F36A
:104150008203137581E7157D836805F04E07197892
:1041600017755D78C1F3C101957015883E4661F3FE
:10417000010515801978890704D593F902109D78F7
:1041800000290DDB1B78C3F3800103F0010343EA30
:10419000C113334313753CE74FF0700C2B4615E702
:1041A00047F01007177546F020069570EAE700BF44
:1041B00000E100E024AC1160000B0141000001416E
:1041C0005546435310B4EFF30383C3F308031E4A69
:1041D000103B1BB252F8230083699B691BB1C36873
:1041E0001BB110BC7047C16871B90021C46980223D
:1041F000A38823F080031B041B0C43F00403A3805B
:1042000010BC8160FFF770BD8268C46912F8013B81
:10421000A3714B1EC0E90223B4F80EC0CCF3042CEA
:10422000BCF10F0F0BD81139614443B112F801CB27
:10423000013B8B4284F806C0C0E90223F5D12289F4
:104240006FF345122281CBE724AC116010B5EFF378
:104250000383C3F30803084A103B1BB252F8234000
:104260002046FFF763FDE269138923F002031B0474
:104270001B0C138110BD00BF24AC116038B5EFF3E7
:104280000383C3F30803144A103B1BB252F82350B4
:10429000EA691489A4B224F041039BB21381E207B6
:1042A00015D4630612D5EC69EA68A3889BB252B1B3
:1042B00023F004039BB22846A3800222BDE83840C5
:1042C0000021FFF711BD23F08403F3E738BD284632
:1042D000FFF72CFDE5E700BF24AC1160EFF303838B
:1042E000C3F30803074A103B1BB252F82330DA69C4
:1042F00011898BB2090644BF23F080039BB213815E
:10430000704700BF24AC1160EFF30383C3F30803CD
:10431000164A103B1BB252F82300C1690A894B8A26
:104320001FFA82FCD2069BB203D4DA071AD52022E8
:1043300006E0DA072CF0100C0BD560221FFA8CFC7B
:1043400023F001039BB2A1F808C04B820021FFF7C4
:10435000CBBC1FFA8CFCA1F808C040224B82002184
:10436000FFF7C2BCA1F808C04B82704724AC1160B3
:104370000246086830B520F00204A4F10104B4FA42
:1043800084F400F10073640903F500335B011474D5
:10439000C2E90230CB685160002B40D0181D4FF4A9
:1043A0008035C2E905304FF00113204C2048C4F895
:1043B0008850D4F88840C0F82035D0F8A036DB0704
:1043C000FBD54FF001131A4CC0F82038D4F8A009DF
:1043D00010F00100FAD14FF0010CB1F9064091F84C
:1043E00004E004F1604303F5614383F800E3114DF9
:1043F00063099B0045F8242003F1604304F01F0487
:104400000CFA04F403F56143C3F880411C608C6826
:10441000094B0969D461C2E90801136030BD074C3A
:1044200004EBC003043404EBC000B8E7000B014107
:104430000000014124AC1160554877000010F06283
:1044400084460020CCE90832CCF81C10704700BF2D
:1044500042680346B2F90620002A18DB012010B496
:1044600051090E4C02F01F02203100FA02F244F80A
:104470002120BFF34F8FBFF36F8F00205A68084988
:10448000B2F9062010BC41F82230186070470020B5
:10449000034941F822301860704700BF00E100E096
:1044A00024AC116003464FF0012200201A607047CF
:1044B000037C826843B91368002BFCD10123406957
:1044C00001600020536070471369002BFCD1012369
:1044D0004069016000205361704700BFF0B5194B7F
:1044E00000B253F8204085B0237C012B1FD0E3B9E4
:1044F000A3681A69CAB10122A1690F689A61E669C5
:104500009EB1236A01ADD3B193E8070085E80700A7
:10451000626A18461A60E268C3E90127B047236A55
:104520001BB195E8070083E8070005B0F0BDA2685D
:1045300011680029F9D0A1690F689360DFE72B4665
:10454000E6E700BF24AC1160EFF30380C0F308007E
:10455000103800B2FFF7C2BF2DE9F0410324012259
:10456000C0F3072EAEF10203C0F3850C264F2040A6
:104570000CEB430C5FFA8CFC00FA04F304FA03F032
:1045800057F82C409A4024EA0208C1F380449C402A
:104590001E4E44EA080447F82C4056F82C70C1F32C
:1045A000812427EA00079C40194D3C4346F82C40E3
:1045B00055F82C60C1F3404426EA02069C4034437F
:1045C000BEF1010F45F82C401BD1D243C043114C22
:1045D000C1F3C045A6689D4032402A43A260D4F88A
:1045E0000854C1F3015205409A402A43C4F80824F4
:1045F000D4F80828C1F38151104099400143C4F810
:104600000818BDE8F08100BF1018034110100341E5
:1046100010140341002003412DE9F04F0724012627
:104620004FF0030EC7B24FEA870887B004FA08F4C8
:104630000194C1F3812406FA07FA0294C1F34044BD
:10464000050A00EA0E02C0F385035FFA8AFB0394B1
:10465000C1F3011402FA0EF203EB45030494BBF11B
:10466000FF0FC1F3C044E8B2C1F3004C0594C1F39D
:104670000155C1F38154DFF8D490DBB20EFA02FE8B
:1046800006FA02F6C1F3026109D00CFA07F710F836
:1046900009C02CEA0A0C4CEA070C5FFA8CFC00F803
:1046A00009C0DFF8ACB0029FDDF80CC0DDF8149053
:1046B00001FA08F1DDF810800CFA02FC08FA02F8A1
:1046C00009FA02F99740954094405BF82320DFF8FF
:1046D00084A022EA0E0217434BF823705AF82320D5
:1046E0001D4F22EA06024CEA0202DFF870C04AF8C7
:1046F00023205CF8232022EA0E0248EA02024CF84A
:10470000232057F8232022EA060249EA020247F84A
:10471000232007F5806757F82320114E22EA0E0266
:10472000154347F8235056F8232022EA0E0214437B
:104730000C4A46F8234052F82030019C23EA040337
:10474000194342F8201007B0BDE8F08F1002034172
:10475000801003418014034180200341801C0341E9
:1047600080280341400403414FF0030C2DE9F04F32
:10477000012400EA0C02C6B202FA0CF28BB004FA71
:1047800006F894400594740009940CFA04F4050AA0
:10479000C0F385030894A4B2C1F3810903EB450378
:1047A000E8B204945FFA88F5C1F381240296039578
:1047B000C1F3004E0694C1F34047C1F30116C1F3A3
:1047C0008035C1F3C044C1F3015BC1F3815ACDF818
:1047D000009001F001095FFA88F1FF29DBB2CDF802
:1047E0001C800CFA02FCCDF804900CD002990EFA51
:1047F00001F1DFF800E110F80EE02EEA080E4EEAB3
:10480000010E5FFA8EFE3B49974000F801E00699E1
:10481000964001FA02FE3849954094400BFA02FB9B
:104820000AFA02FA51F82320DDF8148022EA0C0279
:104830004EEA0202DFF8C4E041F823205EF82320AC
:104840004FF6FF7922EA080217434EF8237001F56C
:10485000406151F8232022EA0C02164341F82360FC
:10486000274E01F5806156F8232022EA08021543FD
:1048700046F8235051F8232022EA0802144341F855
:104880002340204C01F5006154F8232022EA0C0259
:104890004BEA020244F8232051F8232022EA0C02BA
:1048A0004AEA020241F82320049B174A4B450BD0E9
:1048B0000099099B089C994032F810309BB223EA7A
:1048C00004030B439BB20093009B104922F8103065
:1048D000039BFF2B09D0DDE90132079C9340425C2A
:1048E00022EA04021343DBB20193019B43540BB051
:1048F000BDE8F08F10020341801003418014034192
:10490000802C034180240341200103411000034116
:1049100070B50546EFF31082012383F31088204E13
:1049200033681BB91F490B7540230B75336801337E
:10493000336082F310882B88DBB1002406E0FFF798
:104940006BFE2A880134A3B29A4212D96B68A2B2D4
:1049500003EBC201486853F83210B0F5803F1BD218
:10496000CB03ECD4FFF700FF01342A88A3B29A42AC
:10497000ECD8EFF31082012383F31088336813B16E
:104980003368013B336033681BB9802005490B75E0
:10499000087582F3108870BDFFF7DEFDD1E700BF18
:1049A00020AC11600030034108B5034B036008469A
:1049B000FFF7AEFF002008BD54524F500123F0B462
:1049C0000546087C2B4F00F58516021D03FA02F2FE
:1049D00004361204284CB60283406960AE6043EA94
:1049E0000340FA67FA6FC4F83405D4F8B4261342CA
:1049F000FBD0C4F834082048D0F8B4291342FBD1C6
:104A000001204B68CA693076EB60336013785278C6
:104A10001B1AB3FA83F382424FEA5313B1F91220FF
:104A200008BF43F00203DBB2002A86F8203017DB10
:104A3000487C02F1604303F5614383F800030120E1
:104A400053090E4C9B0044F8225003F1604302F0DE
:104A50001F0203F5614300FA02F2C3F880211A60D5
:104A60000020D1E90542064B2C61AA612B606861E8
:104A7000F0BC7047000B01410000014124AC116003
:104A80004D544700034601229B6800201A75704769
:104A9000034601229B6800201A7670470620704763
:104AA00003469A68D960002011607047062070475D
:104AB00003469A680020137CC3F300030B7153680C
:104AC0000B60704784460020CCE90532CCF810100A
:104AD000704700BF01210346D0E90120B2F912203E
:104AE000017612F1210F02D1002018607047002AD0
:104AF00017DB10B450090E4C02F01F02914000F178
:104B0000200244F82210BFF34F8FBFF36F8F0020B5
:104B10005A680849B2F9122010BC41F822301860D6
:104B200070470020034941F822301860704700BFE9
:104B300000E100E024AC11600346024A00201A6044
:104B4000704700BF0100010138B50546EB68102031
:104B50008B600C4600F01CF90246AB68002093F80D
:104B600020306260C3F34003237038BD06207047D5
:104B70000620704770B584B0EFF30383C3F30803D6
:104B8000104A103B1BB252F82340636826691B7819
:104B9000012B04BFA268137686B1636901AD7BB1B6
:104BA00093E8070085E80700A26918461A60B04735
:104BB00063691BB195E8070083E8070004B070BD86
:104BC0002B46F1E724AC1160024A034B52681A608D
:104BD000704700BF08051160A8B311600000000015
:104BE00030B433A5D5E900452D4B2E482E492F4A28
:104BF000C3E9004518A5D5E900451865C3E9024594
:104C000017A5D5E900451160C3E9064516A1D1E90C
:104C1000000117A5D5E90045C3E9040116A1D1E9B2
:104C20000001C3E90A4516A5D5E90045C3E9080115
:104C300015A1D1E90001C3E90E4530BCC3E90C015F
:104C400013A1D1E90001C3E9100113A1D1E90001C9
:104C5000C3E91201704700BF0065CD1DE02E0000C2
:104C600040EFC41F40EFC41F00C2EB0B00E1F5058D
:104C7000A077E20F005ED0B200C2EB0B005ED0B2B4
:104C800000B4C40400E1F5058026FE0080B2E60E03
:104C900000E1F50500C2EB0B00E1F5050084D71734
:104CA0000805116000366E0100C2EB0BA8B311605D
:104CB000008C864700C2EB0B30B433A5D5E9004524
:104CC0002D4B2E482E492F4AC3E9004518A5D5E99A
:104CD00000451865C3E9024517A5D5E900451160EF
:104CE000C3E9064516A1D1E9000117A5D5E900459C
:104CF000C3E9040116A1D1E90001C3E90A4516A5DB
:104D0000D5E90045C3E9080115A1D1E90001C3E9CE
:104D10000E4530BCC3E90C0113A1D1E90001C3E980
:104D2000100113A1D1E90001C3E91201704700BFCE
:104D30000065CD1DE02E000040EFC41F40EFC41FF2
:104D400000C2EB0B00E1F505A077E20F005ED0B2E8
:104D500000C2EB0B005ED0B200B4C40400E1F50564
:104D60008026FE0080B2E60E00E1F50500C2EB0BE6
:104D700000E1F5050084D7170805116000366E01C3
:104D800000C2EB0BA8B31160008C864700C2EB0B8E
:104D9000014B53F8200070470805116000BF7047B1
:104DA0000C4A08B50346106840B103330A4923F0A2
:104DB000030303448B4205D8136008BD0749084626
:104DC0001160F2E701F0EAFD0C2203464FF0FF30DC
:104DD0001A6008BDA4B3116028B6116028B611602E
:104DE00000BE704708B500F005F8FCF765FCFEE76B
:104DF00000BE704770B50020FBF796F9FFF7F0FE94
:104E00000120FBF791F91248124A0021121A01F011
:104E100063FE1148114A1249121A01F0E7FD114DC3
:104E2000114B5B1B002B07DD00249E1055F8043B43
:104E300001349847A642F9DCFFF7C6FE0220FBF7D3
:104E400073F9FFF7ABFFBDE87040002000F00EB82B
:104E5000C805116028B6116000001160C40511601A
:104E600070A80160C4051160C4051160704700BFDF
:104E7000154B1A461B688342FBD3516802EB010CA9
:104E8000604519D0416800EB010C634505D08242B2
:104E9000036017D010607047104630B40B4C246884
:104EA000A34203D0D3E90045294441608242046013
:104EB00018BF106030BC70474068014450188342EE
:104EC0005160E9D0704700BFC4B31160C0B3116036
:104ED0002DE9F843044601F08DF842480368002BA1
:104EE00056D0414B1F683C424CD1631E0A3349D80F
:104EF000610704F1080505D025F007030833AB422C
:104F000040D91D46DFF8E480D8F80090A94539D390
:104F1000374B19461C6803E0236823B121461C4621
:104F20006268AA42F8D30368A3422BD00E682068B7
:104F3000531B102B06F10806086007D960194207B9
:104F40004AD143606560FFF793FF62682949A9EB86
:104F5000020308683A43834238BF0B600021626055
:104F6000254AC8F80030136821600133136001F04E
:104F7000FDF8730709D04FF48771204B204A214870
:104F800001F0E8FC01F0F2F800263046BDE8F883B5
:104F90001D4A550719D1114602F5204300254FF04F
:104FA0000046083B23F00703114F9A1AC7E9001582
:104FB0000360C3E90055C1E900320E4B37461A6061
:104FC0000A4B1A60084B1E608DE7D11D21F00701C6
:104FD00002F520430A46E1E7CD210C4B084A094877
:104FE00001F0B8FCC0B31160ACB31160BCB3116088
:104FF000C4B31160B8B31160B4B31160BC9E01605A
:10500000609F0160749E0160200C1160409E0160F1
:1050100018B3194A38B5126850F8043C04461342D4
:10502000A0F1080521D050F8081CB9B923EA020301
:1050300040F8043C00F0DEFF104A54F8043C1168CC
:1050400028460B441360FFF713FF0D4A1368013322
:105050001360BDE8384001F089B8704740F2231171
:10506000084B094A094801F075FC4FF49171084B4F
:10507000054A064801F06EFCACB31160BCB3116088
:10508000B0B311602C9F0160549F0160749E016059
:10509000F89E01604FF0FF31002200F10803C0E9E3
:1050A0000131C36003610260704700BF00230361E8
:1050B000704700BF4268036810B494680133C1E9C7
:1050C00001246160916010BC08610360704700BFFB
:1050D00030B40D686B1C10D000F108031C465B68EF
:1050E0001A68AA42FAD902684B60013299608C6052
:1050F0006160086130BC0260704704696368F2E770
:10510000036910B4D0E901125C688A605160002123
:10511000844208BF5A601A680161013A1A6018682F
:1051200010BC704770B51646026C0446856B52B1D0
:105130006EB9406801F05AFC6368216CA2680B44A8
:105140009342636017D201350020A56370BDC0682B
:1051500001F04CFC226CE36851429B1A2268E36028
:10516000934202D2A3680B44E360022EEBD1012DDF
:1051700038BF0125E8E72368013500206360A56397
:1051800070BD00BF70B50546FEF7B0FB95F8453021
:105190005CB2002C14DD05F1240603E0631EDAB2D4
:1051A0005CB26AB16B6A5BB1304601F01BF9002852
:1051B000F4D001F0B1F9631EDAB25CB2002AF1D189
:1051C000FF2385F84530FEF79FFBFEF78FFB95F830
:1051D00044305CB2002C14DD05F1100603E0631EC0
:1051E000DAB25CB26AB12B695BB1304601F0FAF811
:1051F0000028F4D001F090F9631EDAB25CB2002A04
:10520000F1D1FF2385F84430BDE87040FEF77CBB48
:1052100038B588B304460D46FEF768FBD4E90F3075
:1052200000FB03F32268181A13440021A360FF2334
:1052300062600244A163E26084F8443084F845303F
:1052400075B923691BB9FEF75FFB012038BD04F176
:10525000100001F0C7F80028F5D0FEF73BFBF2E79D
:1052600004F11000FFF716FF04F12400FFF712FF0E
:10527000FEF74AFB012038BD40F20D11024B034AF4
:10528000034801F067FB00BF709F016098A30160B5
:10529000789F016070B582B030B31C46EBB1064612
:1052A0000D4692B171B348230193019B482B22D143
:1052B00001212046C4E90F65226084F84610019B55
:1052C000FFF7A6FF204602B070BD11BB4823019333
:1052D000019B482B0FD12246EAE74FF4A671104BF1
:1052E000104A114801F036FB4FF4A4710F4B0D4AE0
:1052F0000D4801F02FFB40F259110D4B094A0A48A5
:1053000001F028FB4FF4A8710A4B064A064801F049
:1053100021FB40F25111084B024A034801F01AFBED
:10532000D09F01607CA30160789F0160AC9F016009
:1053300070A00160F09F016030A0016030B583B0C3
:10534000C0B188420D462AD314460AB348230193BC
:10535000019B482B15D1012100232260D0632046F8
:1053600084F846102364019AFFF752FF2046A56394
:1053700003B030BD4FF434710C4B0D4A0D4801F0B1
:10538000E9FA40F259110C4B0C4A0A4801F0E2FAD2
:105390004FF4A6710A4B094A064801F0DBFA40F2C5
:1053A000D121084B024A034801F0D4FA8CA00160D5
:1053B00058A30160789F016070A001607CA3016028
:1053C000D09F01609CA0016070B5A0B188420546E5
:1053D0000E4617D34820FFF77BFD044648B1002353
:1053E00001210060C56380F846300364FFF710FFB9
:1053F000A663204670BD40F2ED21064B064A0748E1
:1054000001F0A8FA40F2EE21054B034A034801F0EF
:10541000A1FA00BF8CA0016038A30160789F0160F1
:105420009CA00160F0B585B00192002800F0A48036
:1054300004460F461E46002978D0022E03D1E36BA6
:10544000012B40F0928001F06DF8002864D0FEF747
:105450004DFAA26BE36B9A424AD3022E48D0002049
:1054600005460DE0FEF750FA2046FFF78BFE00F0F0
:105470007DFEFEF73BFAA36BE26B9A4238D801201F
:10548000019B002B5CD000283FD0FEF73DFA00F0D6
:10549000B1FDFEF72BFA94F84430FF2B08BF84F8D7
:1054A000445094F84500FF2808BF84F84550FEF7A3
:1054B0002BFA01A902A800F0EBFF002845D1FEF766
:1054C00015FAA26BE36B9A42CCD1FEF71DFA019953
:1054D00004F1100000F044FF2046FFF753FE00F0F7
:1054E00045FEB0B1FEF702FAA26BE36B9A42C6D258
:1054F000324639462046FFF715FE636A73BB50BB40
:10550000FEF702FA012005B0F0BD02A800F0B4FFDA
:10551000BBE7FEF7DFF9E5E7019B002B97D040F2F0
:105520001131194B194A1A4801F014FA036C002B77
:1055300083D040F20D31174B144A154801F00AFA96
:10554000FEF7E2F9002005B0F0BD2046FFF71AFE95
:1055500000F00CFEF6E7FEF7BDF9D1E704F12400F8
:1055600000F040FF0028CBD0F5E740F20E310A4BA7
:10557000064A074801F0EEF94FF44371074B034A1E
:10558000034801F0E7F900BF64A1016024A30160B2
:10559000789F0160BCA0016014A10160709F016050
:1055A0002DE9F04100284DD004460D4690461E4698
:1055B00071B3022E1ED1E36B012B4AD1FEF78AFA9A
:1055C0000746A36B294694F84550324620466DB2F3
:1055D000A36BFFF7A7FD6B1C24D07F2D40D00135B6
:1055E0006DB284F8455001243846FEF77FFA204614
:1055F000BDE8F081FEF76EFAA26BE36B07469A42B4
:10560000E0D300243846FEF771FA2046BDE8F08169
:10561000036C002BCDD040F2E131154B154A1648F2
:1056200001F098F9636A002BDDD004F1240000F04A
:10563000D9FE0028D7D0B8F1000FD4D00123C8F884
:105640000030D0E74FF478710C4B0A4A0A4801F059
:1056500081F940F2E2310A4B064A074801F07AF933
:1056600040F26B41074B034A034801F073F900BF56
:10567000BCA0016008A30160789F0160709F016079
:1056800014A10160B8A1016070B5002845D0036C79
:105690000446002B3AD103680D463BB3FEF71AFAD5
:1056A000A36BE26B06469A422AD994F8452001334F
:1056B000FF2AA36353B20BD07F2B35D001335BB2EB
:1056C00084F8453001243046FEF710FA204670BDBC
:1056D000636A002BF6D004F1240000F083FE00285A
:1056E000F0D0002DEED001232B60EBE78368002B78
:1056F000D4D040F29441104B104A114801F02AF9DD
:1057000000243046FEF7F2F9204670BD40F28F418A
:105710000C4B0A4A0A4801F01DF940F28B410A4B32
:10572000064A074801F016F940F21351074B034AA5
:10573000034801F00FF900BFF4A10160F4A2016079
:10574000789F0160D8A10160709F0160B8A10160DD
:10575000F0B585B00192002800F09D8004460E4609
:10576000002900F0818000F0DDFE002872D0FEF7F5
:10577000BDF8A56B002D56D1019B002B35D002A89A
