:020000021000EC
:10000000B8211160810F01608D0F01607D0F0160CB
:100010007D0F01607D0F01607D0F01600000000019
:10002000000000000000000000000000012201604C
:100030007D0F016000000000A12101607D0F0160C3
:100040007D0F01607D0F01607D0F01607D0F0160FC
:100050007D0F01607D0F01607D0F01607D0F0160EC
:100060007D0F01607D0F01607D0F01607D0F0160DC
:100070007D0F01607D0F01607D0F01607D0F0160CC
:100080007D0F01607D0F01607D0F01607D0F0160BC
:100090007D0F01607D0F01607D0F01607D0F0160AC
:1000A0007D0F01607D0F01607D0F01607D0F01609C
:1000B0007D0F01607D0F01607D0F01607D0F01608C
:1000C0007D0F01607D0F01607D0F01607D0F01607C
:1000D0007D0F01607D0F01607D0F01607D0F01606C
:1000E0007D0F01607D0F01607D0F01607D0F01605C
:1000F0007D0F01607D0F01607D0F01607D0F01604C
:10010000791301607D0F01607D0F01607D0F01603B
:100110007D0F01607D0F01607D0F01607D0F01602B
:100120007D0F01607D0F01607D0F01607D0F01601B
:100130007D0F01607D0F01607D0F01607D0F01600B
:100140007D0F01607D0F01607D0F01607D0F0160FB
:100150007D0F01609D1801607D0F01607D0F0160C2
:100160007D0F01607D0F01607D0F01607D0F0160DB
:100170007D0F01607D0F01607D0F01607D0F0160CB
:100180007D0F01607D0F01607D0F01607D0F0160BB
:100190007D0F01607D0F01607D0F01607D0F0160AB
:100650007D0F01607D0F0160052001603120016088
:10066000751F0160ED1E0160A51F01607D0F016017
:100670007D0F01607D0F01607D0F01607D0F0160C6
:100680007D0F01607D0F01607D0F01607D0F0160B6
:100690007D0F01607D0F01607D0F01607D0F0160A6
:1006A0007D0F01607D0F01607D0F01607D0F016096
:1006B0007D0F01607D0F01607D0F01607D0F016086
:1006C0007D0F01607D0F01607D0F01607D0F016076
:1006D0007D0F01607D0F01607D0F01607D0F016066
:1006E0007D0F01607D0F01607D0F01607D0F016056
:1006F0007D0F01607D0F01607D0F01607D0F016046
:100700007D0F01607D0F01607D0F01607D0F016035
:100710007D0F01607D0F01607D0F01607D0F016025
:100720007D0F01607D0F01607D0F01607D0F016015
:100730007D0F01607D0F01607D0F01607D0F016005
:100740007D0F01607D0F01607D0F01607D0F0160F5
:100750007D0F01607D0F01607D0F01607D0F0160E5
:100760007D0F01607D0F01607D0F01607D0F0160D5
:100770007D0F01607D0F01607D0F01607D0F0160C5
:100780007D0F01607D0F01607D0F01607D0F0160B5
:100790007D0F01607D0F01607D0F01607D0F0160A5
:1007A0007D0F01607D0F01607D0F01607D0F016095
:1007B0007D0F01607D0F01607D0F01607D0F016085
:020000020000FC
:020000041001E9
:10FF800000FAEF72950F0160A10F0160910F0160FF
:10FF9000910F0160910F0160910F01609D0F016051
:10FFA000000000000000000000000000910F016050
:10FFB000910F016000000000910F0160910F01603E
:02000004600199
:1000000008B500F06FF800F047FB012000F048FF52
:10001000F9E700BF014803F03DBD00BF3C5501605A
:10002000014803F037BD00BF8855016008B5054899
:1000300003F030FD00220120034B04491A700870C0
:1000400008BD00BFD85501607A0F1160BA06116073
:1000500008B5054803F01EFD00220120034B0449AA
:100060001A70087008BD00BF305601607A0F116029
:10007000BA06116008B5054803F00CFD0022012006
:10008000034B04491A70087008BD00BF9056016008
:10009000BB061160B906116008B5002206200C49A4
:1000A00000F00AFC002207200A4900F005FC0022AB
:1000B0001120094900F000FC00221220074900F03D
:1000C000FBFBBDE8084000220F20054900F0F4BB0F
:1000D00015000160210001602D00016051000160E8
:1000E000750001602DE9F04F032483B00021B5486D
:1000F00000F0ECFBB4497B220C704FF00004B34BD2
:10010000B3481A70B34BB44A0470B449B4481A6087
:10011000B44B086000F60C2018604322B249B34883
:1001200002F054FFB24AB3481378B34923F03F03B7
:1001300043F0120313700378B04A23F03F0343F0F7
:100140002403037053200B784FF0350B23F03F034B
:1001500043F006030B701378012123F01F0343F0D3
:1001600015031370A64BA74A187002201388DFF8F6
:10017000988223F47F6323F00F0343F482634FF0EC
:100180000E0A43F00303138098F80030DFF87CE296
:1001900023F03F034FF0140943F0240388F80030A4
:1001A0009EF80030DFF868C223F0030303438EF8A3
:1001B00000309CF80030974F23F03F0343F01B03BF
:1001C0008CF800303B78944E23F0070343F007038C
:1001D0003B70924B924D1F783378924C0B433370A7
:1001E0002B78914A60F301032B7023788F4E0B43D9
:1001F00023708F4C537884F800B08E4C61F3010368
:1002000084F800A08C4CDFF834A227708C4CDFF807
:1002100034C284F800908C4CDFF830922070537018
:1002200053888B4823F4407323F0030343F4407353
:1002300043F0020353800378864A23F0060343F019
:100240000603037013784DF6B34023F0030343F025
:10025000030313704FF0F5027F4B6FF07F4419706A
:100260007E4B7F491A8041F619127E4B08801A8016
:1002700040F629127C4B40F2D4501A8040F2891289
:100280007A4B41F682511A804FF4C062784B794F15
:100290001A8041F2B552784B3D461A8048F2DE6230
:1002A000764B07F1B40E1A804FF44872744BDFF8A6
:1002B000D4B11A8040F6F152734B07F1E1081A608D
:1002C00040F69102714B1A80714B724A1A60724B60
:1002D000724A1A60724B734A1A60734B734A1A60FF
:1002E000734B744A1A604FF05802734B1A804FF4E4
:1002F000E272724B1A80724B724A1A6047F654626D
:10030000714B1A8040F67552704B1A8045F6CB320D
:100310006F4B1A806F4B704A1A604FF054026F4B4C
:100320001A8040F2B1326E4B1A806E4B6E4A1A60E0
:100330006E4A6F4B108008206E4A11804FF4807116
:100340006D4A10806D4A6E48118040F6C6516D4A64
:10035000066011806C4A6D496D4811606D4A6E49A6
:10036000046011600FCBA9E807009AE80700ACE829
:10037000030029F8023B1B0C89F80030634623F880
:10038000182B0CF178020192644A0CF1580A07CA42
:1003900003C31A80624BAAF120090FCB89E80F0032
:1003A000DFF880910CF1980CB9E80F00AAE80F0073
:1003B000D9F800305C4AAAF80030019B07CA03C391
:1003C000B4E000BF00001160B81011607910116036
:1003D000B91011609810116075737200A810116047
:1003E0006663740088101160E0560160A40F11600C
:1003F0007810116074101160701011606C10116031
:100400008F0F1160980F1160A00F11605C0F1160C9
:10041000580F1160801011603C0F1160C4580160CA
:10042000F80E116080081160840811607BEA3807BB
:100430008E0F11608D0F1160500F116034570160E5
:100440005A0F1160B8081160590F11601C0F11602C
:10045000880F11608C0F11605D0F1160820F1160A9
:1004600026101160840F1160680F1160660F116013
:10047000640F1160BC061160620F1160600F1160A3
:100480005E0F1160EC570160700F11605810116021
:10049000641011608FC23642601011606666B4420B
:1004A0005C101160CDCCAC40541011609A9935426B
:1004B0004C10116000403443481011604610116028
:1004C00040101160E13A6A43361011602E1011603D
:1004D000281011603C1011603333F3403410116068
:1004E0002C10116038101160CDCC2C4232101160EC
:1004F000245701602A101160241011606C0F1160E4
:100500004C0F1160760F1160440F1160D26D624D77
:10051000480F1160FC0E1160776669005857016042
:10052000405701605057016064570160DFF8349113
:1005300001931A70B9E80F00ACE80F00D9F8003049
:10054000494A2CF8023B1B0C8CF80030474E1388AC
:10055000474CA7F887300FCE0FC50FCE0FC53368B5
:100560002B604FF00003434D87F82D300FCDC7F8B7
:100570005E10C7F86220C7F86630C7F85A002868CE
:10058000C7F86A000FCCAEE80F000FCCAEE80F0042
:1005900094E80F00AEE807008EF800305C4608F1E2
:1005A00010080FCC48F8043C334B0BF1100B9C4265
:1005B00048F8100C48F80C1C48F8082CEED15B46A3
:1005C0002E4C03CB1A889B782D4D04F1200CC8F8D3
:1005D0000000C8F80410A8F8082088F80A30264659
:1005E00010350FCE664504F1100445F8100C45F89F
:1005F0000C1C45F8082C45F8043CF0D12346214C4E
:1006000007CB1B78204E04F1200C28606960AA609B
:100610002B73254610360FCD654504F1100446F8BE
:10062000100C46F80C1C46F8082C46F8043CF0D197
:100630004FF0000C2346154A154C164D82F800C0A9
:1006400007CB30607160B2600FCD0FC40FCD0FC407
:100650002B68236087F895C103B0BDE8F04FFFF722
:100660001BBD00BF70570160645C0160845701606E
:10067000BC570160A85701600C5801601858016010
:10068000CA07116048580160F70711607A0F1160BE
:10069000240811607458016070B56F4C012200216C
:1006A0006E4800F073F923786D480133DBB2C3F371
:1006B0004011DA0942EA4102C3F3801142EA8102A1
:1006C00001782370674D21F00703134303702868F6
:1006D00004F0A8FB5CA3D3E9002304F045FA04F07E
:1006E00081FC6149044604F02FFD00B15F4C41F6E6
:1006F0004B515F4A5F4E13882C6001339BB28B4293
:1007000088BF00233068138004F08CFB50A3D3E92A
:10071000002304F029FA04F065FC5749044604F06C
:1007200013FD00B100244CF24F3041F64B5C534DA9
:10073000534B29881A88013189B20132814288BF1E
:10074000002192B2624588BF0022987893F803C0D6
:10075000013029801979C0B20CF1010C1A805A7944
:100760000C285FFA8CFC01F1010128BF0020C9B2FE
:10077000BCF11F0F02F10102D2B228BF4FF0000CF2
:100780003B2928BF00213B2A28BF012234603D4C71
:100790009870207883F803C019715A7148B13A4AA9
:1007A00013780133DBB2632B89BF002313701370FE
:1007B000237042F20E7E354940F256260B88344AA9
:1007C00001339BB2734588BF00230B80138840F22E
:1007D000CE7C05339BB2B34288BF00232D4D2E48FB
:1007E00013802E4C2A880388216802322C4E92B244
:1007F00001339BB2624588BF4FF461720131B1424F
:1008000088BF0021B3F5C77F88BFC8232A80254A47
:1008100003801378216033B123490B780133DBB2B5
:10082000632B07D80B70226820492148BDE870402F
:1008300002F05EBB00231F480B70137003F02AF90F
:10084000F1E700BFAFF30080333333333333074076
:10085000643BDF4F8D970A40B806116000001160BD
:10086000841011605C1011600000C8421904A0419E
:100870005A101160501011600000FA444A101160C3
:100880007C0F1160BA0611607A0F1160780F116049
:10089000740F11606E0F11606A0F1160700F11609C
:1008A0009F860100B9061160BB061160AC5801605B
:1008B0005108116098580160034B03EBC2035B6859
:1008C00043F83010704700BF18171160F8B52D4F6E
:1008D00003780E46044647F83100B3B92CE0092BE3
:1008E0003BD8072B43D8052B43D8033B022B88BFAB
:1008F0000025284602F05AFBE06018B12A466168DC
:1009000002F064FB14F8103FB3B1A568012DE6DCDA
:10091000092B6268E16824D8033B062BF2D8DFE894
:1009200003F02A14140404181800002AEAD01180D5
:1009300014F8103F002BE8D14FF44872124B07EB2C
:10094000C60702FB06337B60F8BD002ADAD01170BF
:10095000D8E7002AD6D01160D4E70D2B07D00025A8
:10096000C7E70D2BCED1002ACCD01160CAE7AD006D
:10097000BFE76D00BDE7002AC4D0003918BF0121D0
:100980001170BFE718171160D810116000222DE90F
:10099000F04F654E037883B000913260002B2DD06C
:1009A000044693469246614FDFF88491A16801297D
:1009B00047DC092B61687ED8033B062B00F2AF8031
:1009C000DFE803F0049A04938D3939000B78574916
:1009D0000B6057490B60E168994200D0E36014F85E
:1009E000103F002BE2D1BBF1000F01D0514B1D6035
:1009F000BAF1000F02D0504B019A1A600022009BFE
:100A00004E4F154607EBC30713464D4C32607A68CC
:100A100002EBC3031A7932B11D7193E8030084E835
:100A2000030000B1804733680133632B3360EEDD90
:100A300003B0BDE8F08F0B683C490B603C490B608C
:100A4000C9E7092B0D462FD8072B2FD8052B5AD8CD
:100A5000033B022B3FD8D4F804E00021D4F80CC0AB
:100A60000EF1FF3302E00131A94221D01CF8012030
:100A700013F8010F9042F6D000294CDBA94244D272
:100A80001EF80120E368481C85425A5406D9626862
:100A9000E368125C1A5401308542F8D14FF0010B23
:100AA0000195DA460D469AE70D2B14D18D00D2D16F
:100AB0004FF0010B93E7D1F80080E068C7F80080A1
:100AC0003B684146C9F8003004F020FB002886D17D
:100AD000C4F80C8083E74FF0010B00257FE70B88FB
:100AE00012490B6012490B6075E7B1F900300F49EC
:100AF0000B600F490B606EE791F900300B490B60FA
:100B00000B490B6067E74D00A5E74FF0010A0D4662
:100B1000D346019163E70D464FF0010B5FE7034BAE
:100B200003491B680B6056E7CC101160C4101160BC
:100B3000C8101160C0101160BC101160181711604E
:100B4000D01011604268036810B494680133C1E9A1
:100B500001246160916010BC08610360704700BFB0
:100B600030B40D686B1C10D000F108031C465B68A4
:100B70001A68AA42FAD902684B60013299608C6007
:100B80006160086130BC0260704704696368F2E725
:100B9000036910B4D0E901125C688A6051600021D9
:100BA000844208BF5A601A680161013A1A601868E5
:100BB00010BC7047F8B50546154B164E1C683068DA
:100BC0000F460430FFF7E4FF6B1C17D0336864193D
:100BD0005C6007D3104B18683168BDE8F8400431F9
:100BE000FFF7BEBF0D4B186831680431FFF7B8FF3F
:100BF0000B4B1A68A24288BF1C60F8BD002FE5D0DD
:100C0000316808480431BDE8F840FFF79BBF00BFDA
:100C100040171160DC1711607017116074171160B4
:100C20002C171160481711602DE9F04F474B83B026
:100C30001B68002B4AD1464B1E6801361E60002EF1
:100C40004DD0444B0193019B1B689E4261D3424FA0
:100C50003B681C68002C6DD00024DFF80081DFF8B1
:100C600000A1DFF8009126E00BF104052846FFF70C
:100C70008FFFDBF828201AB10BF11800FFF788FF6F
:100C8000DBF82C00D8F800202946904288BFC8F82D
:100C9000000000EB80000AEB8000FFF753FFD9F85B
:100CA00000203868DBF82C10D26A0368914228BF14
:100CB0000124002B3ED03B68DB68D3F80CB0DBF896
:100CC00004209642D0D2019B1A6023E000242046E3
:100CD000254A13680133136003B0BDE8F08F1E4B43
:100CE0001A681268002A2AD1204A18681168196007
:100CF0001F4910600A6801320A601A68126892B9C6
:100D00004FF0FF33134A01921360019B1B689E4210
:100D10009DD20024174B1B68002B18BF01242046CE
:100D200003B0BDE8F08F1B680A4ADB6801921B68BC
:100D3000136088E74FF0FF33019A1360EAE740F64B
:100D4000BC210D4B0D4A0E4802F0E4F82817116043
:100D5000401711602C171160741711603C17116057
:100D600078171160DC171160381711607017116067
:100D7000301711603417116074590160285A0160EE
:100D8000D05801602DE9F84F384C2368002B65D00E
:100D900001F08EF92368013B23602368002B4FD1BB
:100DA000334B1B68002B4BD0324D2B68002B52D09D
:100DB0004FF0010A304EDFF8C480314FDFF8C490A5
:100DC000EB68D3F80CB00BF104040BF11800FFF73B
:100DD000DFFE2046FFF7DCFE3368DBF82C002146FF
:100DE000984288BF306000EB800008EB8000FFF77E
:100DF000A9FE3B68DBF82C20DB6A9A4228BFC9F8C1
:100E000000A02B68002BDBD11F4B1A681268EAB1D7
:100E10001A681E4BD26812681A601D4E346844B1BD
:100E20000125FFF701FF08B1C9F80050013CF8D1D6
:100E30003460D9F800301BB101F02EF9012400E034
:100E4000002401F043F92046BDE8F88F4FF0FF324F
:100E50000E4B1A60E1E7DFF82C90DEE740F6A901BF
:100E60000C4B0D4A0D4802F055F800BF28171160D1
:100E7000441711605C1711603C17116078171160FE
:100E8000DC17116034171160741711602C17116092
:100E900038171160EC5901603C5A0160D05801606C
:100EA00080B108B50C4B196871B91A6801321A6023
:100EB000FFF780FEFFF766FF18B9BDE8084001F0B4
:100EC000EBB808BD01F0E8B840F23F51034B044ACB
:100ED000044802F01FF800BF28171160585901603C
:100EE0004C5A0160D05801601B4B1B681BB101229A
:100EF0001A4B1A607047194A10B5194C13602368D1
:100F0000184903EB830292008A58980042B9E3B172
:100F1000013B03EB830251F822209800002AF6D00F
:100F2000184401EB800C6146DCF80420083152685B
:100F30008A42CCF8042008BF5268D16808BFCCF8B8
:100F40000420094A1160236010BD40F6F731074BB9
:100F5000074A084801F0DEFF2817116034171160B6
:100F60003C17116078171160DC171160045A01609A
:100F7000145A0160D0580160704700BF00BE70472E
:100F800008B500F00FF8FFF73BF8FEE700BE70472A
:100F900000BE704708B500F041F8FEE700BE70479C
:100FA00000BE704770B5002001F03CF900F078F801
:100FB000012001F037F91248124A0021121A02F0FA
:100FC0007BF81148114A1249121A01F0FFFF114D26
:100FD000114B5B1B002B07DD00249E1055F8043BD2
:100FE00001349847A642F9DC00F050F8022001F0E5
:100FF00019F900F02DF9BDE870400020FFF7BCBFE3
:10100000B8061160B41F116000001160B4061160D1
:10101000FC5C0160B4061160B406116008B5094AB1
:10102000094B9A6000F0A8F8084B83F30888084B36
:1010300083F30A8800F084F900F00CF9BDE8084059
:1010400000F068B980FF011000ED00E000FAEF72D7
:1010500000F8EF720A49CA6802F4E062094B1343D0
:10106000CB60094AD2F8243B13F4007FFAD0064A39
:10107000D2F81C3B43F00103C2F81C3B30BFFEE733
:1010800000ED00E00400FA0500020241024A034BB1
:1010900052681A60704700BFF0051160E0171160D8
:1010A00030B433A5D5E900452D4B2E482E492F4AA3
:1010B000C3E9004518A5D5E900451865C3E902450F
:1010C00017A5D5E900451160C3E9064516A1D1E988
:1010D000000117A5D5E90045C3E9040116A1D1E92E
:1010E0000001C3E90A4516A5D5E90045C3E9080191
:1010F00015A1D1E90001C3E90E4530BCC3E90C01DB
:1011000013A1D1E90001C3E9100113A1D1E9000144
:10111000C3E91201704700BF0065CD1DE02E00003D
:1011200040EFC41F40EFC41F00C2EB0B00E1F50508
:10113000A077E20F005ED0B200C2EB0B005ED0B22F
:1011400000B4C40400E1F5058026FE0080B2E60E7E
:1011500000E1F50500C2EB0B00E1F5050084D717AF
:10116000F005116000366E0100C2EB0BE017116054
:10117000008C864700C2EB0B30B433A5D5E900459F
:101180002D4B2E482E492F4AC3E9004518A5D5E915
:1011900000451865C3E9024517A5D5E9004511606A
:1011A000C3E9064516A1D1E9000117A5D5E9004517
:1011B000C3E9040116A1D1E90001C3E90A4516A556
:1011C000D5E90045C3E9080115A1D1E90001C3E94A
:1011D0000E4530BCC3E90C0113A1D1E90001C3E9FC
:1011E000100113A1D1E90001C3E91201704700BF4A
:1011F0000065CD1DE02E000040EFC41F40EFC41F6E
:1012000000C2EB0B00E1F505A077E20F005ED0B263
:1012100000C2EB0B005ED0B200B4C40400E1F505DF
:101220008026FE0080B2E60E00E1F50500C2EB0B61
:1012300000E1F5050084D717F005116000366E0156
:1012400000C2EB0BE0171160008C864700C2EB0B6D
:1012500000BF70474FF001131B4A10B4C2F82C3581
:10126000D2F8AC36D907FBD54FF001131649C2F8B6
:101270002C38D1F8AC39DA07FBD44FF00113124AFD
:10128000C1F82C35D2F8AC36DB07FBD54FF0011393
:101290000D49C2F82C38D1F8AC3913F00103FAD15A
:1012A0004FF0FF30094C0A49D4F81C2B22F0010200
:1012B000C4F81C2B03F1A00201330F2B41F82200CC
:1012C000F8D110BC704700BF00000141000202418C
:1012D00000E100E00C4A08B50346106840B1033352
:1012E0000A4923F0030303448B4205D8136008BD69
:1012F000074908461160F2E701F030FE0C22034670
:101300004FF0FF301A6008BD681F1160B81F1160F0
:10131000B81F1160064A074953688A6023F0010329
:10132000054981F38A88126882F388889C47704750
:101330000000010000ED02E0B81F1160704700BF1F
:10134000022249F6F77108B50A4BC3F8D0201A6992
:1013500022F00C021A61DA680A4042F0BF6242F4DD
:101360000832DA605A6A42F400225A62FFF7E6FF56
:1013700008BD00BF00ED00E070B584B0EFF303835B
:10138000C3F30803104A103B1BB252F823406368B2
:1013900026691B78012B04BFA268137686B16369A6
:1013A00001AD7BB193E8070085E80700A269184604
:1013B0001A60B04763691BB195E8070083E807002E
:1013C00004B070BD2B46F1E7E81711602DE9F0413C
:1013D00003240122C0F3072EAEF10203C0F3850CF3
:1013E000264F20400CEB430C5FFA8CFC00FA04F310
:1013F00004FA03F057F82C409A4024EA0208C1F39B
:1014000080449C401E4E44EA080447F82C4056F89D
:101410002C70C1F3812427EA00079C40194D3C43FE
:1014200046F82C4055F82C60C1F3404426EA0206E9
:101430009C403443BEF1010F45F82C401BD1D243F0
:10144000C043114CC1F3C045A6689D4032402A43B9
:10145000A260D4F80854C1F3015205409A402A43CF
:10146000C4F80824D4F80828C1F3815110409940E9
:101470000143C4F80818BDE8F08100BF101803410B
:101480001010034110140341002003412DE9F04FD7
:10149000072401264FF0030EC7B24FEA870887B032
:1014A00004FA08F40194C1F3812406FA07FA0294BD
:1014B000C1F34044050A00EA0E02C0F385035FFA57
:1014C0008AFB0394C1F3011402FA0EF203EB450305
:1014D0000494BBF1FF0FC1F3C044E8B2C1F3004C68
:1014E0000594C1F30155C1F38154DFF8D490DBB208
:1014F0000EFA02FE06FA02F6C1F3026109D00CFAF6
:1015000007F710F809C02CEA0A0C4CEA070C5FFA3E
:101510008CFC00F809C0DFF8ACB0029FDDF80CC00D
:10152000DDF8149001FA08F1DDF810800CFA02FCE5
:1015300008FA02F809FA02F99740954094405BF8DE
:101540002320DFF884A022EA0E0217434BF8237011
:101550005AF823201D4F22EA06024CEA0202DFF865
:1015600070C04AF823205CF8232022EA0E0248EAE1
:1015700002024CF8232057F8232022EA060249EA07
:10158000020247F8232007F5806757F82320114E01
:1015900022EA0E02154347F8235056F8232022EA88
:1015A0000E0214430C4A46F8234052F82030019CA6
:1015B00023EA0403194342F8201007B0BDE8F08F76
:1015C0001002034180100341801403418020034135
:1015D000801C034180280341400403414FF0030C69
:1015E0002DE9F04F012400EA0C02C6B202FA0CF217
:1015F0008BB004FA06F894400594740009940CFA30
:1016000004F4050AC0F385030894A4B2C1F3810968
:1016100003EB4503E8B204945FFA88F5C1F3812433
:1016200002960395C1F3004E0694C1F34047C1F3FF
:101630000116C1F38035C1F3C044C1F3015BC1F3AE
:10164000815ACDF8009001F001095FFA88F1FF2975
:10165000DBB2CDF81C800CFA02FCCDF804900CD063
:1016600002990EFA01F1DFF800E110F80EE02EEA1F
:10167000080E4EEA010E5FFA8EFE3B49974000F8D5
:1016800001E00699964001FA02FE384995409440DF
:101690000BFA02FB0AFA02FA51F82320DDF8148053
:1016A00022EA0C024EEA0202DFF8C4E041F82320ED
:1016B0005EF823204FF6FF7922EA080217434EF81E
:1016C000237001F5406151F8232022EA0C021643F1
:1016D00041F82360274E01F5806156F8232022EA65
:1016E0000802154346F8235051F8232022EA080245
:1016F000144341F82340204C01F5006154F82320A5
:1017000022EA0C024BEA020244F8232051F823207B
:1017100022EA0C024AEA020241F82320049B174AFB
:101720004B450BD00099099B089C994032F810302A
:101730009BB223EA04030B439BB20093009B104926
:1017400022F81030039BFF2B09D0DDE90132079C02
:101750009340425C22EA04021343DBB20193019BF3
:1017600043540BB0BDE8F08F1002034180100341D9
:1017700080140341802C0341802403412001034154
:101780001000034170B50546EFF31082012383F387
:101790001088204E33681BB91F490B7540230B7509
:1017A00033680133336082F310882B88DBB1002467
:1017B00006E0FFF76BFE2A880134A3B29A4212D9E1
:1017C0006B68A2B203EBC201486853F83210B0F55F
:1017D000803F1BD2CB03ECD4FFF700FF01342A88F3
:1017E000A3B29A42ECD8EFF31082012383F310885E
:1017F000336813B13368013B336033681BB9802011
:1018000005490B75087582F3108870BDFFF7DEFD82
:10181000D1E700BFE41711600030034108B5034B66
:1018200003600846FFF7AEFF002008BD54524F503A
:10183000F0B5194B00B253F8204085B0237C012B42
:101840001FD0E3B9A3681A69CAB10122A1690F6860
:101850009A61E6699EB1236A01ADD3B193E80700AE
:1018600085E80700626A18461A60E268C3E9012742
:10187000B047236A1BB195E8070083E8070005B06D
:10188000F0BDA26811680029F9D0A1690F689360C2
:10189000DFE72B46E6E700BFE8171160EFF30380B0
:1018A000C0F30800103800B2FFF7C2BF10B4002424
:1018B00001238269D0F81CC00460ACF80440546A6B
:1018C000B2F9062034494FEA521C02F01F0203FA13
:1018D00002F20CF1200C41F82C20BFF34F8FBFF324
:1018E0006F8F8269B2F912204FEA521C02F01F0278
:1018F00003FA02F20CF1200C41F82C20BFF34F8FB9
:10190000BFF36F8FB4F902204FEA521C02F01F029E
:1019100003FA02F20CF1200C41F82C20BFF34F8F98
:10192000BFF36F8F8269B2F90A204FEA521C02F0AE
:101930001F0203FA02F20CF1200C41F82C20BFF335
:101940004F8FBFF36F8F8269B2F90E204FEA521C9E
:1019500002F01F0203FA02F20CF1200C41F82C20D5
:10196000BFF34F8FBFF36F8F81690C4A09788B40AB
:101970001804C2F88405D2F804071840FBD14FF4CC
:10198000803301318B406FEA13436FEA0343044A0B
:1019900010BC9366936E704700E100E000000141C7
:1019A000000B014103460020C3E90412704700BF49
:1019B000844600B5DCF81C300020B3F804E06FF377
:1019C000C71EA3F804E0B3F804E06FF3820EA3F897
:1019D00004E0CCE902129A8842F080029A805DF815
:1019E00004FB00BF84460020CCE90A32CCF8241066
:1019F000704700BF4FF0FF3300200B604B60704713
:101A00000346024A00201A60704700BF010001012E
:101A1000F0B5846A85B005460F4694466E46B4B16B
:101A200094E80F0086E80F00AB6920461B7884F825
:101A300004C02360EB6AC4E902736B6A9847AC6A1E
:101A40001CB196E80F0084E80F0005B0F0BD3446E5
:101A5000EAE700BFC369DA89D10629D010B5044688
:101A60000BE05B071FD463698BB904222046FFF7A4
:101A7000CFFFE369DA89D20619D01A89997A93B22D
:101A80001207C9B2EDD558070FD41022EEE723692B
:101A90001970D4E9043101330139C4E90431002952
:101AA000E7D10122E2E70822E0E71822DEE710BDD5
:101AB000704700BF8B0784462AD50020DCF81C2025
:101AC000938823F084031B041B0C9380CCF80C0038
:101AD000938943F00403938193895807FCD5002030
:101AE00093896FF382039381CA0710D50023DCF832
:101AF0001C20CCF81430938943F00203938193891E
:101B00009B07FCD5002093896FF3410393817047B5
:101B10000620E9E710B50024C3699A8892B222F042
:101B2000F4021FFA82FCA3F804C08460187D00F060
:101B30004E041C7591F801C083F802C091F800C0F2
:101B4000B3F800E0CCF3C10C6CF3010EA3F800E095
:101B500091F800C01CF0020F06D091F902C091F874
:101B600002E0BCF1000F0DDB097842F07002C1F316
:101B7000800001F0010141EAC011214319750020E4
:101B80009A8010BD44F01000187544F0200483F8CA
:101B900002E0E9E72DE9F047044600250122087834
:101BA000B1F9126000F5801000F597708002E061D5
:101BB000C869C94B6062086AA161C4E90A5070092A
:101BC00006F01F05203002FA05F5D1F824C00F7C7D
:101BD00043F82050BFF34F8FBFF36F8F981980F8F1
:101BE0000073B1F90650BD4805F01F0740F82640C4
:101BF0006E09203602FA07F791F804E043F82670E0
:101C0000BFF34F8FBFF36F8F5E1986F800E340F884
:101C10002540BCF902509CF800C06E0905F01F0772
:101C2000203602FA07F743F82670BFF34F8FBFF351
:101C30006F8F5E1986F800C340F82540B1F90A504D
:101C400091F808C06E0905F01F07203602FA07F761
:101C500043F82670BFF34F8FBFF36F8F5E1986F87E
:101C600000C340F82540B1F90E5091F80CC06E0940
:101C700005F01F07203602FA07F743F82670BFF376
:101C80004F8FBFF36F8F2B4483F800C340F825407C
:101C90000878831802FA03F3824091481B04836694
:101CA000836E42EA0245A0F53060C0F88455D0F852
:101CB00004371A42FBD0C0F884588A48D0F8043A56
:101CC0001340FBD1E2699380908980B240F0060016
:101CD00090811089486A1381558A53820579002DB5
:101CE00000F0EE80012D0BBF4FF0710C4FF0720C25
:101CF0000123022393804B788E78A3F10103B3FA7A
:101D000083F35B09C9789B012EB1032E14BF43F006
:101D1000200343F03003012908BF43F008039BB2BE
:101D20001380AB1E012B00F2AA80A5F10205B5FAC3
:101D300085F5FF236D09157593709389A5699BB28D
:101D400043F0060323F4FE636E6A99B29181317BFE
:101D50000F1F0E2F7FD8090201F5FA4189B2767B59
:101D6000D182062E9CBF013643EA062323F00603E8
:101D70009BB293814179137D00297CD043F0040309
:101D8000137501214FF000094FF0030EB5F906A0BD
:101D9000B5F912804FEA5A139B000AF01F0A03F1AB
:101DA000604303F5614301FA0AFAB5F90A60B0F934
:101DB0000270B5F90E50C4E90399C4F80890A4F86C
:101DC00020E0C4F81490C3F880A1C3F800A04FEA43
:101DD00058139B0008F01F0803F1604301FA08F84C
:101DE00003F56143C3F88081C3F800807B099B0041
:101DF00007F01F0703F1604301FA07F703F561439A
:101E0000C3F880711F6073099B0006F01F0603F181
:101E1000604301FA06F603F56143C3F880611E6072
:101E20006B099B0005F01F0503F1604303F5614357
:101E3000A940C3F880111960A2F804C0037D8BB1DA
:101E4000938943F008039381274BA2F810E0002008
:101E50002360BDE8F0874F1E022F98BF43EA81132D
:101E600000217CE74FF0C30EA4F820E0918963F3D2
:101E7000C3019181E8E761F38203137581E7157D62
:101E8000836805F04E07197817755D78C1F3C101B5
:101E9000957015883E4661F301051580197889070C
:101EA00004D593F902109D7800290DDB1B78C3F34C
:101EB000800103F0010343EAC113334313753CE788
:101EC0004FF0700C2B4615E747F01007177546F0DA
:101ED00020069570EAE700BF00E100E0E817116016
:101EE000000B0141000001415546435310B4EFF38C
:101EF0000383C3F308031E4A103B1BB252F82300AE
:101F000083699B691BB1C3681BB110BC7047C16872
:101F100071B90021C4698022A38823F080031B04C7
:101F20001B0C43F00403A38010BC8160FFF770BD5D
:101F30008268C46912F8013BA3714B1EC0E90223F9
:101F4000B4F80EC0CCF3042CBCF10F0F0BD8113930
:101F5000614443B112F801CB013B8B4284F806C0C7
:101F6000C0E90223F5D122896FF345122281CBE724
:101F7000E817116010B5EFF30383C3F30803084AB1
:101F8000103B1BB252F823402046FFF763FDE26985
:101F9000138923F002031B041B0C138110BD00BF27
:101FA000E817116038B5EFF30383C3F30803144A4D
:101FB000103B1BB252F82350EA691489A4B224F0F2
:101FC00041039BB21381E20715D4630612D5EC6975
:101FD000EA68A3889BB252B123F004039BB228465F
:101FE000A3800222BDE838400021FFF711BD23F095
:101FF0008403F3E738BD2846FFF72CFDE5E700BF73
:10200000E8171160EFF30383C3F30803074A103B9B
:102010001BB252F82330DA6911898BB2090644BF2A
:1020200023F080039BB21381704700BFE817116053
:10203000EFF30383C3F30803164A103B1BB252F8B5
:102040002300C1690A894B8A1FFA82FCD2069BB21F
:1020500003D4DA071AD5202206E0DA072CF0100C98
:102060000BD560221FFA8CFC23F001039BB2A1F870
:1020700008C04B820021FFF7CBBC1FFA8CFCA1F8F3
:1020800008C040224B820021FFF7C2BCA1F808C063
:102090004B827047E81711604FF0E0234FF08052F9
:1020A000C3F8042DBFF34F8FBFF36F8F704700BF8E
:1020B00008B500F05FF8044A136801331360BFF3FA
:1020C0004F8FBFF36F8F08BD4406116008B50A4BF0
:1020D0001A684AB11A68013A1A60186800B108BD56
:1020E000BDE8084000F052B84FF44671034B044A73
:1020F000044800F00FFF00BF44061160145B01604C
:10210000545B0160985A016008B5836913F8023C7A
:10211000022B03D1BDE8084000F012B840F2AB3109
:10212000024B034A034800F0F5FE00BF285B016044
:10213000405B0160985A0160000000000000000050
:102140000B4A1168086806C881F30B88022181F3E5
:102150001488203080F30988BFF36F8F4FF00000A0
:1021600080F31188104700BFAFF30080AFF3008009
:10217000DC171160EFF311804FF0010181F311883A
:10218000BFF34F8FBFF36F8F704700BF80F311888D
:10219000BFF34F8FBFF36F8F704700BF0000000089
:1021A000EFF30980EFF30B82734620E9FC0F104A2E
:1021B000116808604FF0010080F31188BFF34F8F62
:1021C000BFF36F8FFEF790FE4FF0000080F3118891
:1021D000074A11680868B0E8FC0F82F30B8880F3A7
:1021E00009881847AFF30080AFF30080AFF3008099
:1021F000DC1711600000000000000000000000007B
:102200001EF0040F0CBFEFF30880EFF309800449C0
:10221000084700BFAFF30080AFF30080AFF300804A
:1022200009210160022800D0704702490248FFF7E7
:10223000F5BA00BF045C01606C1F11602DE9F04F1E
:1022400000248DB01646DDE916359DF868209DF80E
:1022500060C0A24214BF30272027BCF1010F0197B4
:1022600080468B46CDE90644CDE90844CDE90A44D1
:10227000199F9DF86C9000F0CF80BCF1040F00F026
:10228000B68053EA050141D13023012F8DF8183073
:1022900040F3CB8001253168039402946FF0004A2B
:1022A0005C4693460EE0B8F1000F05D08C4203D98E
:1022B000019B08F80130316801313160013FAF42C4
:1022C0000FDD31685145F9D2B9F1010FEBD848461D
:1022D000019900F0BBFD3268013F0132AF4232602C
:1022E000EFDC5A46A346DDE90243002B00F0FF80F5
:1022F0002AB96FF0004133688B421A4668D3002C2C
:1023000000F0BB80336806AA029292E00394ACF11D
:10231000020A0DF1180E0020CDE9048B76495FFA10
:102320008AFACDF808E02BE05C1944F10004A1FB27
:10233000048B2BF0030808EB9B08A4EB08041B1B81
:1023400065F100084FF0CC3505FB03F501FB08559E
:10235000A3FB01831D44052308F0010BABFB033BEA
:102360001B194FEA580830335CB248EAC5736D0850
:1023700053EA05080EF8014B00F1010419D020467C
:10238000BAF1010F03F00F04CED8BCF1020F0CBF5D
:10239000DFF86881DFF868811B0918F9044043EA17
:1023A00005732D0953EA05080EF8014B00F10104ED
:1023B000E5D1DDE9048B039B002B68D0851C02BBB3
:1023C000BD425DDB6FF0004133688B421A469AD202
:1023D000B9F1010F77D9B8F1000F05D09B4503D9AA
:1023E0002D2208F8032032680132326087E753EA71
:1023F000050149D13023022501248DF81830002A27
:10240000DED06FF0004033688342194643D3BD42AB
:10241000BFF679AF039240E7A542BFF632AF5B4209
:1024200065EB4505CDF80CC071E7012406AA3368B9
:102430000292029D013C6FF0004725440DE0B8F187
:10244000000F04D09B4584BF08F8031033680133A4
:102450003360013D8CB13368013CBB42F9D2B9F124
:10246000010F95F90010EAD8484600F0EFFC3368F8
:10247000013D01333360002CEDD10DB0BDE8F08F8C
:1024800001233168039308E7012103913FE7BC4230
:1024900015DB3368CDE7B9F1010F1AD9B8F1000F98
:1024A00005D09B4503D92D2308F80130316801314F
:1024B000BD423160AEDB06AA0B460292B9E7254663
:1024C00031680446E9E62D21484600F0BFFC326839
:1024D0008AE72D214846029200F0B8FC3368BD42DD
:1024E00003F101031946029A336093DB0BE706AA56
:1024F0002C46336802929CE7CDCCCCCCF45B0160D7
:10250000E45B01602DE9F04F002693B09DF8704028
:10251000934607941196002A00F08C80B1428E46B3
:10252000C0F2848084469A4640F0888092F9001078
:10253000084600297BD001260024E0460C96CDF801
:1025400020E0252940F0BF80621C1BF902900BEBB4
:102550000203B9F12D0F00F0CD80A9F12001C9B21D
:102560000B2900F22F8140F60907CF4017F0010731
:1025700040F0C080B9F12A0F144640F033810025A5
:102580002F4601341BF904900AF1040AB9F12E0F09
:1025900000F0D7806FF000410991B9F1680F00F0A9
:1025A000F580B9F16C0F00F0FF80A9F14C01C9B2C0
:1025B0002E2988BF00204CD9A9F14601322900F20A
:1025C0001C81DFE811F0340134011A011A011A01EB
:1025D0001A011A011A011A011A011A011A011A0123
:1025E0001A011A011A011A011A01C5011A011A0168
:1025F0001A011A011A011A011A011A011A011A0103
:102600004A021A011A01340134011A0150001A0158
:102610001A011A011A011A011A011F021A011A01DC
:10262000EE011A01C5011A011A01C501304613B0A5
:10263000BDE8F08F104613B0BDE8F08F01F1FF3E0A
:1026400092F9001000297FF477AF0028EFD00846F8
:1026500034E3BD48405C00F00F010C441BF90490CA
:10266000B9F1640FA8D1822840F01D830AF1070A4E
:102670002AF0070ADAF804305AF8082BCDE90023CB
:10268000079B404605930123CDE9035702931C4461
:10269000089911AAFFF7D2FD0BEB040393F9001080
:1026A00000297FF44EAFC4460C9EDDF820E011985F
:1026B000B8F1000FBBD0002EB9D1704540F2FD82B9
:1026C00008F80E60B3E76FF00043119D9D420DD2F4
:1026D000079B012B40F28880B8F1000F04D0089BC3
:1026E0009D4238BF08F805100135119501340BEBF8
:1026F0000403D3E702341BF90490B9F12A0F3FF425
:102700003EAFB9F1300F61D00027A9F13001C8B256
:10271000092800F2668300255C44264614F9019FCF
:1027200049B205EB850501EB4505A9F13001C8B2B9
:102730000928F2D9CBF10104B9F12E0F34447FF40A
:1027400029AF661C1BF906900BEB0600B9F12A0FA6
:1027500000F09F81A9F13001CCB2092C00F2128364
:102760000026844610F9019F49B206EB860601EB6C
:102770004606A9F13001CCB2092CF2D9CBF1010403
:10278000B9F1680F099664447FF40BAF611C1BF923
:102790000190B9F1680F00F08381B9F1640F0C4624
:1027A00000F07B82112007E7611C1BF90190B9F151
:1027B0006C0F00F0EF81B9F1640F0C4600F0C68297
:1027C0002120F9E6B9F1300F14469DD15C44214631
:1027D00014F9019FB9F1300FF9D0CBF101040127B1
:1027E0000C4492E73D46D1E618460134013500F02D
:1027F0002DFB11950BEB040350E76FF00041119D89
:102800008D420ED20799012940F2C082B8F1000F23
:1028100005D008998D423CBF252108F805100135E7
:102820001195B9F1250F3FF461AF144636E70AF16F
:10283000070A2AF0070AFAE8022310461946CDE9EA
:102840000A2302F095FC6FF00043099A81469A42F0
:102850000E460D9100F036821346002A00F03682B3
:102860000133ED1A25EAE575334659EA030308D129
:10287000DDE90A010022002302F08CFB002840F071
:102880006B82079BCDE903570593012311AF3A46AD
:1028900040460899CDF8009001960293FFF7CEFCD0
:1028A000099B002B3FF422AF6FF00043119D9D4226
:1028B0000ED2079B012B40F29782B8F1000F05D092
:1028C000089B9D423CBF2E2308F805300135119529
:1028D000DDE90A56002200232846314602F05AFB61
:1028E000002840F02082DDE90A0102F059FC894607
:1028F000054602F0B9FA02460B46DDE90A0102F08C
:1029000031F902460B46CDE90A2300220F4B4E4611
:1029100002F05EFB002840F0FC81013549F1000324
:102920001E46099B3A460393079B404605930123A5
:102930000493002308990293009501960134FFF750
:102940007DFC0BEB0403A9E6B45B01600000E0BF73
:10295000822800F0958151285AF8043B00F010823B
:10296000722800F0F181112800F007820022CDE9E1
:102970000032079BB9F1750FCDE90357059304F1B8
:10298000010400F0E681B9F1580F0CBF03230223C4
:1029900002934046089911AAFFF750FC0BEB040381
:1029A0007CE6534653F8049B99F9001000296BD03C
:1029B000099A002A68D0099E0A944F4644466FF04F
:1029C000004ADDF81C80099310E01CB1089B9D4271
:1029D00038BF61550135119517F9011FF51B002905
:1029E00000F0578119EB050F00F05381119D5545FB
:1029F000F2D2B8F1010FE8D84046013500F026FACE
:102A00001195E9E76FF00047119D5AF8046BBD423C
:102A100017D2079B012B40F2C481B8F1000F00F0E0
:102A20008B81089B9D4280F0D681302308F80530C9
:102A30000135089B9D423CBF782308F805300135DD
:102A40001195079B0322059300230096F617CDE905
:102A500003330196013402929BE76FF00042119D0F
:102A60000AF1040395420FD2079A9AF90010012A3D
:102A700040F2A781B8F1000F04D0089A954238BF00
:102A800008F805100135119501349A460BEB040343
:102A900004E65AF8041B02341BF9049009917CE502
:102AA00002341BF90490B9F1640F6DD0A9F146010D
:102AB00032293FF6A2AE01A050F821F02F28016084
:102AC0002F280160FB270160FB270160FB270160C5
:102AD000FB270160FB270160FB270160FB270160EA
:102AE000FB270160FB270160FB270160FB270160DA
:102AF000FB270160FB270160FB270160FB270160CA
:102B0000FB270160452D0160FB270160FB27016069
:102B1000FB270160FB270160FB270160FB270160A9
:102B2000FB270160FB270160FB270160FB27016099
:102B30005B2A0160FB270160FB2701602F280160F1
:102B40002F280160FB270160892B0160FB270160B2
:102B5000FB270160FB270160FB270160FB27016069
:102B6000FB270160052A0160FB270160FB2701604C
:102B7000A3290160FB270160452D0160FB2701604F
:102B8000FB270160452D01605AF8043B5AB243F31C
:102B9000C01373E502341BF90490B9F1640F3FF4DC
:102BA00065ADA9F1460132293FF627AE01A050F8E4
:102BB00021F000BF2F2801602F280160FB27016052
:102BC000FB270160FB270160FB270160FB270160F9
:102BD000FB270160FB270160FB270160FB270160E9
:102BE000FB270160FB270160FB270160FB270160D9
:102BF000FB270160FB270160FB270160812C01603E
:102C0000FB270160FB270160FB270160FB270160B8
:102C1000FB270160FB270160FB270160FB270160A8
:102C2000FB270160FB2701605B2A0160FB27016035
:102C3000FB2701602F2801602F280160FB2701601E
:102C40006D260160FB270160FB270160FB27016007
:102C5000FB270160FB270160FB270160052A01605B
:102C6000FB270160FB270160A3290160FB270160AE
:102C7000812C0160FB270160FB270160812C016032
:102C80000AF1070A2AF0070ADAF804205AF8083B82
:102C90006DE6A046099B0A9CF6E65AF8043B1AB278
:102CA00043F3C033EAE411285AF8043BF7D0722802
:102CB0003FF46CAF1A46DB17E0E4844400238CF841
:102CC0000030B4E4062207230992CAE50D9902F008
:102CD000D3F802460B46DDE90A0101F043FF024644
:102CE0000B46CDE90A230022434B02F071F940B1B3
:102CF000DDE90A010022414B02F04CF900287FF483
:102D0000B3AD19F1010399460D9B43F100031E4633
:102D1000AAE50022DDE90A01384B02F03BF9002860
:102D20007FF4FFADF9E506F100430E950F93DDE961
:102D30000E23CDE90A23D6E50135BD4211957FF476
:102D40007EAE7EE65AF8043BDBB20FE65AF8043B4F
:102D5000B0E7002302931CE6079BCDE9035700264A
:102D600000250593042311AF3A464046CDE90056AD
:102D700008990293FFF762FA92E500229BB2F6E50A
:102D8000DA17F4E500213446099106E42521079875
:102D90000135CDE9092300F059F8DDE90923119542
:102DA0003FE51846302100F051F86B1CBB421193EF
:102DB0003FF447AE78210798023500F047F81195A7
:102DC0003FE61046013401359A4600F03FF8119570
:102DD0000BEB040362E40135BD4211957FF429AE8B
:102DE0002FE60025FFF7D2BB2E211846013500F053
:102DF0002DF811956CE500BF0000E0BF0000E03F3A
:102E00000379DA0701D500BF0379990701D500BF1F
:102E100003795A0701D500BF0379190701D500BF0F
:102E20000379DA0601D500BF0379990601D500BF01
:102E300003795A0601D500BF03791B0602D501228A
:102E4000014B1A60704700BF4C0611602DE9F0433A
:102E5000DFF88C90234ED9F800400D46B768D6F8BD
:102E6000008085B064B971683B6840469847234646
:102E700022464046BC691C49A0470123C9F80030DE
:102E80000A2D13D0194C0DF10F018DF80F500025AC
:102E9000BB68404601222560984723681BB930BFB4
:102EA0002368002BFBD005B0BDE8F0830D23002282
:102EB0000E4C8DF80F300DF10F01BB6822604046BB
:102EC00001220191984723680199002BDDD130BF81
:102ED0002368002BFBD0B768D6F80080D5E700BF89
:102EE000A41F1160685B0160012E01604C06116037
:102EF0000EB410B5022485B007AB53F8042B6FF065
:102F0000004100940393FFF7FDFA05B0BDE81040BF
:102F100003B070470A4D14461A4603462E680D4604
:102F200000B5F06885B044B106490095CDE90114BB
:102F3000054900F027F800F0A9FE04490C46F4E723
:102F4000500611601C5C01602C5C0160285C016013
:102F500008B513460022FFF7DDFF00BF014B1868DC
:102F6000704700BF500611600CB400B583B004ABCD
:102F700053F8042B019300F0E1F903B05DF804EB82
:102F800002B070470EB410B583B0074C014605ABD4
:102F9000206853F8042B019300F0D0F903B0BDE88A
:102FA000104003B0704700BF50061160024B01464D
:102FB000186800F02FB900BF50061160024B01469F
:102FC000186800F0CBB800BF50061160844641EA93
:102FD000000313F0030349D1403A23D30B68036085
:102FE0004B6843608B688360CB68C3600B69036187
:102FF0004B6943618B698361CB69C3610B6A03626F
:103000004B6A43628B6A8362CB6AC3620B6B036356
:103010004B6B43638B6B8363CB6BC363403040313B
:10302000403ADBD230320BD30B6803604B6843600D
:103030008B688360CB68C36010301031103AF3D2D4
:103040000C3205D351F8043B40F8043B043AF9D262
:10305000043208D0D2071CBF11F8013B00F8013B35
:1030600001D30B8803806046704700BF082A13D342
:103070008B07B1D010F00303AED0C3F10403D21A12
:10308000DB071CBF11F8013B00F8013BA4D331F86A
:10309000023B20F8023B9FE7043AD9D3013A11F8EA
:1030A000013B00F8013BF9D20B7803704B78437079
:1030B0008B7883706046704770B5860748D0541E81
:1030C000002A3FD0CAB2034601E0013C3AD303F8DC
:1030D000012B9D07F9D1032C2DD9CDB20F2C45EA38
:1030E000052545EA054536D9A4F1100C03F1200E5B
:1030F00003F110022CF00F064FEA1C1CB64442E903
:10310000045542E9025510327245F8D10CF1010222
:1031100014F00C0F04F00F0C03EB021213D0ACF1FF
:10312000040323F003030433134442F8045B934283
:10313000FBD10CF003042CB1CAB21C4403F8012BE0
:103140009C42FBD170BD64461346002CF4D1F9E7D4
:1031500003461446BFE71A46A446E0E700293CD0E0
:1031600038B551F8043C0C1F0546002BB8BFE418D5
:1031700001F0ACFA264A1368002B3BD0A34214D8C6
:103180001A465B680BB1A342FAD911685018A042E5
:1031900024D036D821686018834211D0636054600F
:1031A0002846BDE8384001F093BA21686018834290
:1031B0000DD0636028461460BDE8384001F088BA3D
:1031C00018685B680144C4E900135460E8E71868B4
:1031D0005B680144C4E90013ECE7704720680144D0
:1031E000501811608342DBD1D3E900030144C2E9E6
:1031F0000013D5E7284663601460BDE8384001F04D
:1032000067BA0C2328462B60BDE8384001F060BA4D
:10321000A81F1160F8B5CD1C064625F0030508353A
:103220000C2D38BF0C25002D15DBA94213D8254FD6
:1032300001F04CFA3A6892B1144603E06368224602
:103240001C4663B123685B1BF8D40B2B28D9236081
:103250001C44256017E00C2300203360F8BD79681A
:1032600059B32946304600F01DFC431C1ED0C41C37
:1032700024F00304A04205D0211A304600F012FCCD
:10328000013013D02560304601F022FA04F10B0022
:10329000231D20F00700C21AE0D01B1AA350F8BD6E
:1032A000636894420CBF3B605360ECE70C233046EC
:1032B000336001F00DFA0020F8BD304600F0F2FB5B
:1032C0007860CEE7A81F11609368013B002B9360E4
:1032D00005DAD2F818C0634507DB0A2905D0136860
:1032E000581C106008461970704700F0EDBB00BF15
:1032F0009BB1F8B5134406460F46541E5D1E01E00F
:10330000AC4208D014F8011F3A463046FFF7DCFF04
:10331000431CF5D1F8BD0020F8BD0020704700BF68
:10332000936810B5144613B91846536010BD00F0E9
:10333000CBFE0023C4E9013310BD00BF2DE9F04FDF
:1033400088469FB015461C46814618B18369002BFC
:1033500000F0B480934B984500F0B680924B9845AE
:1033600000F0C380914B984508BFD9F80C80B8F89D
:103370000C30180740F1AF80D8F81030002B00F067
:10338000AA80002329788A4E01270B9320230594D5
:103390008DF8313030238DF83230002973D0252953
:1033A00071D02C46A34614F8012F0AB1252AF9D171
:1033B000631B039373D1002A69D000234FF0FF32BF
:1033C0000134069309938DF85B301C93CDE90723F4
:1033D00004E0801B07FA00F018430690A24605227D
:1033E000304614F8011B01F0B7F8069B0028F0D115
:1033F000D90602D520228DF85B201A0702D52B2290
:103400008DF85B209AF800102A2971D1059A111DB8
:103410001268002A0591C0F29E8009920AF1010506
:103420009AF801102E2976D0624C0322204601F032
:1034300093F838B1001B4024069B013504FA00F0D4
:103440000343069315F8011B06225B488DF83010E4
:1034500001F082F8002800F08480584B002B6CD0DB
:1034600005AC574B424606A948460094AFF300808E
:103470000290029B01330AD00B9B029A29781344D5
:103480000B9300298BD10A462C46002A95D1B8F817
:103490000C305B0626D40B981FB0BDE8F08F05F109
:1034A000FF3A9A4403E0AA454ED015F8011F424660
:1034B0004846FFF709FF0130F5D1E8E700F0E4FDE9
:1034C000384B98457FF44AAFD9F80480B8F80C30EF
:1034D00018073FF551AF4146484600F055FB00281C
:1034E0003FF44FAF4FF0FF30D6E7D9F808803EE702
:1034F000A1F13002092A52D8099B03EB83031AF881
:10350000011F02EB4303A1F13002092AF5D92E294C
:103510005546099388D169782A292CD1059BAA1C84
:10352000191D1B68002B07930591B8BF4FF0FF339F
:10353000A9781546B8BF079376E7059B073323F0B4
:1035400007030833059397E70B9A039B1A440B92E2
:103550009BF801202FE7524243F0020309920693A1
:103560005CE705A8164B424606A90090484600F0C5
:10357000C7F802907DE7A1F1300200230135092A46
:1035800007933FF651AF03EB830315F8011F02EBDE
:103590004303A1F13002092AF5D9079344E75546C0
:1035A00040E700BFDC5C0160BC5C01609C5C0160CA
:1035B000605C0160685C01606C5C016000000000A0
:1035C000F132016010B4044C13460A4601462068EB
:1035D00010BCFFF7B3BE00BF500611602DE9F047E5
:1035E00091461E460A690C468B680546DDF8208028
:1035F0009A42B8BF1A46C9F8002091F8433013B177
:103600000132C9F800202268910669D5D9F8003046
:103610000233C9F80030226812F0060F11461CD19F
:10362000E168CB1A002B68DD04F1190A002706E0D7
:10363000D9F80030E268A2EB030CBC450CDD012395
:10364000524631462846C047013007F10107EFD105
:103650004FF0FF30BDE8F087216894F84330003B1D
:1036600018BF01238A060AD5E1185A1C30200233FC
:10367000224481F8430094F8451082F8431004F185
:10368000430231462846C0470130E1D02368D9F8CB
:10369000002003F00603E768042BA7EB0207A368EA
:1036A000226901D1002F14DA934216DD00279B1AFC
:1036B0001F4404F11A09002401E0BC420DDA012381
:1036C0004A4631462846C047013004F10104F4D18E
:1036D000BEE79342EBDC002FEBD10020BDE8F08782
:1036E00012F0060F03D0003B18BF0123C7E7D9F83B
:1036F0000030E168CB1A002B96DC1146ADE700BF25
:103700002DE9F043174685B00A7E06460C469846DA
:103710000C9801F1430C002A33D0A2F15803D9B21E
:10372000202967D8202B65D8DFE813F0F700640064
:103730006400640064006400640064006400640069
:103740006400BC006E0064006400640064006E00ED
:10375000640064006400640021009000F2006400D2
:103760006400C7006400900064006400D80023680F
:103770001A0640F1F98003686269191D01601B682F
:103780001A600023E14623613B4603AA21463046E6
:10379000CDF80080FFF722FF013020D04A46236990
:1037A00039463046C047013019D02368E0689B078E
:1037B000039919D5431A002B16DD04F119090025C8
:1037C00004E0E0680399431AAB420DDD01234A4649
:1037D00039463046C047013005F10105F1D14FF0BF
:1037E000FF3005B0BDE8F0838842B8BF084605B099
:1037F000BDE8F083012304F1420984F842202361EB
:10380000002384F84330BFE723681A0640F1C280E2
:103810000268111D126801601146002AC0F28480FE
:1038200062680A25DFF890E1002AA26023DB2368A2
:1038300023F004032360002940F08480EAB9E146C4
:10384000082D22D0ACEB090323619DE723681906FC
:1038500040F196800368191D016019686F2ADFF82E
:1038600058E10CBF08250A2562680023002A84F865
:103870004330A260DBDA002964D19EF80030082DC5
:1038800004F1420984F84230DCD12368D907D9D544
:10389000626823699A42D5DC302309F1FF3989F83F
:1038A0000030CFE70368012204F1420919680433AC
:1038B000036084F842102261A2E703680021626875
:1038C0001D1D0560D3F80090484600F045FE002815
:1038D0006FD0A0EB09006060206191E72368782237
:1038E000DFF8D8E084F845200268111D0160190650
:1038F00036D45D0634D51188D80702D543F02003AD
:10390000236079BB2368102523F020032360ABE7F5
:10391000236843F020032360E1E75823DFF898E0B1
:1039200084F845302368DFE72D22494284F843209C
:103930006268002AA26002DB23F004032360DFF840
:1039400078E00A25E1460A46B1FBF5F305FB1310C2
:10395000AA4219461EF8003009F8013DF3D26FE77C
:103960001168C9E710257FE713F0400F036862690B
:1039700003F1040101601B6814BF1A801A6000E79C
:1039800013F0400F036803F10401016014BF1988AC
:10399000196863E75D0606D50268111D0160B2F97A
:1039A00000100A4639E701680A68043101601146CF
:1039B00033E7606890E700BF745C0160885C016079
:1039C000F8B507460E46002832D0836973B3846881
:1039D0002D4B9C4236D02D4B9C423ED02C4B9C42D2
:1039E00008BFFC68A3891B0730D5236973B33578FA
:1039F0004DB934E00A2D12D023685A1C22601D7084
:103A000016F8015F5DB3A368013B002BA360F3DAF6
:103A1000D4F818C02946224638466345EADA00F051
:103A200053F80130ECD14FF0FF30F8BD00F02CFB23
:103A3000BB69BC68002BCBD1384600F025FB124B8C
:103A40009C42C8D17C68A3891B07CED42146384646
:103A500000F09AF80028CAD0E5E7BC68C2E7A3687E
:103A6000013B002BA36008DA22460A21384600F009
:103A70002BF80130D7D00A20F8BD23680A22591C40
:103A8000104621601A70F8BDDC5C0160BC5C01600E
:103A90009C5C0160024B01461868FFF791BF00BFB4
:103AA0005006116038B50022064D044608462A60CB
:103AB000FDF710FC431C00D038BD2B68002BFBD059
:103AC000236038BDB01F1160F8B50D460646144698
:103AD00008B1836943B3254B9C422AD0244B9C42B6
:103AE00029D0244B9C4208BFF468A269A389A26034
:103AF0001A0722D5236903B32268EDB26169D31A8C
:103B00002F46994229DD0133A1680139A160511C7A
:103B10002160157062699A4216D00A2D02D1A389DC
:103B2000DB0711D43846F8BD00F0AEFA0F4B9C42CB
:103B3000D4D17468D9E7B468D7E72146304600F09D
:103B400023F838B92369D7E72146304600F032F927
:103B50000028E7D04FF0FF37E4E72146304600F079
:103B600029F90028F6D122680123CDE7DC5C016049
:103B7000BC5C01609C5C0160024B0A46014618680F
:103B8000FFF7A2BF500611603C4B70B51D6806469A
:103B90000C460DB1AB69E3B1394B9C421FD0394B98
:103BA0009C4247D0384B9C4208BFEC68B4F90C30BB
:103BB00018079AB219D5216911B312F001002FD05C
:103BC0000020A06060694042A06100292ED0002042
:103BD00070BD284600F058FA294B9C42DFD16C6832
:103BE000B4F90C3018079AB2E5D4D10638D552078B
:103BF00022D4216943F008039AB2A3810029DCD1C1
:103C000002F42070B0F5007FD7D02146304600F096
:103C100013FCB4F90C3021699AB212F00100CFD133
:103C2000950758BF6069A0600029D0D112061FD443
:103C3000084670BDAC68B9E7616B51B104F144024C
:103C4000914204D03046FFF789FAB4F90C300022D3
:103C500062630022216923F02403C4E90012C9E74A
:103C6000092243F040034FF0FF303260A38170BD62
:103C700043F040034FF0FF30A38170BD5006116048
:103C8000DC5C0160BC5C01609C5C0160062008B5E6
:103C900000F0DCFD012001F02BFC00BFF8B58B89A2
:103CA0000C46074619072AD46268002A43DDE56AF4
:103CB000002D3ED000223E683A6013F480523ED17F
:103CC0000123216A3846A847421C67D0A389E56AC8
:103CD0005B0705D56368C01A636B0BB1236CC01A10
:103CE00002460023216A3846A847451C30D13A686D
:103CF0001D2A44D9A38943F04003A381F8BD266956
:103D0000BEB19907256826600CBF63690023AD1B0F
:103D1000A3600CE02B463246D4F828C03846216A0E
:103D2000E047B0F1000CA5EB0C05664409DD002D61
:103D3000F0DC0020F8BD226C002AB8DCF9E7606DE9
:103D4000C6E7A3894FF0FF3043F04003A381F8BDDD
:103D50000023636023692360A389DA0400D56065CA
:103D6000616B3E600029E4D004F14403994202D023
:103D70003846FFF7F3F9002318466363F8BD0C4B90
:103D8000D340DB4313F00103B4D1636023692360A4
:103D9000A389DB04E4D5002AE2D1E0E73B68002BED
:103DA00094D01D2B01D0162BA4D100203E60F8BD6D
:103DB0000100402038B50B69BBB10C46054608B17F
:103DC0008369B3B10D4B9C4211D00D4B9C4213D073
:103DD0000C4B9C4208BFEC68B4F90C302BB1214667
:103DE0002846BDE83840FFF759BF002038BD6C6851
:103DF000F2E700F049F9E5E7AC68EDE7DC5C01606B
:103E0000BC5C01609C5C016038B540B3036904464A
:103E1000E3B1174B1D680DB1AB69CBB1154B9C429B
:103E20000FD0154B9C4221D0144B9C4208BFEC682C
:103E3000B4F90C3053B121462846BDE83840FFF7AD
:103E40002DBF6C68B4F90C30002BF4D1002038BDC4
:103E5000284600F019F9074B9C42E2D1F1E7084BE4
:103E600008491868BDE8384000F0C4BAAC68DFE71C
:103E700050061160DC5C0160BC5C01609C5C016010
:103E80005C5C0160B53D016000207047014900F0B5
:103E9000B1BA00BFB53D01600020704770B568221F
:103EA0004E1E0D4602FB06F606F17401FFF7B2F94D
:103EB000044640B100210C3006F16802A060C4E95C
:103EC0000015FFF7F9F8204670BD00BF274B2DE91C
:103ED000F0411E680746B36953B348364FF00408F3
:103EE000D6E90134013B04D51EE05A1C04F16804F4
:103EF0001AD0B4F90C50013B002DF6D11C4B08220E
:103F0000294604F15C006566A561C4E90055C4E971
:103F10000253C4E90455FFF7CFF8C4E90D55C4E9CD
:103F200012552046BDE8F08135682DB12E46D7E701
:103F3000304600F01FF8D0E74FF4D6713846FFF74F
:103F400069F9044668B105600C302946254640F8F9
:103F5000088C4FF4D072A060FFF7AEF834602E46A4
:103F6000BEE70C2330603B60DBE700BF5C5C0160B8
:103F70000100FFFF374A384912682DE9F84F904297
:103F80004FF00003054681620365C0E912335ED03D
:103F900028460024FFF79AFF03462846DFF8BCB006
:103FA0006B60FFF793FF03462846DFF8B4A0AB60D1
:103FB000FFF78CFF6F680423E8600822214607F1B1
:103FC0005C007C66BC61DFF89C90DFF89C80C7E9F0
:103FD0000243C7E90044C7E90444FFF76DF8AE683F
:103FE000224B0822C7F828A02146C7F82C9006F1DA
:103FF0005C00C7F83080C7E9087BF3607466B46082
:10400000B461C6E90044C6E90444FFF755F8184B0B
:10401000C6F8308021460822C6E9086BC6E90AA91D
:10402000EE68F36006F15C007466B460B461C6E9E2
:104030000044C6E90444FFF73FF80123C6F828A06E
:10404000C6E9086BC6E90B98AB61BDE8F88F0123A0
:1040500083619DE75C5C01608D3E0160BD4901604C
:10406000E5490160254A0160494A016009000100F3
:1040700012000200024B0349186800F0BBB900BFF0
:104080005C5C0160B53D0160836903B972E770470C
:10409000704700BF704700BF704700BF704700BF48
:1040A000024B0349186800F085B900BF5006116043
:1040B000893E0160024B0349186800F07BB900BFDC
:1040C00050061160993E01609368002B00F08180DA
:1040D000B1F90C302DE9F04F0C461907804683B03A
:1040E000174698B223D523690BB310F002033D683D
:1040F0002BD04FF0000ADFF8B8B256465E45334683
:104100005246404628BF5B46002E4FD0216AD4F865
:1041100028C0E047002852DDBB688244361A181ACE
:10412000B8600028EAD1002003B0BDE8F08F214636
:104130004046FFF729FD002840F03781B4F90C30E4
:104140003D6898B210F00203D3D110F0010942D1BA
:104150004E463EB38205D4F808B040F18480B345A2
:104160005A4600F2B48010F4906F40F0C18020688D
:104170004946019200F02EFAA3682168B246019ADE
:10418000A3EB0B0300260A44A3602260B868D14465
:10419000A0EB0A00B8600028C5D0B4F90C0080B2CA
:1041A000002ED7D1D5E900960835D2E7D5E900A68B
:1041B0000835A3E721464046FFF7FCFD88B3B4F974
:1041C0000C3043F040034FF0FF30A38103B0BDE853
:1041D000F08F002070471E46AA46994618461D4695
:1041E0005EB3002833D04A46A168B24263692068B2
:1041F00028BF324603EB010B2169884202D95A4598
:1042000000F3A980934266DC2A46216A4046D4F82E
:1042100028C0E047B0F1000BD1DDB9EB0B09C9D0E4
:104220000120BA685D44A6EB0B06A2EB0B02BA6054
:10423000002A3FF478AF002ED3D10AF1080353F8D7
:10424000046C9A4653F8085C0833002EF7D03246C7
:104250000A21284600F080F9002800F09D800130F6
:10426000A0EB0509BFE720682369984217D8636966
:10427000B34214D86FF00042216A4046D4F828C0F7
:10428000B24228BF324692FBF3F202FB03F34A46E6
:10429000E047B0F1000A92DDA6EB0A0676E7B345E7
:1042A000DA46494628BFB246524600F093F9A36861
:1042B0002268A3EB0A035244A3602260002BEBD1D7
:1042C00021464046FFF776FD0028E5D077E7B34664
:1042D000206832464CE72946019200F07BF9019AAA
:1042E000A36893469B1AA36023681344236094E752
:1042F00023682169A3EB010B636913EB430348BFF8
:1043000001334FEA630A0BF101033344524653452C
:1043100001D99A461A4643052CD511464046FEF768
:1043200079FF00283BD05A4621690190FEF74EFEE6
:10433000A289019B22F4906242F08002A28103EBE9
:104340000B002361AAEB0B033246B346C4F814A05A
:10435000A36020600CE729465A4600F03BF9236829
:10436000214640465B442360FFF724FD00283FF4CC
:1043700054AF24E7404600F0ADF903460028DED1F3
:1043800021694046FEF7EAFEB4F90C300C2223F016
:104390008003C8F8002014E7721C914624E70C2221
:1043A000B4F90C30C8F800200BE74FF0FF30BBE643
:1043B00000FCFF7F2DE9F0410026884600F1480708
:1043C000D7E90154013D0ED4A389013D012B06D943
:1043D000B4F90E302046013301D0C04706436B1CB0
:1043E00004F16804F0D13F68002FE9D13046BDE800
:1043F000F08100BF2DE9F84300268146884600F190
:104400004807D7E90154013D0FD4A389013D012B91
:1044100007D9B4F90E3021464846013301D0C047D0
:1044200006436B1C04F16804EFD13F68002FE8D10C
:104430003046BDE8F88300BF8B89F0B50C4699077C
:1044400097B007D504F1470301222360C4E9043281
:1044500017B0F0BDB4F90E10054600292DDB6A46F1
:1044600000F01EFB002827DB019E4FF480672846E2
:1044700006F470463946A6F50056B6FA86F6760971
:10448000FEF7C8FE38B3A3891B4A43F08003AA6233
:10449000A3812060C4E90407002ED9D0B4F90E101E
:1044A000284600F013FB0028D2D0A38923F0030391
:1044B00043F00103A381CBE7A38913F0800F2846C3
:1044C0004FF0000614BF40274FF480673946FEF7CF
:1044D000A1FE0028D7D1B4F90C309A05B8D423F046
:1044E000030304F14702012143F002032260C4E9FF
:1044F0000421A381ACE700BF8D3E016070B50C467E
:10450000B1F90E1096B0164600291D4613DB6A4617
:1045100000F0C6FA00280EDB01994FF480630020FA
:1045200001F47041A1F50051B1FA81F14909296006
:10453000336016B070BDB4F90C3000221B062A603F
:1045400004D540230020336016B070BD4FF4806363
:104550000020336016B070BD10B55FFA81FE810790
:1045600010D00346511E22B90AE09A070CD0013937
:1045700006D3184613F8012B72459C46F5D110BDA1
:10458000002010BD8446114603290CD80029F7D01D
:104590000CEB010301E09C45F2D060461CF8012BB6
:1045A0007245F8D110BD4EEA0E24624644EA044436
:1045B00094460432DCF800306340A3F1013020EA75
:1045C000030313F0803FE3D1043994460329EFD865
:1045D000DCE700BF88420DD98B1883420AD900EB73
:1045E000020CBAB1624613F801CD994202F801CD2E
:1045F000F9D170470F2A0ED8034602F1FF3C4AB1A9
:104600000CF1010C013B8C4411F8012B614503F8BE
:10461000012FF9D1704740EA01039B0750D1A2F165
:10462000100301F1200C70B523F00F0501F1100EFD
:1046300000F110041B09AC445EF8105C0EF1100E82
:10464000103444F8205C5EF81C5C44F81C5C5EF896
:10465000185C44F8185C5EF8145CE64544F8145C99
:10466000EAD1013312F00C0F02F00F0C01EB031131
:1046700000EB031328D0ACF1040C1C1F8E462CF069
:1046800003064FEA9C0C1E445EF8045B44F8045F8A
:10469000B442F9D10CF1010C02F0030203EB8C03DC
:1046A00001EB8C0102F1FF3C4AB10CF1010C013B22
:1046B0008C4411F8012B614503F8012FF9D170BD2D
:1046C00002F1FF3C03469BE76246EBE7704700BF01
:1046D000704700BFF8B51446F9B1CAB106460D4699
:1046E00000F01CFAA04202D32F463846F8BD2146FE
:1046F0003046FEF78FFD07460028F6D022462946B1
:10470000FEF764FC30462946FEF728FD3846F8BD22
:104710001746FEF723FD3846F8BD1146BDE8F840C0
:10472000FEF778BD38B5446C0CB1002038BD0546A5
:104730008021FEF76FFD0246686430B1031F7C32B2
:1047400043F8044F9342FBD1EFE74FF0FF3038BD01
:104750001F29F8B5054608D8466C0C4617464EB1D9
:1047600056F8240046F82470F8BD16234FF0FF30A9
:104770002B60F8BD8021FEF74DFD0646686440B110
:10478000031F00F17C05002143F8041F9D42FBD16B
:10479000E6E74FF0FF30F8BD1F2938B5054620D8B1
:1047A000426C0C466AB152F8213053B1012B16D03D
:1047B000591C10D00025204642F82450984728461E
:1047C00038BD284600F0F8F8224601462846BDE8E4
:1047D000384000F0DBB8162301202B6038BD0020E4
:1047E00038BD16234FF0FF302B6038BD1F292AD863
:1047F000426C38B50C46054682B152F8243002EBC3
:1048000084024BB1591C19D0012B15D0002520462C
:1048100015609847284638BD012038BD8021FEF735
:10482000F9FC0246686458B1031F00217C3043F84C
:10483000041F9842FBD1E0E7032038BD022038BDB9
:104840004FF0FF3038BD4FF0FF30704738B51F28AC
:10485000134B1D681FD86A6C044662B152F82030B1
:104860004BB1012B15D0591C0FD0002542F8205018
:104870009847284638BD284600F09EF82246014653
:104880002846BDE8384000F081B8162301202B608F
:1048900038BD002038BD16234FF0FF302B6038BDE7
:1048A00050061160124B1F2870B51E6808D80D46BF
:1048B000716C044649B151F8240041F8245070BD90
:1048C00016234FF0FF30336070BD80213046FEF775
:1048D000A1FC0146706440B1031F00F17C0C002272
:1048E00043F8042F6345FBD1E5E74FF0FF3070BD7F
:1048F0005006116038B50B4B1D686C6C0CB1002074
:1049000038BD80212846FEF785FC686438B1031F56
:1049100000F17C0243F8044F9342FBD1EFE74FF0E4
:10492000FF3038BD5006116038B51F28164B1D6882
:1049300026D86A6C044682B152F8243002EB840215
:104940004BB1591C1AD0012B16D0002520461560FA
:104950009847284638BD012038BD80212846FEF7FB
:1049600059FC0246686458B1031F00217C3043F8AB
:10497000041F8342FBD1DFE7032038BD022038BD8E
:104980004FF0FF3038BD00BF5006116070B50C46C7
:104990000346084D0026204611461C462E6000F0B6
:1049A00087FD431C00D070BD2B68002BFBD023601B
:1049B00070BD00BFB01F116000F06ABD10B50C469D
:1049C000B1F90E1000F0B4F8002803DB636D034466
:1049D000636510BDA38923F48053A38110BD00BF7C
:1049E000002070472DE9F0410C46B1F90C101F462C
:1049F0000546CB0516460BD421F480513B46324682
:104A00002846A181B4F90E10BDE8F04100F020B8AD
:104A1000B4F90E100223002200F06AF8B4F90C1069
:104A2000EAE700BF10B50C46B1F90E1000F060F8CF
:104A3000421CA38904D043F480536065A38110BD58
:104A400023F48053A38110BDB1F90E1000F016B805
:104A500038B50C4684461146074D1A4600232046B9
:104A600064462B6000F03CFD431C00D038BD2B6831
:104A7000002BFBD0236038BDB01F116038B5002279
:104A8000064D044608462A6000F0F2FC431C00D0A4
:104A900038BD2B68002BFBD0236038BDB01F1160E0
:104AA00070B50C460346084D0026204611461C46AC
:104AB0002E6000F0E5FC431C00D070BD2B68002B7D
:104AC000FBD0236070BD00BFB01F116038B500225D
:104AD000064D044608462A6000F0E2FC431C00D064
:104AE00038BD2B68002BFBD0236038BDB01F116090
:104AF00038B50C4684461146074D1A460023204619
:104B000064462B6000F0DCFC431C00D038BD2B68F1
:104B1000002BFBD0236038BDB01F116051F8040C8E
:104B20000028A0F10400BCBF0B58C018704700BF9C
:104B300038B50C4684461146074D1A4600232046D8
:104B400064462B6000F0C4FC431C00D038BD2B68C9
:104B5000002BFBD0236038BDB01F116081F00041F5
:104B600002E000BF83F0004330B54FEA41044FEA52
:104B7000430594EA050F08BF90EA020F1FBF54EAED
:104B8000000C55EA020C7FEA645C7FEA655C00F089
:104B9000E2804FEA5454D4EB5555B8BF6D420CDD5A
:104BA0002C4480EA020281EA030382EA000083EADD
:104BB000010180EA020281EA0303362D88BF30BD7D
:104BC00011F0004F4FEA01314FF4801C4CEA1131D3
:104BD00002D0404261EB410113F0004F4FEA033332
:104BE0004CEA133302D0524263EB430394EA050FBD
:104BF00000F0A780A4F10104D5F1200E0DDB02FA2C
:104C00000EFC22FA05F2801841F1000103FA0EF2BF
:104C1000801843FA05F359410EE0A5F120050EF185
:104C2000200E012A03FA0EFC28BF4CF0020C43FAB6
:104C300005F3C01851EBE37101F0004507D54FF0C3
:104C4000000EDCF1000C7EEB00006EEB0101B1F513
:104C5000801F1BD3B1F5001F0CD349085FEA300059
:104C60004FEA3C0C04F101044FEA445212F5800F64
:104C700080F09A80BCF1004F08BF5FEA500C50F101
:104C8000000041EB045141EA050130BD5FEA4C0CE4
:104C9000404141EB0101013C28BFB1F5801FE9D241
:104CA00091F0000F04BF01460020B1FA81F308BF64
:104CB0002033A3F10B03B3F120020CDA0C3208DD30
:104CC00002F1140CC2F10C0201FA0CF021FA02F10B
:104CD0000CE002F11402D8BFC2F1200C01FA02F17B
:104CE00020FA0CFCDCBF41EA0C019040E41AA2BFA0
:104CF00001EB0451294330BD6FEA04041F3C1CDA68
:104D00000C340EDC04F11404C4F1200220FA04F087
:104D100001FA02F340EA030021FA04F345EA030131
:104D200030BDC4F10C04C4F1200220FA02F001FAF3
:104D300004F340EA0300294630BD21FA04F0294675
:104D400030BD94F0000F83F4801306BF81F480110E
:104D50000134013D4EE77FEA645C18BF7FEA655C81
:104D600029D094EA050F08BF90EA020F05D054EA53
:104D7000000C04BF1946104630BD91EA030F1EBF58
:104D80000021002030BD5FEA545C05D1400049415C
:104D900028BF41F0004130BD14F580043CBF01F54F
:104DA000801130BD01F0004545F0FE4141F4700135
:104DB0004FF0000030BD7FEA645C1ABF1946104610
:104DC0007FEA655C1CBF0B46024650EA013406BF11
:104DD00052EA033591EA030F41F4002130BD00BFD0
:104DE00090F0000F04BF0021704730B54FF480648D
:104DF00004F132044FF000054FF0000150E700BF0E
:104E000090F0000F04BF0021704730B54FF480646C
:104E100004F1320410F0004548BF40424FF0000159
:104E20003EE700BF42004FEAE2014FEA31014FEA9C
:104E300002701FBF12F07F4393F07F4F81F06051EB
:104E4000704732F07F4208BF704793F07F4F04BF36
:104E500041F40021704730B54FF4607401F0004513
:104E600021F000411CE700BF50EA010208BF704773
:104E700030B54FF000050AE050EA010208BF704764
:104E800030B511F0004502D5404261EB41014FF4CD
:104E9000806404F132045FEA915C3FF4D8AE4FF0D5
:104EA00003025FEADC0C18BF03325FEADC0C18BFB8
:104EB000033202EBDC02C2F1200300FA03FC20FA09
:104EC00002F001FA03FE40EA0E0021FA02F1144456
:104ED000BDE600BF4FF0FF3C06E000BF4FF0010C05
:104EE00002E000BF4FF0010C4DF804CD4FEA410C39
:104EF0007FEA6C5C4FEA430C18BF7FEA6C5C1BD006
:104F000001B050EA410C0CBF52EA430C91EA030F86
:104F100002BF90EA020F0020704710F1000F91EAE3
:104F2000030F58BF994208BF90422CBFD8176FEAB1
:104F3000E37040F0010070474FEA410C7FEA6C5C7F
:104F400002D150EA013C07D14FEA430C7FEA6C5C86
:104F5000D6D152EA033CD3D05DF8040B704700BFB2
:104F60008446104662468C461946634600E000BF00
:104F700001B5FFF7B7FF002848BF10F1000F01BDD2
:104F80004DF808EDFFF7F4FF0CBF012000205DF89D
:104F900008FB00BF4DF808EDFFF7EAFF34BF012022
:104FA00000205DF808FB00BF4DF808EDFFF7E0FFBB
:104FB00094BF012000205DF808FB00BF4DF808ED0C
:104FC000FFF7CEFF94BF012000205DF808FB00BF73
:104FD0004DF808EDFFF7C4FF34BF012000205DF855
:104FE00008FB00BF4FEA4102B2F1E04324BFB3F532
:104FF000001CDCF1FE5C0DD901F0004C4FEAC00250
:105000004CEA5070B2F1004F40EB830008BF20F033
:105010000100704711F0804F21D113F13872BCBFED
:1050200001F00040704741F480114FEA5252C2F142
:105030001802C2F1200C10FA0CF320FA02F018BF8B
:1050400040F001004FEAC1234FEAD32303FA0CFCDE
:1050500040EA0C0023FA02F34FEA4303CCE77FEA6D
:10506000625307D150EA01331EBF4FF0FE4040F4B7
:105070004000704701F0004040F0FE4040F4000066
:10508000704700BF4FF0FF3C06E000BF4FF0010C3F
:1050900002E000BF4FF0010C4DF804CD4FEA400292
:1050A0004FEA41037FEA226C18BF7FEA236C11D0DC
:1050B00001B052EA530C18BF90EA010F58BFB2EB8F
:1050C000030088BFC81738BF6FEAE17018BF40F00F
:1050D000010070477FEA226C02D15FEA402C05D1C3
:1050E0007FEA236CE4D15FEA412CE1D05DF8040B48
:1050F000704700BF844608466146FFE70FB5FFF7DB
:10510000C9FF002848BF10F1000F0FBD4DF808ED92
:10511000FFF7F4FF0CBF012000205DF808FB00BF83
:105120004DF808EDFFF7EAFF34BF012000205DF8DD
:1051300008FB00BF4DF808EDFFF7E0FF94BF01202A
:1051400000205DF808FB00BF4DF808EDFFF7D2FF27
:1051500094BF012000205DF808FB00BF4DF808ED6A
:10516000FFF7C8FF34BF012000205DF808FB00BF37
:1051700038B50022002304460D46FFF70BFF28B97F
:1051800020462946BDE8384000F00AB8204605F11F
:10519000004100F005F8404261EB410138BD00BF1D
:1051A000D0B500220B4B06460F4600F017F800F072
:1051B0003FF90446FFF714FE0022074B00F00EF8FB
:1051C00002460B4630463946FFF7CCFC00F030F97A
:1051D0002146D0BD0000F03D0000F04170B54FF019
:1051E000FF0C4CF4E06C1CEA11541DBF1CEA135573
:1051F00094EA0C0F95EA0C0F00F0DEF82C4481EADB
:10520000030621EA4C5123EA4C5350EA013518BFFA
:1052100052EA033541F4801143F4801338D0A0FBE7
:1052200002CE4FF00005E1FB02E506F00042E0FB94
:1052300003E54FF00006E1FB03569CF0000F18BF9A
:105240004EF0010EA4F1FF04B6F5007F64F5407442
:1052500004D25FEA4E0E6D4146EB060642EAC621D5
:1052600041EA55514FEAC52040EA5E504FEACE2E42
:10527000B4F1FD0C88BFBCF5E06F1ED8BEF1004F45
:1052800008BF5FEA500E50F1000041EB045170BDC1
:1052900006F0004646EA010140EA020081EA030105
:1052A000B4EB5C04C2BFD4EB0C0541EA045170BD01
:1052B00041F480114FF0000E013C00F3AB8014F17B
:1052C000360FDEBF002001F0004170BDC4F10004C4
:1052D000203C35DA0C341BDC04F11404C4F1200545
:1052E00000FA05F320FA04F001FA05F240EA0200A0
:1052F00001F0004221F0004110EBD37021FA04F6D6
:1053000042EB06015EEA430E08BF20EAD37070BD8F
:10531000C4F10C04C4F1200500FA04F320FA05F0EE
:1053200001FA04F240EA020001F0004110EBD370F0
:1053300041F100015EEA430E08BF20EAD37070BD60
:10534000C4F1200500FA05F24EEA020E20FA04F339
:1053500001FA05F243EA020321FA04F001F00041E8
:1053600021FA04F220EA020000EBD3705EEA430E59
:1053700008BF20EAD37070BD94F0000F0FD101F088
:105380000046400041EB010111F4801F08BF013CC1
:10539000F7D041EA060195F0000F18BF704703F0FF
:1053A0000046520043EB030313F4801F08BF013D86
:1053B000F7D043EA0603704794EA0C0F0CEA135542
:1053C00018BF95EA0C0F0CD050EA410618BF52EAFC
:1053D0004306D1D181EA030101F000414FF0000002
:1053E00070BD50EA410606BF1046194652EA430610
:1053F00019D094EA0C0F02D150EA013613D195EA84
:105400000C0F05D152EA03361CBF104619460AD1CB
:1054100081EA030101F0004141F0FE4141F47001D5
:105420004FF0000070BD41F0FE4141F4780170BDC5
:105430004A0011D212F5001211D20DD56FF4787313
:10544000B3EB62520ED44FEAC12343F0004343EA68
:10545000505323FA02F070474FF00000704750EAB3
:10546000013002D14FF0FF3070474FF0000070471D
:10547000024B58224FF0FF301A607047B01F116086
:10548000024B58224FF0FF301A607047B01F116076
:10549000024B58224FF0FF301A607047B01F116066
:1054A000024B582200201A60704700BFB01F1160E5
:1054B000024B58224FF0FF301A607047B01F116046
:1054C000024B58224FF0FF301A607047B01F116036
:1054D000024B58224FF0FF301A607047B01F116026
:1054E000024B58224FF0FF301A607047B01F116016
:1054F000FEE700BF4275696C6420776974682052CA
:105500005A2F47324C20466C657869626C6520538F
:105510006F667477617265205061636B61676520A7
:1055200076657273696F6E20312E322E3000000066
:10553000312E322E3000000000000201436F7265F0
:105540004D3333204576656E7420726563656976E8
:1055500065642066726F6D204755493A2050756D1D
:105560007020436F6E74726F6C2027507572676580
:105570002720627574746F6E207761732070726576
:10558000737365642E000000436F72654D333320E2
:105590004576656E7420726563656976656420661C
:1055A000726F6D204755493A2050756D7020436FDA
:1055B0006E74726F6C202753746172742F53746F02
:1055C000702720627574746F6E207761732070721B
:1055D00065737365642E0000436F72654D3333202D
:1055E0004576656E742072656365697665642066CC
:1055F000726F6D204755493A204669726D77617226
:105600006520557064617465202755706461746508
:105610002066726F6D205765622720627574746F03
:105620006E2077617320707265737365642E00005D
:10563000436F72654D3333204576656E7420726515
:105640006365697665642066726F6D204755493AD7
:10565000204669726D77617265205570646174656A
:1056600020275570646174652066726F6D20666CCA
:105670006173682D64726976652720627574746F32
:105680006E2077617320707265737365642E0000FD
:10569000436F72654D3333204576656E74207265B5
:1056A0006365697665642066726F6D204755493A77
:1056B0002053656C662D74657374202752756E20B7
:1056C00053656C662D746573742720627574746FEE
:1056D0006E2077617320707265737365642E0000AD
:1056E00044756D6D7920537461747573204D6573C5
:1056F000736167653A20456E737572652061207627
:10570000616C696420737472696E67206865726584
:1057100020287465726D696E6174656420627920F9
:10572000302900004578616D706C652D53534944F4
:105730002E2E00004E6574776F726B2031000000D2
:105740004578616D706C65204E6574776F726B0083
:1057500045786177706C65204E6574776F726B2049
:1057600032000000576861746576657200000000C1
:10577000476F6F6420537472656E67746820576951
