:020000021000EC
:1000000088DE1160792A0160852A0160752A016005
:10001000752A0160752A0160752A016000000000E0
:10002000000000000000000000000000014101602D
:10003000752A016000000000A1400160752A01607E
:10004000752A0160752A0160752A0160752A0160B0
:10005000752A0160752A0160752A0160752A0160A0
:10006000752A0160752A0160752A0160752A016090
:10007000752A0160752A0160752A0160752A016080
:10008000752A0160752A0160752A0160752A016070
:10009000752A0160752A0160752A0160752A016060
:1000A000752A0160752A0160752A0160752A016050
:1000B000752A0160752A0160752A0160752A016040
:1000C000752A0160752A0160752A0160752A016030
:1000D000752A0160752A0160752A0160752A016020
:1000E000752A0160752A0160752A0160752A016010
:1000F000752A0160752A0160752A0160752A016000
:10010000D12E0160752A0160752A0160752A01608F
:10011000752A0160752A0160752A0160752A0160DF
:10012000752A0160752A0160752A0160752A0160CF
:10013000752A0160752A0160752A0160752A0160BF
:10014000752A0160752A0160752A0160752A0160AF
:10015000752A016061350160752A0160752A0160A8
:10016000752A0160752A0160752A0160752A01608F
:10017000752A0160752A0160752A0160752A01607F
:10018000752A0160752A0160752A0160752A01606F
:10019000752A0160752A0160752A0160752A01605F
:10065000752A0160752A0160C93C0160F53C0160A2
:10066000393C0160B13B0160693C0160752A016061
:10067000752A0160752A0160752A0160752A01607A
:10068000752A0160752A0160752A0160752A01606A
:10069000752A0160752A0160752A0160752A01605A
:1006A000752A0160752A0160752A0160752A01604A
:1006B000752A0160752A0160752A0160752A01603A
:1006C000752A0160752A0160752A0160752A01602A
:1006D000752A0160752A0160752A0160752A01601A
:1006E000752A0160752A0160752A0160752A01600A
:1006F000752A0160752A0160752A0160752A0160FA
:10070000752A0160752A0160752A0160752A0160E9
:10071000752A0160752A0160752A0160752A0160D9
:10072000752A0160752A0160752A0160752A0160C9
:10073000752A0160752A0160752A0160752A0160B9
:10074000752A0160752A0160752A0160752A0160A9
:10075000752A0160752A0160752A0160752A016099
:10076000752A0160752A0160752A0160752A016089
:10077000752A0160752A0160752A0160752A016079
:10078000752A0160752A0160752A0160752A016069
:10079000752A0160752A0160752A0160752A016059
:1007A000752A0160752A0160752A0160752A016049
:1007B000752A0160752A0160752A0160752A016039
:020000020000FC
:020000041001E9
:10FF800000FAEF7229F5EF7235F5EF7225F5EF7291
:10FF900025F5EF7225F5EF7225F5EF7231F5EF7269
:10FFA00000000000000000000000000025F5EF72D6
:10FFB00025F5EF720000000025F5EF7225F5EF72D0
:02000004600199
:1000000008B5034B186000F07FFC00F08BFCFCE7A8
:10001000AC2C11602DE9F04700274FF00308174C76
:10002000174E184D23880BB300204FF0010C636866
:1000300033F810300130190A36F81190DBB24A5DFE
:100040004FEA430E0CFA03FA22EA0A0208FA0EFEFD
:1000500007FA03F313434EEA090EDBB21FFA8EF2DE
:1000600026F811204B5523888342E0D83220C7F16F
:100070000107FFB202F096F9D4E700BFF0AF0160CC
:100080002001034110000341014808F0F1B800BF0E
:100090006CA00160014808F0EBB800BFB8A0016097
:1000A00008B5054808F0E4F800220120034B044994
:1000B0001A70087008BD00BF08A10160C214116069
:1000C000020C116008B5054808F0D2F800220120A2
:1000D000034B04491A70087008BD00BF60A101609D
:1000E000C2141160020C116008B5054808F0C0F890
:1000F00000220120034B04491A70087008BD00BF9C
:10010000C0A10160030C1160010C11602DE9F04FDA
:100110000324B6497B220C704FF00004B44BB54861
:100120001A70B54BB54A0470B549B6481A60B64B5B
:10013000086000F60C2083B018604322B349B4482D
:1001400007F032FBB34AB4481378B44923F03F03B5
:1001500043F0120313700378B14A23F03F0343F0D6
:100160002403037053200B784FF0350B23F03F032B
:1001700043F006030B701378012123F01F0343F0B3
:1001800015031370A74BA84A187002201388DFF8D4
:100190009C8223F47F6323F00F034FF00E0A43F495
:1001A000826343F00303138098F80030DFF880E2A5
:1001B0004FF0140923F03F0343F0240388F8003084
:1001C0009EF80030DFF86CC223F0030303438EF87F
:1001D00000309CF80030984F23F03F0343F01B039E
:1001E0008CF80030954B964E93F800C03B78954DB7
:1001F0000B433B703378944C60F3010333702B78DE
:10020000924A0B432B702378914E23F007032370FF
:10021000904C537884F800B08F4C61F3010384F85C
:1002200000A08E4CDFF838A284F800C08D4CDFF8B7
:1002300038C284F800908D4CDFF8349220705370EF
:1002400053888C4823F4407323F0030343F4407332
:1002500043F0020353800378874A23F0060343F0F8
:100260000603037013784DF6B34023F0030343F005
:10027000030313704FF0F502804B6FF07F44197049
:100280007F4B80491A8041F619127F4B08801A80F3
:1002900040F629127D4B40F2D4501A8040F2891268
:1002A0007B4B41F682511A804FF4C062794B7A4FF2
:1002B0001A8041F2B552794B3D461A8048F2DE620F
:1002C000774B07F1B40E1A804FF44872754BDFF884
:1002D000D8B11A8040F6F152744B07F1E1081A6068
:1002E00040F69102724B1A80724B734A1A60734B3C
:1002F000734A1A60734B744A1A60744B744A1A60DA
:10030000744B754A1A604FF05802744B1A804FF4C0
:10031000E272734B1A80734B734A1A6047F6546249
:10032000724B1A8040F67552714B1A8045F6CB32EB
:10033000704B1A80704B714A1A604FF05402704B28
:100340001A8040F2B1326F4B1A806F4B6F4A1A60BD
:100350006F4A704B108008206F4A11804FF48071F3
:100360006E4A10806E4A6F48118040F6C6516E4A40
:10037000066011806D4A6E496E4811606E4A6F4981
:10038000046011600FCBA9E807009AE80700ACE809
:10039000030029F8023B1B0C89F80030634623F860
:1003A000182B0CF178020192654A0CF1580A07CA21
:1003B00003C31A80634BAAF120090FCB89E80F0011
:1003C000DFF884910CF1980CB9E80F00AAE80F004F
:1003D000D9F800305D4AAAF80030019B07CA03C370
:1003E000DFF86C9101931A70B4E000BF0016116041
:1003F000C115116001161160E0151160757372006E
:10040000F015116066637400D015116010A20160D0
:10041000EC141160C0151160BC151160B8151160A5
:10042000B4151160D7141160E0141160E814116064
:10043000A4141160A014116084141160F4A301606D
:1004400040141160C80D1160C8151160CC0D116009
:100450007BEA3807D6141160D51411609814116026
:1004600064A20160A2141160000E1160A114116059
:1004700064141160D0141160D4141160A5141160BB
:10048000CA1411606E151160CC141160B0141160A3
:10049000AE141160AC141160040C1160AA14116048
:1004A000A8141160A61411601CA30160B814116097
:1004B000A0151160AC1511608FC23642A8151160ED
:1004C0006666B442A4151160CDCCAC409C15116099
:1004D0009A9935429415116000403443901511608B
:1004E0008E15116088151160E13A6A437E1511601E
:1004F0007615116070151160841511603333F34067
:100500007C1511607415116080151160CDCC2C42E2
:100510007A15116054A20160721511606C1511609A
:10052000B414116094141160BE1411608C14116025
:10053000D26D624D901411604414116077666900A9
:1005400088A2016070A2016080A2016094A2016093
:10055000A0A20160B9E80F00ACE80F00D9F80030A4
:10056000474A2CF8023B1B0C8CF80030454E138890
:10057000454CA7F887300FCE0FC50FCE0FC5336897
:100580002B604FF00003414D87F82D300FCDC7F899
:100590005E10C7F86220C7F86630C7F85A002868AE
:1005A000C7F86A000FCCAEE80F000FCCAEE80F0022
:1005B00094E80F00AEE807008EF800305C4608F1C2
:1005C00010080FCC48F8043C314B0BF1100B9C4247
:1005D00048F8100C48F80C1C48F8082CEED15B4683
:1005E0002C4C03CB1A889B782B4D04F1200CC8F8B7
:1005F0000000C8F80410A8F8082088F80A30264639
:1006000010350FCE664504F1100445F8100C45F87E
:100610000C1C45F8082C45F8043CF0D123461F4C2F
:1006200007CB1B781E4E04F1200C28606960AA607D
:100630002B73254610360FCD654504F1100446F89E
:10064000100C46F80C1C46F8082C46F8043CF0D177
:100650004FF0000C2346134A134C144D82F800C08F
:1006600007CB30607160B2600FCD0FC40FCD0FC4E7
:100670002B68236087F895C103B0BDE8F08F00BFF9
:10068000A4BF0160B4A20160ECA20160D8A2016025
:100690003CA3016048A30160120D116078A30160C2
:1006A0003F0D1160C21411606C0D1160A4A30160B4
:1006B00070B56B4C6B4823786B4D0133DBB2C3F3E1
:1006C0004011DA0942EA4102C3F3801142EA810291
:1006D0000178237021F0070313430370286809F0A1
:1006E00039F95BA3D3E9002308F0D6FF09F012FA29
:1006F0005E49044609F0C0FA00B15D4C41F64B5129
:100700005C4A5D4E13882C6001339BB28B4288BFDC
:1007100000233068138009F01DF94FA3D3E90023AB
:1007200008F0BAFF09F0F6F95449044609F0A4FAB2
:1007300000B100244CF24F3041F64B5C504D514B10
:1007400029881A88013189B20132814288BF00218B
:1007500092B2624588BF0022987893F803C00130B6
:1007600029801979C0B20CF1010C1A805A790C2831
:100770005FFA8CFC01F1010128BF0020C9B2BCF175
:100780001F0F02F10102D2B228BF4FF0000C3B292B
:1007900028BF00213B2A28BF012234603A4C9870C0
:1007A000207883F803C019715A7148B1374A137819
:1007B0000133DBB2632B89BF0023137013702370E6
:1007C00042F20E7E324940F256260B88314A0133FE
:1007D0009BB2734588BF00230B80138840F2CE7C08
:1007E00005339BB2B34288BF00232B4D2B481380A7
:1007F0002B4C2A880388216802322A4E92B2013398
:100800009BB2624588BF4FF461720131B14288BF2B
:100810000021B3F5C77F88BFC8232A80224A0380FE
:100820001378216033B121490B780133DBB2632B9C
:1008300007D80B7022681E491E48BDE8704006F0BC
:1008400027BF00231C480B70137007F011FDF1E760
:100850003333333333330740643BDF4F8D970A40E4
:10086000000C1160CC151160A41511600000C84285
:100870001904A041A2151160981511600000FA44F6
:1008800092151160C4141160020C1160C214116041
:10089000C0141160BC141160B6141160B214116060
:1008A000B81411609F860100010C1160030C1160E7
:1008B000DCA30160990D1160C8A3016008B5002296
:1008C00006200C4900F03AF8002207200A4900F0FF
:1008D00035F800221120094900F030F800221220DA
:1008E000074900F02BF8BDE8084000220F20054919
:1008F00000F024B88900016095000160A10001604A
:10090000C5000160E900016008B50021044800F05D
:100910001FF8FFF7FBFBBDE80840FFF7CFBF00BFA4
:100920000000116008B501220021034800F072F8B0
:10093000BDE80840FFF7BCBE00001160034B03EBAD
:10094000C2035B6843F83010704700BF042C11608D
:10095000F8B504460E462D4F00F054FA237847F8B8
:100960003640B3B92CE0092B3BD8072B43D8052BD5
:1009700043D8033B022B88BF0025284606F004FF1E
:10098000E06018B12A46616806F00EFF14F8103FC7
:10099000B3B1A568012DE6DC092B6268E16824D8B3
:1009A000033B062BF2D8DFE803F02A1414040418E2
:1009B0001800002AEAD0118014F8103F002BE8D16B
:1009C0004FF44872124B07EBC60702FB06337B60FD
:1009D000F8BD002ADAD01170D8E7002AD6D011600D
:1009E000D4E70D2B07D00025C7E70D2BCED1002A69
:1009F000CCD01160CAE7AD00BFE76D00BDE7002AAB
:100A0000C4D0003918BF01211170BFE7042C116058
:100A1000C425116000222DE9F04FA54BDFF8948228
:100A20001A60037887B0C8F80020002B3AD004463B
:100A30009246914617461E46DFF87CB20392049117
:100A4000A16801294FDC092E616800F29E80F31E27
:100A5000062B00F25181DFE813F00E01F900E600E9
:100A6000E300CF00070007000B6893490B60934930
:100A70000B60E1688B4240F00E8114F8106F09F1B1
:100A80000109002EDCD1D14604990AB18C4B1D60BE
:100A9000039B13B18B4B059A1A60B9F1000F01D07B
:100AA000834B1F60002213461546874E874C06EB8A
:100AB000C106C8F80020726802EBC3031A7932B18C
:100AC0001D7193E8030084E8030000B18047D8F863
:100AD00000300133632BC8F80030ECDD07B0BDE80F
:100AE000F04F00F07FB9092E0D4641D8072E41D8AE
:100AF000052E00F2DB80F31E022B73D86268002300
:100B0000E668013A02E00133AB4235D0F15C12F8FD
:100B1000010F8842F7D0002BC0F2EB804FF00002AB
:100B20006B49AB42CA5501EB070282F8019007F10D
:100B3000020080F0CF801A4601370F446168895C5B
:100B400007F8011F61688E5CE1688E540132AA4289
:100B5000F4D1012214F8106F2844059592461D46E1
:100B6000C71A039209F10109002E7FF469AF8AE7E1
:100B70000D2E37D18D00C1D114F8106F012209F16B
:100B80000109002E7FF45CAF7DE709684B4BCBF881
:100B90000010DBF8000002921860E068019109F093
:100BA0004DF8DDE9011200287FF467AF4FF0000C2B
:100BB0004748E16000F807C000EB070C0D2E8CF8E9
:100BC000019007F1020C12BF674640F80C1006377F
:100BD00014F8106F4FF0010A09F10109002E7FF49B
:100BE0002FAF50E714F8106F0122002509F1010919
:100BF000002E7FF425AF46E70B882F490B602F4965
:100C00000B60E1688B423FF438AF00203049E3606D
:100C1000C855C819023180F80190CB530437D7E783
:100C2000B1F90030E9E70B7823490B6023490B60E9
:100C3000E1688B423FF421AF00202549E360C855AD
:100C400039448B7081F801900337C1E791F9003086
:100C500019490B6019490B60E1688B423FF40DAFF5
:100C600000201B49E360C855C819023180F8019083
:100C7000CB550337ACE70B780F490B600F490B607E
:100C8000E1689942ECD114F8106F09F10109002EC6
:100C90007FF4D6AEF7E600200D49E360C855C819C9
:100CA000023180F80190CB51063791E74D0025E7DE
:100CB00020161160141611600C16116010161160C8
:100CC0000816116004161160042C116018161160CA
:100CD000241611601D46012314F8106F07469A462A
:100CE0001A460393059509F10109002E7FF4A8AE79
:100CF000C9E61D460122C0E6084B1868084B18607B
:100D0000E36898423FF4B9AE0021064BE060D95544
:100D1000791C03F8019002375AE700BF0C161160E6
:100D2000101611602416116010B5064C204604F010
:100D300021FD40220021204606F0ACFD0122024B9D
:100D40005A6010BD642C11601C2C1160104B0A6895
:100D50009A4212D030B5826A0E4B541C1B6883B085
:100D600010D001244925416ACDE9005404F0F4FB78
:100D7000002807DB002003B030BD0122064B002015
:100D80005A607047054806F071FC4FF0FF30F2E7FB
:100D90005AA556EF142C11601C2C1160F8A30160A9
:100DA00010B50B4806F062FC0A4C0B4B2068196822
:100DB00006F03EFA094B186800F000FA084B186874
:100DC00000F0FCF92068BDE8104006F055BA00BFFD
:100DD00014A40160A82C1160A42C1160182C1160BF
:100DE000142C116038B5064C002001F0DBFA636862
:100DF000002BF9D000256560FFF7D2FF284638BDEB
:100E00001C2C11602DE9F04F4D4B85B01B681C6800
:100E100006F050FC002840F0898021462046494ACF
:100E200006F09CF9002840F08780DFF81881464DD5
:100E3000464EDFF81C91474F31E0584600F01EF94E
:100E40003060002841D0584600F018F90446C9F82F
:100E50000000002839D03946306807F001FB3946D8
:100E6000204607F0FDFA2968DFF8ECC03B4C3C4A0D
:100E70003C4899B34FF0FF3ECDE9014C5346CDF8C5
:100E800000E004F0F1FB04463748002C3CD006F0AB
:100E9000EDFBFFF785FF42F2107001F083FA4FF08F
:100EA000000A012253465146D8F80000CDF800A0B0
:100EB00006F0CAF8286004F059FE041EA4F1180BCD
:100EC000BBDC204605B0BDE8F08F6FF00B0427486F
:100ED00006F0CCFB204605B0BDE8F08F244806F0B4
:100EE000C5FB244B1A78052A04D95B6813B1062088
:100EF000214998476FF00104D8F8000006F0BCF9CA
:100F0000204605B0BDE8F08F1C4806F0AFFB1C4D35
:100F1000002001F047FA6B68002BF9D000236B60CA
:100F2000FFF73EFF204605B0BDE8F08F154806F0FC
:100F30009DFB4FF0FF34C4E7134806F097FBF8E73A
:100F4000AC2C1160A82C1160A42C1160182C11601D
:100F5000142C1160F0051160290D01604D0D016028
:100F600000A50160642C116010A501608CA40160D3
:100F7000B0A40160A8D61160DCA4016034A50160B2
:100F80001C2C116034A4016060A401604FF0FF319B
:100F9000002200F10803C0E90131C360036102606F
:100FA000704700BF00230361704700BF42680368B9
:100FB00010B494680133C1E901246160916010BCF0
:100FC00008610360704700BF30B40D686B1C10D01F
:100FD00000F108031C465B681A68AA42FAD9026845
:100FE0004B60013299608C606160086130BC0260C6
:100FF000704704696368F2E7036910B4D0E901122D
:101000005C688A6051600021844208BF5A601A6897
:101010000161013A1A60186810BC7047154B1A46F6
:101020001B688342FBD3516802EB010C604519D069
:10103000416800EB010C634505D08242036017D084
:1010400010607047104630B40B4C2468A34203D0A4
:10105000D3E90045294441608242046018BF106012
:1010600030BC704740680144501883425160E9D059
:10107000704700BFC82C1160C42C11602DE9F843E3
:10108000044601F045F842480368002B56D0414B16
:101090001F683C424CD1631E0A3349D8610704F1F2
:1010A000080505D025F007030833AB4240D91D469B
:1010B000DFF8E480D8F80090A94539D3374B1946BA
:1010C0001C6803E0236823B121461C466268AA42DB
:1010D000F8D30368A3422BD00E682068531B102B53
:1010E00006F10806086007D9601942074AD1436033
:1010F0006560FFF793FF62682949A9EB020308685E
:101100003A43834238BF0B6000216260254AC8F829
:101110000030136821600133136001F0B5F87307E4
:1011200009D04FF48771204B204A214806F0E0FA9D
:1011300001F0AAF800263046BDE8F8831D4A55079D
:1011400019D1114602F5204300254FF00046083B17
:1011500023F00703114F9A1AC7E900150360C3E98A
:101160000055C1E900320E4B37461A600A4B1A602F
:10117000084B1E608DE7D11D21F0070102F52043C9
:101180000A46E1E7CD210C4B084A094806F0B0FABF
:10119000C42C1160B02C1160C02C1160C82C1160DF
:1011A000BC2C1160B82C116020A60160C4A601609F
:1011B00088A50160A836116054A5016018B3194ACA
:1011C00038B5126850F8043C04461342A0F10805F3
:1011D00021D050F8081CB9B923EA020340F8043CB6
:1011E00000F096FF104A54F8043C116828460B445E
:1011F0001360FFF713FF0D4A136801331360BDE856
:10120000384001F041B8704740F22311084B094AB9
:10121000094806F06DFA4FF49171084B054A0648EB
:1012200006F066FAB02C1160C02C1160B42C11606D
:1012300090A60160B8A6016088A501605CA6016067
:1012400070B51646026C0446856B52B16EB94068A3
:1012500006F0AAFA6368216CA2680B4493426360AB
:1012600017D201350020A56370BDC06806F09CFA56
:10127000226CE36851429B1A2268E360934202D2D7
:10128000A3680B44E360022EEBD1012D38BF01258A
:10129000E8E72368013500206360A56370BD00BFE7
:1012A00070B5054602F0F2FD95F845305CB2002CB1
:1012B00014DD05F1240603E0631EDAB25CB26AB104
:1012C0006B6A5BB1304601F01BF90028F4D001F0E5
:1012D000B1F9631EDAB25CB2002AF1D1FF2385F8BE
:1012E000453002F0E1FD02F0D1FD95F844305CB2EA
:1012F000002C14DD05F1100603E0631EDAB25CB2C7
:101300006AB12B695BB1304601F0FAF80028F4D0DD
:1013100001F090F9631EDAB25CB2002AF1D1FF232A
:1013200085F84430BDE8704002F0BEBD38B588B3E2
:1013300004460D4602F0AAFDD4E90F3000FB03F38A
:101340002268181A13440021A360FF23626002443C
:10135000A163E26084F8443084F8453075B92369AC
:101360001BB902F0A1FD012038BD04F1100001F00D
:10137000C7F80028F5D002F07DFDF2E704F1100077
:10138000FFF704FE04F12400FFF700FE02F08CFDDD
:10139000012038BD40F20D11024B034A034806F00C
:1013A000A7F900BFD4A6016050AB0160DCA60160C4
:1013B00070B582B030B31C46EBB106460D4692B113
:1013C00071B348230193019B482B22D10121204670
:1013D000C4E90F65226084F84610019BFFF7A6FF61
:1013E000204602B070BD11BB48230193019B482BDE
:1013F0000FD12246EAE74FF4A671104B104A11486C
:1014000006F076F94FF4A4710F4B0D4A0D4806F023
:101410006FF940F259110D4B094A0A4806F068F974
:101420004FF4A8710A4B064A064806F061F940F2EB
:101430005111084B024A034806F05AF988A7016087
:1014400034AB0160DCA6016064A7016028A80160DC
:10145000A8A70160E8A7016030B583B0C0B1884299
:101460000D462AD314460AB348230193019B482B07
:1014700015D1012100232260D063204684F8461054
:101480002364019AFFF752FF2046A56303B030BDE5
:101490004FF434710C4B0D4A0D4806F029F940F217
:1014A00059110C4B0C4A0A4806F022F94FF4A67168
:1014B0000A4B094A064806F01BF940F2D121084BB5
:1014C000024A034806F014F944A8016010AB016019
:1014D000DCA6016028A8016034AB016088A7016028
:1014E00054A8016070B5A0B1884205460E4617D3D6
:1014F0004820FFF7C3FD044648B1002301210060E6
:10150000C56380F846300364FFF710FFA6632046EA
:1015100070BD40F2ED21064B064A074806F0E8F898
:1015200040F2EE21054B034A034806F0E1F800BF04
:1015300044A80160F0AA0160DCA6016054A8016023
:10154000F0B585B00192002800F0A48004460F4653
:101550001E46002978D0022E03D1E36B012B40F008
:10156000928001F06DF8002864D002F08FFCA26B2D
:10157000E36B9A424AD3022E48D0002005460DE084
:1015800002F092FC2046FFF78BFE00F07DFE02F099
:101590007DFCA36BE26B9A4238D80120019B002BA3
:1015A0005CD000283FD002F07FFC00F0B1FD02F0DB
:1015B0006DFC94F84430FF2B08BF84F8445094F835
:1015C0004500FF2808BF84F8455002F06DFC01A9D2
:1015D00002A800F0EBFF002845D102F057FCA26BF7
:1015E000E36B9A42CCD102F05FFC019904F1100048
:1015F00000F044FF2046FFF753FE00F045FEB0B177
:1016000002F044FCA26BE36B9A42C6D232463946E2
:101610002046FFF715FE636A73BB50BB02F044FC23
:10162000012005B0F0BD02A800F0B4FFBBE702F056
:1016300021FCE5E7019B002B97D040F21131194BBB
:10164000194A1A4806F054F8036C002B83D040F274
:101650000D31174B144A154806F04AF802F024FCE5
:10166000002005B0F0BD2046FFF71AFE00F00CFE8A
:10167000F6E702F0FFFBD1E704F1240000F040FFA1
:101680000028CBD0F5E740F20E310A4B064A074856
:1016900006F02EF84FF44371074B034A034806F057
:1016A00027F800BF1CA90160DCAA0160DCA601606C
:1016B00074A80160CCA80160D4A601602DE9F041B6
:1016C00000284DD004460D4690461E4671B3022EAA
:1016D0001ED1E36B012B4AD102F0CCFC0746A36B71
:1016E000294694F84550324620466DB2A36BFFF769
:1016F000A7FD6B1C24D07F2D40D001356DB284F83E
:1017000045500124384602F0C1FC2046BDE8F08176
:1017100002F0B0FCA26BE36B07469A42E0D30024D0
:10172000384602F0B3FC2046BDE8F081036C002B84
:10173000CDD040F2E131154B154A164805F0D8FFDF
:10174000636A002BDDD004F1240000F0D9FE0028EC
:10175000D7D0B8F1000FD4D00123C8F80030D0E7BB
:101760004FF478710C4B0A4A0A4805F0C1FF40F269
:10177000E2310A4B064A074805F0BAFF40F26B41D6
:10178000074B034A034805F0B3FF00BF74A801608C
:10179000C0AA0160DCA60160D4A60160CCA80160EB
:1017A00070A9016070B5002845D0036C0446002B79
:1017B0003AD103680D463BB302F05CFCA36BE26BCD
:1017C00006469A422AD994F845200133FF2AA3639A
:1017D00053B20BD07F2B35D001335BB284F8453048
:1017E0000124304602F052FC204670BD636A002B93
:1017F000F6D004F1240000F083FE0028F0D0002D84
:10180000EED001232B60EBE78368002BD4D040F2AD
:101810009441104B104A114805F06AFF00243046ED
:1018200002F034FC204670BD40F28F410C4B0A4A56
:101830000A4805F05DFF40F28B410A4B064A074813
:1018400005F056FF40F21351074B034A034805F0D9
:101850004FFF00BFACA90160ACAA0160DCA601602B
:1018600090A90160D4A6016070A90160F0B585B0AF
:101870000192002800F09D8004460E46002900F0E9
:10188000818000F0DDFE002872D002F0FFFAA56B27
:10189000002D56D1019B002B35D002A800F07AFE16
:1018A0002F4602F001FB00F033FC02F0EFFA94F84F
:1018B0004430FF2B08BF84F8447094F84530FF2B68
:1018C00008BF84F8457002F0EFFA01A902A800F001
:1018D0006DFEE8B902F0DAFAA36B33BB02F0E4FA6A
:1018E000019904F1240000F0C9FD2046FFF7D8FC5F
:1018F00000F0CAFC002850D002F0C8FAA56B05BB66
:10190000019B002BCDD102F0CFFA002005B0F0BD35
:101910002046FFF7C5FC00F0B7FC02F0B7FAA36B56
:10192000002BF0D002F0C0FAE6E702F0BDFA204644
:10193000FFF7B6FC00F0A8FC02F0A8FAA56B002D9A
:10194000DED0226C5AB1E168A36811449942E1608B
:1019500028BF2168304628BFE16005F025FF013D22
:10196000A5632369E3B902F09FFA012005B0F0BD39
:10197000019B002B89D04FF4A761114B114A1248EB
:1019800005F0B6FE036C002B3FF47BAF40F2335101
:101990000E4B0C4A0C4805F0ABFE02F06BFAABE7BD
:1019A00004F1100000F0ACFD0028DCD002F062FA77
:1019B000D9E740F22F51064B024A034805F098FE42
:1019C0001CA901609CAA0160DCA601601CAA016040
:1019D00010AA016070B584B00191002800F08A80DF
:1019E000036C0446002B7ED100F02AFE002864D050
:1019F00002F04CFAA56B002D56D1019B002B35D07F
:101A000002A800F0C7FD2E4602F04EFA00F080FB5F
:101A100002F03CFA94F84430FF2B08BF84F844608D
:101A200094F84530FF2B08BF84F8456002F03CFA7B
:101A300001A902A800F0BAFDE8B902F027FAA36BE9
:101A400033BB02F031FA019904F1240000F016FDD5
:101A50002046FFF725FC00F017FC002837D002F0E5
:101A600015FAA56B05BB019B002BCDD102F01CFA2A
:101A7000002004B070BD2046FFF712FC00F004FC0B
:101A800002F004FAA36B002BF0D002F00DFAE6E7A7
:101A900002F00AFA2046FFF703FC00F0F5FB02F023
:101AA000F5F9A56B002DDED0013DA56323698BB947
:101AB00002F0FAF9012004B070BD019B002B97D011
:101AC00040F2CA510F4B104A104805F011FE02F0C7
:101AD000D1F9C4E704F1100000F012FD0028E7D0AE
:101AE00002F0C8F9E4E740F2C551094B064A07483D
:101AF00005F0FEFD40F2C151064B034A034805F0D4
:101B0000F7FD00BF1CA9016088AA0160DCA6016086
:101B100090A9016010AA016010B5D8B10023114C42
:101B200054F83320D900904206D001330A2BF7D164
:101B300090F8463053B110BD002300220A4C2144D6
:101B4000C1E9002390F84630002BF4D1BDE81040E5
:101B5000FFF734BB40F2EE71044B054A054805F02F
:101B6000C7FD00BFD42C1160D02C1160D4A6016039
:101B700078AA0160DCA60160002310B4084A52F87C
:101B8000334002EBC30C24B101330A2BF7D110BC54
:101B9000704710BC42F83310CCF80400704700BF07
:101BA000D02C116070B504460E46154602F06EF951
:101BB00094F84430FF2B04BF002384F8443094F899
:101BC0004530FF2B04BF002384F8453002F06CF948
:101BD000A36B23B12046BDE87040FFF761BB04F161
:101BE00024002A46314600F067FC2046BDE87040DC
:101BF000FFF756BB2DE9F843044602F047F9304A97
:101C0000304D1368013313602B683BB32E4E33689D
:101C1000E3B1E36A2D4F2E492E480A6801320A606B
:101C20000268211D9A4238BF036003EB830307EB70
:101C30008300FFF7BBF902F037F9336823B12A6854
:101C4000E36AD26A9A4211D3BDE8F8832A68E36A4C
:101C5000D26A1E4F9A4298BF2C60DCE72C60136852
:101C6000012B07D0E36A194F174ED4E7BDE8F843BC
:101C700002F000B9154F3E4607F1640830461436AD
:101C8000FFF784F9B045F9D1DFF84C90DFF84C80CC
:101C90004846FFF77BF94046FFF778F91048FFF711
:101CA00075F91048FFF772F90F48FFF76FF90F4BFE
:101CB000054EC3F800900E4BC3F80080E36AAAE714
:101CC000442D11601C2E1160382D1160B82D11604B
:101CD000282D11603C2D1160A42D1160902D1160F4
:101CE000742D1160602D1160482D11608C2D1160D4
:101CF000882D1160F8B50546154B164E1C683068E6
:101D00000F460430FFF778F96B1C17D0336864195D
:101D10005C6007D3104B18683168BDE8F8400431A7
:101D2000FFF752B90D4B186831680431FFF74CF9D1
:101D30000B4B1A68A24288BF1C60F8BD002FE5D08B
:101D4000316808480431BDE8F840FFF72FB900BFFB
:101D5000402D11601C2E1160882D11608C2D11609A
:101D6000242D1160482D11602DE9F84302F18042C5
:101D7000DDE90974256B013A05EB820506469846B4
:101D800025F00705C1B301F1FF3C01F10F0304F198
:101D9000330E1CF9011F0EF8011F09B19C45F8D143
:101DA000002384F84330DDF82090201DB9F1040FA2
:101DB00028BF4FF00409C4F82C90FFF7F3F804F1A2
:101DC0001800FFF7EFF828460025C9F10503A361C5
:101DD00032464346216B246164626564A564E56410
:101DE00025656565A56584F85C5002F093F8206070
:101DF00007B13C60BDE8F88384F83410D3E700BF36
:101E000080B51D4C1D4E1E4DDFF8788023682BB326
:101E100002F03CF8F368DF68381DFFF7EDF82B6837
:101E2000013B2B602368013B236002F03DF897F8EB
:101E30005D3053B1012B1AD0022BE7D040F68A71E6
:101E4000114B124A124805F053FC386BFFF7B6F9F4
:101E50003846FFF7B3F92368002BD9D1D8F8003002
:101E6000012B01D902F006F802F0C2F8CEE738469D
:101E7000FFF7A4F9CAE700BF5C2D1160602D116067
:101E8000442D1160B82D1160F4AB016054AE0160B7
:101E90006CAB016070B586B0DDE90B54BDB124B305
:101EA00060260596059E602E18D125630A9D029432
:101EB0000095059D022584F85D5004AD0195FFF75E
:101EC00053FF2046FFF796FE049806B070BD4FF40E
:101ED0001271094B094A0A4805F00AFC40F25121E7
:101EE000084B064A064805F003FC40F24921064B20
:101EF000024A034805F0FCFB28AC016070AE0160AB
:101F00006CAB016064AC016048AC01602DE9F0434A
:101F1000074685B09000154688469946FFF7AEF80B
:101F2000F0B104466020FFF7A9F80646A8B10463A3
:101F3000002486F85D400D9C4B4601940C9C2A467B
:101F40004146384602960094FFF70EFF3046FFF7F1
:101F500051FE012005B0BDE8F0832046FFF72EF9C1
:101F60004FF0FF3005B0BDE8F08300BF70B5044608
:101F7000334D01F08BFF002C46D0261D3046FFF775
:101F80003BF8A36A1BB104F11800FFF735F82D4A9E
:101F90001368013313602B68A3422CD02A4994F8AC
:101FA0005D200B68013B0B60A2B1012A35D0022AEB
:101FB0003ED1264B1A681268BAB94FF0FF32244B53
:101FC0001A6001F071FF234B1B6813B12B68A34209
:101FD0001CD070BD206BFFF7F1F82046FFF7EEF83C
:101FE0001A4B1A681268002AE7D01A68184BD26890
:101FF00012681A60E5E731461748FEF7D7FF174A1F
:10200000136801331360DCE72C68B6E7144B1B68D8
:102010003BB9BDE8704001F02DBF2046FFF7CEF878
:10202000C7E740F2D2410F4B0F4A104805F060FB62
:1020300040F68A710E4B0F4A0C4805F059FB00BF61
:102040001C2E1160282D1160442D11608C2D116003
:10205000242D1160382D1160602D11605C2D1160F0
:10206000202D116080AC016064AE01606CAB01603A
:10207000F4AB016054AE016030B5002489B007AA0A
:1020800006A905A8CDE9054404F0A0F9DDE905019C
:102090002346CDE90110079A144915480094FFF72B
:1020A000F9FE30B100F012FB0128054605D00135DC
:1020B00015D0104B1B6809B030BD01F0DBFF4FF0AD
:1020C000FF300D490D4A0E4B086015601C6004F08E
:1020D0001BF901F05BFF074B1B6809B030BD40F6F0
:1020E0003601084B084A094805F002FB9CAC016028
:1020F000011E01603C061160242D1160382D116015
:10210000402D1160A4AC016034AE01606CAB016085
:10211000024A136801331360704700BF202D11601D
:10212000014B1868704700BF402D11602DE9F04F3A
:10213000474B83B01B68002B4AD1464B1E680136C3
:102140001E60002E4DD0444B0193019B1B689E42A4
:1021500061D3424F3B681C68002C6DD00024DFF82F
:102160000081DFF800A1DFF8009126E00BF1040503
:102170002846FEF741FFDBF828201AB10BF11800C2
:10218000FEF73AFFDBF82C00D8F8002029469042F1
:1021900088BFC8F8000000EB80000AEB8000FEF763
:1021A00005FFD9F800203868DBF82C10D26A0368E4
:1021B000914228BF0124002B3ED03B68DB68D3F856
:1021C0000CB0DBF804209642D0D2019B1A6023E0C9
:1021D00000242046254A13680133136003B0BDE88C
:1021E000F08F1E4B1A681268002A2AD1204A1868FC
:1021F000116819601F4910600A6801320A601A6884
:10220000126892B94FF0FF33134A01921360019B99
:102210001B689E429DD20024174B1B68002B18BFE1
:102220000124204603B0BDE8F08F1B680A4ADB6832
:1022300001921B68136088E74FF0FF33019A136027
:10224000EAE740F6BC210D4B0D4A0E4805F050FA66
:10225000202D1160402D1160242D11608C2D1160F6
:102260003C2D1160B82D11601C2E1160342D1160B1
:10227000882D11602C2D1160302D1160B8AC0160DB
:1022800010AE01606CAB01602DE9F84F384C23684B
:10229000002B65D001F0FAFD2368013B2360236821
:1022A000002B4FD1334B1B68002B4BD0324D2B688A
:1022B000002B52D04FF0010A304EDFF8C480314F6E
:1022C000DFF8C490EB68D3F80CB00BF104040BF109
:1022D0001800FEF791FE2046FEF78EFE3368DBF80D
:1022E0002C002146984288BF306000EB800008EB4C
:1022F0008000FEF75BFE3B68DBF82C20DB6A9A422D
:1023000028BFC9F800A02B68002BDBD11F4B1A682F
:102310001268EAB11A681E4BD26812681A601D4E24
:10232000346844B10125FFF701FF08B1C9F8005036
:10233000013CF8D13460D9F800301BB101F09AFDAE
:10234000012400E0002401F0AFFD2046BDE8F88F35
:102350004FF0FF320E4B1A60E1E7DFF82C90DEE71A
:1023600040F6A9010C4B0D4A0D4805F0C1F900BF1C
:10237000202D1160442D1160742D11603C2D1160D1
:10238000B82D11601C2E1160302D11608C2D116044
:10239000242D1160342D116030AD016024AE016038
:1023A0006CAB016080B108B50C4B196871B91A6843
:1023B00001321A60FFF79EFCFFF766FF18B9BDE80F
:1023C000084001F057BD08BD01F054BD40F23F5137
:1023D000034B044A044805F08BF900BF202D11601F
:1023E00080AC016048AE01606CAB01601B4B1B68A8
:1023F0001BB101221A4B1A607047194A10B5194CCB
:1024000013602368184903EB830292008A589800EE
:1024100042B9E3B1013B03EB830251F8222098005B
:10242000002AF6D0184401EB800C6146DCF8042049
:10243000083152688A42CCF8042008BF5268D1683B
:1024400008BFCCF80420094A1160236010BD40F693
:10245000F731074B074A084805F04AF9202D11606B
:10246000302D11603C2D1160B82D11601C2E1160B3
:1024700048AD0160FCAD01606CAB016010B558B1B6
:102480000C46094B19681831FEF79EFD2046BDE841
:1024900010400121FFF72EBC40F61141034B044AC6
:1024A000044805F025F900BF1C2E116058AD0160ED
:1024B000E4AD01606CAB016038B588B114460D46DF
:1024C0000B4B19681831FEF771FD002C214608BF2F
:1024D0002846BDE8384018BF4FF0FF30FFF70ABC70
:1024E0004FF44461034B044A044805F001F900BF6E
:1024F0001C2E116058AD0160C4AD01606CAB016071
:1025000038B5C368DC685CB304F118052846FEF7EB
:1025100073FD174B1B6873B129461648FEF746FD3D
:10252000154BE26A1B68DB6A9A4217D90123134AEA
:102530001846136038BD251D2846FEF75DFD104A7C
:10254000E36A11680F488B4288BF136003EB830373
:10255000294600EB8300FEF729FDE1E7002038BDA6
:102560004FF44761084B094A094805F0C1F800BF1C
:10257000202D1160742D11601C2E1160302D116002
:102580003C2D1160B82D116064AD0160A8AD0160F3
:102590006CAB0160034A044B12681B68C0E900235E
:1025A000704700BF2C2D1160402D1160F8B538B375
:1025B0000D4661B3044601F069FC2B68174A581CAC
:1025C000116818D0D4E900C0154E3768BC4508D052
:1025D000884206D8002301242B6001F065FC2046C8
:1025E000F8BD0F1ABB42F5D95B1A31681268034473
:1025F0002B60C4E90012002401F056FC2046F8BD0F
:1026000040F6EB41074B084A084805F071F840F6E0
:10261000EC41074B044A054805F06AF8402D11606B
:102620002C2D116074AD016090AD01606CAB016048
:1026300080AD01600122014B1A607047302D11609E
:10264000054B1B6833B1054B1868B0FA80F04009A0
:102650004000704701207047382D1160202D116017
:10266000F0B5124C83B001F011FC256825B103B020
:10267000BDE8F04001F018BC0D4F0E4E3846FEF795
:1026800085FC3046FEF782FC0B4A009517600B4A2A
:102690000C2116600A200A4B0A4AFEF789FE2060C8
:1026A0000028E4D00849FFF767FAE0E7E82E116058
:1026B000082F1160F42E1160F02E1160EC2E1160C5
:1026C000202E1160682E116084AE016030B589B093
:1026D000FFF7C6FF114B1B68CBB10024032507AAE7
:1026E00006A905A8CDE9054403F07EFEDDE9050154
:1026F0002346CDE90110079A09490A480095FFF7DA
:10270000C9FB094B186010B1012009B030BD40F27F
:102710000D11064B064A074804F0EAFFE82E116047
:1027200030AF01602D280160E42E116038AF0160E8
:10273000D8AF0160A8AE016030B585B020B3164DAA
:102740000446286878B10529CDE9011203940CDC10
:10275000FFF776FF02284FF000030ED01A462868D4
:1027600001A9FEF7EDFE05B030BD9C4601A900238E
:102770006246FEF7A3FF05B030BD089A286801A99C
:10278000FEF7DEFE05B030BD4FF4C171034B044AC5
:10279000044804F0ADFF00BFE82E116040AF0160B7
:1027A00078AF0160A8AE0160F0B51B4E83B00DE0BC
:1027B000DB68DC681F68251D2846FEF71DFC236AC0
:1027C0002046984794F824305B0709D433681A6888
:1027D000002AEDD1114A11681360316003B0F0BDD9
:1027E000A3693B449F4206D2294630686360246156
:1027F000FEF7EAFBEAE700233A4620461946009333
:10280000FFF79AFF0028E1D140F2A931044B054AB5
:10281000054804F06DFF00BFF02E1160EC2E116032
:1028200048AF0160C4AF0160A8AE01602DE9F04F70
:10283000864F874EDFF81C82874C87B03B68D3F801
:1028400000A0BAF1000F00F09080DB68D3F800A080
:10285000FFF75EFCFFF764FC33680546834200F235
:1028600094808245306040F2A58000222068AAEB67
:102870000501FFF797F9FFF707FD002800F08E80AC
:102880000022206803A9FEF7F1FF0028D6D0039BA1
:10289000002BF5DB059D6B6913B1281DFEF7ACFB22
:1028A000FFF73EFC33688246984274D3039BC6F818
:1028B00000A0092BE4D8DFE803F005050548324FF6
:1028C0000505483295F82420049BA96942F00102CD
:1028D000581885F824202CBF01220022504568603A
:1028E0002D615ED8AAEB0303994228D82B6A2846AB
:1028F000984795F824305907C2D50023A969049A4E
:1029000028460A4400931946FFF716FF0028B7D15E
:1029100040F23631514B524A524804F0E9FE95F8E4
:102920002420049B42F0010285F82420AB61002B97
:1029300000F08580534453456B602D6135D8D8F83D
:102940000000291DFEF740FB9AE795F8243023F09C
:10295000010385F8243093E795F824309A0741D590
:1029600023F0010385F824308AE7FFF7D1FBFFF756
:10297000D7FB33680546984207D3D8F80030356056
:102980001A68B2FA82F2520970E7FFF70DFF35605C
:10299000FFF77AFC74E7FFF707FF87E701F06AFAB1
:1029A0006EE7534501D9002AA0D03868291DFEF7EB
:1029B0000BFB65E7FFF768FC3B68DB68D3F80CB0FE
:1029C0000BF104094846FEF717FB9BF82430580723
:1029D0000CD423F001038BF824305846DBF8203068
:1029E00098474DE72846FEF7E9FB49E7DBF8182052
:1029F000CBF810B00AEB0203AB42CBF8043004D999
:102A000049463868FEF7E0FAE7E7A5EB0A05AA426F
:102A10000FD800235246194658460093FFF78CFE04
:102A20000028DAD14FF405710C4B0F4A0D4804F021
:102A30005FFE084B49461868FEF7C6FACDE740F23C
:102A40004F310A4B064A074804F052FEF02E11603F
:102A5000E02E1160EC2E1160E82E116048AF01608D
:102A600090AF0160A8AE0160ACAF016050AF0160F3
:102A7000704700BF00BE704708B500F005F803F0CE
:102A80007DFCFEE700BE704770B5002003F0CAFC75
:102A900000F042F8012003F0C5FC1248124A002160
:102AA000121A04F0F7FE1148114A1249121A04F0E2
:102AB0007BFE114D114B5B1B002B07DD00249E108C
:102AC00055F8043B01349847A642F9DC00F018F8A9
:102AD000022003F0A7FC00F0FDF8BDE870400020E4
:102AE000FFF7C6BF000C116084DC116000001160AC
:102AF000FC0B11603CC00160FC0B1160FC0B116011
:102B0000024A034B52681A60704700BF40061160CA
:102B10001C2F11600000000030B433A5D5E900453A
:102B20002D4B2E482E492F4AC3E9004518A5D5E95B
:102B300000451865C3E9024517A5D5E900451160B0
:102B4000C3E9064516A1D1E9000117A5D5E900455D
:102B5000C3E9040116A1D1E90001C3E90A4516A59C
:102B6000D5E90045C3E9080115A1D1E90001C3E990
:102B70000E4530BCC3E90C0113A1D1E90001C3E942
:102B8000100113A1D1E90001C3E91201704700BF90
:102B90000065CD1DE02E000040EFC41F40EFC41FB4
:102BA00000C2EB0B00E1F505A077E20F005ED0B2AA
:102BB00000C2EB0B005ED0B200B4C40400E1F50526
:102BC0008026FE0080B2E60E00E1F50500C2EB0BA8
:102BD00000E1F5050084D7174006116000366E014C
:102BE00000C2EB0B1C2F1160008C864700C2EB0B60
:102BF00030B433A5D5E900452D4B2E482E492F4A38
:102C0000C3E9004518A5D5E900451865C3E90245A3
:102C100017A5D5E900451160C3E9064516A1D1E91C
:102C2000000117A5D5E90045C3E9040116A1D1E9C2
:102C30000001C3E90A4516A5D5E90045C3E9080125
:102C400015A1D1E90001C3E90E4530BCC3E90C016F
:102C500013A1D1E90001C3E9100113A1D1E90001D9
:102C6000C3E91201704700BF0065CD1DE02E0000D2
:102C700040EFC41F40EFC41F00C2EB0B00E1F5059D
:102C8000A077E20F005ED0B200C2EB0B005ED0B2C4
:102C900000B4C40400E1F5058026FE0080B2E60E13
:102CA00000E1F50500C2EB0B00E1F5050084D71744
:102CB0004006116000366E0100C2EB0B1C2F116044
:102CC000008C864700C2EB0B014B53F82000704785
:102CD0004006116000BF70470C4A08B503461068F3
:102CE00040B103330A4923F0030303448B4205D860
:102CF000136008BD074908461160F2E704F01CFDA7
:102D00000C2203464FF0FF301A6008BDA436116054
:102D100088DC116088DC11600123F0B40546087C72
:102D20002B4F00F58516021D03FA02F20436120439
:102D3000284CB60283406960AE6043EA0340FA67FC
:102D4000FA6FC4F83405D4F8B4261342FBD0C4F8A3
:102D500034082048D0F8B4291342FBD101204B6835
:102D6000CA693076EB603360137852781B1AB3FA75
:102D700083F382424FEA5313B1F9122008BF43F0A4
:102D80000203DBB2002A86F8203017DB487C02F110
:102D9000604303F5614383F80003012053090E4C9F
:102DA0009B0044F8225003F1604302F01F0203F538
:102DB000614300FA02F2C3F880211A600020D1E9D1
:102DC0000542064B2C61AA612B606861F0BC70471C
:102DD000000B014100000141242F11604D544700B8
:102DE000034601229B6800201A75704703460122A2
:102DF0009B6800201A7670470620704703469A6841
:102E0000D9600020116070470620704703469A6819
:102E10000020137CC3F300030B7153680B607047F1
:102E200084460020CCE90532CCF81010704700BF72
:102E300001210346D0E90120B2F91220017612F1F6
:102E4000210F02D1002018607047002A17DB10B450
:102E500050090E4C02F01F02914000F1200244F88C
:102E60002210BFF34F8FBFF36F8F00205A680849BD
:102E7000B2F9122010BC41F82230186070470020CF
:102E8000034941F822301860704700BF00E100E0BC
:102E9000242F11600346024A00201A60704700BFC9
:102EA0000100010138B50546EB6810208B600C4627
:102EB000FFF70AFF0246AB68002093F820306260FB
:102EC000C3F34003237038BD0620704706207047C7
:102ED00070B584B0EFF30383C3F30803104A103BCB
:102EE0001BB252F82340636826691B78012B04BF8C
:102EF000A268137686B1636901AD7BB193E80700E0
:102F000085E80700A26918461A60B04763691BB1DB
:102F100095E8070083E8070004B070BD2B46F1E791
:102F2000242F11602DE9F04103240122C0F3072E64
:102F3000AEF10203C0F3850C264F20400CEB430C8E
:102F40005FFA8CFC00FA04F304FA03F057F82C4003
:102F50009A4024EA0208C1F380449C401E4E44EA91
:102F6000080447F82C4056F82C70C1F3812427EA56
:102F700000079C40194D3C4346F82C4055F82C6006
:102F8000C1F3404426EA02069C403443BEF1010FDF
:102F900045F82C401BD1D243C043114CC1F3C0456E
:102FA000A6689D4032402A43A260D4F80854C1F379
:102FB000015205409A402A43C4F80824D4F808284E
:102FC000C1F38151104099400143C4F80818BDE88D
:102FD000F08100BF10180341101003411014034189
:102FE000002003412DE9F04F072401264FF0030E86
:102FF000C7B24FEA870887B004FA08F40194C1F316
:10300000812406FA07FA0294C1F34044050A00EA53
:103010000E02C0F385035FFA8AFB0394C1F3011427
:1030200002FA0EF203EB45030494BBF1FF0FC1F368
:10303000C044E8B2C1F3004C0594C1F30155C1F39B
:103040008154DFF8D490DBB20EFA02FE06FA02F6E3
:10305000C1F3026109D00CFA07F710F809C02CEA95
:103060000A0C4CEA070C5FFA8CFC00F809C0DFF888
:10307000ACB0029FDDF80CC0DDF8149001FA08F145
:10308000DDF810800CFA02FC08FA02F809FA02F9DD
:103090009740954094405BF82320DFF884A022EA13
:1030A0000E0217434BF823705AF823201D4F22EAD3
:1030B00006024CEA0202DFF870C04AF823205CF8EE
:1030C000232022EA0E0248EA02024CF8232057F895
:1030D000232022EA060249EA020247F8232007F5E4
:1030E000806757F82320114E22EA0E02154347F855
:1030F000235056F8232022EA0E0214430C4A46F8C5
:10310000234052F82030019C23EA0403194342F87B
:10311000201007B0BDE8F08F10020341801003417A
:103120008014034180200341801C03418028034117
:10313000400403414FF0030C2DE9F04F012400EA55
:103140000C02C6B202FA0CF28BB004FA06F89440F4
:103150000594740009940CFA04F4050AC0F385037D
:103160000894A4B2C1F3810903EB4503E8B20494C7
:103170005FFA88F5C1F3812402960395C1F3004EEE
:103180000694C1F34047C1F30116C1F38035C1F382
:10319000C044C1F3015BC1F3815ACDF8009001F046
:1031A00001095FFA88F1FF29DBB2CDF81C800CFA27
:1031B00002FCCDF804900CD002990EFA01F1DFF870
:1031C00000E110F80EE02EEA080E4EEA010E5FFA5A
:1031D0008EFE3B49974000F801E00699964001FABF
:1031E00002FE3849954094400BFA02FB0AFA02FAB3
:1031F00051F82320DDF8148022EA0C024EEA020284
:10320000DFF8C4E041F823205EF823204FF6FF7971
:1032100022EA080217434EF8237001F5406151F885
:10322000232022EA0C02164341F82360274E01F5C1
:10323000806156F8232022EA0802154346F82350FD
:1032400051F8232022EA0802144341F82340204C7D
:1032500001F5006154F8232022EA0C024BEA020235
:1032600044F8232051F8232022EA0C024AEA020201
:1032700041F82320049B174A4B450BD00099099B2A
:10328000089C994032F810309BB223EA04030B43A8
:103290009BB20093009B104922F81030039BFF2B38
:1032A00009D0DDE90132079C9340425C22EA040226
:1032B0001343DBB20193019B43540BB0BDE8F08F85
:1032C000100203418010034180140341802C03410C
:1032D00080240341200103411000034170B50546DD
:1032E000EFF31082012383F31088204E33681BB95B
:1032F0001F490B7540230B7533680133336082F32C
:1033000010882B88DBB1002406E0FFF76BFE2A88CB
:103310000134A3B29A4212D96B68A2B203EBC20184
:10332000486853F83210B0F5803F1BD2CB03ECD481
:10333000FFF700FF01342A88A3B29A42ECD8EFF3DA
:103340001082012383F31088336813B13368013B83
:10335000336033681BB9802005490B75087582F30B
:10336000108870BDFFF7DEFDD1E700BF202F116090
:103370000030034108B5034B03600846FFF7AEFF7A
:10338000002008BD54524F500246086830B520F066
:103390000204A4F10104B4FA84F400F10073640996
:1033A00003F500335B011474C2E90230CB6851604D
:1033B000002B40D0181D4FF48035C2E905304FF086
:1033C0000113204C2048C4F88850D4F88840C0F835
:1033D0002035D0F8A036DB07FBD54FF001131A4C8F
:1033E000C0F82038D4F8A00910F00100FAD14FF04D
:1033F000010CB1F9064091F804E004F1604303F5D3
:10340000614383F800E3114D63099B0045F82420D4
:1034100003F1604304F01F040CFA04F403F5614364
:10342000C3F880411C608C68094B0969D461C2E90A
:103430000801136030BD074C04EBC003043404EBF7
:10344000C000B8E7000B014100000141242F1160CA
:10345000554877000010F06284460020CCE908321D
:10346000CCF81C10704700BF42680346B2F9062032
:10347000002A18DB012010B451090E4C02F01F0283
:10348000203100FA02F244F82120BFF34F8FBFF33E
:103490006F8F00205A680849B2F9062010BC41F825
:1034A0002230186070470020034941F8223018602C
:1034B000704700BF00E100E0242F116003464FF089
:1034C000012200201A607047037C826843B91368A8
:1034D000002BFCD10123406901600020536070473C
:1034E0001369002BFCD10123406901600020536166
:1034F000704700BFF0B5194B00B253F8204085B0BB
:10350000237C012B1FD0E3B9A3681A69CAB1012239
:10351000A1690F689A61E6699EB1236A01ADD3B1D2
:1035200093E8070085E80700626A18461A60E268B7
:10353000C3E90127B047236A1BB195E8070083E878
:10354000070005B0F0BDA26811680029F9D0A16993
:103550000F689360DFE72B46E6E700BF242F11607A
:10356000EFF30380C0F30800103800B2FFF7C2BFCA
:1035700010B4002401238269D0F81CC00460ACF8A8
:103580000440546AB2F9062034494FEA521C02F052
:103590001F0203FA02F20CF1200C41F82C20BFF3B9
:1035A0004F8FBFF36F8F8269B2F912204FEA521C1E
:1035B00002F01F0203FA02F20CF1200C41F82C2059
:1035C000BFF34F8FBFF36F8FB4F902204FEA521C45
:1035D00002F01F0203FA02F20CF1200C41F82C2039
:1035E000BFF34F8FBFF36F8F8269B2F90A204FEAA2
:1035F000521C02F01F0203FA02F20CF1200C41F8F7
:103600002C20BFF34F8FBFF36F8F8269B2F90E206A
:103610004FEA521C02F01F0203FA02F20CF1200CD6
:1036200041F82C20BFF34F8FBFF36F8F81690C4A95
:1036300009788B401804C2F88405D2F804071840B2
:10364000FBD14FF4803301318B406FEA13436FEAB3
:103650000343044A10BC9366936E704700E100E098
:1036600000000141000B014103460020C3E90412A0
:10367000704700BF844600B5DCF81C300020B3F86A
:1036800004E06FF3C71EA3F804E0B3F804E06FF39F
:10369000820EA3F804E0CCE902129A8842F080027C
:1036A0009A805DF804FB00BF84460020CCE90A3212
:1036B000CCF82410704700BF4FF0FF3300200B60A0
:1036C0004B6070470346024A00201A60704700BFF3
:1036D00001000101F0B5846A85B005460F469446A5
:1036E0006E46B4B194E80F0086E80F00AB6920463F
:1036F0001B7884F804C02360EB6AC4E902736B6A28
:103700009847AC6A1CB196E80F0084E80F0005B03A
:10371000F0BD3446EAE700BFC369DA89D10629D093
:1037200010B504460BE05B071FD463698BB9042214
:103730002046FFF7CFFFE369DA89D20619D01A894C
:10374000997A93B21207C9B2EDD558070FD4102257
:10375000EEE723691970D4E9043101330139C4E972
:1037600004310029E7D10122E2E70822E0E718222C
:10377000DEE710BD704700BF8B0784462AD50020C6
:10378000DCF81C20938823F084031B041B0C93801B
:10379000CCF80C00938943F0040393819389580774
:1037A000FCD5002093896FF382039381CA0710D55B
:1037B0000023DCF81C20CCF81430938943F002037A
:1037C000938193899B07FCD5002093896FF3410374
:1037D000938170470620E9E710B50024C3699A88F1
:1037E00092B222F0F4021FFA82FCA3F804C08460B3
:1037F000187D00F04E041C7591F801C083F802C0DA
:1038000091F800C0B3F800E0CCF3C10C6CF3010EEA
:10381000A3F800E091F800C01CF0020F06D091F967
:1038200002C091F802E0BCF1000F0DDB097842F014
:103830007002C1F3800001F0010141EAC01121438F
:10384000197500209A8010BD44F01000187544F0DE
:10385000200483F802E0E9E72DE9F047044600255B
:1038600001220878B1F9126000F5801000F5977018
:103870008002E061C869C94B6062086AA161C4E95D
:103880000A50700906F01F05203002FA05F5D1F83C
:1038900024C00F7C43F82050BFF34F8FBFF36F8FCE
:1038A000981980F80073B1F90650BD4805F01F075C
:1038B00040F826406E09203602FA07F791F804E036
:1038C00043F82670BFF34F8FBFF36F8F5E1986F8F2
:1038D00000E340F82540BCF902509CF800C06E0996
:1038E00005F01F07203602FA07F743F82670BFF3EA
:1038F0004F8FBFF36F8F5E1986F800C340F82540E5
:10390000B1F90A5091F808C06E0905F01F0720367A
:1039100002FA07F743F82670BFF34F8FBFF36F8F9C
:103920005E1986F800C340F82540B1F90E5091F8B1
:103930000CC06E0905F01F07203602FA07F743F89E
:103940002670BFF34F8FBFF36F8F2B4483F800C3F4
:1039500040F825400878831802FA03F38240914822
:103960001B048366836E42EA0245A0F53060C0F80E
:103970008455D0F804371A42FBD0C0F884588A48DE
:10398000D0F8043A1340FBD1E2699380908980B269
:1039900040F0060090811089486A1381558A53824D
:1039A0000579002D00F0EE80012D0BBF4FF0710C5A
:1039B0004FF0720C0123022393804B788E78A3F191
:1039C0000103B3FA83F35B09C9789B012EB1032E7F
:1039D00014BF43F0200343F03003012908BF43F034
:1039E00008039BB21380AB1E012B00F2AA80A5F145
:1039F0000205B5FA85F5FF236D0915759370938956
:103A0000A5699BB243F0060323F4FE636E6A99B284
:103A10009181317B0F1F0E2F7FD8090201F5FA41EA
:103A200089B2767BD182062E9CBF013643EA0623FB
:103A300023F006039BB293814179137D00297CD04A
:103A400043F00403137501214FF000094FF0030EFA
:103A5000B5F906A0B5F912804FEA5A139B000AF097
:103A60001F0A03F1604303F5614301FA0AFAB5F94D
:103A70000A60B0F90270B5F90E50C4E90399C4F8B0
:103A80000890A4F820E0C4F81490C3F880A1C3F80B
:103A900000A04FEA58139B0008F01F0803F1604391
:103AA00001FA08F803F56143C3F88081C3F8008088
:103AB0007B099B0007F01F0703F1604301FA07F73A
:103AC00003F56143C3F880711F6073099B0006F022
:103AD0001F0603F1604301FA06F603F56143C3F8DC
:103AE00080611E606B099B0005F01F0503F16043B8
:103AF00003F56143A940C3F880111960A2F804C01E
:103B0000037D8BB1938943F008039381274BA2F87F
:103B100010E000202360BDE8F0874F1E022F98BF01
:103B200043EA811300217CE74FF0C30EA4F820E0A4
:103B3000918963F3C3019181E8E761F3820313750F
:103B400081E7157D836805F04E07197817755D7854
:103B5000C1F3C101957015883E4661F301051580DA
:103B60001978890704D593F902109D7800290DDB97
:103B70001B78C3F3800103F0010343EAC11333430D
:103B800013753CE74FF0700C2B4615E747F0100714
:103B9000177546F020069570EAE700BF00E100E0E7
:103BA000242F1160000B0141000001415546435391
:103BB00010B4EFF30383C3F308031E4A103B1BB298
:103BC00052F8230083699B691BB1C3681BB110BC09
:103BD0007047C16871B90021C4698022A38823F0AD
:103BE00080031B041B0C43F00403A38010BC816002
:103BF000FFF770BD8268C46912F8013BA3714B1EC8
:103C0000C0E90223B4F80EC0CCF3042CBCF10F0FB2
:103C10000BD81139614443B112F801CB013B8B42FF
:103C200084F806C0C0E90223F5D122896FF345125A
:103C30002281CBE7242F116010B5EFF30383C3F388
:103C40000803084A103B1BB252F823402046FFF7F6
:103C500063FDE269138923F002031B041B0C13812B
:103C600010BD00BF242F116038B5EFF30383C3F3F9
:103C70000803144A103B1BB252F82350EA69148916
:103C8000A4B224F041039BB21381E20715D463066A
:103C900012D5EC69EA68A3889BB252B123F0040301
:103CA0009BB22846A3800222BDE838400021FFF7DE
:103CB00011BD23F08403F3E738BD2846FFF72CFD40
:103CC000E5E700BF242F1160EFF30383C3F308037C
:103CD000074A103B1BB252F82330DA6911898BB2C4
:103CE000090644BF23F080039BB21381704700BFD5
:103CF000242F1160EFF30383C3F30803164A103B2C
:103D00001BB252F82300C1690A894B8A1FFA82FC50
:103D1000D2069BB203D4DA071AD5202206E0DA07CE
:103D20002CF0100C0BD560221FFA8CFC23F0010341
:103D30009BB2A1F808C04B820021FFF7CBBC1FFA51
:103D40008CFCA1F808C040224B820021FFF7C2BCC6
:103D5000A1F808C04B827047242F116010B500F005
:103D600089F90446FEF7E2F928B14FF0E0234FF05D
:103D70008052C3F8042D2046BDE8104000F086B9FB
:103D800008B54FF41E71024B024A034803F0B0FC21
:103D90006CB0016030B1016088B00160002200B5F4
:103DA000074B83B001921B68013307D100F062F921
:103DB000019B002BFCD003B05DF804FBFFF7E0FF94
:103DC0009406116030B5A1B06C46264A264DD2F853
:103DD0001C3B43F00103C2F81C3B0FCD0FC40FCDB9
:103DE0000FC40FCD0FC495E80F0084E80F004022E8
:103DF000FF210DEB020003F04DFD6FF480331B4CEF
:103E000011930DF1400CBCE80F000FC4BCE80F008B
:103E10000FC4BCE80F000FC49CE80F0084E80F003B
:103E2000BFF34F8F124A136943F004031361136900
:103E30005B07FCD530BFBFF36F8FEC460A4CBCE884
:103E40000F000FC4BCE80F000FC4BCE80F000FC484
:103E50009CE80F0084E80F0062B6BFF36F8F72B664
:103E600021B030BD0002024100E100E080E100E04D
:103E700000ED00E04FF0E0234FF08052C3F8042D36
:103E8000BFF34F8FBFF36F8F704700BF08B500F0CF
:103E9000F1F8044A136801331360BFF34F8FBFF387
:103EA0006F8F08BD9406116008B50A4B1A684AB1B5
:103EB0001A68013A1A60186800B108BDBDE80840E8
:103EC00000F0E4B84FF44671034B044A044803F091
:103ED0000FFC00BF9406116004B1016058B101608D
:103EE00088B0016008B5836913F8023C022B03D146
:103EF000BDE8084000F08CB840F2AB31024B034AF9
:103F0000034803F0F5FB00BF18B1016044B1016044
:103F100088B001602DE9F04F4FF0113E4FF08074F2
:103F200040E909E34FF0073340F8044C164C40F8E1
:103F3000343C40E903424FF005334FF006324FF076
:103F4000123B40E90F324FF0033A4FF002394FF085
:103F500001384FF010374FF009364FF008354FF069
:103F600004346FF0430340E905AB40E9078940E9B9
:103F70000B6740F8305C40F8404C40F8443C40F857
:103F8000481DBDE8F08F00BF9D3D01604FF0E0236C
:103F900030B50024D3F81C2D83B022F07F42C3F843
:103FA0001C2DD3F8202D114D42F47F02C3F8202D93
:103FB000D3F8202D42F07F42C3F8202D02F088F97B
:103FC00020462C6000F062F800F042F8FEF70EFA8E
:103FD00001942B68013307D100F04CF8019B002BB2
:103FE000FCD0002003B030BDFFF7CAFE940611607C
:103FF00008B572B6FEF78CF8FFF7E4FE62B6BDE8CE
:104000000840FEF741B900BF704700BF0000000044
:104010000B4A1168086806C881F30B88022181F3F6
:104020001488203080F30988BFF36F8F4FF00000B1
:1040300080F31188104700BFAFF30080AFF300801A
:104040001C2E1160000000000000000000000000B5
:1040500007480068006880F3088862B661B6BFF35D
:104060004F8FBFF36F8F02DF00BF00BFAFF3008041
:1040700008ED00E0EFF311804FF0010181F31188AA
:10408000BFF34F8FBFF36F8F704700BF80F311886E
:10409000BFF34F8FBFF36F8F704700BF000000006A
:1040A000EFF30980EFF30B82734620E9FC0F104A0F
:1040B000116808604FF0010080F31188BFF34F8F43
:1040C000BFF36F8FFEF792F94FF0000080F3118875
:1040D000074A11680868B0E8FC0F82F30B8880F388
:1040E00009881847AFF30080AFF30080AFF300807A
:1040F0001C2E116000000000000000000000000005
:104100001EF0040F0CBFEFF30880EFF309800449A1
:10411000084700BFAFF30080AFF30080AFF300802B
:10412000E53E0160F8B50D4D55F8184FAC420CD086
:104130000E461746314654F83C0C04F0B3F8A4F18F
:104140003C0328B12468AC42F4D16FF01200F8BDF2
:1041500018463B60BDE8F84000F016BAA8D61160DA
:10416000F8B5DDE906649C42174606D006EB460228
:1041700019462046920003F017FB002E17DD00259C
:1041800006E0A16854F80C0B00F06AFCAE420ED0B9
:10419000022F05F10105F4D1A168206800F05EFC52
:1041A000A16854F80C0B00F05BFCAE42F0D1304635
:1041B000F8BD00BFF8B5069D002D0EDD1E4600249B
:1041C00005EB450503F1080757F8241056F82400BD
:1041D000033400F045FCA542F6D1F8BD002835D0E7
:1041E0002DE9F041076804466FB397F9003053B3E7
:1041F000184D2E4656F8088FB0450DD0394658F860
:10420000240C04F04FF818B96FF01000BDE8F081ED
:10421000D8F80080B045F1D104F11C03E3612362BA
:10422000EB6804F12402A3626662EA601A602B78EC
:10423000062B05D96B681BB13A46072006499847FB
:104240000020BDE8F0816FF01500DFE76FF015008A
:10425000704700BFA8D611606CB1016068B32DE94A
:10426000F04190F90030044623B30E4611B391F9A2
:104270000030FBB11746EAB1DFF84C8058F8085F10
:10428000454513D0214655F8240C04F00BF8A5F150
:10429000240340B99C689CB13A46314618462346EF
:1042A000BDE8F04118472D684545EBD16FF001009E
:1042B000BDE8F0816FF01500FAE76FF01500704768
:1042C0006FF01200F4E700BFA8D6116030B10146CC
:1042D000406818B1C36803B118477047542110B53E
:1042E000024B034A034803F003FA00BF80B10160A8
:1042F00010B2016098B101600368ABB193F900306E
:1043000093B18368012B0FD8094B10B4094CDA69BB
:1043100000F13C01446003F11804C0E90F42D96187
:10432000002010BC116070476FF01500704700BF8F
:10433000A8D611609806116038B50F4C0546A4F157
:10434000180320220021184603F0A4FA0346286827
:10435000A4F1100158602879A4F1080204F8180C9F
:10436000C3E902112846C3E904229C61DC61BDE86F
:10437000384000F013B900BFC0D6116070B50568B1
:1043800084686E1C82B00ED0A14211D805EB010CDE
:104390005D18A54288BF631A046A6CB100930523B7
:1043A000A04702B070BD8C4202D34FF0000CEFE783
:1043B0006FF0210002B070BDBFF35B8F83B14CEA98
:1043C000020111F0030F194602D10CE080070AD058
:1043D0001CF8010B013902F8010B42EA0C00F5D17F
:1043E000184602B070BD0329D8BF104618DDA1F1F0
:1043F000040E4FEA9E0E0EF101008600ACF104049B
:1044000002EB800054F8045F42F8045B8242F9D169
:10441000CEEB8E7E01EB8E0EBEF10401B444DFD0F4
:104420000CF1FF3C01441CF8012F00F8012B8842DD
:10443000F9D11846D5E700BF70B5056884686E1CD1
:1044400082B00ED0A14228D805EB010C5D18A54220
:1044500088BF631A446A4CB100930523A04702B099
:1044600070BD8C4219D34FF0000CEFE783B14CEADA
:10447000020111F0030F194602D112E0800710D09B
:1044800012F8010B01390CF8010B4CEA0200F5D1CE
:10449000BFF35B8F184602B070BD6FF0210002B011
:1044A00070BD0329D8BF604614DD0D1FAD08681C20
:1044B0008600A2F1040E0CEB80005EF8044F4CF86D
:1044C000044B8445F9D1C5EB857501EB8505291FA2
:1044D0003244DDD0013A014412F8014F00F8014B9B
:1044E0008842F9D1BFF35B8F1846D4E730B5046832
:1044F0009646621C1D4683B0836810D0994227D827
:1045000004EB010C6A18846A9A4288BF5D1A5CB198
:10451000724605230095A047284603B030BD8B4264
:1045200016D34FF0000CEDE70EEB0E2303EB034325
:104530005DB11CF0030F2A4603D11DE01CF0030FF0
:104540000AD0013A0CF801EBF8D1BFF35B8FE3E737
:104550006FF0210003B030BD032A06DD043A032AC0
:104560004CF8043BFAD8002AEFD07146604603F0BD
:1045700091F9BFF35B8FCFE7032DEFDCF5E700BFC9
:104580000EB403B0704700BF08B5836823B1436918
:104590000C300BB100F00AF8002008BD08B5024845
:1045A000FFF71CFE002008BD98061160F8B587686B
:1045B000CFB1C368044637FA03F218BF01274FF0A2
:1045C0000005066818BF9F406368304653F8251001
:1045D0003A46636900F046FAD4E902320135D34025
:1045E000AB423E44F0D2F8BD2DE9F04F061E85B037
:1045F000C0F2D4801F46002B00F0C18089460029FC
:1046000000F0BD8090464FF001037B4DD5E8CF4FC1
:10461000C5E8C23F002AF9D1E4B2002CF6D1DFF898
:10462000DCA155F8084C544504D192E0206850456F
:104630002CD0044654F80C3CA4F10C0BB342F5D139
:10464000DBF80400A4F10802904203D18CE000687A
:1046500090421BD050F8081CB942F8D1B8F1000FB5
:1046600003D050F8043C4345F1D1654B1A78022A37
:1046700006D95C6824B133460320624A6249A047E8
:104680000023C5E88F3F6FF015003FE01420FCF7D2
:10469000F5FC0346002800F0A1800C2CC0E901784D
:1046A000C0F8009003D0DBF80020B24231D01420D3
:1046B0000393FCF7E3FC039B044600287DD00246ED
:1046C00003F10C0142F8046B42601A61DA60816008
:1046D0001B690C34196000F0BFF9DAF80430C4F833
:1046E00000A06360CAF804401C6000F0B3F9444BBA
:1046F0001A78062A06D95C6824B133460720414A55
:104700004249A0470023C5E88F3F184605B0BDE8E1
:10471000F08F039300F0A0F9DBF80820039B0BF166
:1047200004011A6103F10C02D960CBF808201B695F
:104730001A6000F08FF9324B1A78062AE2D95C68C9
:10474000002CDFD0334607202E4A31490097A0477E
:10475000D8E71420FCF792FC034600283ED0C3E9BA
:104760000097C3F80880A2E71420FCF787FC0346F3
:10477000002833D0C3E90178C3F8009093E7204BB9
:104780001A78022A7FF67FAF5C68002C3FF47BAF7B
:10479000334603201B4A1F49A04774E7184B1A7879
:1047A000022A7FF670AF5C68002C3FF46CAF334692
:1047B0000320144A1849A04765E7114B1A78022ACA
:1047C00006D95C6824B1334603200E4A1349A0473A
:1047D0000023C5E88F3F6FF00B0097E7084B1A786E
:1047E000022AF5D95C68002CF2D033460320054A32
:1047F0000B490097A047EBE7CC061160C406116097
:10480000A8D611600CB4016078B2016028B30160D1
:10481000E0B2016058B201602CB2016004B30160E3
:10482000B0B201602DE9F04F9B46031E87B0C0F285
:10483000C880884691464FF00101694ED6E8CF2FD7
:10484000C6E8C01F0028F9D1D2B2002AF6D16549C6
:1048500056F8084C8C4203D12BE024688C4228D0B7
:1048600054F80C2CA4F10C079A42F6D15E4A127847
:10487000062A2AD95C494D683DB35C4A07205C4949
:10488000A8477D68584BA4F1080AAA451A7821D197
:10489000062A06D9544B5B681BB10720534A554979
:1048A00098470023C6E88F3F6FF0010007B0BDE8CE
:1048B000F08F4D4B1A78062AF3D95B68002BF0D0A5
:1048C00007204A4A4C499847EBE77D68A4F1080A5B
:1048D0005545E6D000230594CDE90337444606E06C
:1048E00055F80C3CA34206D02D68554538D0A5F1AB
:1048F0000C07002CF4D1BBF1000F02D07B685B45A4
:10490000F2D1B9F1000F02D0BB684B45ECD1062AB9
:104910000ED9354BD3F80480B8F1000F08D0BA682F
:104920003B6801927A680720009234492F4AC047B9
:10493000039BD5F804800133039300F08DF8D5E98B
:10494000002353601A602D606D60454600F082F8C8
:104950003846FCF733FC2D68234B55451A78C6D1F1
:10496000DDE90474039B002B92D07B689D420FD03D
:10497000062A06D91C4B5B681BB107201B4A20493D
:1049800098470023C6E88F3F184607B0BDE8F08F70
:10499000062A06D9144B5B681BB10720134A194934
:1049A000984700F059F8D4E9002353601A60246056
:1049B000646000F04FF83846FCF700FC0A4B1A78A8
:1049C000D6E7094A1178022902D86FF015006DE781
:1049D0005468002CF9D00320044A0B49A047F4E79F
:1049E000CC061160C4061160A8D61160F4B3016052
:1049F00044B3016080B30160D8B3016058B3016073
:104A0000C8B3016098B301602CB20160012240F389
:104A1000CC0323F0604323F0030300F01F0003F1F5
:104A20006043824003F56143C3F880211A607047F8
:104A3000012200B20649430900F01F0082402033E2
:104A400041F82320BFF34F8FBFF36F8F704700BF34
:104A500000E100E0FFF71ABBFFF70CBB704700BF97
:104A6000704700BF704700BF436A1B6A184700BF0A
:104A70008446F8B50C465CF8101F61452AD00546FF
:104A8000A1F1300034B3174603460A46DE6A3368A4
:104A9000D6F808E0E31A734516D2DEB1C36A1A6885
:104AA0009868A21A824209D23A462146284600F066
:104AB000AFFC10B9C5E90147EE60F8BD09688C4547
:104AC0000BD0A1F13000E9E71268624502D0A2F1F3
:104AD0003003DBE76FF01500F8BD0023E4E700BF0B
:104AE00070B504460D46164670B13822002102F01A
:104AF000D1FE224600211032C4E8AF1F04F1180392
:104B000022616261A361E3613246294620462B6837
:104B1000BDE87040184700BFE8B138B54FF001025A
:104B20000446D4E8CF3FC4E8C12F0029F9D1DBB255
:104B3000002BF6D1256B2DB16FF00F000023C4E8D8
:104B40008F3F38BD636A20465B689847284600233C
:104B5000C4E88F3F38BD6FF01500704750F8103F24
:104B600083421AD04A1C18D053F82C2CA3F1300CD5
:104B700091420FD300B5DCF808E0724491420ED99F
:104B80001B6883420FD053F82C2CA3F1300C9142B8
:104B9000F6D3F0E71B688342E6D100207047DCF8CB
:104BA0002C005DF804FB0020FBE700BF002800F0AC
:104BB000B6802DE9F0430E461746984685B0002989
:104BC00000F0A2800D680295002A56D03B68864608
:104BD0005EF8104F0393A64525D008EB05096A1C23
:104BE000A4F1300C33D15D1C1DD0DCF8005008EB73
:104BF00003019D4210D8DCF808202A448A4280F044
:104C000088802468A6450ED054F8305CA4F1300C9E
:104C10009D4208EB0301EED92468A64503D05D1C34
:104C2000A4F1300CE1D1436A9C684CB30D9B0C9A03
:104C300001930092434603AA02A9A0470EB1029B2A
:104C400033600FB1039B3B6005B0BDE8F083DCF837
:104C50000420AA420DD8DCF808101144494511D2AD
:104C600024687445DFD054F82C2CA4F1300CAA42EF
:104C7000F1D92468A645B2D1D5E74FF0FF33A6E7B6
:104C80000020DBE7DCF800302B449B1A03930D9BDC
:104C90001BB1DCF82C300D9A1360DCF82C20D2F814
:104CA00010805468B8F1FF3F08BF2368D2F80CC0E9
:104CB0000CBFEB1A05EA080308F1010908E054F8F3
:104CC0002E100844854214D091684B448B4218D270
:104CD000BCF11F0F8CBF4FF0000E23FA0CFE08EA48
:104CE000030014B191688B42E9D94FF0FF3085423F
:104CF000EAD11068411CC3D092689A42C0D31844CC
:104D00009CE74FF0FF33F4E752B14FF0FF350295C7
:104D10005CE7DCF8042013445D1B0295B7E770479D
:104D2000104691E74B1C00B52ED0531C08BF202223
:104D30008A4200F1200E42D908464B090EEB83034C
:104D400001F01F0C1B6823FA0CF3DB0706D40EE0FE
:104D50005EF8213023FA0CF3DB070BD501309042CB
:104D60004FEA501100F01F0CF2D3904216D04109C7
:104D700000F01F0C01225EF8213002FA0CF21343FE
:104D80004EF821305DF804FB511C0BD000F1200ED1
:104D900022B14FF0000C73466046D3E74FF0FF306E
:104DA0005DF804FB036A00F1200ED84310F0010007
:104DB00008BF2022D2D0002001468446DAE7084608
:104DC000D3E700BF2DE9F04F89B0002800F09A80AA
:104DD0009846044617464FF00103D4E8CF2FC4E8A5
:104DE000C03F0028F9D1D2B2002AF6D165680A4640
:104DF00028460321D4F80CA000F062FB002871D0F3
:104E0000264605EB000B56F8185FDBF80810B54294
:104E100003D10CE02D68B54209D055F8303C8B42E7
:104E2000F8D1A5F1300A504609B0BDE8F08F3C4AF0
:104E3000534638460192CDF808805A46009400F057
:104E4000B5F9E36900F13007C0E90C63E761436B32
:104E500082461F609BF81990A0F11806B9F1000F67
:104E600049D00025CDE904760CE00799424600912F
:104E700050462946CDE9016700F040FA18BB0135DC
:104E8000A94538D005EB85030BEB8303DA69D3F82A
:104E9000288006925E6A1F6A07AB01930023009385
:104EA0007B1EF21C03EB061303EB42037A42134012
:104EB00003EBC60306330021204606AAFFF776FE61
:104EC00003460028D1D1DDE90476BAF1000F20D0E5
:104ED000D6E9122306F1180053601A60B764F7642C
:104EE00000F0ECF90023C4E88F3F4FF0000A504671
:104EF00009B0BDE8F08F0023C4E88F3F504609B0E9
:104F0000BDE8F08F40F27131064B074A074802F0C6
:104F1000EFFB40F2B131064B064A044802F0E8FBD1
:104F2000694A0160ECB7016018B80160F0B4016033
:104F3000F4B70160FCB7016010B561B10846D1E972
:104F40000C4100F1300261600C6002634263BDE815
:104F5000104000F0B3B940F2B131024B024A0348AD
:104F600002F0C6FBF4B70160FCB70160F0B4016069
:104F700070B5054655F8184FAC420CD00E4602E00D
:104F80002468AC4207D03146A4F1300000F0CEF9DD
:104F90000028F5D070BD002070BD00BF0020704714
:104FA000704700BF02680389916A99420BD3D16AA6
:104FB00003EB4303A2F1180001EBC3010969036984
:104FC00052F8180C1847332110B5024B024A034817
:104FD00002F08EFB34B8016078B9016050B801600E
:104FE00008B54FF48971024B024A034802F080FB76
:104FF00084A7016068B90160DCB8016008B5F021E0
:10500000024B034A034802F073FB00BF84A7016010
:1050100058B90160DCB80160704700BF38B550E98D
:1050200004342268A0680C33991A8142A5690BD216
:10503000013219D02DB1042305222046A84738BDDE
:10504000531ED3E8AF0F38BD511C01D0431C07D00D
:1050500065B10423052220464FF0FF31A847EEE753
:10506000002DEDD00146E6E7002DE4D1FFF7C6FFA5
:1050700038B550E904342268A0681833991A81427F
:10508000A5690DD2013217D035B101230522204682
:10509000A847C0B238BD531ED3E88F0FC0B238BD89
:1050A000511C01D0431C03D045B14FF0FF31ECE758
:1050B000002DF0D00146E8E7002DE6D1FFF79EFF76
:1050C000F0B5044650F80C0C54F8103C0568D0F8C4
:1050D00008C018330A46591B6145C66983B0A4F15C
:1050E000180714D201351FD076B105230125CDE96B
:1050F00000350023B0473B69216854F8180C03B011
:10510000BDE8F04018476B1EC3E88F2FF3E76B1C18
:1051100002D0BCF1FF3F03D046B14FF0FF31E4E7CE
:10512000002EF0D06146E0E7002EDED1FFF758FFF9
:10513000836903B170474021FFF7C2BFF0B5044651
:1051400050F80C0C54F8103C0568D0F808C00C332B
:105150000A46591B6145C66983B0A4F1180714D2E9
:1051600001351FD076B105230425CDE90035002394
:10517000B0473B69216854F8180C03B0BDE8F04013
:1051800018476B1EC3E8AF2FF3E76B1C02D0BCF1CE
:10519000FF3F03D046B14FF0FF31E4E7002EF0D0DF
:1051A0006146E0E7002EDED1FFF71AFF2DE9F04F50
:1051B000824685B0502091469846577E0291FBF773
:1051C0005DFF0190002855D0044607EB4700C00062
:1051D000FBF754FF8346002849D0002550220021C8
:1051E000204602F057FBCBF80050CBF80450CBF828
:1051F0000850CBF80C50CBF81050CBF81450002FBF
:1052000041D053465E46BA46CDF80C801F4611E0A9
:105210005A6A013507324FEAC2084046FBF72EFFB3
:105220000446B0B10021424602F034FBAA4546F8DC
:10523000184B23D005EB850309EB8303002FE7D040
:105240004FF038084046FBF719FF013504460028A7
:10525000E8D1574605465BF824000135063408B10D
:10526000FBF7ACFFAF42F6D15846FBF7A7FF01981A
:10527000FBF7A4FF002005B0BDE8F08F3B46574682
:105280009A46DDF80C80019A0F9B029913610E9BE0
:10529000916113601099084B02F11800C2F844B0F4
:1052A000C2F80890C2F80C80C2F830A051631764AD
:1052B000936305B0BDE8F08F98B90160D8B1826AF8
:1052C00070B50546A0F11806B2B10024C16A04EB1E
:1052D000440351F83300013418B1FBF76FFFD5E9EF
:1052E0000A21A242F3D80846FBF768FF3046BDE822
:1052F0007040FBF763BF7047C16AF4E7D0F828C07D
:105300008C450FD9C06A01EB410100EBC1014B6034
:10531000019BDDF800C08B81029B0020C1E9042CB9
:105320008B6070476FF00100704700BFF0B1F8B5B7
:10533000036806468B420D4616D0876AA7B1002443
:1053400001E0A74210D0F36A04EB440203EBC20170
:1053500009690134A94201D0691CF2D153F8320025
:1053600000F04EFFA742EED10020F8BD6FF015000F
:10537000704700BF4B68013306D08B68002B0CBF11
:105380006FF00A00002070476FF00A00704700BFFE
:105390006FF00A00704700BFC9B14B69A3B930B5BF
:1053A00085B00D698A6801934C68CB6803920095BB
:1053B00002AA03A90294FFF7F9FB00280CBF6FF0C3
:1053C0000100002005B030BD6FF0060070476FF09F
:1053D00009007047F8B50D46896806464A1CFFF774
:1053E000A1FC6F7E421C18BFA8607FB1002404EBB3
:1053F000840305EB8303996A30464A1CFFF792FC4D
:105400000134431C18BFA860A742F0D10020F8BDAA
:105410000F2A4FD92DE9F0411E460B680C46012B8F
:1054200042D1D1F804C00CF10403B2EB830F37D39F
:105430008B68002B3BD1CD68002D38D1BCF1000F1B
:105440001BD080461D4F2B1D54F82300211826B178
:105450003368B268CB1A934222D22358052B0FD857
:10546000404657F82330984710F10B0F00D028B969
:10547000D4F804C00135AC45E5D80020BDE8F08182
:10548000803BB3F5C07FF5D8B8F1000FF2D0D8F863
:105490002430DB68002BEDD040464A689847E3E7AC
:1054A0006FF00400BDE8F0816FF00500E6E76FF0F3
:1054B0000600E3E76FF00400704700BFD0061160FC
:1054C00038B5D0B144688446ACB14FF0000E734695
:1054D00002E00133A3420ED0181D5CF820005CF8F6
:1054E00000508D42F5D172450EF1010504D0013313
:1054F000A342AE46F0D1002038BDD221024B034A70
:10550000034802F0F5F800BFBCB9016050BA016071
:10551000C4B90160F8B1436A00B55A1C11D0032B1D
:105520000FDC4FF0010C026A4FEA531E483252F86A
:105530002E1003F01F030CFA03F321EA030142F8D3
:105540002E1000F13403D0E90D124A60116043635C
:1055500083635DF804FB704770B4DDE9035660B106
:10556000006A50B14BB1B2F1FF3F06D0046E24B1D6
:10557000A446CDE9035670BC6047014870BC704733
:105580002DF8FFFF30B504468DB0656A0B912022DF
:10559000214602A80A9502F0FDFF206A68B1046E58
:1055A0005CB101222946282502ABCDE90052352203
:1055B000A04700EAE0700DB030BD0148FBE700BF36
:1055C0002DF8FFFF2DE9F843046884422AD0814674
:1055D0000F4616469846721CA4F1340526D16B6A14
:1055E000013302D1AB6A434516D0C7B12846202209
:1055F000394602F093FF90B9B8F1FF3F02D0AB6A91
:10560000434509D0731C17D024684C45A4F13405D8
:1056100008D06B6A9E42E9D12846BDE8F883246829
:105620004C45D8D100252846BDE8F8836B6AB342C3
:10563000DBD12846BDE8F883AB6A0133ECD024689F
:105640004C45EFD0A4F13405C9E700BF0346D3F8B9
:1056500004C001F13402C1F838C00B624B635A60D8
:105660008B6B00201A6070472DE9F04200287CD037
:105670000E46994611460746012306F158054FF09C
:10568000010CD5E8CF4FC5E8C0CF0028F9D1E4B26E
:10569000002CF4D1B9F1FF3F50D0B9F1030F06F15E
:1056A000480260DC4FEA591052F8204009F01F0C04
:1056B00024FA0CFE1EF0010F08D00024002206F18F
:1056C0005803C3E88F2F2046BDE8F08203FA0CF39D
:1056D000234342F820302022384602F05BFF069A2E
:1056E00007F13403BA62079AC7F82490FA62089A5D
:1056F0003E623A637268C7E90D627360BA6B136009
:10570000069B0133D9D1002206F15803C3E88F2F3D
:1057100011463846FFF736FF4FF001020446D5E840
:10572000CF3FC5E8C12F0029F9D1DBB2002BF6D15C
:10573000002CC3D03846FFF7EDFEBFE7B06CC34383
:1057400013F001030DD10133042B20FA03F2C2D070
:10575000D207F8D40122994602FA03F30343B36453
:10576000B9E7A146FAE7024CA8E7014CABE700BF56
:105770002DF8FFFF00B338B5D0E90853352B0446A8
