:020000021000EC
:10000000201B1160050A0160110A0160010A0160EC
:10001000010A0160010A0160010A0160000000009C
:10002000000000000000000000000000F116016068
:10003000010A01600000000091160160010A0160E0
:10004000010A0160010A0160010A0160010A016000
:10005000010A0160010A0160010A0160010A0160F0
:10006000010A0160010A0160010A0160010A0160E0
:10007000010A0160010A0160010A0160010A0160D0
:10008000010A0160010A0160010A0160010A0160C0
:10009000010A0160010A0160010A0160010A0160B0
:1000A000010A0160010A0160010A0160010A0160A0
:1000B000010A0160010A0160010A0160010A016090
:1000C000010A0160010A0160010A0160010A016080
:1000D000010A0160010A0160010A0160010A016070
:1000E000010A0160010A0160010A0160010A016060
:1000F000010A0160010A0160010A0160010A016050
:10010000010E0160010A0160010A0160010A01603B
:10011000010A0160010A0160010A0160010A01602F
:10012000010A0160010A0160010A0160010A01601F
:10013000010A0160010A0160010A0160010A01600F
:10014000010A0160010A0160010A0160010A0160FF
:10015000010A016025130160010A0160010A0160C2
:10016000010A0160010A0160010A0160010A0160DF
:10017000010A0160010A0160010A0160010A0160CF
:10018000010A0160010A0160010A0160010A0160BF
:10019000010A0160010A0160010A0160010A0160AF
:10065000010A0160010A0160F11401601D150160C9
:1006600061140160D913016091140160010A0160F5
:10067000010A0160010A0160010A0160010A0160CA
:10068000010A0160010A0160010A0160010A0160BA
:10069000010A0160010A0160010A0160010A0160AA
:1006A000010A0160010A0160010A0160010A01609A
:1006B000010A0160010A0160010A0160010A01608A
:1006C000010A0160010A0160010A0160010A01607A
:1006D000010A0160010A0160010A0160010A01606A
:1006E000010A0160010A0160010A0160010A01605A
:1006F000010A0160010A0160010A0160010A01604A
:10070000010A0160010A0160010A0160010A016039
:10071000010A0160010A0160010A0160010A016029
:10072000010A0160010A0160010A0160010A016019
:10073000010A0160010A0160010A0160010A016009
:10074000010A0160010A0160010A0160010A0160F9
:10075000010A0160010A0160010A0160010A0160E9
:10076000010A0160010A0160010A0160010A0160D9
:10077000010A0160010A0160010A0160010A0160C9
:10078000010A0160010A0160010A0160010A0160B9
:10079000010A0160010A0160010A0160010A0160A9
:1007A000010A0160010A0160010A0160010A016099
:1007B000010A0160010A0160010A0160010A016089
:020000020000FC
:020000041001E9
:10FF800000FAEF72190A0160250A0160150A016082
:10FF9000150A0160150A0160150A0160210A016055
:10FFA000000000000000000000000000150A0160D1
:10FFB000150A016000000000150A0160150A0160C1
:02000004600199
:1000000008B500F007F800F097F9012000F08AFC2D
:10001000F9E700BF2DE9F84F0021864800F05EFAAD
:1000200000214FF0030A844B022219708349DFF844
:1000300010920B88DFF80C8223F47F6323F00F0308
:1000400043F4826343EA0A030B8099F80030DFF837
:10005000F8E123F03F0343F0120389F8003098F8E9
:100060000030DFF8E8C123F03F0343F0240388F8B1
:1000700000309EF80030764F23F03F0343F0060334
:100080008EF800309CF80030724E23F01F0343F0CE
:1000900015038CF800303B784FF07B0B23F03F03C7
:1000A00043F024033B7033786B4D23F00303134379
:1000B00033704FF053062B78684C23F03F0343F026
:1000C0001B032B70664B67481D782378664943F005
:1000D00001032370654C037884F800B0644C62F32C
:1000E000010384F800A0634C037026704FF03506BE
:1000F000614C0B7826704FF00E06604C60482670FD
:10010000604C43F0010325704FF014055E4C0B70FA
:1001100025705E4C5E49227002785E4B22F0070229
:1001200042F0070202700A7822F0060242F006024C
:100130000A701A784FF0080122F0030242EA0A021C
:100140001A704FF00102544B1A704FF0F502534BE6
:100150001A8041F61912524B1A8040F62912514B5F
:100160001A8040F28912504B1A804FF4C0624F4BF4
:100170001A8041F2B5524E4B1A8048F2DE624D4B66
:100180001A804FF010024C4B1A8040F6F1524B4B44
:100190001A6040F691024A4B1A804A4B4A4A1A604A
:1001A0004A4B4B4A1A604B4B4B4A1A604B4B4C4ADA
:1001B0001A604C4B4C4A1A604FF058024B4B1A8055
:1001C0004FF4E2724A4B1A804A4B4B4A1A6047F688
:1001D00054624A4B1A8040F67552494B1A8045F6D4
:1001E000CB32484B1A80484B484A1A604FF05402B1
:1001F000474B1A8040F2B132464B1A804DF6B3425B
:10020000454B1A80454B464A1A6040F2D452454B42
:100210001A8041F68252444B1A80444B444A19805A
:100220004FF48071118040F6C652424B1A80BDE8EF
:10023000F88F00BF00001160B1101160900F1160C5
:10024000701011606C101160681011606410116002
:10025000980F1160540F1160500F1160340F11602E
:1002600040380160F00E1160780811607110116063
:10027000B0101160870F1160860F1160850F11603B
:1002800078101160480F1160520F1160510F11600A
:10029000800F1160840F1160550F11607A0F11608B
:1002A0007C0F1160600F11605E0F11605C0F1160B8
:1002B0005A0F1160580F1160560F1160680F1160CE
:1002C000501011605C1011608FC2364258101160DE
:1002D0006666B44254101160CDCCAC404C10116035
:1002E0009A99354244101160004034434010116027
:1002F0003E10116038101160E13A6A432E1011600F
:100300002610116020101160341011603333F34057
:100310002C101160241011601E101160301011603B
:10032000CDCC2C422A101160221011601C101160DB
:10033000640F11606E0F1160F8B5574C01215748DA
:1003400000F0F4F8237856480133DBB2C3F34011D0
:10035000DA0942EA4102C3F3801142EA81020178DC
:100360002370504D21F0070313430370286803F0F6
:10037000E3F845A3D3E9002302F080FF03F034F94A
:100380004949044603F0E2F900B1484C41F64B51AB
:10039000474A2C601388474D01339BB28B4288BF7C
:1003A00000232868138003F0C7F839A3D3E900239A
:1003B00002F064FF03F018F93F49044603F0C6F960
:1003C00000B100244CF24F363C4941F64B500A88AC
:1003D0003B4B013292B2B24288BF00220A801A8897
:1003E0009978013292B2824288BF00221A80DA786C
:1003F0000131C9B20132D2B20C2928BF00211F2A13
:1004000028BF002299701979DA705A790131C9B27E
:100410000132D2B23B2928BF00213B2A28BF01224A
:1004200042F20E77274E19715A71338840F2562ED8
:1004300001339BB2BB4288BF00232C60224D338026
:100440002B8840F2CE7C05339BB2734588BF0023D6
:100450001E481F491F4C02882B800B8825681E4EA2
:10046000023201339BB2013592B2624588BF4FF42C
:100470006172B54288BF0025B3F5C77F88BFC82326
:10048000028025600B80F8BD3333333333330740AC
:10049000643BDF4F8D970A40B00611600000116089
:1004A0007C101160541011600000C8421904A04172
:1004B00052101160481011600000FA44421011609F
:1004C000740F1160700F11606C0F1160660F116076
:1004D000620F1160680F11609F860100124A037855
:1004E00042F821008BB1092B4168C26817D8033B41
:1004F000062B06D8DFE803F00E0A0A04040C0C00F1
:100500000A8010F8103F002BEDD170470A70F8E711
:100510000A60F6E7003A18BF01220A70F1E70D2BD6
:10052000EFD10A60EDE700BFBC101160F8B50378A9
:10053000D3B10446224D234F092B62682FD8033BC9
:10054000062B38D8DFE803F00411042520171C001F
:10055000127813462A603A60E2689A4200D0E3605B
:1005600014F8103F002BE7D1F8BD92F90020134694
:100570002A603A60F0E7126813462A603A60EBE7B7
:1005800013682B603B60E7E7128813462A603A60E5
:10059000E2E7B2F9002013462A603A60DCE7166809
:1005A000E0682E602A6831463A6003F0B1F800280E
:1005B000D6D1E660D4E72A6813463A60CCE700BF9C
:1005C000B4101160B81011604268036810B49468E8
:1005D0000133C1E901246160916010BC08610360CE
:1005E000704700BF30B40D686B1C10D000F10803D9
:1005F0001C465B681A68AA42FAD902684B6001324D
:1006000099608C606160086130BC02607047046969
:100610006368F2E7036910B4D0E901125C688A608C
:1006200051600021844208BF5A601A680161013A92
:100630001A60186810BC7047F8B50546154B164E81
:100640001C6830680F460430FFF7E4FF6B1C17D0BE
:10065000336864195C6007D3104B18683168BDE8D3
:10066000F8400431FFF7BEBF0D4B18683168043104
:10067000FFF7B8FF0B4B1A68A24288BF1C60F8BD99
:10068000002FE5D0316808480431BDE8F840FFF795
:100690009BBF00BFDC101160781111600C1111605C
:1006A00010111160C8101160E41011602DE9F04FB5
:1006B000474B83B01B68002B4AD1464B1E6801365E
:1006C0001E60002E4DD0444B0193019B1B689E423F
:1006D00061D3424F3B681C68002C6DD00024DFF8CA
:1006E0000081DFF800A1DFF8009126E00BF104059E
:1006F0002846FFF78FFFDBF828201AB10BF118000E
:10070000FFF788FFDBF82C00D8F80020294690423C
:1007100088BFC8F8000000EB80000AEB8000FFF7FC
:1007200053FFD9F800203868DBF82C10D26A036830
:10073000914228BF0124002B3ED03B68DB68D3F8F0
:100740000CB0DBF804209642D0D2019B1A6023E063
:1007500000242046254A13680133136003B0BDE826
:10076000F08F1E4B1A681268002A2AD1204A186896
:10077000116819601F4910600A6801320A601A681E
:10078000126892B94FF0FF33134A01921360019B34
:100790001B689E429DD20024174B1B68002B18BF7C
:1007A0000124204603B0BDE8F08F1B680A4ADB68CD
:1007B00001921B68136088E74FF0FF33019A1360C2
:1007C000EAE740F6BC210D4B0D4A0E4800F0AEFFA3
:1007D000C4101160DC101160C8101160101111609C
:1007E000D81011601411116078111160D4101160CB
:1007F0000C111160CC101160D0101160F038016044
:10080000A43901604C3801602DE9F84F384C236859
:10081000002B65D000F0C2FE2368013B23602368F3
:10082000002B4FD1334B1B68002B4BD0324D2B6824
:10083000002B52D04FF0010A304EDFF8C480314F08
:10084000DFF8C490EB68D3F80CB00BF104040BF1A3
:100850001800FFF7DFFE2046FFF7DCFE3368DBF809
:100860002C002146984288BF306000EB800008EBE6
:100870008000FFF7A9FE3B68DBF82C20DB6A9A4278
:1008800028BFC9F800A02B68002BDBD11F4B1A68CA
:100890001268EAB11A681E4BD26812681A601D4EBF
:1008A000346844B10125FFF701FF08B1C9F80050D1
:1008B000013CF8D13460D9F800301BB100F062FE81
:1008C000012400E0002400F077FE2046BDE8F88F08
:1008D0004FF0FF320E4B1A60E1E7DFF82C90DEE7B5
:1008E00040F6A9010C4B0D4A0D4800F01FFF00BF58
:1008F000C4101160E0101160F8101160D810116080
:100900001411116078111160D01011601011116074
:10091000C8101160D410116068390160B8390160E5
:100920004C38016080B108B50C4B196871B91A6870
:1009300001321A60FFF780FEFFF766FF18B9BDE8C5
:10094000084000F01FBE08BD00F01CBE40F23F5141
:10095000034B044A044800F0E9FE00BFC4101160D4
:10096000D4380160C83901604C3801601B4B1B68EA
:100970001BB101221A4B1A607047194A10B5194C65
:1009800013602368184903EB830292008A58980089
:1009900042B9E3B1013B03EB830251F822209800F6
:1009A000002AF6D0184401EB800C6146DCF80420E4
:1009B000083152688A42CCF8042008BF5268D168D6
:1009C00008BFCCF80420094A1160236010BD40F62E
:1009D000F731074B074A084800F0A8FEC410116021
:1009E000D0101160D81011601411116078111160CD
:1009F00080390160903901604C380160704700BF58
:100A000000BE704708B500F00FF8FFF7F9FAFEE7EF
:100A100000BE704700BE704708B500F041F8FEE721
:100A200000BE704700BE704770B5002000F072FE37
:100A300000F07AF8012000F06DFE1248124A002101
:100A4000121A00F035FF1148114A1249121A00F02B
:100A5000B9FE114D114B5B1B002B07DD00249E10CE
:100A600055F8043B01349847A642F9DC00F050F8F1
:100A7000022000F04FFE00F02FF9BDE8704000208A
:100A8000FFF7BCBFB00611601C19116000001160B7
:100A9000AC061160B83B0160AC061160AC06116099
:100AA00008B5094A094B9A6000F0AAF8084B83F38D
:100AB0000888084B83F30A8800F086F900F00EF9E5
:100AC000BDE8084000F06AB980FF011000ED00E0C9
:100AD00000FAEF7200F8EF720A49CA6802F4E062A5
:100AE000094B1343CB60094AD2F8243B13F4007F2F
:100AF000FAD0064AD2F81C3B43F00103C2F81C3B73
:100B000030BFFEE700ED00E00400FA0500020241FC
:100B1000024A034B52681A60704700BFF00511602B
:100B20007C1111600000000030B433A5D5E9004508
:100B30002D4B2E482E492F4AC3E9004518A5D5E96B
:100B400000451865C3E9024517A5D5E900451160C0
:100B5000C3E9064516A1D1E9000117A5D5E900456D
:100B6000C3E9040116A1D1E90001C3E90A4516A5AC
:100B7000D5E90045C3E9080115A1D1E90001C3E9A0
:100B80000E4530BCC3E90C0113A1D1E90001C3E952
:100B9000100113A1D1E90001C3E91201704700BFA0
:100BA0000065CD1DE02E000040EFC41F40EFC41FC4
:100BB00000C2EB0B00E1F505A077E20F005ED0B2BA
:100BC00000C2EB0B005ED0B200B4C40400E1F50536
:100BD0008026FE0080B2E60E00E1F50500C2EB0BB8
:100BE00000E1F5050084D717F005116000366E01AD
:100BF00000C2EB0B7C111160008C864700C2EB0B2E
:100C000030B433A5D5E900452D4B2E482E492F4A47
:100C1000C3E9004518A5D5E900451865C3E90245B3
:100C200017A5D5E900451160C3E9064516A1D1E92C
:100C3000000117A5D5E90045C3E9040116A1D1E9D2
:100C40000001C3E90A4516A5D5E90045C3E9080135
:100C500015A1D1E90001C3E90E4530BCC3E90C017F
:100C600013A1D1E90001C3E9100113A1D1E90001E9
:100C7000C3E91201704700BF0065CD1DE02E0000E2
:100C800040EFC41F40EFC41F00C2EB0B00E1F505AD
:100C9000A077E20F005ED0B200C2EB0B005ED0B2D4
:100CA00000B4C40400E1F5058026FE0080B2E60E23
:100CB00000E1F50500C2EB0B00E1F5050084D71754
:100CC000F005116000366E0100C2EB0B7C11116063
:100CD000008C864700C2EB0B00BF70474FF001133A
:100CE0001B4A10B4C2F82C35D2F8AC36D907FBD564
:100CF0004FF001131649C2F82C38D1F8AC39DA0795
:100D0000FBD44FF00113124AC1F82C35D2F8AC369F
:100D1000DB07FBD54FF001130D49C2F82C38D1F891
:100D2000AC3913F00103FAD14FF0FF30094C0A49F6
:100D3000D4F81C2B22F00102C4F81C2B03F1A002F2
:100D400001330F2B41F82200F8D110BC704700BFCF
:100D5000000001410002024100E100E00C4A08B538
:100D60000346106840B103330A4923F003030344E8
:100D70008B4205D8136008BD074908461160F2E7A9
:100D800000F0F8FC0C2203464FF0FF301A6008BD5B
:100D9000041911602019116020191160064A0749D1
:100DA00053688A6023F00103054981F38A88126839
:100DB00082F388889C4770470000010000ED02E044
:100DC00020191160704700BF022249F6F77108B57B
:100DD0000A4BC3F8D0201A6922F00C021A61DA68B3
:100DE0000A4042F0BF6242F40832DA605A6A42F4C2
:100DF00000225A62FFF7E6FF08BD00BF00ED00E0E9
:100E000070B584B0EFF30383C3F30803104A103BBB
:100E10001BB252F82340636826691B78012B04BF7C
:100E2000A268137686B1636901AD7BB193E80700D0
:100E300085E80700A26918461A60B04763691BB1CC
:100E400095E8070083E8070004B070BD2B46F1E782
:100E5000841111602DE9F04103240122C0F3072E13
:100E6000AEF10203C0F3850C264F20400CEB430C7F
:100E70005FFA8CFC00FA04F304FA03F057F82C40F4
:100E80009A4024EA0208C1F380449C401E4E44EA82
:100E9000080447F82C4056F82C70C1F3812427EA47
:100EA00000079C40194D3C4346F82C4055F82C60F7
:100EB000C1F3404426EA02069C403443BEF1010FD0
:100EC00045F82C401BD1D243C043114CC1F3C0455F
:100ED000A6689D4032402A43A260D4F80854C1F36A
:100EE000015205409A402A43C4F80824D4F808283F
:100EF000C1F38151104099400143C4F80818BDE87E
:100F0000F08100BF10180341101003411014034179
:100F1000002003412DE9F04F072401264FF0030E76
:100F2000C7B24FEA870887B004FA08F40194C1F306
:100F3000812406FA07FA0294C1F34044050A00EA44
:100F40000E02C0F385035FFA8AFB0394C1F3011418
:100F500002FA0EF203EB45030494BBF1FF0FC1F359
:100F6000C044E8B2C1F3004C0594C1F30155C1F38C
:100F70008154DFF8D490DBB20EFA02FE06FA02F6D4
:100F8000C1F3026109D00CFA07F710F809C02CEA86
:100F90000A0C4CEA070C5FFA8CFC00F809C0DFF879
:100FA000ACB0029FDDF80CC0DDF8149001FA08F136
:100FB000DDF810800CFA02FC08FA02F809FA02F9CE
:100FC0009740954094405BF82320DFF884A022EA04
:100FD0000E0217434BF823705AF823201D4F22EAC4
:100FE00006024CEA0202DFF870C04AF823205CF8DF
:100FF000232022EA0E0248EA02024CF8232057F886
:10100000232022EA060249EA020247F8232007F5D4
:10101000806757F82320114E22EA0E02154347F845
:10102000235056F8232022EA0E0214430C4A46F8B5
:10103000234052F82030019C23EA0403194342F86C
:10104000201007B0BDE8F08F10020341801003416B
:101050008014034180200341801C03418028034108
:10106000400403414FF0030C2DE9F04F012400EA46
:101070000C02C6B202FA0CF28BB004FA06F89440E5
:101080000594740009940CFA04F4050AC0F385036E
:101090000894A4B2C1F3810903EB4503E8B20494B8
:1010A0005FFA88F5C1F3812402960395C1F3004EDF
:1010B0000694C1F34047C1F30116C1F38035C1F373
:1010C000C044C1F3015BC1F3815ACDF8009001F037
:1010D00001095FFA88F1FF29DBB2CDF81C800CFA18
:1010E00002FCCDF804900CD002990EFA01F1DFF861
:1010F00000E110F80EE02EEA080E4EEA010E5FFA4B
:101100008EFE3B49974000F801E00699964001FAAF
:1011100002FE3849954094400BFA02FB0AFA02FAA3
:1011200051F82320DDF8148022EA0C024EEA020274
:10113000DFF8C4E041F823205EF823204FF6FF7962
:1011400022EA080217434EF8237001F5406151F876
:10115000232022EA0C02164341F82360274E01F5B2
:10116000806156F8232022EA0802154346F82350EE
:1011700051F8232022EA0802144341F82340204C6E
:1011800001F5006154F8232022EA0C024BEA020226
:1011900044F8232051F8232022EA0C024AEA0202F2
:1011A00041F82320049B174A4B450BD00099099B1B
:1011B000089C994032F810309BB223EA04030B4399
:1011C0009BB20093009B104922F81030039BFF2B29
:1011D00009D0DDE90132079C9340425C22EA040217
:1011E0001343DBB20193019B43540BB0BDE8F08F76
:1011F000100203418010034180140341802C0341FD
:1012000080240341200103411000034170B50546CD
:10121000EFF31082012383F31088204E33681BB94B
:101220001F490B7540230B7533680133336082F31C
:1012300010882B88DBB1002406E0FFF76BFE2A88BC
:101240000134A3B29A4212D96B68A2B203EBC20175
:10125000486853F83210B0F5803F1BD2CB03ECD472
:10126000FFF700FF01342A88A3B29A42ECD8EFF3CB
:101270001082012383F31088336813B13368013B74
:10128000336033681BB9802005490B75087582F3FC
:10129000108870BDFFF7DEFDD1E700BF801111603F
:1012A0000030034108B5034B03600846FFF7AEFF6B
:1012B000002008BD54524F50F0B5194B00B253F8FE
:1012C000204085B0237C012B1FD0E3B9A3681A69A5
:1012D000CAB10122A1690F689A61E6699EB1236AC9
:1012E00001ADD3B193E8070085E80700626A1846AC
:1012F0001A60E268C3E90127B047236A1BB195E889
:10130000070083E8070005B0F0BDA2681168002956
:10131000F9D0A1690F689360DFE72B46E6E700BFCD
:1013200084111160EFF30380C0F30800103800B29D
:10133000FFF7C2BFF0B5846A85B005460F469446F4
:101340006E46B4B194E80F0086E80F00AB69204602
:101350001B7884F804C02360EB6AC4E902736B6AEB
:101360009847AC6A1CB196E80F0084E80F0005B0FE
:10137000F0BD3446EAE700BFC369DA89D10629D057
:1013800010B504460BE05B071FD463698BB90422D8
:101390002046FFF7CFFFE369DA89D20619D01A8910
:1013A000997A93B21207C9B2EDD558070FD410221B
:1013B000EEE723691970D4E9043101330139C4E936
:1013C00004310029E7D10122E2E70822E0E71822F0
:1013D000DEE710BD704700BF10B4EFF30383C3F323
:1013E00008031E4A103B1BB252F8230083699B6915
:1013F0001BB1C3681BB110BC7047C16871B9002133
:10140000C4698022A38823F080031B041B0C43F0D3
:101410000403A38010BC8160FFF78CBF8268C4699D
:1014200012F8013BA3714B1EC0E90223B4F80EC0B1
:10143000CCF3042CBCF10F0F0BD81139614443B12C
:1014400012F801CB013B8B4284F806C0C0E90223AD
:10145000F5D122896FF345122281CBE78411116007
:1014600010B5EFF30383C3F30803084A103B1BB224
:1014700052F823402046FFF77FFFE269138923F0EB
:1014800002031B041B0C138110BD00BF84111160EB
:1014900038B5EFF30383C3F30803144A103B1BB2C0
:1014A00052F82350EA691489A4B224F041039BB294
:1014B0001381E20715D4630612D5EC69EA68A388A4
:1014C0009BB252B123F004039BB22846A3800222B0
:1014D000BDE838400021FFF72DBF23F08403F3E778
:1014E00038BD2846FFF748FFE5E700BF84111160CB
:1014F000EFF30383C3F30803074A103B1BB252F810
:101500002330DA6911898BB2090644BF23F08003C6
:101510009BB21381704700BF84111160EFF3038306
:10152000C3F30803164A103B1BB252F82300C169EB
:101530000A894B8A1FFA82FCD2069BB203D4DA07CF
:101540001AD5202206E0DA072CF0100C0BD5602209
:101550001FFA8CFC23F001039BB2A1F808C04B8258
:101560000021FFF7E7BE1FFA8CFCA1F808C040225B
:101570004B820021FFF7DEBEA1F808C04B82704706
:10158000841111604FF0E0234FF08052C3F8042D16
:10159000BFF34F8FBFF36F8F704700BF08B500F0E8
:1015A00061F8044A136801331360BFF34F8FBFF330
:1015B0006F8F08BD4406116008B50A4B1A684AB11E
:1015C0001A68013A1A60186800B108BDBDE8084001
:1015D00000F054B84FF44671034B044A044800F03D
:1015E000A5F800BF440611606C3A0160AC3A016096
:1015F000F039016008B5836913F8023C022B03D16E
:10160000BDE8084000F014B840F2AB31024B034A89
:10161000034800F08BF800BF803A0160983A0160FF
:10162000F039016000000000000000000000000030
:101630000B4A1168086806C881F30B88022181F300
:101640001488203080F30988BFF36F8F4FF00000BB
:1016500080F31188104700BFAFF30080AFF3008024
:1016600078111160EFF311804FF0010181F31188BF
:10167000BFF34F8FBFF36F8F704700BF80F31188A8
:10168000BFF34F8FBFF36F8F704700BF00000000A4
:10169000EFF30980EFF30B82734620E9FC0F104A49
:1016A000116808604FF0010080F31188BFF34F8F7D
:1016B000BFF36F8FFFF75AF94FF0000080F31188E6
:1016C000074A11680868B0E8FC0F82F30B8880F3C2
:1016D00009881847AFF30080AFF30080AFF30080B4
:1016E0007811116000000000000000000000000000
:1016F0001EF0040F0CBFEFF30880EFF309800449DC
:10170000084700BFAFF30080AFF30080AFF3008065
:10171000F5150160022800D0704702490248FFF722
:10172000C1BD00BFC03A0160081911600A4D1446DE
:101730001A4603462E680D4600B5F06885B044B1E0
:1017400006490095CDE90114054900F027F800F09D
:101750005FFD04490C46F4E748061160D83A016081
:10176000E83A0160E43A016008B513460022FFF749
:10177000DDFF00BF014B1868704700BF48061160CD
:101780000CB400B583B004AB53F8042B019300F004
:101790001BF903B05DF804EB02B070470EB410B54E
:1017A00083B0074C014605AB206853F8042B019326
:1017B00000F00AF903B0BDE8104003B0704700BF65
:1017C00048061160844641EA000313F0030349D13F
:1017D000403A23D30B6803604B6843608B68836097
:1017E000CB68C3600B6903614B6943618B6983619B
:1017F000CB69C3610B6A03624B6A43628B6A836283
:10180000CB6AC3620B6B03634B6B43638B6B83636A
:10181000CB6BC36340304031403ADBD230320BD324
:101820000B6803604B6843608B688360CB68C36060
:1018300010301031103AF3D20C3205D351F8043B7A
:1018400040F8043B043AF9D2043208D0D2071CBF56
:1018500011F8013B00F8013B01D30B88038060467F
:10186000704700BF082A13D38B07B1D010F00303D1
:10187000AED0C3F10403D21ADB071CBF11F8013B41
:1018800000F8013BA4D331F8023B20F8023B9FE76C
:10189000043AD9D3013A11F8013B00F8013BF9D2DF
:1018A0000B7803704B7843708B7883706046704779
:1018B00070B5860748D0541E002A3FD0CAB20346EE
:1018C00001E0013C3AD303F8012B9D07F9D1032C29
:1018D0002DD9CDB20F2C45EA052545EA054536D967
:1018E000A4F1100C03F1200E03F110022CF00F06EE
:1018F0004FEA1C1CB64442E9045542E90255103235
:101900007245F8D10CF1010214F00C0F04F00F0C29
:1019100003EB021213D0ACF1040323F003030433EE
:10192000134442F8045B9342FBD10CF003042CB146
:10193000CAB21C4403F8012B9C42FBD170BD644623
:101940001346002CF4D1F9E703461446BFE71A46C4
:10195000A446E0E79368013B002B936005DAD2F8D8
:1019600018C0634507DB0A2905D01368581C1060AE
:1019700008461970704700F069BB00BF9BB1F8B50D
:10198000134406460F46541E5D1E01E0AC4208D0CB
:1019900014F8011F3A463046FFF7DCFF431CF5D12F
:1019A000F8BD0020F8BD0020704700BF936810B557
:1019B000144613B91846536010BD00F047FE0023CB
:1019C000C4E9013310BD00BF2DE9F04F88469FB038
:1019D00015461C46814618B18369002B00F0B4807F
:1019E000934B984500F0B680924B984500F0C38029
:1019F000914B984508BFD9F80C80B8F80C301807FF
:101A000040F1AF80D8F81030002B00F0AA800023FE
:101A100029788A4E01270B93202305948DF83130C5
:101A200030238DF83230002973D0252971D02C460F
:101A3000A34614F8012F0AB1252AF9D1631B039399
:101A400073D1002A69D000234FF0FF32013406938E
:101A500009938DF85B301C93CDE9072304E0801BCC
:101A600007FA00F018430690A2460522304614F803
:101A7000011B01F033F8069B0028F0D1D90602D5EE
:101A800020228DF85B201A0702D52B228DF85B20CF
:101A90009AF800102A2971D1059A111D1268002A9E
:101AA0000591C0F29E8009920AF101059AF8011091
:101AB0002E2976D0624C0322204601F00FF838B16F
:101AC000001B4024069B013504FA00F003430693F3
:101AD00015F8011B06225B488DF8301000F0FEFF60
:101AE000002800F08480584B002B6CD005AC574B7D
:101AF000424606A948460094AFF300800290029B3C
:101B000001330AD00B9B029A297813440B930029C6
:101B10008BD10A462C46002A95D1B8F80C305B06CA
:101B200026D40B981FB0BDE8F08F05F1FF3A9A4418
:101B300003E0AA454ED015F8011F42464846FFF77C
:101B400009FF0130F5D1E8E700F060FD384B98451A
:101B50007FF44AAFD9F80480B8F80C3018073FF585
:101B600051AF4146484600F0D1FA00283FF44FAF4C
:101B70004FF0FF30D6E7D9F808803EE7A1F13002F8
:101B8000092A52D8099B03EB83031AF8011F02EBC1
:101B90004303A1F13002092AF5D92E2955460993AC
:101BA00088D169782A292CD1059BAA1C191D1B688C
:101BB000002B07930591B8BF4FF0FF33A978154666
:101BC000B8BF079376E7059B073323F00703083375
:101BD000059397E70B9A039B1A440B929BF80120FD
:101BE0002FE7524243F00203099206935CE705A8EF
:101BF000164B424606A90090484600F0C7F80290EE
:101C00007DE7A1F1300200230135092A07933FF651
:101C100051AF03EB830315F8011F02EB4303A1F15E
:101C20003002092AF5D9079344E7554640E700BF3B
:101C3000983B0160783B0160583B01601C3B0160B0
:101C4000243B0160283B0160000000007D19016019
:101C500010B4044C13460A460146206810BCFFF736
:101C6000B3BE00BF480611602DE9F04791461E46FD
:101C70000A690C468B680546DDF820809A42B8BF99
:101C80001A46C9F8002091F8433013B10132C9F85F
:101C900000202268910669D5D9F800300233C9F8CE
:101CA0000030226812F0060F11461CD1E168CB1AF1
:101CB000002B68DD04F1190A002706E0D9F800308E
:101CC000E268A2EB030CBC450CDD01235246314611
:101CD0002846C047013007F10107EFD14FF0FF3030
:101CE000BDE8F087216894F84330003B18BF01231A
:101CF0008A060AD5E1185A1C30200233224481F8A2
:101D0000430094F8451082F8431004F14302314631
:101D10002846C0470130E1D02368D9F8002003F0FD
:101D20000603E768042BA7EB0207A368226901D129
:101D3000002F14DA934216DD00279B1A1F4404F18A
:101D40001A09002401E0BC420DDA01234A4631465B
:101D50002846C047013004F10104F4D1BEE79342A4
:101D6000EBDC002FEBD10020BDE8F08712F0060F6E
:101D700003D0003B18BF0123C7E7D9F80030E16862
:101D8000CB1A002B96DC1146ADE700BF2DE9F043DE
:101D9000174685B00A7E06460C4698460C9801F117
:101DA000430C002A33D0A2F15803D9B2202967D8B6
:101DB000202B65D8DFE813F0F700640064006400AE
:101DC0006400640064006400640064006400BC009B
:101DD0006E0064006400640064006E0064006400CF
:101DE0006400640021009000F20064006400C700F9
:101DF0006400900064006400D80023681A0640F173
:101E0000F98003686269191D01601B681A6000236C
:101E1000E14623613B4603AA21463046CDF80080C7
:101E2000FFF722FF013020D04A4623693946304669
:101E3000C047013019D02368E0689B07039919D582
:101E4000431A002B16DD04F11909002504E0E068AF
:101E50000399431AAB420DDD01234A463946304609
:101E6000C047013005F10105F1D14FF0FF3005B059
:101E7000BDE8F0838842B8BF084605B0BDE8F083EE
:101E8000012304F1420984F842202361002384F8ED
:101E90004330BFE723681A0640F1C2800268111D73
:101EA000126801601146002AC0F2848062680A2527
:101EB000DFF890E1002AA26023DB236823F004030B
:101EC0002360002940F08480EAB9E146082D22D041
:101ED000ACEB090323619DE72368190640F1968066
:101EE0000368191D016019686F2ADFF858E10CBFFB
:101EF00008250A2562680023002A84F84330A2607E
:101F0000DBDA002964D19EF80030082D04F1420983
:101F100084F84230DCD12368D907D9D562682369B7
:101F20009A42D5DC302309F1FF3989F80030CFE738
:101F30000368012204F1420919680433036084F83C
:101F400042102261A2E70368002162681D1D05603E
:101F5000D3F80090484600F0C1FD00286FD0A0EBF8
:101F600009006060206191E723687822DFF8D8E0FB
:101F700084F845200268111D0160190636D45D06FB
:101F800034D51188D80702D543F02003236079BBEC
:101F90002368102523F020032360ABE7236843F078
:101FA00020032360E1E75823DFF898E084F8453008
:101FB0002368DFE72D22494284F843206268002A23
:101FC000A26002DB23F004032360DFF878E00A2537
:101FD000E1460A46B1FBF5F305FB1310AA42194688
:101FE0001EF8003009F8013DF3D26FE71168C9E728
:101FF00010257FE713F0400F0368626903F10401C5
:1020000001601B6814BF1A801A6000E713F0400FCC
:10201000036803F10401016014BF1988196863E7BC
:102020005D0606D50268111D0160B2F900100A466E
:1020300039E701680A6804310160114633E76068D6
:1020400090E700BF303B0160443B0160F8B50D46AE
:102050000646144608B1836943B3254B9C422AD0F7
:10206000244B9C4229D0244B9C4208BFF468A269AF
:10207000A389A2601A0722D5236903B32268EDB2AF
:102080006169D31A2F46994229DD0133A1680139CC
:10209000A160511C2160157062699A4216D00A2D08
:1020A00002D1A389DB0711D43846F8BD00F0AEFA9F
:1020B0000F4B9C42D4D17468D9E7B468D7E7214666
:1020C000304600F023F838B92369D7E72146304677
:1020D00000F032F90028E7D04FF0FF37E4E721465F
:1020E000304600F029F90028F6D122680123CDE717
:1020F000983B0160783B0160583B0160024B0A4607
:1021000001461868FFF7A2BF480611603C4B70B546
:102110001D6806460C460DB1AB69E3B1394B9C42D4
:102120001FD0394B9C4247D0384B9C4208BFEC68CB
:10213000B4F90C3018079AB219D5216911B312F00D
:1021400001002FD00020A06060694042A0610029FA
:102150002ED0002070BD284600F058FA294B9C4232
:10216000DFD16C68B4F90C3018079AB2E5D4D10607
:1021700038D5520722D4216943F008039AB2A381CB
:102180000029DCD102F42070B0F5007FD7D02146C1
:10219000304600F013FCB4F90C3021699AB212F009
:1021A0000100CFD1950758BF6069A0600029D0D148
:1021B00012061FD4084670BDAC68B9E7616B51B117
:1021C00004F14402914204D0304600F041FDB4F9DC
:1021D0000C30002262630022216923F02403C4E949
:1021E0000012C9E7092243F040034FF0FF3032608C
:1021F000A38170BD43F040034FF0FF30A38170BD59
:1022000048061160983B0160783B0160583B0160D3
:10221000062008B500F0A0FE012001F0EBFA00BF97
:10222000F8B58B890C46074619072AD46268002A3C
:1022300043DDE56A002D3ED000223E683A6013F48B
:1022400080523ED10123216A3846A847421C67D0FC
:10225000A389E56A5B0705D56368C01A636B0BB198
:10226000236CC01A02460023216A3846A847451C41
:1022700030D13A681D2A44D9A38943F04003A38191
:10228000F8BD2669BEB19907256826600CBF636951
:102290000023AD1BA3600CE02B463246D4F828C0C7
:1022A0003846216AE047B0F1000CA5EB0C05664406
:1022B00009DD002DF0DC0020F8BD226C002AB8DC1E
:1022C000F9E7606DC6E7A3894FF0FF3043F04003A4
:1022D000A381F8BD0023636023692360A389DA0426
:1022E00000D56065616B3E600029E4D004F14403D1
:1022F000994202D0384600F0ABFC002318466363D5
:10230000F8BD0C4BD340DB4313F00103B4D1636041
:1023100023692360A389DB04E4D5002AE2D1E0E746
:102320003B68002B94D01D2B01D0162BA4D100208C
:102330003E60F8BD0100402038B50B69BBB10C46CA
:10234000054608B18369B3B10D4B9C4211D00D4BCA
:102350009C4213D00C4B9C4208BFEC68B4F90C3083
:102360002BB121462846BDE83840FFF759BF002071
:1023700038BD6C68F2E700F049F9E5E7AC68EDE7D5
:10238000983B0160783B0160583B016038B540B331
:1023900003690446E3B1174B1D680DB1AB69CBB1BE
:1023A000154B9C420FD0154B9C4221D0144B9C42A4
:1023B00008BFEC68B4F90C3053B121462846BDE89B
:1023C0003840FFF72DBF6C68B4F90C30002BF4D106
:1023D000002038BD284600F019F9074B9C42E2D195
:1023E000F1E7084B08491868BDE8384000F0C4BA66
:1023F000AC68DFE748061160983B0160783B0160FC
:10240000583B0160183B0160392301600020704790
:10241000014900F0B1BA00BF3923016000207047C4
:1024200070B568224E1E0D4602FB06F606F17401D9
:1024300000F06AFC044640B100210C3006F168024D
:10244000A060C4E90015FFF733FA204670BD00BF55
:10245000274B2DE9F0411E680746B36953B3483650
:102460004FF00408D6E90134013B04D51EE05A1CA4
:1024700004F168041AD0B4F90C50013B002DF6D1D8
:102480001C4B0822294604F15C006566A561C4E97D
:102490000055C4E90253C4E90455FFF709FAC4E939
:1024A0000D55C4E912552046BDE8F08135682DB1BF
:1024B0002E46D7E7304600F01FF8D0E74FF4D6712C
:1024C000384600F021FC044668B105600C3029460E
:1024D000254640F8088C4FF4D072A060FFF7E8F969
:1024E00034602E46BEE70C2330603B60DBE700BF64
:1024F000183B01600100FFFF374A384912682DE997
:10250000F84F90424FF00003054681620365C0E931
:1025100012335ED028460024FFF79AFF0346284670
:10252000DFF8BCB06B60FFF793FF03462846DFF887
:10253000B4A0AB60FFF78CFF6F680423E86008224B
:10254000214607F15C007C66BC61DFF89C90DFF8F7
:102550009C80C7E90243C7E90044C7E90444FFF788
:10256000A7F9AE68224B0822C7F828A02146C7F871
:102570002C9006F15C00C7F83080C7E9087BF36057
:102580007466B460B461C6E90044C6E90444FFF768
:102590008FF9184BC6F8308021460822C6E9086B2F
:1025A000C6E90AA9EE68F36006F15C007466B460DF
:1025B000B461C6E90044C6E90444FFF779F9012390
:1025C000C6F828A0C6E9086BC6E90B98AB61BDE860
:1025D000F88F012383619DE7183B0160112401609E
:1025E000C9300160F1300160313101605531016065
:1025F0000900010012000200024B0349186800F0B4
:10260000BBB900BF183B016039230160836903B97E
:1026100072E77047704700BF704700BF704700BF48
:10262000704700BF024B0349186800F085B900BF2E
:10263000480611600D240160024B0349186800F040
:102640007BB900BF480611601D2401609368002B10
:1026500000F08180B1F90C302DE9F04F0C461907DC
:10266000804683B0174698B223D523690BB310F088
:1026700002033D682BD04FF0000ADFF8B8B256468F
:102680005E4533465246404628BF5B46002E4FD03B
:10269000216AD4F828C0E047002852DDBB68824494
:1026A000361A181AB8600028EAD1002003B0BDE835
:1026B000F08F21464046FFF729FD002840F0378182
:1026C000B4F90C303D6898B210F00203D3D110F089
:1026D000010942D14E463EB38205D4F808B040F11C
:1026E0008480B3455A4600F2B48010F4906F40F0F5
:1026F000C18020684946019200F02EFAA368216843
:10270000B246019AA3EB0B0300260A44A3602260A1
:10271000B868D144A0EB0A00B8600028C5D0B4F96D
:102720000C0080B2002ED7D1D5E900960835D2E74B
:10273000D5E900A60835A3E721464046FFF7FCFD92
:1027400088B3B4F90C3043F040034FF0FF30A3815D
:1027500003B0BDE8F08F002070471E46AA46994698
:1027600018461D465EB3002833D04A46A168B242DF
:102770006369206828BF324603EB010B2169884258
:1027800002D95A4500F3A980934266DC2A46216AA1
:102790004046D4F828C0E047B0F1000BD1DDB9EBDA
:1027A0000B09C9D00120BA685D44A6EB0B06A2EB69
:1027B0000B02BA60002A3FF478AF002ED3D10AF1A1
:1027C000080353F8046C9A4653F8085C0833002E4B
:1027D000F7D032460A21284600F080F9002800F0A0
:1027E0009D800130A0EB0509BFE72068236998426E
:1027F00017D86369B34214D86FF00042216A40468B
:10280000D4F828C0B24228BF324692FBF3F202FB52
:1028100003F34A46E047B0F1000A92DDA6EB0A0650
:1028200076E7B345DA46494628BFB246524600F03D
:1028300093F9A3682268A3EB0A035244A3602260C1
:10284000002BEBD121464046FFF776FD0028E5D06E
:1028500077E7B346206832464CE72946019200F0FC
:102860007BF9019AA36893469B1AA36023681344DB
:10287000236094E723682169A3EB010B636913EBE1
:10288000430348BF01334FEA630A0BF101033344AA
:102890005246534501D99A461A4643052CD511464E
:1028A000404600F031FA00283BD05A462169019099
:1028B000FEF788FFA289019B22F4906242F0800219
:1028C000A28103EB0B002361AAEB0B033246B34654
:1028D000C4F814A0A36020600CE729465A4600F013
:1028E0003BF92368214640465B442360FFF724FD03
:1028F00000283FF454AF24E7404600F05FFA034657
:102900000028DED12169404600F0A2F9B4F90C306C
:102910000C2223F08003C8F8002014E7721C9146B3
:1029200024E70C22B4F90C30C8F800200BE74FF074
:10293000FF30BBE600FCFF7F2DE9F0410026884612
:1029400000F14807D7E90154013D0ED4A389013DA8
:10295000012B06D9B4F90E302046013301D0C0470F
:1029600006436B1C04F16804F0D13F68002FE9D1E5
:102970003046BDE8F08100BF2DE9F84300268146CE
:10298000884600F14807D7E90154013D0FD4A389D7
:10299000013D012B07D9B4F90E30214648460133D9
:1029A00001D0C04706436B1C04F16804EFD13F68B7
:1029B000002FE8D13046BDE8F88300BF8B89F0B521
:1029C0000C46990797B007D504F14703012223600D
:1029D000C4E9043217B0F0BDB4F90E100546002961
:1029E0002DDB6A4600F0E2FB002827DB019E4FF456
:1029F0008067284606F470463946A6F50056B6FAB2
:102A000086F6760900F080F938B3A3891B4A43F0B3
:102A10008003AA62A3812060C4E90407002ED9D0F4
:102A2000B4F90E10284600F0D7FB0028D2D0A389B5
:102A300023F0030343F00103A381CBE7A38913F041
:102A4000800F28464FF0000614BF40274FF48067E0
:102A5000394600F059F90028D7D1B4F90C309A055D
:102A6000B8D423F0030304F14702012143F0020329
:102A70002260C4E90421A381ACE700BF11240160F6
:102A800070B50C46B1F90E1096B0164600291D46D9
:102A900013DB6A4600F08AFB00280EDB01994FF435
:102AA0008063002001F47041A1F50051B1FA81F179
:102AB00049092960336016B070BDB4F90C300022AA
:102AC0001B062A6004D540230020336016B070BD79
:102AD0004FF480630020336016B070BD10B55FFA0C
:102AE00081FE810710D00346511E22B90AE09A07E1
:102AF0000CD0013906D3184613F8012B72459C46B9
:102B0000F5D110BD002010BD8446114603290CD814
:102B10000029F7D00CEB010301E09C45F2D06046A0
:102B20001CF8012B7245F8D110BD4EEA0E24624606
:102B300044EA044494460432DCF800306340A3F1D4
:102B4000013020EA030313F0803FE3D104399446B7
:102B50000329EFD8DCE700BF88420DD98B188342E8
:102B60000AD900EB020CBAB1624613F801CD9942C2
:102B700002F801CDF9D170470F2A0ED8034602F1B1
:102B8000FF3C4AB10CF1010C013B8C4411F8012BC4
:102B9000614503F8012FF9D1704740EA01039B0713
:102BA00050D1A2F1100301F1200C70B523F00F05F4
:102BB00001F1100E00F110041B09AC445EF8105C2A
:102BC0000EF1100E103444F8205C5EF81C5C44F8E2
:102BD0001C5C5EF8185C44F8185C5EF8145CE64512
:102BE00044F8145CEAD1013312F00C0F02F00F0C20
:102BF00001EB031100EB031328D0ACF1040C1C1FF4
:102C00008E462CF003064FEA9C0C1E445EF8045BD3
:102C100044F8045FB442F9D10CF1010C02F0030254
:102C200003EB8C0301EB8C0102F1FF3C4AB10CF188
:102C3000010C013B8C4411F8012B614503F8012F75
:102C4000F9D170BD02F1FF3C03469BE76246EBE71A
:102C500000293CD038B551F8043C0C1F0546002B28
:102C6000B8BFE41800F0E0FA264A1368002B3BD006
:102C7000A34214D81A465B680BB1A342FAD9116873
:102C80005018A04224D036D821686018834211D051
:102C9000636054602846BDE8384000F0C7BA216838
:102CA000601883420DD0636028461460BDE8384048
:102CB00000F0BCBA18685B680144C4E900135460B2
:102CC000E8E718685B680144C4E90013ECE7704763
:102CD00020680144501811608342DBD1D3E900031E
:102CE0000144C2E90013D5E7284663601460BDE8DB
:102CF000384000F09BBA0C2328462B60BDE83840D2
:102D000000F094BA10191160F8B5CD1C064625F0F4
:102D1000030508350C2D38BF0C25002D15DBA94205
:102D200013D8254F00F080FA3A6892B1144603E0B8
:102D3000636822461C4663B123685B1BF8D40B2BE7
:102D400028D923601C44256017E00C230020336041
:102D5000F8BD796859B32946304600F057F8431C4E
:102D60001ED0C41C24F00304A04205D0211A304612
:102D700000F04CF8013013D02560304600F056FAD0
:102D800004F10B00231D20F00700C21AE0D01B1A2B
:102D9000A350F8BD636894420CBF3B605360ECE7FE
:102DA0000C233046336000F041FA0020F8BD304675
:102DB00000F02CF87860CEE710191160F8B51446D1
:102DC000F9B1CAB106460D4600F032FAA04202D36C
:102DD0002F463846F8BD21463046FFF795FF074697
:102DE0000028F6D022462946FEF7ECFC304629465C
:102DF000FFF72EFF3846F8BD1746FFF729FF384684
:102E0000F8BD1146BDE8F840FFF77EBF38B5002297
:102E1000064D044608462A60FDF7A0FF431C00D07B
:102E200038BD2B68002BFBD0236038BD181911600A
:102E300038B5446C0CB1002038BD05468021FFF741
:102E400063FF0246686430B1031F7C3243F8044FCD
:102E50009342FBD1EFE74FF0FF3038BD1F29F8B5A3
:102E6000054608D8466C0C4617464EB156F8240065
:102E700046F82470F8BD16234FF0FF302B60F8BDE4
:102E80008021FFF741FF0646686440B1031F00F14F
:102E90007C05002143F8041F9D42FBD1E6E74FF07B
:102EA000FF30F8BD1F2938B5054620D8426C0C46C6
:102EB0006AB152F8213053B1012B16D0591C10D0F1
:102EC0000025204642F824509847284638BD284619
:102ED00000F0F8F8224601462846BDE8384000F0E8
:102EE000DBB8162301202B6038BD002038BD162327
:102EF0004FF0FF302B6038BD1F292AD8426C38B5FF
:102F00000C46054682B152F8243002EB84024BB1E4
:102F1000591C19D0012B15D0002520461560984763
:102F2000284638BD012038BD8021FFF7EDFE02465E
:102F3000686458B1031F00217C3043F8041F984295
:102F4000FBD1E0E7032038BD022038BD4FF0FF3051
:102F500038BD4FF0FF30704738B51F28134B1D6840
:102F60001FD86A6C044662B152F820304BB1012B75
:102F700015D0591C0FD0002542F8205098472846FC
:102F800038BD284600F09EF8224601462846BDE896
:102F9000384000F081B8162301202B6038BD002096
:102FA00038BD16234FF0FF302B6038BD4806116046
:102FB000124B1F2870B51E6808D80D46716C044668
:102FC00049B151F8240041F8245070BD16234FF048
:102FD000FF30336070BD80213046FFF795FE01461B
:102FE000706440B1031F00F17C0C002243F8042FF1
:102FF0006345FBD1E5E74FF0FF3070BD4806116037
:1030000038B50B4B1D686C6C0CB1002038BD8021AD
:103010002846FFF779FE686438B1031F00F17C028F
:1030200043F8044F9342FBD1EFE74FF0FF3038BD38
:103030004806116038B51F28164B1D6826D86A6CE3
:10304000044682B152F8243002EB84024BB1591C81
:103050001AD0012B16D00025204615609847284627
:1030600038BD012038BD80212846FFF74DFE0246BD
:10307000686458B1031F00217C3043F8041F834269
:10308000FBD1DFE7032038BD022038BD4FF0FF3011
:1030900038BD00BF4806116070B50C460346084DA8
:1030A0000026204611461C462E6000F083FB431C80
:1030B00000D070BD2B68002BFBD0236070BD00BF1B
:1030C0001819116000F066BB10B50C46B1F90E106E
:1030D00000F0B8F8002803DB636D0344636510BD9E
:1030E000A38923F48053A38110BD00BF0020704743
:1030F0002DE9F0410C46B1F90C101F460546CB05F1
:1031000016460BD421F480513B4632462846A18115
:10311000B4F90E10BDE8F04100F020B8B4F90E107B
:103120000223002200F06AF8B4F90C10EAE700BFAD
:1031300010B50C46B1F90E1000F060F8421CA389DE
:1031400004D043F480536065A38110BD23F4805301
:10315000A38110BDB1F90E1000F016B838B50C46B9
:1031600084461146074D1A460023204664462B60CC
:1031700000F038FB431C00D038BD2B68002BFBD07F
:10318000236038BD1819116038B50022064D044679
:1031900008462A6000F0EEFA431C00D038BD2B68C8
:1031A000002BFBD0236038BD1819116070B50C4698
:1031B0000346084D0026204611461C462E6000F0AE
:1031C000E1FA431C00D070BD2B68002BFBD02360BC
:1031D00070BD00BF1819116038B50022064D0446B5
:1031E00008462A6000F0DEFA431C00D038BD2B6888
:1031F000002BFBD0236038BD1819116038B50C4680
:1032000084461146074D1A460023204664462B602B
:1032100000F0D8FA431C00D038BD2B68002BFBD03F
:10322000236038BD18191160704700BF704700BF98
:1032300051F8040C0028A0F10400BCBF0B58C018C2
:10324000704700BF38B50C4684461146074D1A46F4
:103250000023204664462B6000F0BCFA431C00D0DB
:1032600038BD2B68002BFBD0236038BD18191160C6
:1032700081F0004102E000BF83F0004330B54FEA27
:1032800041044FEA430594EA050F08BF90EA020F94
:103290001FBF54EA000C55EA020C7FEA645C7FEA27
:1032A000655C00F0E2804FEA5454D4EB5555B8BF4A
:1032B0006D420CDD2C4480EA020281EA030382EABB
:1032C000000083EA010180EA020281EA0303362D4D
:1032D00088BF30BD11F0004F4FEA01314FF4801C20
:1032E0004CEA113102D0404261EB410113F0004F32
:1032F0004FEA03334CEA133302D0524263EB4303E9
:1033000094EA050F00F0A780A4F10104D5F1200E86
:103310000DDB02FA0EFC22FA05F2801841F10001E1
:1033200003FA0EF2801843FA05F359410EE0A5F1B5
:1033300020050EF1200E012A03FA0EFC28BF4CF0E6
:10334000020C43FA05F3C01851EBE37101F000459C
:1033500007D54FF0000EDCF1000C7EEB00006EEBA9
:103360000101B1F5801F1BD3B1F5001F0CD3490833
:103370005FEA30004FEA3C0C04F101044FEA44528A
:1033800012F5800F80F09A80BCF1004F08BF5FEA11
:10339000500C50F1000041EB045141EA050130BDF1
:1033A0005FEA4C0C404141EB0101013C28BFB1F503
:1033B000801FE9D291F0000F04BF01460020B1FA4E
:1033C00081F308BF2033A3F10B03B3F120020CDA21
:1033D0000C3208DD02F1140CC2F10C0201FA0CF0FF
:1033E00021FA02F10CE002F11402D8BFC2F1200C64
:1033F00001FA02F120FA0CFCDCBF41EA0C0190401A
:10340000E41AA2BF01EB0451294330BD6FEA040462
:103410001F3C1CDA0C340EDC04F11404C4F120024D
:1034200020FA04F001FA02F340EA030021FA04F35F
:1034300045EA030130BDC4F10C04C4F1200220FAB6
:1034400002F001FA04F340EA0300294630BD21FAF4
:1034500004F0294630BD94F0000F83F4801306BFBA
:1034600081F480110134013D4EE77FEA645C18BFAE
:103470007FEA655C29D094EA050F08BF90EA020F45
:1034800005D054EA000C04BF1946104630BD91EA3D
:10349000030F1EBF0021002030BD5FEA545C05D140
:1034A0004000494128BF41F0004130BD14F580047F
:1034B0003CBF01F5801130BD01F0004545F0FE41F3
:1034C00041F470014FF0000030BD7FEA645C1ABF28
:1034D000194610467FEA655C1CBF0B46024650EA5F
:1034E000013406BF52EA033591EA030F41F400218B
:1034F00030BD00BF90F0000F04BF0021704730B511
:103500004FF4806404F132044FF000054FF00001E5
:1035100050E700BF90F0000F04BF0021704730B5A6
:103520004FF4806404F1320410F0004548BF40427B
:103530004FF000013EE700BF42004FEAE2014FEAD0
:1035400031014FEA02701FBF12F07F4393F07F4FAB
:1035500081F06051704732F07F4208BF704793F0AE
:103560007F4F04BF41F40021704730B54FF46074C1
:1035700001F0004521F000411CE700BF50EA0102C4
:1035800008BF704730B54FF000050AE050EA01026D
:1035900008BF704730B511F0004502D5404261EBDD
:1035A00041014FF4806404F132045FEA915C3FF41E
:1035B000D8AE4FF003025FEADC0C18BF03325FEABB
:1035C000DC0C18BF033202EBDC02C2F1200300FA6C
:1035D00003FC20FA02F001FA03FE40EA0E0021FA91
:1035E00002F11444BDE600BF4FEA4102B2F1E043EC
:1035F00024BFB3F5001CDCF1FE5C0DD901F0004CDA
:103600004FEAC0024CEA5070B2F1004F40EB830029
:1036100008BF20F00100704711F0804F21D113F155
:103620003872BCBF01F00040704741F480114FEA8E
:103630005252C2F11802C2F1200C10FA0CF320FA17
:1036400002F018BF40F001004FEAC1234FEAD32334
:1036500003FA0CFC40EA0C0023FA02F34FEA43039E
:10366000CCE77FEA625307D150EA01331EBF4FF027
:10367000FE4040F44000704701F0004040F0FE4042
:1036800040F40000704700BF4FF0FF3C06E000BF71
:103690004FF0010C02E000BF4FF0010C4DF804CDDB
:1036A0004FEA40024FEA41037FEA226C18BF7FEAEB
:1036B000236C11D001B052EA530C18BF90EA010FED
:1036C00058BFB2EB030088BFC81738BF6FEAE1707C
:1036D00018BF40F0010070477FEA226C02D15FEA18
:1036E000402C05D17FEA236CE4D15FEA412CE1D084
:1036F0005DF8040B704700BF844608466146FFE74B
:103700000FB5FFF7C9FF002848BF10F1000F0FBD2C
:103710004DF808EDFFF7F4FF0CBF012000205DF825
:1037200008FB00BF4DF808EDFFF7EAFF34BF0120AA
:1037300000205DF808FB00BF4DF808EDFFF7E0FF43
:1037400094BF012000205DF808FB00BF4DF808ED94
:10375000FFF7D2FF94BF012000205DF808FB00BFF7
:103760004DF808EDFFF7C8FF34BF012000205DF8D9
:1037700008FB00BF024B58224FF0FF301A60704721
:1037800018191160024B58224FF0FF301A60704731
:1037900018191160024B58224FF0FF301A60704721
:1037A00018191160024B582200201A60704700BFA0
:1037B00018191160024B58224FF0FF301A60704701
:1037C00018191160024B58224FF0FF301A607047F1
:1037D00018191160024B58224FF0FF301A607047E1
:1037E00018191160024B58224FF0FF301A607047D1
:1037F00018191160FEE700BF4275696C6420776993
:10380000746820525A2F47324C20466C65786962A2
:103810006C6520536F667477617265205061636BCD
:103820006167652076657273696F6E20312E322E66
:1038300030000000312E322E300000000000020166
:1038400012000000785461736B0000002F6D6564F6
:1038500069612F444154412F574F524B2F554970A6
:10386000726F6A656374732F454C4445582F656CBD
:103870006465782D6F70746F732D746F7563682F26
:10388000636F64652F4D6F64756C65732F436F7242
:10389000654D33332F52656E657361735F4D4855C7
:1038A0002F727A672F6177732F616D617A6F6E2D3A
:1038B0006672656572746F732F6672656572746F78
:1038C000735F6B65726E656C2F7461736B732E63BF
:1038D0000000000075785363686564756C65725309
:1038E000757370656E646564203D3D203000000096
:1038F0002820282028202820707844656C6179656C
:10390000645461736B4C69737420292D3E75784E35
:10391000756D6265724F664974656D73203D3D201B
:1039200028205542617365547970655F74202920A1
:10393000302029203F2028202820426173655479B7
:1039400070655F74202920312029203A2028202802
:103950002042617365547970655F7420292030209E
:103960002920292029000000757853636865647553
:103970006C657253757370656E6465640000000059
:103980007578546F705072696F72697479000000B5
:10399000765461736B537769746368436F6E7465B3
:1039A00078740000785461736B496E6372656D655D
:1039B0006E745469636B0000785461736B52657365
:1039C000756D65416C6C0000765461736B44656C79
:1039D00061790000756C437269746963616C4E654E
:1039E0007374696E67203D3D207E30554C000000A9
:1039F0002F6D656469612F444154412F574F524BDD
:103A00002F554970726F6A656374732F454C444536
:103A1000582F656C6465782D6F70746F732D746F9B
:103A20007563682F636F64652F4D6F64756C657384
:103A30002F436F72654D33332F52656E657361731B
:103A40005F4D48552F727A672F6673702F737263BC
:103A50002F726D5F6672656572746F735F706F72DF
:103A6000742F706F72742E6300000000756C4372C7
:103A700069746963616C4E657374696E67000000F8
:103A80002820282042617365547970655F7420296D
:103A9000203020290000000076506F727453564386
:103AA00048616E646C65725F4300000076506F720F
:103AB0007445786974437269746963616C000000CD
:103AC00002000000C83A016000000101003000005F
:103AD00000000101013000002C2066756E637469DE
:103AE0006F6E3A2000000000617373657274696F35
:103AF0006E2022257322206661696C65643A206617
:103B0000696C6520222573222C206C696E65202546
:103B100064257325730A00004C061160232D302B99
:103B200020000000686C4C00656667454647000051
:103B300030313233343536373839414243444546E3
:103B400000000000303132333435363738396162A5
:103B500063646566000000000000000000000000D3
:103B60000000000000000000000000000000000055
:103B70000000000000000000000000000000000045
:103B80000000000000000000000000000000000035
:103B90000000000000000000000000000000000025
:103BA0000000000000000000000000000000000015
:083BB00000000000000000000D
:103BB80005000000B11011600100000000000000C5
:103BC80005000000B01011600100000000000000B6
:103BD80005000000A01011601000000000000000A7
:103BE80005000000901011601000000000000000A7
:103BF80005000000801011601000000000000000A7
:103C0800050000007C1011600100000000000000A9
:103C1800050000007810116001000000000000009D
:103C28000700000076101160010000006400000029
:103C3800070000007410116001000000630000001C
:103C48000700000072101160010000000000000071
:103C58000500000071101160010000000000000064
:103C68000500000070101160010000000000000055
:103C7800050000006C101160010000000000000049
:103C8800050000006810116001000000000000003D
:103C98000500000064101160010000000000000031
:103CA8000500000060101160010000000000000025
:103CB8000D0000005C101160010000000000000011
:103CC8000D00000058101160010000000000000005
:103CD8000D000000541011600100000000000000F9
:103CE80007000000521011600100000000000000F1
:103CF80007000000501011600100000000000000E3
:103D08000D0000004C1011600100000000000000D0
:103D18000D000000481011600100000000000000C4
:103D28000D000000441011600100000000000000B8
:103D380007000000421011600100000000000000B0
:103D480007000000401011600100000000000000A2
:103D5800070000003E101160010000000000000094
:103D6800050000003C101160010000000000000088
:103D78000D00000038101160010000000000000074
:103D88000D00000034101160010000000000000068
:103D98000D0000003010116001000000000000005C
:103DA800070000002E101160010000000000000054
:103DB800070000002C101160010000000000000046
:103DC800070000002A101160010000000000000038
:103DD800050000002810116001000000000000002C
:103DE800070000002610116001000000000000001C
:103DF800070000002410116001000000000000000E
:103E080007000000221011600100000000000000FF
:103E180007000000201011600100000000000000F1
:103E2800070000001E1011600100000000000000E3
:103E3800070000001C1011600100000000000000D5
:103E4800050000009C0F11608000000000000000C9
:103E580005000000980F116001000000000000003C
:103E680005000000940F1160010000000000000030
:103E780007000000900F1160010000000000000022
:103E8800070000008C0F1160010000000000000016
:103E980005000000880F116001000000000000000C
:103EA80005000000870F11600100000000000000FD
:103EB80005000000860F11600100000000000000EE
:103EC80005000000850F11600100000000000000DF
:103ED80005000000840F11600100000000000000D0
:103EE80005000000800F11600100000000000000C4
:103EF800070000007C0F11600100000000000000B6
:103F0800070000007A0F11600100000000000000A7
:103F180007000000740F116001000000000000009D
:103F280005000000760F116001000000000000008D
:103F380005000000770F116001000000000000007C
:103F480005000000780F116001000000000000006B
:103F580005000000790F116001000000000000005A
:103F680005000000720F1160010000000000000051
:103F780007000000700F1160010000000000000041
:103F8800070000006E0F1160010000000000000033
:103F9800070000006C0F1160010000000000000025
:103FA80009000000680F1160010000000000000017
:103FB80007000000660F116001000000000000000B
:103FC80007000000640F11600100000000000000FD
:103FD80007000000620F11600100000000000000EF
:103FE80007000000600F11600100000000000000E1
:103FF800070000005E0F11600100000000000000D3
:10400800070000005C0F11600100000000000000C4
:10401800070000005A0F11600100000000000000B6
:1040280007000000580F11600100000000000000A8
:1040380007000000560F116001000000000000009A
:1040480003000000550F116001000000000000008F
:1040580005000000540F116001000000000000007E
:1040680005000000520F1160010000000000000070
:1040780005000000510F1160010000000000000061
:1040880005000000500F1160010000000000000052
:10409800050000004C0F1160010000000000000046
:1040A80005000000480F116001000000000000003A
:1040B80005000000440F116004000000000000002B
:1040C80005000000400F116004000000000000001F
:1040D800050000003C0F1160040000000000000013
:1040E80005000000380F1160040000000000000007
:1040F80003000000350F11600100000000000000FF
:1041080005000000340F11600100000000000000ED
:1041180005000000140F11602000000000000000DE
:1041280005000000F40E11602000000000000000EF
:1041380005000000F00E1160010000000000000002
:1041480005000000B00811604006000000000000F3
:10415800050000007C08116032000000000000002B
:104168000500000078081160010000000000000050
:1041780005000000B4061160C20100000000000044
:1041880005000000B10611600100000000000000F9
:104198000000000000000000000000000000000017
:1041A800008C864700C2EB0B0065CD1DE02E000099
:1041B80000C2EB0B00E1F50540EFC41F40EFC41F40
:1041C80000C2EB0B005ED0B2A077E20F005ED0B267
:1041D8008026FE0080B2E60E00B4C40400E1F505B6
:1041E80000E1F50500C2EB0B00E1F5050084D717E7
:1041F80000366E01AAAAAAAA4C06116000000000A7
:10420800983B0160783B0160583B0160000000006A
:104218000000000000000000000000000000000096
:104228000000000000000000000000000000000086
:104238000000000000000000000000000000000076
:104248000000000000000000000000000000000066
:0C4258000000000000000000000000005A
:0400000560010AD9B3
:00000001FF
