:020000021000EC
:1000000028B81160651C0160711C0160611C0160F1
:10001000611C0160611C0160611C01600000000046
:10002000000000000000000000000000F13201604C
:10003000611C01600000000091320160611C0160E0
:10004000611C0160611C0160611C0160611C016038
:10005000611C0160611C0160611C0160611C016028
:10006000611C0160611C0160611C0160611C016018
:10007000611C0160611C0160611C0160611C016008
:10008000611C0160611C0160611C0160611C0160F8
:10009000611C0160611C0160611C0160611C0160E8
:1000A000611C0160611C0160611C0160611C0160D8
:1000B000611C0160611C0160611C0160611C0160C8
:1000C000611C0160611C0160611C0160611C0160B8
:1000D000611C0160611C0160611C0160611C0160A8
:1000E000611C0160611C0160611C0160611C016098
:1000F000611C0160611C0160611C0160611C016088
:10010000B9200160611C0160611C0160611C01601B
:10011000611C0160611C0160611C0160611C016067
:10012000611C0160611C0160611C0160611C016057
:10013000611C0160611C0160611C0160611C016047
:10014000611C0160611C0160611C0160611C016037
:10015000611C016049270160611C0160611C016034
:10016000611C0160611C0160611C0160611C016017
:10017000611C0160611C0160611C0160611C016007
:10018000611C0160611C0160611C0160611C0160F7
:10019000611C0160611C0160611C0160611C0160E7
:10065000611C0160611C0160B12E0160DD2E016032
:10066000212E0160992D0160512E0160611C0160F5
:10067000611C0160611C0160611C0160611C016002
:10068000611C0160611C0160611C0160611C0160F2
:10069000611C0160611C0160611C0160611C0160E2
:1006A000611C0160611C0160611C0160611C0160D2
:1006B000611C0160611C0160611C0160611C0160C2
:1006C000611C0160611C0160611C0160611C0160B2
:1006D000611C0160611C0160611C0160611C0160A2
:1006E000611C0160611C0160611C0160611C016092
:1006F000611C0160611C0160611C0160611C016082
:10070000611C0160611C0160611C0160611C016071
:10071000611C0160611C0160611C0160611C016061
:10072000611C0160611C0160611C0160611C016051
:10073000611C0160611C0160611C0160611C016041
:10074000611C0160611C0160611C0160611C016031
:10075000611C0160611C0160611C0160611C016021
:10076000611C0160611C0160611C0160611C016011
:10077000611C0160611C0160611C0160611C016001
:10078000611C0160611C0160611C0160611C0160F1
:10079000611C0160611C0160611C0160611C0160E1
:1007A000611C0160611C0160611C0160611C0160D1
:1007B000611C0160611C0160611C0160611C0160C1
:020000020000FC
:020000041001E9
:10FF800000FAEF7229F5EF7235F5EF7225F5EF7291
:10FF900025F5EF7225F5EF7225F5EF7231F5EF7269
:10FFA00000000000000000000000000025F5EF72D6
:10FFB00025F5EF720000000025F5EF7225F5EF72D0
:02000004600199
:1000000010B5064C204604F0ADFC402200212046ED
:1000100006F064FD0122024B5A6010BD100611600B
:10002000C805116010B5064C204604F09BFC402228
:100030000021204606F052FD0122024B1A6010BD3D
:10004000D0051160C805116030B514460E4D0A6820
:100050000B46AA4283B00DD0826A551C0ED0009484
:100060000124416A019404F06FFB002806DB0020A4
:1000700003B030BD0122054B1A60F8E7044806F0D2
:100080003BFC4FF0FF30F3E75AA556EFC80511606F
:10009000888F016030B514460E4D0A680B46AA429F
:1000A00083B00DD0826A551C0ED000940124416AA1
:1000B000019404F049FB002806DB002003B030BDAA
:1000C0000122054B5A60F8E7044806F015FC4FF092
:1000D000FF30F3E75AA556EFC8051160888F01601D
:1000E00030B5014614464FF0FF3585B0DAB9174AEE
:1000F000174B1848CDE9013200952346164A04F003
:10010000ABFBE0B9154806F0F7FB154D002001F0F8
:100110003FFA55F82430002BF8D00023184645F854
:10012000243005B030BD0F4A0F4B1048CDE90132E5
:10013000009500230E4A04F08FFB0028E2D00D4802
:1001400006F0DAFB4FF0FF30EBE700BF250001605F
:1001500049000160D0051160A48F0160E88F016043
:10016000C805116001000160950001601006116072
:10017000D88F0160B48F01604FF0FF31002200F191
:100180000803C0E90131C36003610260704700BF2A
:1001900000230361704700BF4268036810B494688D
:1001A0000133C1E901246160916010BC0861036002
:1001B000704700BF30B40D686B1C10D000F108030D
:1001C0001C465B681A68AA42FAD902684B60013281
:1001D00099608C606160086130BC0260704704699E
:1001E0006368F2E7036910B4D0E901125C688A60C1
:1001F00051600021844208BF5A601A680161013AC7
:100200001A60186810BC7047154B1A461B68834269
:10021000FBD3516802EB010C604519D0416800EB3B
:10022000010C634505D08242036017D0106070470F
:10023000104630B40B4C2468A34203D0D3E90045E8
:10024000294441608242046018BF106030BC70478E
:1002500040680144501883425160E9D0704700BFA4
:1002600068061160640611602DE9F843044601F048
:1002700045F842480368002B56D0414B1F683C426A
:100280004CD1631E0A3349D8610704F1080505D033
:1002900025F007030833AB4240D91D46DFF8E48060
:1002A000D8F80090A94539D3374B19461C6803E0AC
:1002B000236823B121461C466268AA42F8D303682A
:1002C000A3422BD00E682068531B102B06F10806A2
:1002D000086007D9601942074AD143606560FFF79B
:1002E00093FF62682949A9EB020308683A438342F5
:1002F00038BF0B6000216260254AC8F800301368DF
:1003000021600133136001F0B5F8730709D04FF491
:100310008771204B204A214806F01EFB01F0AAF805
:1003200000263046BDE8F8831D4A550719D111460D
:1003300002F5204300254FF00046083B23F0070359
:10034000114F9A1AC7E900150360C3E90055C1E9C6
:1003500000320E4B37461A600A4B1A60084B1E607B
:100360008DE7D11D21F0070102F520430A46E1E7A0
:10037000CD210C4B084A094806F0EEFA64061160DC
:100380005006116060061160680611605C0611601D
:1003900058061160F0900160949101603490016002
:1003A000481011600090016018B3194A38B51268FE
:1003B00050F8043C04461342A0F1080521D050F83F
:1003C000081CB9B923EA020340F8043C00F096FF88
:1003D000104A54F8043C116828460B441360FFF798
:1003E00013FF0D4A136801331360BDE8384001F074
:1003F00041B8704740F22311084B094A094806F0FA
:10040000ABFA4FF49171084B054A064806F0A4FA7E
:100410005006116060061160540611606091016021
:1004200088910160349001602C91016070B516468E
:10043000026C0446856B52B16EB9406806F0D8FA7A
:100440006368216CA2680B449342636017D2013544
:100450000020A56370BDC06806F0CAFA226CE3688C
:1004600051429B1A2268E360934202D2A3680B4474
:10047000E360022EEBD1012D38BF0125E8E72368A8
:10048000013500206360A56370BD00BF70B50546EF
:1004900002F0F0FD95F845305CB2002C14DD05F15A
:1004A000240603E0631EDAB25CB26AB16B6A5BB128
:1004B000304601F01BF90028F4D001F0B1F9631EB9
:1004C000DAB25CB2002AF1D1FF2385F8453002F0A0
:1004D000DFFD02F0CFFD95F844305CB2002C14DD56
:1004E00005F1100603E0631EDAB25CB26AB12B6953
:1004F0005BB1304601F0FAF80028F4D001F090F931
:10050000631EDAB25CB2002AF1D1FF2385F84430D1
:10051000BDE8704002F0BCBD38B588B304460D4656
:1005200002F0A8FDD4E90F3000FB03F32268181A8B
:1005300013440021A360FF2362600244A163E260D0
:1005400084F8443084F8453075B923691BB902F04A
:100550009FFD012038BD04F1100001F0C7F800280C
:10056000F5D002F07BFDF2E704F11000FFF704FE86
:1005700004F12400FFF700FE02F08AFD012038BDDF
:1005800040F20D11024B034A034806F0E5F900BFA3
:10059000A491016044960160AC91016070B582B095
:1005A00030B31C46EBB106460D4692B171B34823F9
:1005B0000193019B482B22D101212046C4E90F65FC
:1005C000226084F84610019BFFF7A6FF204602B088
:1005D00070BD11BB48230193019B482B0FD12246CC
:1005E000EAE74FF4A671104B104A114806F0B4F92F
:1005F0004FF4A4710F4B0D4A0D4806F0ADF940F2CF
:1006000059110D4B094A0A4806F0A6F94FF4A87192
:100610000A4B064A064806F09FF940F25111084B72
:10062000024A034806F098F97C920160289601601E
:10063000AC910160589201601C9301609C92016032
:10064000DC92016030B583B0C0B188420D462AD338
:1006500014460AB348230193019B482B15D101216D
:1006600000232260D063204684F846102364019A58
:10067000FFF752FF2046A56303B030BD4FF434713D
:100680000C4B0D4A0D4806F067F940F259110C4B1E
:100690000C4A0A4806F060F94FF4A6710A4B094A61
:1006A000064806F059F940F2D121084B024A0348A6
:1006B00006F052F93893016004960160AC91016034
:1006C0001C930160289601607C9201604893016050
:1006D00070B5A0B1884205460E4617D34820FFF7F3
:1006E000C3FD044648B1002301210060C56380F8C2
:1006F00046300364FFF710FFA663204670BD40F24A
:10070000ED21064B064A074806F026F940F2EE2195
:10071000054B034A034806F01FF900BF38930160F8
:10072000E4950160AC91016048930160F0B585B03B
:100730000192002800F0A48004460F461E460029BE
:1007400078D0022E03D1E36B012B40F0928001F0B0
:100750006DF8002864D002F08DFCA26BE36B9A4226
:100760004AD3022E48D0002005460DE002F090FC4E
:100770002046FFF78BFE00F07DFE02F07BFCA36BB2
:10078000E26B9A4238D80120019B002B5CD00028F4
:100790003FD002F07DFC00F0B1FD02F06BFC94F85C
:1007A0004430FF2B08BF84F8445094F84500FF28DC
:1007B00008BF84F8455002F06BFC01A902A800F0C4
:1007C000EBFF002845D102F055FCA26BE36B9A4287
:1007D000CCD102F05DFC019904F1100000F044FF5F
:1007E0002046FFF753FE00F045FEB0B102F042FC98
:1007F000A26BE36B9A42C6D2324639462046FFF7D7
:1008000015FE636A73BB50BB02F042FC012005B0C9
:10081000F0BD02A800F0B4FFBBE702F01FFCE5E763
:10082000019B002B97D040F21131194B194A1A48FD
:1008300006F092F8036C002B83D040F20D31174B79
:10084000144A154806F088F802F022FC002005B092
:10085000F0BD2046FFF71AFE00F00CFEF6E702F0AE
:10086000FDFBD1E704F1240000F040FF0028CBD0CD
:10087000F5E740F20E310A4B064A074806F06CF8DD
:100880004FF44371074B034A034806F065F800BF75
:1008900010940160D0950160AC9101606893016093
:1008A000C0930160A49101602DE9F04100284DD072
:1008B00004460D4690461E4671B3022E1ED1E36BD0
:1008C000012B4AD102F0CEFC0746A36B294694F8CF
:1008D0004550324620466DB2A36BFFF7A7FD6B1C57
:1008E00024D07F2D40D001356DB284F845500124CD
:1008F000384602F0C3FC2046BDE8F08102F0B2FCAD
:10090000A26BE36B07469A42E0D30024384602F01C
:10091000B5FC2046BDE8F081036C002BCDD040F241
:10092000E131154B154A164806F016F8636A002B9C
:10093000DDD004F1240000F0D9FE0028D7D0B8F1B2
:10094000000FD4D00123C8F80030D0E74FF47871FD
:100950000C4B0A4A0A4805F0FFFF40F2E2310A4B0D
:10096000064A074805F0F8FF40F26B41074B034A7F
:10097000034805F0F1FF00BF68930160B495016082
:10098000AC910160A4910160C09301606494016026
:1009900070B5002845D0036C0446002B3AD103689B
:1009A0000D463BB302F05EFCA36BE26B06469A4237
:1009B0002AD994F845200133FF2AA36353B20BD000
:1009C0007F2B35D001335BB284F8453001243046AB
:1009D00002F054FC204670BD636A002BF6D004F18F
:1009E000240000F083FE0028F0D0002DEED001237B
:1009F0002B60EBE78368002BD4D040F29441104B7E
:100A0000104A114805F0A8FF0024304602F036FCD9
:100A1000204670BD40F28F410C4B0A4A0A4805F04F
:100A20009BFF40F28B410A4B064A074805F094FFB2
:100A300040F21351074B034A034805F08DFF00BFF6
:100A4000A0940160A0950160AC9101608494016064
:100A5000A491016064940160F0B585B00192002812
:100A600000F09D8004460E46002900F0818000F0D1
:100A7000DDFE002872D002F0FDFAA56B002D56D1E4
:100A8000019B002B35D002A800F07AFE2F4602F021
:100A9000FFFA00F033FC02F0EDFA94F84430FF2B3B
:100AA00008BF84F8447094F84530FF2B08BF84F8E1
:100AB000457002F0EDFA01A902A800F06DFEE8B958
:100AC00002F0D8FAA36B33BB02F0E2FA019904F109
:100AD000240000F0C9FD2046FFF7D8FC00F0CAFC56
:100AE000002850D002F0C6FAA56B05BB019B002B75
:100AF000CDD102F0CDFA002005B0F0BD2046FFF7C1
:100B0000C5FC00F0B7FC02F0B5FAA36B002BF0D0E7
:100B100002F0BEFAE6E702F0BBFA2046FFF7B6FCA9
:100B200000F0A8FC02F0A6FAA56B002DDED0226C26
:100B30005AB1E168A36811449942E16028BF216875
:100B4000304628BFE16005F053FF013DA5632369EE
:100B5000E3B902F09DFA012005B0F0BD019B002B26
:100B600089D04FF4A761114B114A124805F0F4FEE9
:100B7000036C002B3FF47BAF40F233510E4B0C4A19
:100B80000C4805F0E9FE02F069FAABE704F1100049
:100B900000F0ACFD0028DCD002F060FAD9E740F2AA
:100BA0002F51064B024A034805F0D6FE109401600F
:100BB00090950160AC910160109501600495016011
:100BC00070B584B00191002800F08A80036C04465F
:100BD000002B7ED100F02AFE002864D002F04AFAF1
:100BE000A56B002D56D1019B002B35D002A800F03B
:100BF000C7FD2E4602F04CFA00F080FB02F03AFAF4
:100C000094F84430FF2B08BF84F8446094F84530D2
:100C1000FF2B08BF84F8456002F03AFA01A902A848
:100C200000F0BAFDE8B902F025FAA36B33BB02F07D
:100C30002FFA019904F1240000F016FD2046FFF779
:100C400025FC00F017FC002837D002F013FAA56B42
:100C500005BB019B002BCDD102F01AFA002004B095
:100C600070BD2046FFF712FC00F004FC02F002FA0F
:100C7000A36B002BF0D002F00BFAE6E702F008FAC3
:100C80002046FFF703FC00F0F5FB02F0F3F9A56B3B
:100C9000002DDED0013DA56323698BB902F0F8F980
:100CA000012004B070BD019B002B97D040F2CA51C7
:100CB0000F4B104A104805F04FFE02F0CFF9C4E781
:100CC00004F1100000F012FD0028E7D002F0C6F990
:100CD000E4E740F2C551094B064A074805F03CFEDF
:100CE00040F2C151064B034A034805F035FE00BFF0
:100CF000109401607C950160AC9101608494016066
:100D00000495016010B5D8B10023114C54F833207C
:100D1000D900904206D001330A2BF7D190F8463023
:100D200053B110BD002300220A4C2144C1E9002325
:100D300090F84630002BF4D1BDE81040FFF734BBEB
:100D400040F2EE71044B054A054805F005FE00BF70
:100D50007406116070061160A49101606C950160C9
:100D6000AC910160002310B4084A52F8334002EB02
:100D7000C30C24B101330A2BF7D110BC704710BC4F
:100D800042F83310CCF80400704700BF70061160C1
:100D900070B504460E46154602F06CF994F84430DE
:100DA000FF2B04BF002384F8443094F84530FF2B18
:100DB00004BF002384F8453002F06AF9A36B23B125
:100DC0002046BDE87040FFF761BB04F124002A46CD
:100DD000314600F067FC2046BDE87040FFF756BB87
:100DE0002DE9F843044602F045F9304A304D1368C6
:100DF000013313602B683BB32E4E3368E3B1E36AD3
:100E00002D4F2E492E480A6801320A600268211DC2
:100E10009A4238BF036003EB830307EB8300FFF7BD
:100E2000BBF902F035F9336823B12A68E36AD26A64
:100E30009A4211D3BDE8F8832A68E36AD26A1E4F4A
:100E40009A4298BF2C60DCE72C601368012B07D016
:100E5000E36A194F174ED4E7BDE8F84302F0FEB835
:100E6000154F3E4607F1640830461436FFF784F903
:100E7000B045F9D1DFF84C90DFF84C804846FFF7D9
:100E80007BF94046FFF778F91048FFF775F91048ED
:100E9000FFF772F90F48FFF76FF90F4B054EC3F8D4
:100EA00000900E4BC3F80080E36AAAE7E4061160E5
:100EB000BC071160D806116058071160C8061160A0
:100EC000DC061160440711603007116014071160DF
:100ED00000071160E80611602C07116028071160F7
:100EE000F8B50546154B164E1C6830680F460430A1
:100EF000FFF778F96B1C17D0336864195C6007D36F
:100F0000104B18683168BDE8F8400431FFF752B95A
:100F10000D4B186831680431FFF74CF90B4B1A6818
:100F2000A24288BF1C60F8BD002FE5D03168084898
:100F30000431BDE8F840FFF72FB900BFE0061160AB
:100F4000BC071160280711602C071160C4061160EE
:100F5000E80611602DE9F84302F18042DDE90974E9
:100F6000256B013A05EB82050646984625F00705F4
:100F7000C1B301F1FF3C01F10F0304F1330E1CF981
:100F8000011F0EF8011F09B19C45F8D1002384F818
:100F90004330DDF82090201DB9F1040F28BF4FF039
:100FA0000409C4F82C90FFF7F3F804F11800FFF7D8
:100FB000EFF828460025C9F10503A36132464346F0
:100FC000216B246164626564A564E56425656565DB
:100FD000A56584F85C5002F091F8206007B13C6090
:100FE000BDE8F88384F83410D3E700BF80B51D4C0A
:100FF0001D4E1E4DDFF8788023682BB302F03AF8BF
:10100000F368DF68381DFFF7EDF82B68013B2B60B4
:101010002368013B236002F03BF897F85D3053B141
:10102000012B1AD0022BE7D040F68A71114B124ADD
:10103000124805F091FC386BFFF7B6F93846FFF718
:10104000B3F92368002BD9D1D8F80030012B01D98E
:1010500002F004F802F0C0F8CEE73846FFF7A4F932
:10106000CAE700BFFC06116000071160E4061160CA
:10107000580711600C9701606C99016060960160DF
:1010800070B586B0DDE90B54BDB124B3602605967A
:10109000059E602E18D125630A9D02940095059D3A
:1010A000022584F85D5004AD0195FFF753FF2046FB
:1010B000FFF796FE049806B070BD4FF41271094B0D
:1010C000094A0A4805F048FC40F25121084B064AFB
:1010D000064805F041FC40F24921064B024A03480C
:1010E00005F03AFC409701608899016060960160C4
:1010F0007C970160609701602DE9F043074685B059
:101100009000154688469946FFF7AEF8F0B10446C0
:101110006020FFF7A9F80646A8B10463002486F80A
:101120005D400D9C4B4601940C9C2A464146384636
:1011300002960094FFF70EFF3046FFF751FE0120A4
:1011400005B0BDE8F0832046FFF72EF94FF0FF30E1
:1011500005B0BDE8F08300BF70B50446334D01F023
:1011600089FF002C46D0261D3046FFF73BF8A36AC6
:101170001BB104F11800FFF735F82D4A136801334D
:1011800013602B68A3422CD02A4994F85D200B6889
:10119000013B0B60A2B1012A35D0022A3ED1264B79
:1011A0001A681268BAB94FF0FF32244B1A6001F086
:1011B0006FFF234B1B6813B12B68A3421CD070BD7B
:1011C000206BFFF7F1F82046FFF7EEF81A4B1A688C
:1011D0001268002AE7D01A68184BD26812681A60A1
:1011E000E5E731461748FEF7D7FF174A1368013382
:1011F0001360DCE72C68B6E7144B1B683BB9BDE80D
:10120000704001F02BBF2046FFF7CEF8C7E740F251
:10121000D2410F4B0F4A104805F09EFB40F68A71F1
:101220000E4B0F4A0C4805F097FB00BFBC0711603E
:10123000C8061160E40611602C071160C406116035
:10124000D806116000071160FC061160C00611602D
:10125000989701607C990160609601600C9701602D
:101260006C99016030B5002489B007AA06A905A8C9
:10127000CDE9054404F06CF9DDE905012346CDE92B
:101280000110079A144915480094FFF7F9FE30B190
:1012900000F012FB0128054605D0013515D0104B92
:1012A0001B6809B030BD01F0DDFF4FF0FF300D4984
:1012B0000D4A0E4B086015601C6004F0E7F801F061
:1012C00059FF074B1B6809B030BD40F63601084B8B
:1012D000084A094805F040FBB4970160ED0F016032
:1012E00000001160C4061160D8061160E0061160AC
:1012F000BC9701604C99016060960160024A1368D6
:1013000001331360704700BFC0061160014B1868BD
:10131000704700BFE00611602DE9F04F474B83B0E6
:101320001B68002B4AD1464B1E6801361E60002EFA
:101330004DD0444B0193019B1B689E4261D3424FA9
:101340003B681C68002C6DD00024DFF80081DFF8BA
:1013500000A1DFF8009126E00BF104052846FEF716
:1013600041FFDBF828201AB10BF11800FEF73AFF15
:10137000DBF82C00D8F800202946904288BFC8F836
:10138000000000EB80000AEB8000FEF705FFD9F8B3
:1013900000203868DBF82C10D26A0368914228BF1D
:1013A0000124002B3ED03B68DB68D3F80CB0DBF89F
:1013B00004209642D0D2019B1A6023E000242046EC
:1013C000254A13680133136003B0BDE8F08F1E4B4C
:1013D0001A681268002A2AD1204A18681168196010
:1013E0001F4910600A6801320A601A68126892B9CF
:1013F0004FF0FF33134A01921360019B1B689E421A
:101400009DD20024174B1B68002B18BF01242046D7
:1014100003B0BDE8F08F1B680A4ADB6801921B68C5
:10142000136088E74FF0FF33019A1360EAE740F654
:10143000BC210D4B0D4A0E4805F08EFAC006116016
:10144000E0061160C40611602C071160DC06116013
:1014500058071160BC071160D4061160280711609D
:10146000CC061160D0061160D09701602899016008
:10147000609601602DE9F84F384C2368002B65D049
:1014800001F0F8FD2368013B23602368002B4FD156
:10149000334B1B68002B4BD0324D2B68002B52D0A6
:1014A0004FF0010A304EDFF8C480314FDFF8C490AE
:1014B000EB68D3F80CB00BF104040BF11800FEF745
:1014C00091FE2046FEF78EFE3368DBF82C002146A5
:1014D000984288BF306000EB800008EB8000FEF788
:1014E0005BFE3B68DBF82C20DB6A9A4228BFC9F818
:1014F00000A02B68002BDBD11F4B1A681268EAB1E1
:101500001A681E4BD26812681A601D4E346844B1C6
:101510000125FFF701FF08B1C9F80050013CF8D1DF
:101520003460D9F800301BB101F098FD012400E0CF
:10153000002401F0ADFD2046BDE8F88F4FF0FF32EA
:101540000E4B1A60E1E7DFF82C90DEE740F6A901C8
:101550000C4B0D4A0D4805F0FFF900BFC0061160A5
:10156000E406116014071160DC0611605807116071
:10157000BC071160D00611602C071160C406116011
:10158000D4061160489801603C9901606096016042
:1015900080B108B50C4B196871B91A6801321A602C
:1015A000FFF79EFCFFF766FF18B9BDE8084001F0A1
:1015B00055BD08BD01F052BD40F23F51034B044AF6
:1015C000044805F0C9F900BFC00611609897016092
:1015D00060990160609601601B4B1B681BB1012282
:1015E0001A4B1A607047194A10B5194C13602368DA
:1015F000184903EB830292008A58980042B9E3B17C
:10160000013B03EB830251F822209800002AF6D018
:10161000184401EB800C6146DCF804200831526864
:101620008A42CCF8042008BF5268D16808BFCCF8C1
:101630000420094A1160236010BD40F6F731074BC2
:10164000074A084805F088F9C0061160D006116005
:10165000DC06116058071160BC07116060980160DA
:10166000149901606096016010B558B10C46094BA1
:1016700019681831FEF79EFD2046BDE81040012193
:10168000FFF72EBC40F61141034B044A044805F015
:1016900063F900BFBC07116070980160FC9801609D
:1016A0006096016038B588B114460D460B4B196839
:1016B0001831FEF771FD002C214608BF2846BDE811
:1016C000384018BF4FF0FF30FFF70ABC4FF44461B9
:1016D000034B044A044805F03FF900BFBC07116002
:1016E00070980160DC9801606096016038B5C3684D
:1016F000DC685CB304F118052846FEF773FD174B50
:101700001B6873B129461648FEF746FD154BE26A81
:101710001B68DB6A9A4217D90123134A18461360E3
:1017200038BD251D2846FEF75DFD104AE36A1168A5
:101730000F488B4288BF136003EB8303294600EBFD
:101740008300FEF729FDE1E7002038BD4FF4476133
:10175000084B094A094805F0FFF800BFC0061160B0
:1017600014071160BC071160D0061160DC0611601F
:10177000580711607C980160C09801606096016014
:10178000034A044B12681B68C0E90023704700BF7E
:10179000CC061160E0061160F8B538B30D4661B3B0
:1017A000044601F067FC2B68174A581C116818D0D2
:1017B000D4E900C0154E3768BC4508D0884206D829
:1017C000002301242B6001F063FC2046F8BD0F1AB2
:1017D000BB42F5D95B1A3168126803442B60C4E937
:1017E0000012002401F054FC2046F8BD40F6EB4105
:1017F000074B084A084805F0AFF840F6EC41074BA4
:10180000044A054805F0A8F8E0061160CC0611600E
:101810008C980160A89801606096016098980160BA
:101820000122014B1A607047D0061160054B1B68FE
:1018300033B1054B1868B0FA80F04009400070479A
:1018400001207047D8061160C0061160F0B5124C37
:1018500083B001F00FFC256825B103B0BDE8F0406E
:1018600001F016BC0D4F0E4E3846FEF785FC304693
:10187000FEF782FC0B4A009517600B4A0C2116609C
:101880000A200A4B0A4AFEF789FE20600028E4D0AD
:101890000849FFF767FAE0E788081160A8081160B7
:1018A00094081160900811608C081160C0071160E5
:1018B000080811609C99016030B589B0FFF7C6FF38
:1018C000114B1B68CBB10024032507AA06A905A864
:1018D000CDE9054403F04AFEDDE905012346CDE9E3
:1018E0000110079A09490A480095FFF7C9FB094BFF
:1018F000186010B1012009B030BD40F20D11064B47
:10190000064A074805F028F8880811606C9A0160BB
:10191000191A016084081160749A0160149B0160B7
:10192000C099016030B585B020B3164D04462868D3
:1019300078B10529CDE9011203940CDCFFF776FF9D
:1019400002284FF000030ED01A46286801A9FEF7BE
:10195000EDFE05B030BD9C4601A900236246FEF7AE
:10196000A3FF05B030BD089A286801A9FEF7DEFE86
:1019700005B030BD4FF4C171034B044A044804F074
:10198000EBFF00BF880811607C9A0160B49A016087
:10199000C0990160F0B51B4E83B00DE0DB68DC68D8
:1019A0001F68251D2846FEF71DFC236A2046984720
:1019B00094F824305B0709D433681A68002AEDD103
:1019C000114A11681360316003B0F0BDA3693B4454
:1019D0009F4206D22946306863602461FEF7EAFB25
:1019E000EAE700233A46204619460093FFF79AFF9C
:1019F0000028E1D140F2A931044B054A054804F022
:101A0000ABFF00BF900811608C081160849A0160E0
:101A1000009B0160C09901602DE9F04F864F874E11
:101A2000DFF81C82874C87B03B68D3F800A0BAF17E
:101A3000000F00F09080DB68D3F800A0FFF75EFC99
:101A4000FFF764FC33680546834200F294808245C8
:101A5000306040F2A58000222068AAEB0501FFF764
:101A600097F9FFF707FD002800F08E80002220681C
:101A700003A9FEF7F1FF0028D6D0039B002BF5DB6E
:101A8000059D6B6913B1281DFEF7ACFBFFF73EFC0B
:101A900033688246984274D3039BC6F800A0092B92
:101AA000E4D8DFE803F005050548324F0505483264
:101AB00095F82420049BA96942F00102581885F882
:101AC00024202CBF01220022504568602D615ED881
:101AD000AAEB0303994228D82B6A2846984795F821
:101AE00024305907C2D50023A969049A28460A441C
:101AF00000931946FFF716FF0028B7D140F23631A0
:101B0000514B524A524804F027FF95F82420049B79
:101B100042F0010285F82420AB61002B00F08580A3
:101B2000534453456B602D6135D8D8F80000291D0A
:101B3000FEF740FB9AE795F8243023F0010385F87F
:101B4000243093E795F824309A0741D523F0010318
:101B500085F824308AE7FFF7D1FBFFF7D7FB33681E
:101B60000546984207D3D8F8003035601A68B2FAB3
:101B700082F2520970E7FFF70DFF3560FFF77AFC3C
:101B800074E7FFF707FF87E701F068FA6EE7534550
:101B900001D9002AA0D03868291DFEF70BFB65E7A4
:101BA000FFF768FC3B68DB68D3F80CB00BF1040965
:101BB0004846FEF717FB9BF8243058070CD423F057
:101BC00001038BF824305846DBF8203098474DE766
:101BD0002846FEF7E9FB49E7DBF81820CBF810B000
:101BE0000AEB0203AB42CBF8043004D9494638680B
:101BF000FEF7E0FAE7E7A5EB0A05AA420FD80023B3
:101C00005246194658460093FFF78CFE0028DAD159
:101C10004FF405710C4B0F4A0D4804F09DFE084B24
:101C200049461868FEF7C6FACDE740F24F310A4B35
:101C3000064A074804F090FE900811608008116081
:101C40008C08116088081160849A0160CC9A016048
:101C5000C0990160E89A01608C9A0160704700BFEA
:101C600000BE704708B500F005F803F049FCFEE738
:101C700000BE704770B5002003F01AFD00F040F878
:101C8000012003F015FD1248124A0021121A04F037
:101C900025FF1148114A1249121A04F0A9FE114DEC
:101CA000114B5B1B002B07DD00249E1055F8043BF5
:101CB00001349847A642F9DC00F018F8022003F03E
:101CC000F7FC00F0FBF8BDE870400020FFF7C6BF4E
:101CD000C805116024B6116000001160C4051160D0
:101CE00014AD0160C4051160C4051160024A034BC4
:101CF00052681A60704700BF08001160BC0811608C
:101D000030B433A5D5E900452D4B2E482E492F4A36
:101D1000C3E9004518A5D5E900451865C3E90245A2
:101D200017A5D5E900451160C3E9064516A1D1E91B
:101D3000000117A5D5E90045C3E9040116A1D1E9C1
:101D40000001C3E90A4516A5D5E90045C3E9080124
:101D500015A1D1E90001C3E90E4530BCC3E90C016E
:101D600013A1D1E90001C3E9100113A1D1E90001D8
:101D7000C3E91201704700BF0065CD1DE02E0000D1
:101D800040EFC41F40EFC41F00C2EB0B00E1F5059C
:101D9000A077E20F005ED0B200C2EB0B005ED0B2C3
:101DA00000B4C40400E1F5058026FE0080B2E60E12
:101DB00000E1F50500C2EB0B00E1F5050084D71743
:101DC0000800116000366E0100C2EB0BBC08116008
:101DD000008C864700C2EB0B30B433A5D5E9004533
:101DE0002D4B2E482E492F4AC3E9004518A5D5E9A9
:101DF00000451865C3E9024517A5D5E900451160FE
:101E0000C3E9064516A1D1E9000117A5D5E90045AA
:101E1000C3E9040116A1D1E90001C3E90A4516A5E9
:101E2000D5E90045C3E9080115A1D1E90001C3E9DD
:101E30000E4530BCC3E90C0113A1D1E90001C3E98F
:101E4000100113A1D1E90001C3E91201704700BFDD
:101E50000065CD1DE02E000040EFC41F40EFC41F01
:101E600000C2EB0B00E1F505A077E20F005ED0B2F7
:101E700000C2EB0B005ED0B200B4C40400E1F50573
:101E80008026FE0080B2E60E00E1F50500C2EB0BF5
:101E900000E1F5050084D7170800116000366E01D7
:101EA00000C2EB0BBC081160008C864700C2EB0B34
:101EB000014B53F8200070470800116000BF7047C5
:101EC0000C4A08B50346106840B103330A4923F0B1
:101ED000030303448B4205D8136008BD0749084635
:101EE0001160F2E704F05CFD0C2203464FF0FF3076
:101EF0001A6008BD4410116028B6116028B6116040
:101F00000123F0B40546087C2B4F00F58516021D11
:101F100003FA02F204361204284CB60283406960C8
:101F2000AE6043EA0340FA67FA6FC4F83405D4F8A8
:101F3000B4261342FBD0C4F834082048D0F8B429A2
:101F40001342FBD101204B68CA693076EB603360E5
:101F5000137852781B1AB3FA83F382424FEA531371
:101F6000B1F9122008BF43F00203DBB2002A86F861
:101F7000203017DB487C02F1604303F5614383F8AE
:101F80000003012053090E4C9B0044F8225003F13A
:101F9000604302F01F0203F5614300FA02F2C3F846
:101FA00080211A600020D1E90542064B2C61AA610C
:101FB0002B606861F0BC7047000B014100000141DB
:101FC000C40811604D544700034601229B6800205D
:101FD0001A757047034601229B6800201A767047E5
:101FE0000620704703469A68D96000201160704748
:101FF0000620704703469A680020137CC3F3000351
:102000000B7153680B60704784460020CCE90532A1
:10201000CCF81010704700BF01210346D0E9012021
:10202000B2F91220017612F1210F02D100201860BE
:102030007047002A17DB10B450090E4C02F01F0243
:10204000914000F1200244F82210BFF34F8FBFF3FC
:102050006F8F00205A680849B2F9122010BC41F86D
:102060002230186070470020034941F82230186080
:10207000704700BF00E100E0C40811600346024A57
:1020800000201A60704700BF0100010138B5054605
:10209000EB6810208B600C46FFF70AFF0246AB6826
:1020A000002093F820306260C3F34003237038BDF2
:1020B000062070470620704770B584B0EFF30383A5
:1020C000C3F30803104A103B1BB252F82340636865
:1020D00026691B78012B04BFA268137686B1636959
:1020E00001AD7BB193E8070085E80700A2691846B7
:1020F0001A60B04763691BB195E8070083E80700E1
:1021000004B070BD2B46F1E7C40811602DE9F04121
:1021100003240122C0F3072EAEF10203C0F3850CA5
:10212000264F20400CEB430C5FFA8CFC00FA04F3C2
:1021300004FA03F057F82C409A4024EA0208C1F34D
:1021400080449C401E4E44EA080447F82C4056F850
:102150002C70C1F3812427EA00079C40194D3C43B1
:1021600046F82C4055F82C60C1F3404426EA02069C
:102170009C403443BEF1010F45F82C401BD1D243A3
:10218000C043114CC1F3C045A6689D4032402A436C
:10219000A260D4F80854C1F3015205409A402A4382
:1021A000C4F80824D4F80828C1F38151104099409C
:1021B0000143C4F80818BDE8F08100BF10180341BE
:1021C0001010034110140341002003412DE9F04F8A
:1021D000072401264FF0030EC7B24FEA870887B0E5
:1021E00004FA08F40194C1F3812406FA07FA029470
:1021F000C1F34044050A00EA0E02C0F385035FFA0A
:102200008AFB0394C1F3011402FA0EF203EB4503B7
:102210000494BBF1FF0FC1F3C044E8B2C1F3004C1A
:102220000594C1F30155C1F38154DFF8D490DBB2BA
:102230000EFA02FE06FA02F6C1F3026109D00CFAA8
:1022400007F710F809C02CEA0A0C4CEA070C5FFAF1
:102250008CFC00F809C0DFF8ACB0029FDDF80CC0C0
:10226000DDF8149001FA08F1DDF810800CFA02FC98
:1022700008FA02F809FA02F99740954094405BF891
:102280002320DFF884A022EA0E0217434BF82370C4
:102290005AF823201D4F22EA06024CEA0202DFF818
:1022A00070C04AF823205CF8232022EA0E0248EA94
:1022B00002024CF8232057F8232022EA060249EABA
:1022C000020247F8232007F5806757F82320114EB4
:1022D00022EA0E02154347F8235056F8232022EA3B
:1022E0000E0214430C4A46F8234052F82030019C59
:1022F00023EA0403194342F8201007B0BDE8F08F29
:1023000010020341801003418014034180200341E7
:10231000801C034180280341400403414FF0030C1B
:102320002DE9F04F012400EA0C02C6B202FA0CF2C9
:102330008BB004FA06F894400594740009940CFAE2
:1023400004F4050AC0F385030894A4B2C1F381091B
:1023500003EB4503E8B204945FFA88F5C1F38124E6
:1023600002960395C1F3004E0694C1F34047C1F3B2
:102370000116C1F38035C1F3C044C1F3015BC1F361
:10238000815ACDF8009001F001095FFA88F1FF2928
:10239000DBB2CDF81C800CFA02FCCDF804900CD016
:1023A00002990EFA01F1DFF800E110F80EE02EEAD2
:1023B000080E4EEA010E5FFA8EFE3B49974000F888
:1023C00001E00699964001FA02FE38499540944092
:1023D0000BFA02FB0AFA02FA51F82320DDF8148006
:1023E00022EA0C024EEA0202DFF8C4E041F82320A0
:1023F0005EF823204FF6FF7922EA080217434EF8D1
:10240000237001F5406151F8232022EA0C021643A3
:1024100041F82360274E01F5806156F8232022EA17
:102420000802154346F8235051F8232022EA0802F7
:10243000144341F82340204C01F5006154F8232057
:1024400022EA0C024BEA020244F8232051F823202E
:1024500022EA0C024AEA020241F82320049B174AAE
:102460004B450BD00099099B089C994032F81030DD
:102470009BB223EA04030B439BB20093009B1049D9
:1024800022F81030039BFF2B09D0DDE90132079CB5
:102490009340425C22EA04021343DBB20193019BA6
:1024A00043540BB0BDE8F08F10020341801003418C
:1024B00080140341802C0341802403412001034107
:1024C0001000034170B50546EFF31082012383F33A
:1024D0001088204E33681BB91F490B7540230B75BC
:1024E00033680133336082F310882B88DBB100241A
:1024F00006E0FFF76BFE2A880134A3B29A4212D994
:102500006B68A2B203EBC201486853F83210B0F511
:10251000803F1BD2CB03ECD4FFF700FF01342A88A5
:10252000A3B29A42ECD8EFF31082012383F3108810
:10253000336813B13368013B336033681BB98020C3
:1025400005490B75087582F3108870BDFFF7DEFD35
:10255000D1E700BFC00811600030034108B5034B4C
:1025600003600846FFF7AEFF002008BD54524F50ED
:102570000246086830B520F00204A4F10104B4FA60
:1025800084F400F10073640903F500335B011474F3
:10259000C2E90230CB685160002B40D0181D4FF4C7
:1025A0008035C2E905304FF00113204C2048C4F8B3
:1025B0008850D4F88840C0F82035D0F8A036DB0722
:1025C000FBD54FF001131A4CC0F82038D4F8A009FD
:1025D00010F00100FAD14FF0010CB1F9064091F86A
:1025E00004E004F1604303F5614383F800E3114D17
:1025F00063099B0045F8242003F1604304F01F04A5
:102600000CFA04F403F56143C3F880411C608C6844
:10261000094B0969D461C2E90801136030BD074C58
:1026200004EBC003043404EBC000B8E7000B014125
:1026300000000141C4081160554877000010F062A5
:1026400084460020CCE90832CCF81C10704700BF4B
:1026500042680346B2F90620002A18DB012010B4B4
:1026600051090E4C02F01F02203100FA02F244F828
:102670002120BFF34F8FBFF36F8F00205A680849A6
:10268000B2F9062010BC41F82230186070470020D3
:10269000034941F822301860704700BF00E100E0B4
:1026A000C408116003464FF0012200201A607047F1
:1026B000037C826843B91368002BFCD10123406975
:1026C00001600020536070471369002BFCD1012387
:1026D0004069016000205361704700BFF0B5194B9D
:1026E00000B253F8204085B0237C012B1FD0E3B902
:1026F000A3681A69CAB10122A1690F689A61E669E3
:102700009EB1236A01ADD3B193E8070085E80700C5
:10271000626A18461A60E268C3E90127B047236A73
:102720001BB195E8070083E8070005B0F0BDA2687B
:1027300011680029F9D0A1690F689360DFE72B4683
:10274000E6E700BFC4081160EFF30380C0F30800A0
:10275000103800B2FFF7C2BF10B400240123826911
:10276000D0F81CC00460ACF80440546AB2F90620EA
:1027700034494FEA521C02F01F0203FA02F20CF134
:10278000200C41F82C20BFF34F8FBFF36F8F82696D
:10279000B2F912204FEA521C02F01F0203FA02F2B1
:1027A0000CF1200C41F82C20BFF34F8FBFF36F8F3B
:1027B000B4F902204FEA521C02F01F0203FA02F29F
:1027C0000CF1200C41F82C20BFF34F8FBFF36F8F1B
:1027D0008269B2F90A204FEA521C02F01F0203FA82
:1027E00002F20CF1200C41F82C20BFF34F8FBFF305
:1027F0006F8F8269B2F90E204FEA521C02F01F025D
:1028000003FA02F20CF1200C41F82C20BFF34F8F99
:10281000BFF36F8F81690C4A09788B401804C2F8A6
:102820008405D2F804071840FBD14FF480330131FE
:102830008B406FEA13436FEA0343044A10BC93666C
:10284000936E704700E100E000000141000B014180
:1028500003460020C3E90412704700BF844600B558
:10286000DCF81C300020B3F804E06FF3C71EA3F8B7
:1028700004E0B3F804E06FF3820EA3F804E0CCE9BF
:1028800002129A8842F080029A805DF804FB00BF31
:1028900084460020CCE90A32CCF82410704700BFEF
:1028A0004FF0FF3300200B604B6070470346024A35
:1028B00000201A60704700BF01000101F0B5846A72
:1028C00085B005460F4694466E46B4B194E80F00B5
:1028D00086E80F00AB6920461B7884F804C02360AB
:1028E000EB6AC4E902736B6A9847AC6A1CB196E85C
:1028F0000F0084E80F0005B0F0BD3446EAE700BFE2
:10290000C369DA89D10629D010B504460BE05B070C
:102910001FD463698BB904222046FFF7CFFFE36918
:10292000DA89D20619D01A89997A93B21207C9B2F4
:10293000EDD558070FD41022EEE723691970D4E9BA
:10294000043101330139C4E904310029E7D10122FE
:10295000E2E70822E0E71822DEE710BD704700BF7B
:102960008B0784462AD50020DCF81C20938823F0AE
:1029700084031B041B0C9380CCF80C00938943F058
:102980000403938193895807FCD5002093896FF342
:1029900082039381CA0710D50023DCF81C20CCF8F1
:1029A0001430938943F00203938193899B07FCD5EC
:1029B000002093896FF34103938170470620E9E774
:1029C00010B50024C3699A8892B222F0F4021FFA6B
:1029D00082FCA3F804C08460187D00F04E041C75CE
:1029E00091F801C083F802C091F800C0B3F800E08C
:1029F000CCF3C10C6CF3010EA3F800E091F800C019
:102A00001CF0020F06D091F902C091F802E0BCF16F
:102A1000000F0DDB097842F07002C1F3800001F075
:102A2000010141EAC0112143197500209A8010BDAF
:102A300044F01000187544F0200483F802E0E9E740
:102A40002DE9F0470446002501220878B1F912600B
:102A500000F5801000F597708002E061C869C94BED
:102A60006062086AA161C4E90A50700906F01F0596
:102A7000203002FA05F5D1F824C00F7C43F820502D
:102A8000BFF34F8FBFF36F8F981980F80073B1F9C0
:102A90000650BD4805F01F0740F826406E09203655
:102AA00002FA07F791F804E043F82670BFF34F8F5E
:102AB000BFF36F8F5E1986F800E340F82540BCF93C
:102AC00002509CF800C06E0905F01F07203602FA7C
:102AD00007F743F82670BFF34F8FBFF36F8F5E1970
:102AE00086F800C340F82540B1F90A5091F808C0B3
:102AF0006E0905F01F07203602FA07F743F8267023
:102B0000BFF34F8FBFF36F8F5E1986F800C340F895
:102B10002540B1F90E5091F80CC06E0905F01F0761
:102B2000203602FA07F743F82670BFF34F8FBFF342
:102B30006F8F2B4483F800C340F825400878831832
:102B400002FA03F3824091481B048366836E42EAD3
:102B50000245A0F53060C0F88455D0F804371A4219
:102B6000FBD0C0F884588A48D0F8043A1340FBD10F
:102B7000E2699380908980B240F0060090811089CC
:102B8000486A1381558A53820579002D00F0EE8042
:102B9000012D0BBF4FF0710C4FF0720C012302237B
:102BA00093804B788E78A3F10103B3FA83F35B092A
:102BB000C9789B012EB1032E14BF43F0200343F0CC
:102BC0003003012908BF43F008039BB21380AB1EFA
:102BD000012B00F2AA80A5F10205B5FA85F5FF23C5
:102BE0006D09157593709389A5699BB243F006032F
:102BF00023F4FE636E6A99B29181317B0F1F0E2F11
:102C00007FD8090201F5FA4189B2767BD182062E7E
:102C10009CBF013643EA062323F006039BB293814F
:102C20004179137D00297CD043F004031375012101
:102C30004FF000094FF0030EB5F906A0B5F9128068
:102C40004FEA5A139B000AF01F0A03F1604303F591
:102C5000614301FA0AFAB5F90A60B0F90270B5F9F0
:102C60000E50C4E90399C4F80890A4F820E0C4F811
:102C70001490C3F880A1C3F800A04FEA58139B003A
:102C800008F01F0803F1604301FA08F803F56143F7
:102C9000C3F88081C3F800807B099B0007F01F0701
:102CA00003F1604301FA07F703F56143C3F880714C
:102CB0001F6073099B0006F01F0603F1604301FAD1
:102CC00006F603F56143C3F880611E606B099B0043
:102CD00005F01F0503F1604303F56143A940C3F804
:102CE00080111960A2F804C0037D8BB1938943F071
:102CF00008039381274BA2F810E000202360BDE871
:102D0000F0874F1E022F98BF43EA811300217CE712
:102D10004FF0C30EA4F820E0918963F3C3019181C1
:102D2000E8E761F38203137581E7157D836805F099
:102D30004E07197817755D78C1F3C1019570158834
:102D40003E4661F3010515801978890704D593F98A
:102D500002109D7800290DDB1B78C3F3800103F07E
:102D6000010343EAC113334313753CE74FF0700C82
:102D70002B4615E747F01007177546F020069570AB
:102D8000EAE700BF00E100E0C4081160000B014168
:102D9000000001415546435310B4EFF30383C3F3DE
:102DA00008031E4A103B1BB252F8230083699B693B
:102DB0001BB1C3681BB110BC7047C16871B9002159
:102DC000C4698022A38823F080031B041B0C43F0FA
:102DD0000403A38010BC8160FFF770BD8268C469E2
:102DE00012F8013BA3714B1EC0E90223B4F80EC0D8
:102DF000CCF3042CBCF10F0F0BD81139614443B153
:102E000012F801CB013B8B4284F806C0C0E90223D3
:102E1000F5D122896FF345122281CBE7C4081160F6
:102E200010B5EFF30383C3F30803084A103B1BB24A
:102E300052F823402046FFF763FDE269138923F02F
:102E400002031B041B0C138110BD00BFC4081160DA
:102E500038B5EFF30383C3F30803144A103B1BB2E6
:102E600052F82350EA691489A4B224F041039BB2BA
:102E70001381E20715D4630612D5EC69EA68A388CA
:102E80009BB252B123F004039BB22846A3800222D6
:102E9000BDE838400021FFF711BD23F08403F3E7BC
:102EA00038BD2846FFF72CFDE5E700BFC4081160D8
:102EB000EFF30383C3F30803074A103B1BB252F836
:102EC0002330DA6911898BB2090644BF23F08003ED
:102ED0009BB21381704700BFC4081160EFF30383F6
:102EE000C3F30803164A103B1BB252F82300C16912
:102EF0000A894B8A1FFA82FCD2069BB203D4DA07F6
:102F00001AD5202206E0DA072CF0100C0BD560222F
:102F10001FFA8CFC23F001039BB2A1F808C04B827E
:102F20000021FFF7CBBC1FFA8CFCA1F808C040229F
:102F30004B820021FFF7C2BCA1F808C04B8270474A
:102F4000C408116010B500F08DF90446FEF7E4F9ED
:102F500028B14FF0E0234FF08052C3F8042D2046F3
:102F6000BDE8104000F08AB908B54FF41E71024B5D
:102F7000024A034803F0F0FCA89B0160909C0160AA
:102F8000C49B0160002200B5074B83B001921B680F
:102F9000013307D100F066F9019B002BFCD003B090
:102FA0005DF804FBFFF7E0FF5C00116030B5A1B0F5
:102FB0006C46264A264DD2F81C3B43F00103C2F86A
:102FC0001C3B0FCD0FC40FCD0FC40FCD0FC495E820
:102FD0000F0084E80F004022FF210DEB020003F0F8
:102FE0007DFD6FF480331B4C11930DF1400CBCE858
:102FF0000F000FC4BCE80F000FC4BCE80F000FC4E3
:103000009CE80F0084E80F00BFF34F8F124A13694A
:1030100043F00403136113695B07FCD530BFBFF3B2
:103020006F8FEC460A4CBCE80F000FC4BCE80F00E1
:103030000FC4BCE80F000FC49CE80F0084E80F0029
:1030400062B6BFF36F8F72B621B030BD000202418D
:1030500000E100E080E100E000ED00E04FF0E0235F
:103060004FF08052C3F8042DBFF34F8FBFF36F8F23
:10307000704700BF08B500F0F5F8044A1368013343
:103080001360BFF34F8FBFF36F8F08BD5C001160FB
:1030900008B50A4B1A684AB11A68013A1A601868EA
:1030A00000B108BDBDE8084000F0E8B84FF4467133
:1030B000034B044A044803F04FFC00BF5C0011605E
:1030C000649C0160B89C0160C49B016008B5836981
:1030D00013F8023C022B03D1BDE8084000F090B881
:1030E00040F2AB31024B034A034803F035FC00BF0A
:1030F000789C0160A49C0160C49B01602DE9F04FA5
:103100004FF0113E4FF0807440E909E34FF0073370
:1031100040F8044C164C40F8343C40E903424FF070
:1031200005334FF006324FF0123B40E90F324FF0BB
:10313000033A4FF002394FF001384FF010374FF09B
:1031400009364FF008354FF004346FF0430340E97F
:1031500005AB40E9078940E90B6740F8305C40F86F
:10316000404C40F8443C40F8481DBDE8F08F00BF9B
:10317000852F01604FF0E02330B50024D3F81C2DDB
:1031800083B022F07F42C3F81C2DD3F8202D114DBF
:1031900042F47F02C3F8202DD3F8202D42F07F4265
:1031A000C3F8202D02F056F920462C6000F066F896
:1031B00000F046F8FEF710FA01942B68013307D1AE
:1031C00000F050F8019B002BFCD0002003B030BD74
:1031D000FFF7CAFE5C00116008B572B6FEF78EF804
:1031E000FFF7E4FE62B6BDE80840FEF743B900BF52
:1031F000704700BF00000000000000000000000059
:103200000B4A1168086806C881F30B88022181F314
:103210001488203080F30988BFF36F8F4FF00000CF
:1032200080F31188104700BFAFF30080AFF3008038
:10323000BC0711600000000000000000000000005A
:1032400007480068006880F3088862B661B6BFF37B
:103250004F8FBFF36F8F02DF00BF00BFAFF300805F
:1032600008ED00E0EFF311804FF0010181F31188C8
:10327000BFF34F8FBFF36F8F704700BF80F311888C
:10328000BFF34F8FBFF36F8F704700BF0000000088
:10329000EFF30980EFF30B82734620E9FC0F104A2D
:1032A000116808604FF0010080F31188BFF34F8F61
:1032B000BFF36F8FFEF790F94FF0000080F3118895
:1032C000074A11680868B0E8FC0F82F30B8880F3A6
:1032D00009881847AFF30080AFF30080AFF3008098
:1032E000BC071160000000000000000000000000AA
:1032F0001EF0040F0CBFEFF30880EFF309800449C0
:10330000084700BFAFF30080AFF30080AFF3008049
:10331000CD300160F8B50D4D55F8184FAC420CD0CA
:103320000E461746314654F83C0C03F0A5FFA4F1B5
:103330003C0328B12468AC42F4D16FF01200F8BD10
:1033400018463B60BDE8F84000F016BA48B011607E
:10335000F8B5DDE906649C42174606D006EB460246
:1033600019462046920003F043FB002E17DD00258E
:1033700006E0A16854F80C0B00F06AFCAE420ED0D7
:10338000022F05F10105F4D1A168206800F05EFC70
:10339000A16854F80C0B00F05BFCAE42F0D1304653
:1033A000F8BD00BFF8B5069D002D0EDD1E460024B9
:1033B00005EB450503F1080757F8241056F82400DB
:1033C000033400F045FCA542F6D1F8BD002835D005
:1033D0002DE9F041076804466FB397F9003053B305
:1033E000184D2E4656F8088FB0450DD0394658F87E
:1033F000240C03F041FF18B96FF01000BDE8F08114
:10340000D8F80080B045F1D104F11C03E3612362D8
:10341000EB6804F12402A3626662EA601A602B780A
:10342000062B05D96B681BB13A4607200649984719
:103430000020BDE8F0816FF01500DFE76FF01500A8
:10344000704700BF48B01160CC9C016068B32DE9A3
:10345000F04190F90030044623B30E4611B391F9C0
:103460000030FBB11746EAB1DFF84C8058F8085F2E
:10347000454513D0214655F8240C03F0FDFEA5F177
:10348000240340B99C689CB13A463146184623460D
:10349000BDE8F04118472D684545EBD16FF00100BC
:1034A000BDE8F0816FF01500FAE76FF01500704786
:1034B0006FF01200F4E700BF48B0116030B1014670
:1034C000406818B1C36803B118477047542110B55C
:1034D000024B034A034803F03FFA00BFE09C01603F
:1034E000949D0160F89C01600368ABB193F90030D2
:1034F00093B18368012B0FD8094B10B4094CDA69DA
:1035000000F13C01446003F11804C0E90F42D961A5
:10351000002010BC116070476FF01500704700BFAD
:1035200048B011606000116038B50F4C0546A4F139
:10353000180320220021184603F0D0FA0346286819
:10354000A4F1100158602879A4F1080204F8180CBD
:10355000C3E902112846C3E904229C61DC61BDE88D
:10356000384000F013B900BF60B0116070B5056855
:1035700084686E1C82B00ED0A14211D805EB010CFC
:103580005D18A54288BF631A046A6CB100930523D5
:10359000A04702B070BD8C4202D34FF0000CEFE7A1
:1035A0006FF0210002B070BDBFF35B8F83B14CEAB6
:1035B000020111F0030F194602D10CE080070AD076
:1035C0001CF8010B013902F8010B42EA0C00F5D19D
:1035D000184602B070BD0329D8BF104618DDA1F10E
:1035E000040E4FEA9E0E0EF101008600ACF10404B9
:1035F00002EB800054F8045F42F8045B8242F9D188
:10360000CEEB8E7E01EB8E0EBEF10401B444DFD012
:103610000CF1FF3C01441CF8012F00F8012B8842FB
:10362000F9D11846D5E700BF70B5056884686E1CEF
:1036300082B00ED0A14228D805EB010C5D18A5423E
:1036400088BF631A446A4CB100930523A04702B0B7
:1036500070BD8C4219D34FF0000CEFE783B14CEAF8
:10366000020111F0030F194602D112E0800710D0B9
:1036700012F8010B01390CF8010B4CEA0200F5D1EC
:10368000BFF35B8F184602B070BD6FF0210002B02F
:1036900070BD0329D8BF604614DD0D1FAD08681C3E
:1036A0008600A2F1040E0CEB80005EF8044F4CF88B
:1036B000044B8445F9D1C5EB857501EB8505291FC0
:1036C0003244DDD0013A014412F8014F00F8014BB9
:1036D0008842F9D1BFF35B8F1846D4E730B5046850
:1036E0009646621C1D4683B0836810D0994227D845
:1036F00004EB010C6A18846A9A4288BF5D1A5CB1B7
:10370000724605230095A047284603B030BD8B4282
:1037100016D34FF0000CEDE70EEB0E2303EB034343
:103720005DB11CF0030F2A4603D11DE01CF0030F0E
:103730000AD0013A0CF801EBF8D1BFF35B8FE3E755
:103740006FF0210003B030BD032A06DD043A032ADE
:103750004CF8043BFAD8002AEFD07146604603F0DB
:10376000BDF9BFF35B8FCFE7032DEFDCF5E700BFBB
:103770000EB403B0704700BF08B5836823B1436936
:103780000C300BB100F00AF8002008BD08B5024863
:10379000FFF71CFE002008BD60001160F8B58768C7
:1037A000CFB1C368044637FA03F218BF01274FF0C0
:1037B0000005066818BF9F406368304653F825101F
:1037C0003A46636900F046FAD4E902320135D34043
:1037D000AB423E44F0D2F8BD2DE9F04F061E85B055
:1037E000C0F2D4801F46002B00F0C180894600291A
:1037F00000F0BD8090464FF001037B4DD5E8CF4FE0
:10380000C5E8C23F002AF9D1E4B2002CF6D1DFF8B6
:10381000DCA155F8084C544504D192E0206850458D
:103820002CD0044654F80C3CA4F10C0BB342F5D157
:10383000DBF80400A4F10802904203D18CE0006898
:1038400090421BD050F8081CB942F8D1B8F1000FD3
:1038500003D050F8043C4345F1D1654B1A78022A55
:1038600006D95C6824B133460320624A6249A04706
:103870000023C5E88F3F6FF015003FE01420FCF7F0
:10388000F3FC0346002800F0A1800C2CC0E901786D
:10389000C0F8009003D0DBF80020B24231D01420F1
:1038A0000393FCF7E1FC039B044600287DD002460D
:1038B00003F10C0142F8046B42601A61DA60816026
:1038C0001B690C34196000F0BFF9DAF80430C4F851
:1038D00000A06360CAF804401C6000F0B3F9444BD8
:1038E0001A78062A06D95C6824B133460720414A73
:1038F0004249A0470023C5E88F3F184605B0BDE800
:10390000F08F039300F0A0F9DBF80820039B0BF184
:1039100004011A6103F10C02D960CBF808201B697D
:103920001A6000F08FF9324B1A78062AE2D95C68E7
:10393000002CDFD0334607202E4A31490097A0479C
:10394000D8E71420FCF790FC034600283ED0C3E9DA
:103950000097C3F80880A2E71420FCF785FC034613
:10396000002833D0C3E90178C3F8009093E7204BD7
:103970001A78022A7FF67FAF5C68002C3FF47BAF99
:10398000334603201B4A1F49A04774E7184B1A7897
:10399000022A7FF670AF5C68002C3FF46CAF3346B0
:1039A0000320144A1849A04765E7114B1A78022AE8
:1039B00006D95C6824B1334603200E4A1349A04758
:1039C0000023C5E88F3F6FF00B0097E7084B1A788C
:1039D000022AF5D95C68002CF2D033460320054A50
:1039E0000B490097A047EBE7940011608C00116031
:1039F00048B01160909F0160FC9D0160AC9E016029
:103A0000649E0160DC9D0160B09D0160889E016044
:103A1000349E01602DE9F04F9B46031E87B0C0F233
:103A2000C880884691464FF00101694ED6E8CF2FF5
:103A3000C6E8C01F0028F9D1D2B2002AF6D16549E4
:103A400056F8084C8C4203D12BE024688C4228D0D5
:103A500054F80C2CA4F10C079A42F6D15E4A127865
:103A6000062A2AD95C494D683DB35C4A07205C4967
:103A7000A8477D68584BA4F1080AAA451A7821D1B5
:103A8000062A06D9544B5B681BB10720534A554997
:103A900098470023C6E88F3F6FF0010007B0BDE8EC
:103AA000F08F4D4B1A78062AF3D95B68002BF0D0C3
:103AB00007204A4A4C499847EBE77D68A4F1080A79
:103AC0005545E6D000230594CDE90337444606E08A
:103AD00055F80C3CA34206D02D68554538D0A5F1C9
:103AE0000C07002CF4D1BBF1000F02D07B685B45C2
:103AF000F2D1B9F1000F02D0BB684B45ECD1062AD8
:103B00000ED9354BD3F80480B8F1000F08D0BA684D
:103B10003B6801927A680720009234492F4AC047D7
:103B2000039BD5F804800133039300F08DF8D5E9A9
:103B3000002353601A602D606D60454600F082F8E6
:103B40003846FCF731FC2D68234B55451A78C6D111
:103B5000DDE90474039B002B92D07B689D420FD05B
:103B6000062A06D91C4B5B681BB107201B4A20495B
:103B700098470023C6E88F3F184607B0BDE8F08F8E
:103B8000062A06D9144B5B681BB10720134A194952
:103B9000984700F059F8D4E9002353601A60246074
:103BA000646000F04FF83846FCF7FEFB0A4B1A78C9
:103BB000D6E7094A1178022902D86FF015006DE79F
:103BC0005468002CF9D00320044A0B49A047F4E7BD
:103BD000940011608C00116048B01160789F016002
:103BE000C89E0160049F01605C9F0160DC9E0160D3
:103BF0004C9F01601C9F0160B09D0160012240F359
:103C0000CC0323F0604323F0030300F01F0003F113
:103C10006043824003F56143C3F880211A60704716
:103C2000012200B20649430900F01F008240203300
:103C300041F82320BFF34F8FBFF36F8F704700BF52
:103C400000E100E0FFF71ABBFFF70CBB704700BFB5
:103C5000704700BF704700BF436A1B6A184700BF28
:103C60008446F8B50C465CF8101F61452AD005461D
:103C7000A1F1300034B3174603460A46DE6A3368C2
:103C8000D6F808E0E31A734516D2DEB1C36A1A68A3
:103C90009868A21A824209D23A462146284600F084
:103CA000AFFC10B9C5E90147EE60F8BD09688C4565
:103CB0000BD0A1F13000E9E71268624502D0A2F111
:103CC0003003DBE76FF01500F8BD0023E4E700BF29
:103CD00070B504460D46164670B13822002102F038
:103CE000FDFE224600211032C4E8AF1F04F1180384
:103CF00022616261A361E3613246294620462B6856
:103D0000BDE87040184700BFE8B138B54FF0010278
:103D10000446D4E8CF3FC4E8C12F0029F9D1DBB273
:103D2000002BF6D1256B2DB16FF00F000023C4E8F6
:103D30008F3F38BD636A20465B689847284600235A
:103D4000C4E88F3F38BD6FF01500704750F8103F42
:103D500083421AD04A1C18D053F82C2CA3F1300CF3
:103D600091420FD300B5DCF808E0724491420ED9BD
:103D70001B6883420FD053F82C2CA3F1300C9142D6
:103D8000F6D3F0E71B688342E6D100207047DCF8E9
:103D90002C005DF804FB0020FBE700BF002800F0CA
:103DA000B6802DE9F0430E461746984685B00029A7
:103DB00000F0A2800D680295002A56D03B68864626
:103DC0005EF8104F0393A64525D008EB05096A1C41
:103DD000A4F1300C33D15D1C1DD0DCF8005008EB91
:103DE00003019D4210D8DCF808202A448A4280F062
:103DF00088802468A6450ED054F8305CA4F1300CBD
:103E00009D4208EB0301EED92468A64503D05D1C52
:103E1000A4F1300CE1D1436A9C684CB30D9B0C9A21
:103E200001930092434603AA02A9A0470EB1029B48
:103E300033600FB1039B3B6005B0BDE8F083DCF855
:103E40000420AA420DD8DCF808101144494511D2CB
:103E500024687445DFD054F82C2CA4F1300CAA420D
:103E6000F1D92468A645B2D1D5E74FF0FF33A6E7D4
:103E70000020DBE7DCF800302B449B1A03930D9BFA
:103E80001BB1DCF82C300D9A1360DCF82C20D2F832
:103E900010805468B8F1FF3F08BF2368D2F80CC007
:103EA0000CBFEB1A05EA080308F1010908E054F811
:103EB0002E100844854214D091684B448B4218D28E
:103EC000BCF11F0F8CBF4FF0000E23FA0CFE08EA66
:103ED000030014B191688B42E9D94FF0FF3085425D
:103EE000EAD11068411CC3D092689A42C0D31844EA
:103EF0009CE74FF0FF33F4E752B14FF0FF350295E6
:103F00005CE7DCF8042013445D1B0295B7E77047BB
:103F1000104691E74B1C00B52ED0531C08BF202241
:103F20008A4200F1200E42D908464B090EEB83036A
:103F300001F01F0C1B6823FA0CF3DB0706D40EE01C
:103F40005EF8213023FA0CF3DB070BD501309042E9
:103F50004FEA501100F01F0CF2D3904216D04109E5
:103F600000F01F0C01225EF8213002FA0CF213431C
:103F70004EF821305DF804FB511C0BD000F1200EEF
:103F800022B14FF0000C73466046D3E74FF0FF308C
:103F90005DF804FB036A00F1200ED84310F0010025
:103FA00008BF2022D2D0002001468446DAE7084626
:103FB000D3E700BF2DE9F04F89B0002800F09A80C8
:103FC0009846044617464FF00103D4E8CF2FC4E8C3
:103FD000C03F0028F9D1D2B2002AF6D165680A465E
:103FE00028460321D4F80CA000F062FB002871D011
:103FF000264605EB000B56F8185FDBF80810B542B3
:1040000003D10CE02D68B54209D055F8303C8B4205
:10401000F8D1A5F1300A504609B0BDE8F08F3C4A0E
:10402000534638460192CDF808805A46009400F075
:10403000B5F9E36900F13007C0E90C63E761436B50
:1040400082461F609BF81990A0F11806B9F1000F85
:1040500049D00025CDE904760CE00799424600914D
:1040600050462946CDE9016700F040FA18BB0135FA
:10407000A94538D005EB85030BEB8303DA69D3F848
:10408000288006925E6A1F6A07AB019300230093A3
:104090007B1EF21C03EB061303EB42037A42134030
:1040A00003EBC60306330021204606AAFFF776FE7F
:1040B00003460028D1D1DDE90476BAF1000F20D003
:1040C000D6E9122306F1180053601A60B764F7644A
:1040D00000F0ECF90023C4E88F3F4FF0000A50468F
:1040E00009B0BDE8F08F0023C4E88F3F504609B007
:1040F000BDE8F08F40F27131064B074A074802F0E5
:104100002BFC40F2B131064B064A044802F024FC75
:10411000593C016094A30160C0A3016074A00160D8
:104120009CA30160A4A3016010B561B10846D1E968
:104130000C4100F1300261600C6002634263BDE833
:10414000104000F0B3B940F2B131024B024A0348CB
:1041500002F002FC9CA30160A4A3016074A00160B2
:1041600070B5054655F8184FAC420CD00E4602E02B
:104170002468AC4207D03146A4F1300000F0CEF9FB
:104180000028F5D070BD002070BD00BF0020704732
:10419000704700BF02680389916A99420BD3D16AC4
:1041A00003EB4303A2F1180001EBC30109690369A2
:1041B00052F8180C1847332110B5024B024A034835
:1041C00002F0CAFBDCA3016068A50160F8A30160EE
:1041D00008B54FF48971024B024A034802F0BCFB58
:1041E0007892016058A50160A8A4016008B5F0218B
:1041F000024B034A034802F0AFFB00BF7892016014
:1042000048A50160A8A40160704700BF38B550E917
:1042100004342268A0680C33991A8142A5690BD234
:10422000013219D02DB1042305222046A84738BDFC
:10423000531ED3E8AF0F38BD511C01D0431C07D02B
:1042400065B10423052220464FF0FF31A847EEE771
:10425000002DEDD00146E6E7002DE4D1FFF7C6FFC3
:1042600038B550E904342268A0681833991A81429D
:10427000A5690DD2013217D035B1012305222046A0
:10428000A847C0B238BD531ED3E88F0FC0B238BDA7
:10429000511C01D0431C03D045B14FF0FF31ECE776
:1042A000002DF0D00146E8E7002DE6D1FFF79EFF94
:1042B000F0B5044650F80C0C54F8103C0568D0F8E2
:1042C00008C018330A46591B6145C66983B0A4F17A
:1042D000180714D201351FD076B105230125CDE989
:1042E00000350023B0473B69216854F8180C03B02F
:1042F000BDE8F04018476B1EC3E88F2FF3E76B1C37
:1043000002D0BCF1FF3F03D046B14FF0FF31E4E7EC
:10431000002EF0D06146E0E7002EDED1FFF758FF17
:10432000836903B170474021FFF7C2BFF0B504466F
:1043300050F80C0C54F8103C0568D0F808C00C3349
:104340000A46591B6145C66983B0A4F1180714D207
:1043500001351FD076B105230425CDE900350023B2
:10436000B0473B69216854F8180C03B0BDE8F04031
:1043700018476B1EC3E8AF2FF3E76B1C02D0BCF1EC
:10438000FF3F03D046B14FF0FF31E4E7002EF0D0FD
:104390006146E0E7002EDED1FFF71AFF2DE9F04F6E
:1043A000824685B0502091469846577E0291FBF791
:1043B0005BFF0190002855D0044607EB4700C00082
:1043C000FBF752FF8346002849D0002550220021E8
:1043D000204602F083FBCBF80050CBF80450CBF81A
:1043E0000850CBF80C50CBF81050CBF81450002FDD
:1043F00041D053465E46BA46CDF80C801F4611E0C8
:104400005A6A013507324FEAC2084046FBF72CFFD3
:104410000446B0B10021424602F060FBAA4546F8CE
:10442000184B23D005EB850309EB8303002FE7D05E
:104430004FF038084046FBF717FF013504460028C7
:10444000E8D1574605465BF824000135063408B12B
:10445000FBF7AAFFAF42F6D15846FBF7A5FF01983C
:10446000FBF7A2FF002005B0BDE8F08F3B465746A2
:104470009A46DDF80C80019A0F9B029913610E9BFE
:10448000916113601099084B02F11800C2F844B012
:10449000C2F80890C2F80C80C2F830A051631764CB
:1044A000936305B0BDE8F08F88A50160D8B1826A3A
:1044B00070B50546A0F11806B2B10024C16A04EB3C
:1044C000440351F83300013418B1FBF76DFFD5E90F
:1044D0000A21A242F3D80846FBF766FF3046BDE842
:1044E0007040FBF761BF7047C16AF4E7D0F828C09D
:1044F0008C450FD9C06A01EB410100EBC1014B6053
:10450000019BDDF800C08B81029B0020C1E9042CD7
:104510008B6070476FF00100704700BFF0B1F8B5D5
:10452000036806468B420D4616D0876AA7B1002461
:1045300001E0A74210D0F36A04EB440203EBC2018E
:1045400009690134A94201D0691CF2D153F8320043
:1045500000F018FFA742EED10020F8BD6FF0150063
:10456000704700BF4B68013306D08B68002B0CBF2F
:104570006FF00A00002070476FF00A00704700BF1C
:104580006FF00A00704700BFC9B14B69A3B930B5DD
:1045900085B00D698A6801934C68CB6803920095D9
:1045A00002AA03A90294FFF7F9FB00280CBF6FF0E1
:1045B0000100002005B030BD6FF0060070476FF0BD
:1045C00009007047F8B50D46896806464A1CFFF792
:1045D000A1FC6F7E421C18BFA8607FB1002404EBD1
:1045E000840305EB8303996A30464A1CFFF792FC6B
:1045F0000134431C18BFA860A742F0D10020F8BDC9
:104600000F2A4FD92DE9F0411E460B680C46012BAD
:1046100042D1D1F804C00CF10403B2EB830F37D3BD
:104620008B68002B3BD1CD68002D38D1BCF1000F39
:104630001BD080461D4F2B1D54F82300211826B196
:104640003368B268CB1A934222D22358052B0FD875
:10465000404657F82330984710F10B0F00D028B987
:10466000D4F804C00135AC45E5D80020BDE8F081A0
:10467000803BB3F5C07FF5D8B8F1000FF2D0D8F881
:104680002430DB68002BEDD040464A689847E3E7CA
:104690006FF00400BDE8F0816FF00500E6E76FF011
:1046A0000600E3E76FF00400704700BF9800116058
:1046B00038B5D0B144688446ACB14FF0000E7346B3
:1046C00002E00133A3420ED0181D5CF820005CF814
:1046D00000508D42F5D172450EF1010504D0013331
:1046E000A342AE46F0D1002038BDD221024B034A8E
:1046F000034802F031F900BFACA5016064A6016077
:10470000B4A50160F8B1436A00B55A1C11D0032B5F
:104710000FDC4FF0010C026A4FEA531E483252F888
:104720002E1003F01F030CFA03F321EA030142F8F1
:104730002E1000F13403D0E90D124A60116043637A
:1047400083635DF804FB704770B4DDE9035660B124
:10475000006A50B14BB1B2F1FF3F06D0046E24B1F4
:10476000A446CDE9035670BC6047014870BC704751
:104770002DF8FFFF30B504468DB0656A0B912022FD
:10478000214602A80A9502F091FE206A68B1046EE3
:104790005CB101222946282502ABCDE90052352221
:1047A000A04700EAE0700DB030BD0148FBE700BF54
:1047B0002DF8FFFF2DE9F843046884422AD0814692
:1047C0000F4616469846721CA4F1340526D16B6A32
:1047D000013302D1AB6A434516D0C7B12846202227
:1047E000394602F027FE90B9B8F1FF3F02D0AB6A1C
:1047F000434509D0731C17D024684C45A4F13405F7
:1048000008D06B6A9E42E9D12846BDE8F883246847
:104810004C45D8D100252846BDE8F8836B6AB342E1
:10482000DBD12846BDE8F883AB6A0133ECD02468BD
:104830004C45EFD0A4F13405C9E700BF0346D3F8D7
:1048400004C001F13402C1F838C00B624B635A60F6
:104850008B6B00201A6070472DE9F04200287CD055
:104860000E46994611460746012306F158054FF0BA
:10487000010CD5E8CF4FC5E8C0CF0028F9D1E4B28C
:10488000002CF4D1B9F1FF3F50D0B9F1030F06F17C
:10489000480260DC4FEA591052F8204009F01F0C22
:1048A00024FA0CFE1EF0010F08D00024002206F1AD
:1048B0005803C3E88F2F2046BDE8F08203FA0CF3BB
:1048C000234342F820302022384602F0EFFD069ABA
:1048D00007F13403BA62079AC7F82490FA62089A7B
:1048E0003E623A637268C7E90D627360BA6B136027
:1048F000069B0133D9D1002206F15803C3E88F2F5C
:1049000011463846FFF736FF4FF001020446D5E85E
:10491000CF3FC5E8C12F0029F9D1DBB2002BF6D17A
:10492000002CC3D03846FFF7EDFEBFE7B06CC343A1
:1049300013F001030DD10133042B20FA03F2C2D08E
:10494000D207F8D40122994602FA03F30343B36471
:10495000B9E7A146FAE7024CA8E7014CABE700BF74
:104960002DF8FFFF00B338B5D0E90853352B0446C6
:1049700016D14FF0010105F15802D2E8CF3FC2E84D
:10498000CC1FBCF1000FF8D1DBB2002BF5D12046D3
:10499000FFF7B8FE002205F15803C3E88F2F38BD9A
:1049A0000121FFF7E7FEE4E7704700BF704700BF53
:1049B00038B5446E0D46A4699CB1012C02D0002488
:1049C000204638BD1346806E0A46194600F030FC7A
:1049D0000446002CF3D020462968FFF739F9204619
:1049E00038BD806E00F0D6FB0446F2E74FF00102BE
:1049F0002DE9F041036886B05F6A07F15804D4E8F6
:104A0000CF3FC4E8C12F0029F9D1DBB2002BF6D18A
:104A100038460DF10A0203A9FFF7CAFF0646002235
:104A200007F15803C3E88F2F002846D04FF0010547
:104A3000D4E8CF1FC4E8C35F002BF9D1C9B2002965
:104A4000F6D14FF0FF3338467268FFF7B3FE00230C
:104A5000C4E88F3F002830D0836AC16B013304BFA4
:104A600033688362B289436A0091D0F82C8006F1E2
:104A70001001C04720BBD4E8CF3FC4E8C25F002A82
:104A8000F9D1DBB2002BF6D17B6EDDF80CC09A6950
:104A9000BDF80A10AAB1012A03D16246B86E00F02F
:104AA0001BFC38460DF10A0203A9FFF781FF0646F9
:104AB0000023C4E88F3F0028BAD106B0BDE8F081DA
:104AC000FEE7B86E0123009604A9CDE9046C00F05E
:104AD000E9FAE6E72DE9F041076A282A064688B098
:104AE000386F31D10D4601688368691A994228BF31
:104AF0004FF0FF316A462023FEF738FD4FF0010EDC
:104B0000D5F8208007F1580CDCE8CF2FCCE8C4EFB3
:104B1000002CF9D1D2B2002AF6D143464FF0FF3231
:104B200069463846FFF746FE6B6ADB0710D590B141
:104B30004FF0FF338362002207F15803C3E88F2F41
:104B4000036B0BB130469847002008B0BDE8F081F8
:104B500050B1C0F82880002207F15803C3E88F2F16
:104B6000002008B0BDE8F081002207F15803C3E837
:104B70008F2FFB6D002BE7D0424669463846984799
:104B8000E2E700BF426803468A4208D3D3F808C070
:104B90000068ACEB020C521A60445A607047002067
:104BA000704700BF2DE9F04F0646406E9246026AFC
:104BB0008DB012689B46DDE9167903919047430753
:104BC00040F1C68040F2DC52B9F1000F18BF9146A7
:104BD0004FF0010506F15804D4E8CF2FC4E8C15FB7
:104BE0000029F9D1D2B2002AF6D1726E92696AB167
:104BF000012A35D00023C4E88F3FB9F1000F4ED011
:104C00000A20FCF7C5FC09F1FF39E5E7B7F5F87FA5
:104C1000F0DCF06E0DF1120205A900F0BBFA80463F
:104C2000002854D0002206F15803C3E88F2F039BBD
:104C3000356F089300232968AA68A8EB0101914207
:104C400028BF4FF0FF310A932846102308AACDF859
:104C500024A0ADF82C70FEF7E7FC102824D0FEE766
:104C6000F06E00F07BFBA0F1100222EAE272BA4281
:104C7000C0DB726E9269002ACBD0012ABAD1F06EE5
:104C800005AA0DF1120100F0D3FA80460023C4E812
:104C90008F3FB8F1000FCAD1B9F1000FB0D12D4F3D
:104CA00038460DB0BDE8F08FD5F800C0AB6808F10C
:104CB0001001A1EB0C01994228BF4FF0FF315A4679
:104CC00028463B46FEF7B0FC874211D0FEE7F26E65
:104CD000128D002A8ED04FF40071706FFFF752FFD3
:104CE0004FF40072059200228046ADF81220CDE705
:104CF0004FF00102D4E8CF3FC4E8C12F0029F9D119
:104D0000DBB2002BF6D1736E05989A69BDF81210CC
:104D10008AB1012A08D0F06E00F0FCFA002206F1F8
:104D20005803C3E88F2FBBE70246F06E00F0D4FAB9
:104D30000028F0D0FEE7CDF8008007900123F06E48
:104D400006A9CDF8188000F0ADF90028F2D1E2E70D
:104D5000014FA5E72EF8FFFF2CF8FFFF2DE9F041EA
:104D60000D4688B017460021642204461E46DDF831
:104D7000388001F0B3FE002204F15803C3E8AF2FDE
:104D8000694BE765AF6965666C622366002F57D192
:104D9000B8F1000F00F09E80D8F80830002B4BD0FF
:104DA000EB6A624AC4F8748002921A689B69C4E98B
:104DB0001A235F4B03935F4B04935F4B059304AB44
:104DC0002667022200930021284602AB00F0CEF8AD
:104DD000002832D1EB6A1A689B69D662DE62002F26
:104DE0005ED14FF40072A36E07925B89DBB963E07A
:104DF0003168D6F808C0691A4FF400730022614583
:104E000028BF4FF0FF3130460695FEF767FCA06ED5
:104E10000123002206A9009500F044F968B9A36EA9
:104E20005B89BB4248D94FF400714046FFF7AAFEA8
:104E3000013705460028DBD1404808B0BDE8F081C5
:104E4000012FBCD13A4AEB6A0292384A28460392B3
:104E5000394A0492374A05929A691B68A266C4E9E6
:104E60001B3607E0606E0021036A5B689847FEF717
:104E7000F5F8606E036A1B68984710F04001F1D1A5
:104E80004007F4D504AB00930222606E02AB00F041
:104E90006DF80028D1D1EB6A1A689B69D662DE6290
:104EA000606E6460036A9B6824609847C30727D4D8
:104EB000002008B0BDE8F081606E6460036A9B6802
:104EC00024609847C20707D4606E0421036A5B68B8
:104ED0009847EDE71A48B0E704F108032022184686
:104EE000184902F0E3FA0025034635221648194610
:104EF0006063C4E90B222046A563FFF79FFCE3E74C
:104F000004F10805202228460E4902F0CFFA352385
:104F100000220D4829466063C4E90B332046A26392
:104F2000FFF78CFCC4E700BFA54B016070A60160D1
:104F300078A60160ED490160AD4901602EF8FFFFE0
:104F40002DF8FFFF80A60160D54A016010B5044628
:104F50000068844205D03438FFF704FD2068A04281
:104F6000F9D10023A366E36610BD00BF2DE9F04F21
:104F7000816A87B09142059250D3002A4AD0A3F1AA
:104F80000408109B05460024A3F1040902E0059BD8
:104F9000A3423FD0EB6A04EB4407AA69049303EBF6
:104FA000C70303F1040AF2B9D3F808C0B3F80CE060
:104FB000586959680CF1FF3303EB0E130EF1030B24
:104FC000CCF1000C066803EB4B0303EA0C03D0F8AA
:104FD00008C003EBCE03891B614528BF4FF0FF31AA
:104FE0000633FEF77BFB049BA1B253F837202B6AF4
:104FF00002921F6A59F8046F58F8042F5346284646
:10500000CDE9006700F00EF801340028BFD007B0EA
:10501000BDE8F08F002007B0BDE8F08F0048F6E74C
:1050200040F4FFFF30B4049C039DC4E900022181D9
:10503000029A19892261D3E90002C4E905518B1C47
:1050400000EB011502F1010C05EB430363445242EE
:105050001340012961812185E061256263620AD9DB
:1050600002460123D38101338B4202F11002F9D1B0
:105070004B1E00EB03104FF40042E368C2819B0714
:1050800008D5638E05EB41055B1A013B0020AB8020
:1050900030BC70472B88002043F001032B8030BCCC
:1050A000704700BF2DE9F04F048E85B002EB030876
:1050B0000E9F00EBC4031FFA88F59F639D87B8F12C
:1050C000000F0646C06962DD08F1FF370023A646DF
:1050D000CDE90254019701F104091CE02D695BF848
:1050E00027702C403C44002540F80C4059F83340D0
:1050F000CEE90154019CA342ACBF002401249A4292
:1051000003F10103D8BF44F002049845AEF80C4007
:10511000BEF80EE01FD0F56A51F833402F68D5F87D
:1051200008A0E41B544528BF4FF0FF34EF68D5F8C2
:1051300004B01F2F4FEA0E1C88BF002700EB0E1E85
:1051400098BF24FA07F7BBF1000F01D0A245C5D2E2
:105150004FF0FF34C7E7DDE90254338D326A5B1B41
:10516000338573895188013B0B4002EB4302A6F85B
:1051700030E09480BFF35B8F0020316A738D4A88E2
:10518000013301324A80738505B0BDE8F08FA64631
:10519000E3E700BF00284AD0436A2DE9F041458E7D
:1051A0005C88AC4240D06C1C44864489BFF35B8F62
:1051B000013C254003EBC5035C68A6B209B19B68BE
:1051C0000B60A3B200EBC304A18FB0F828C0C7697D
:1051D0008C4407EB0313A0F828C0B3F80CC001F10E
:1051E000FF3E1CF0040FA4F83CE013D11CF0010FAB
:1051F00010D0023989B2DB8901F1FF3E07EB0313BE
:10520000B3F80CC088461CF0010F1FFA8EF1F2D1E2
:10521000A4F83C800021078EDF810686A06BA16385
:1052200002B11580BDE8F0810020BDE8F081704733
:105230002DE9F043BFF35B8F056A838E6C889C4237
:1052400046D04489013C1C4005EB44050133AC8841
:105250008386C369C06A03EB041806690C802101C8
:105260004468751C5F5808BF2368C5680CBFFB1AEB
:1052700007EA060306F1010E08E054F82CC0614469
:105280008F4214D0816873448B421ED21F2D8CBF75
:105290004FF0000C23FA05FC06EA03011CB1D0F81C
:1052A00008904B45E9D94FF0FF318F42EAD10168B0
:1052B0004C1C08D08068984205D3C818D8F808302C
:1052C0001360BDE8F0830020F8E74FF0FF33EEE70E
:1052D0000020BDE8F08300BF43898B4215D384468C
:1052E000406A00B5B0F802E0013B03EA0E0300EBB0
:1052F000C303C3E90112BFF35B8FDCF82420002055
:105300005388013353805DF804FB0148704700BFA8
:1053100041F4FFFF10B5BFF35B8FC36804469A07E3
:105320000AD4436A1B88DB0703D463690BB12046A8
:1053300098470023638510BD8169D0E908325B88F6
:1053400002EBC1025268013B9B1A428D9BB29A420A
:10535000EFD96369002BEAD1EBE700BF036A828EC5
:10536000598891420CD0B0F80AC0C1690CF1FF30E5
:10537000024003EB42039B8801EB031398687047DC
:1053800000207047BFF35B8F036903B11847704774
:1053900010B5044600F080F82046BDE8104000F04B
:1053A000F3B800BF30B501250C480D4C036883B03D
:1053B000591901944FF4806201600A4B0A490B4865
:1053C0000095FBF799FEA84201D103B030BD002142
:1053D000206803B0BDE8304000F05CB8FCB5116057
:1053E00068B0116090A6016084A6016091530160CD
:1053F00010B5044600F050F82046BDE8104000F01B
:105400001DB900BF30B501250C480D4C036883B0B1
:1054100059190194802201600A4B0B490B480095F1
:10542000FBF76AFEA84201D103B030BD002120681D
:1054300003B0BDE8304000F02DB800BFFCB51160EE
:105440006CB01160A4A6016094A60160F1530160E4
:10545000704700BF70B5094D094C284623680949BB
:105460009847002328461A46D4F828C00649E04742
:1054700028466368BDE87040184700BF78B01160E7
:105480003C9B0160A8A60160452F0160704700BFEA
:10549000FFF7DEBF00BE704738B5164C4FF0FF3146
:1054A0002068FBF78DFB012803D000212068FFF75F
:1054B000F1FF114B1A7802B138BD01220F4D1A705D
:1054C000FFF7E6FF2B68013B2B60002BF4D0002395
:1054D000206819461A46FBF729F90128F2D0002165
:1054E0002068FFF7D7FF2B68013B2B60002BEED124
:1054F00038BD00BFF4B51160F8B51160FCB511609E
:1055000008B500230D490E4A0E480B601370FDF7D5
:105510006FFE01214FF480700B4AFBF793F80B4BA1
:10552000186038B1FFF76EFFFFF73CFFFBF79AFEFC
:10553000002008BD0146FFF7ADFFF3E7FCB51160A1
:10554000F8B5116038A70160ACB51160F4B5116011
:10555000802330B4034D044C05600C60136030BCF4
:10556000704700BF4CB511604CB31160802330B45C
:10557000034D044C05600C60136030BC704700BFE5
:10558000ECB21160ECB01160F0B585B0066801F0C6
:10559000C5F900283DD13146304603AA00F024FF6A
:1055A000054670BB1F4F0EE032460399FAF798FD8F
:1055B000384601F0A1F90398214600F07FFF42F23E
:1055C0001070FBF7E5FF00230122194603980095B0
:1055D00000F080FE04460028E6D1134801F08CF963
:1055E000124B1A78052A04D95B6813B106201049BA
:1055F0009847039800F086FF0020FBF7ADFD05B04B
:10560000F0BD0C4801F078F90020FBF7A5FD05B0CE
:10561000F0BD094801F070F90020FBF79DFD05B0D1
:10562000F0BD00BFF0A70160A0A7016048B0116005
:10563000CCA7016074A7016048A701602DE9F0477D
:1056400000274FF00308174C174E184D23880BB353
:1056500000204FF0010C636833F810300130190A54
:1056600036F81190DBB24A5D4FEA430E0CFA03FAAA
:1056700022EA0A0208FA0EFE07FA03F313434EEA7F
:10568000090EDBB21FFA8EF226F811204B55238843
:105690008342E0D83220C7F10107FFB2FBF778FF61
:1056A000D4E700BF2C9B016020010341100003419F
:1056B000022800D0704702490248FCF74FBF00BFE4
:1056C00060A8016070B011602DE9F04F00248DB02A
:1056D0001646DDE916359DF868209DF860C0A242A7
:1056E00014BF30272027BCF1010F019780468B465D
:1056F000CDE90644CDE90844CDE90A44199F9DF857
:105700006C9000F0CF80BCF1040F00F0B68053EA3B
:10571000050141D13023012F8DF8183040F3CB80A3
:1057200001253168039402946FF0004A5C46934669
:105730000EE0B8F1000F05D08C4203D9019B08F8A8
:105740000130316801313160013FAF420FDD316816
:105750005145F9D2B9F1010FEBD84846019901F052
:1057600079F83268013F0132AF423260EFDC5A46CD
:10577000A346DDE90243002B00F0FF802AB96FF059
